{
  "contractName": "Converter",
  "abi": [
    {
      "inputs": [],
      "payable": false,
      "stateMutability": "nonpayable",
      "type": "constructor"
    },
    {
      "constant": true,
      "inputs": [
        {
          "name": "_giveAmount",
          "type": "uint256"
        },
        {
          "name": "_totalGive",
          "type": "uint256"
        },
        {
          "name": "_totalTake",
          "type": "uint256"
        }
      ],
      "name": "calculateTakeAmount",
      "outputs": [
        {
          "name": "",
          "type": "uint256"
        }
      ],
      "payable": false,
      "stateMutability": "pure",
      "type": "function"
    },
    {
      "constant": true,
      "inputs": [
        {
          "name": "_takeAmount",
          "type": "uint256"
        },
        {
          "name": "_totalGive",
          "type": "uint256"
        },
        {
          "name": "_totalTake",
          "type": "uint256"
        }
      ],
      "name": "calculateGiveAmount",
      "outputs": [
        {
          "name": "",
          "type": "uint256"
        }
      ],
      "payable": false,
      "stateMutability": "pure",
      "type": "function"
    },
    {
      "constant": true,
      "inputs": [
        {
          "name": "_amount",
          "type": "uint256"
        },
        {
          "name": "_fee",
          "type": "uint256"
        }
      ],
      "name": "calculateFee",
      "outputs": [
        {
          "name": "",
          "type": "uint256"
        }
      ],
      "payable": false,
      "stateMutability": "pure",
      "type": "function"
    }
  ],
  "bytecode": "0x608060405234801561001057600080fd5b5061019e806100206000396000f3006080604052600436106100565763ffffffff7c010000000000000000000000000000000000000000000000000000000060003504166334e73122811461005b57806369a17043146100885780639f4940c0146100a6575b600080fd5b34801561006757600080fd5b506100766004356024356100c4565b60408051918252519081900360200190f35b34801561009457600080fd5b506100766004356024356044356100f7565b3480156100b257600080fd5b50610076600435602435604435610117565b6000806100ef670de0b6b3a76400006100e3858763ffffffff61012e16565b9063ffffffff61015d16565b949350505050565b60008061010e836100e3868863ffffffff61012e16565b95945050505050565b60008061010e846100e3858863ffffffff61012e16565b600082151561013f57506000610157565b5081810281838281151561014f57fe5b041461015757fe5b92915050565b6000818381151561016a57fe5b0493925050505600a165627a7a72305820f468264a0420af422e40886360ebcc6afa1deefc57fc9173f9f01c87123d9a960029",
  "source": "pragma solidity ^0.4.22;\n\nimport \"openzeppelin-solidity/contracts/math/SafeMath.sol\";\n\ncontract Converter {\n  using SafeMath for uint;\n\n  constructor() public {\n  }\n\n  function calculateTakeAmount(uint _giveAmount, uint _totalGive, uint _totalTake) public pure returns (uint) {\n    uint takeAmount = _totalTake.mul(_giveAmount).div(_totalGive);\n    return takeAmount;\n  }\n\n  function calculateGiveAmount(uint _takeAmount, uint _totalGive, uint _totalTake) public pure returns (uint) {\n    uint giveAmount = _totalGive.mul(_takeAmount).div(_totalTake);\n    return giveAmount;\n  }\n\n  function calculateFee(uint _amount, uint _fee) public pure returns (uint) {\n    uint feeAmount = _fee.mul(_amount).div(1 ether);\n    return feeAmount;\n  }\n}\n",
  "sourcePath": "/Users/hieu/dev/dreamx-contracts/contracts/Converter.sol",
  "compiler": {
    "name": "solc",
    "version": "0.4.24+commit.e67f0147.Emscripten.clang"
  },
  "schemaVersion": "2.0.1",
  "updatedAt": "2019-07-20T19:53:03.691Z"
}