{
  "contractName": "Crowdsale",
  "abi": [
    {
      "constant": true,
      "inputs": [],
      "name": "name",
      "outputs": [
        {
          "name": "",
          "type": "string"
        }
      ],
      "payable": false,
      "stateMutability": "view",
      "type": "function"
    },
    {
      "constant": false,
      "inputs": [
        {
          "name": "_spender",
          "type": "address"
        },
        {
          "name": "_value",
          "type": "uint256"
        }
      ],
      "name": "approve",
      "outputs": [
        {
          "name": "",
          "type": "bool"
        }
      ],
      "payable": false,
      "stateMutability": "nonpayable",
      "type": "function"
    },
    {
      "constant": true,
      "inputs": [],
      "name": "totalSupply",
      "outputs": [
        {
          "name": "",
          "type": "uint256"
        }
      ],
      "payable": false,
      "stateMutability": "view",
      "type": "function"
    },
    {
      "constant": false,
      "inputs": [
        {
          "name": "_from",
          "type": "address"
        },
        {
          "name": "_to",
          "type": "address"
        },
        {
          "name": "_value",
          "type": "uint256"
        }
      ],
      "name": "transferFrom",
      "outputs": [
        {
          "name": "",
          "type": "bool"
        }
      ],
      "payable": false,
      "stateMutability": "nonpayable",
      "type": "function"
    },
    {
      "constant": true,
      "inputs": [],
      "name": "decimals",
      "outputs": [
        {
          "name": "",
          "type": "uint8"
        }
      ],
      "payable": false,
      "stateMutability": "view",
      "type": "function"
    },
    {
      "constant": true,
      "inputs": [],
      "name": "unitsOneEthCanBuy",
      "outputs": [
        {
          "name": "",
          "type": "uint256"
        }
      ],
      "payable": false,
      "stateMutability": "view",
      "type": "function"
    },
    {
      "constant": false,
      "inputs": [
        {
          "name": "_spender",
          "type": "address"
        },
        {
          "name": "_subtractedValue",
          "type": "uint256"
        }
      ],
      "name": "decreaseApproval",
      "outputs": [
        {
          "name": "",
          "type": "bool"
        }
      ],
      "payable": false,
      "stateMutability": "nonpayable",
      "type": "function"
    },
    {
      "constant": true,
      "inputs": [
        {
          "name": "_owner",
          "type": "address"
        }
      ],
      "name": "balanceOf",
      "outputs": [
        {
          "name": "",
          "type": "uint256"
        }
      ],
      "payable": false,
      "stateMutability": "view",
      "type": "function"
    },
    {
      "constant": true,
      "inputs": [],
      "name": "owner",
      "outputs": [
        {
          "name": "",
          "type": "address"
        }
      ],
      "payable": false,
      "stateMutability": "view",
      "type": "function"
    },
    {
      "constant": true,
      "inputs": [],
      "name": "totalEthInWei",
      "outputs": [
        {
          "name": "",
          "type": "uint256"
        }
      ],
      "payable": false,
      "stateMutability": "view",
      "type": "function"
    },
    {
      "constant": true,
      "inputs": [],
      "name": "symbol",
      "outputs": [
        {
          "name": "",
          "type": "string"
        }
      ],
      "payable": false,
      "stateMutability": "view",
      "type": "function"
    },
    {
      "constant": false,
      "inputs": [
        {
          "name": "_to",
          "type": "address"
        },
        {
          "name": "_value",
          "type": "uint256"
        }
      ],
      "name": "transfer",
      "outputs": [
        {
          "name": "",
          "type": "bool"
        }
      ],
      "payable": false,
      "stateMutability": "nonpayable",
      "type": "function"
    },
    {
      "constant": false,
      "inputs": [
        {
          "name": "_spender",
          "type": "address"
        },
        {
          "name": "_addedValue",
          "type": "uint256"
        }
      ],
      "name": "increaseApproval",
      "outputs": [
        {
          "name": "",
          "type": "bool"
        }
      ],
      "payable": false,
      "stateMutability": "nonpayable",
      "type": "function"
    },
    {
      "constant": true,
      "inputs": [
        {
          "name": "_owner",
          "type": "address"
        },
        {
          "name": "_spender",
          "type": "address"
        }
      ],
      "name": "allowance",
      "outputs": [
        {
          "name": "",
          "type": "uint256"
        }
      ],
      "payable": false,
      "stateMutability": "view",
      "type": "function"
    },
    {
      "inputs": [],
      "payable": false,
      "stateMutability": "nonpayable",
      "type": "constructor"
    },
    {
      "payable": true,
      "stateMutability": "payable",
      "type": "fallback"
    },
    {
      "anonymous": false,
      "inputs": [
        {
          "indexed": true,
          "name": "owner",
          "type": "address"
        },
        {
          "indexed": true,
          "name": "spender",
          "type": "address"
        },
        {
          "indexed": false,
          "name": "value",
          "type": "uint256"
        }
      ],
      "name": "Approval",
      "type": "event"
    },
    {
      "anonymous": false,
      "inputs": [
        {
          "indexed": true,
          "name": "from",
          "type": "address"
        },
        {
          "indexed": true,
          "name": "to",
          "type": "address"
        },
        {
          "indexed": false,
          "name": "value",
          "type": "uint256"
        }
      ],
      "name": "Transfer",
      "type": "event"
    },
    {
      "constant": false,
      "inputs": [
        {
          "name": "_name",
          "type": "string"
        },
        {
          "name": "_symbol",
          "type": "string"
        },
        {
          "name": "_unitsOneEthCanBuy",
          "type": "uint256"
        },
        {
          "name": "_totalSupply",
          "type": "uint256"
        }
      ],
      "name": "initialize",
      "outputs": [],
      "payable": false,
      "stateMutability": "nonpayable",
      "type": "function"
    }
  ],
  "bytecode": "0x60806040526008805460a060020a60ff021916905534801561002057600080fd5b506005805460ff1916601217905560088054600160a060020a03191633179055610c548061004f6000396000f3006080604052600436106100da5763ffffffff7c010000000000000000000000000000000000000000000000000000000060003504166306fdde038114610205578063095ea7b31461028f57806318160ddd146102c757806323b872dd146102ee578063313ce5671461031857806365f2bc2e1461034357806366188463146103585780636fe0e3951461037c57806370a082311461041e5780638da5cb5b1461043f578063933ba4131461047057806395d89b4114610485578063a9059cbb1461049a578063d73dd623146104be578063dd62ed3e146104e2575b6007805434908101909155600654600854600160a060020a031660009081526020819052604090205491029081111561011257600080fd5b600854600160a060020a031660009081526020819052604090205461013d908263ffffffff61050916565b600854600160a060020a0316600090815260208190526040808220929092553381522054610171908263ffffffff61051b16565b336000818152602081815260409182902093909355600854815185815291519293600160a060020a03909116927fddf252ad1be2c89b69c2b068fc378daa952ba7f163c4a11628f55a4df523b3ef9281900390910190a3600854604051600160a060020a03909116903480156108fc02916000818181858888f19350505050158015610201573d6000803e3d6000fd5b5050005b34801561021157600080fd5b5061021a61052e565b6040805160208082528351818301528351919283929083019185019080838360005b8381101561025457818101518382015260200161023c565b50505050905090810190601f1680156102815780820380516001836020036101000a031916815260200191505b509250505060405180910390f35b34801561029b57600080fd5b506102b3600160a060020a03600435166024356105bc565b604080519115158252519081900360200190f35b3480156102d357600080fd5b506102dc610622565b60408051918252519081900360200190f35b3480156102fa57600080fd5b506102b3600160a060020a0360043581169060243516604435610629565b34801561032457600080fd5b5061032d61079e565b6040805160ff9092168252519081900360200190f35b34801561034f57600080fd5b506102dc6107a7565b34801561036457600080fd5b506102b3600160a060020a03600435166024356107ad565b34801561038857600080fd5b506040805160206004803580820135601f810184900484028501840190955284845261041c94369492936024939284019190819084018382808284375050604080516020601f89358b018035918201839004830284018301909452808352979a99988101979196509182019450925082915084018382808284375094975050843595505050602090920135915061089c9050565b005b34801561042a57600080fd5b506102dc600160a060020a0360043516610962565b34801561044b57600080fd5b5061045461097d565b60408051600160a060020a039092168252519081900360200190f35b34801561047c57600080fd5b506102dc61098c565b34801561049157600080fd5b5061021a610992565b3480156104a657600080fd5b506102b3600160a060020a03600435166024356109ed565b3480156104ca57600080fd5b506102b3600160a060020a0360043516602435610acc565b3480156104ee57600080fd5b506102dc600160a060020a0360043581169060243516610b65565b60008282111561051557fe5b50900390565b8181018281101561052857fe5b92915050565b6003805460408051602060026001851615610100026000190190941693909304601f810184900484028201840190925281815292918301828280156105b45780601f10610589576101008083540402835291602001916105b4565b820191906000526020600020905b81548152906001019060200180831161059757829003601f168201915b505050505081565b336000818152600260209081526040808320600160a060020a038716808552908352818420869055815186815291519394909390927f8c5be1e5ebec7d5bd14f71427d1e84f3dd0314c0f7b2291e5b200ac8c7c3b925928290030190a350600192915050565b6001545b90565b600160a060020a03831660009081526020819052604081205482111561064e57600080fd5b600160a060020a038416600090815260026020908152604080832033845290915290205482111561067e57600080fd5b600160a060020a038316151561069357600080fd5b600160a060020a0384166000908152602081905260409020546106bc908363ffffffff61050916565b600160a060020a0380861660009081526020819052604080822093909355908516815220546106f1908363ffffffff61051b16565b600160a060020a03808516600090815260208181526040808320949094559187168152600282528281203382529091522054610733908363ffffffff61050916565b600160a060020a03808616600081815260026020908152604080832033845282529182902094909455805186815290519287169391927fddf252ad1be2c89b69c2b068fc378daa952ba7f163c4a11628f55a4df523b3ef929181900390910190a35060019392505050565b60055460ff1681565b60065481565b336000908152600260209081526040808320600160a060020a038616845290915281205480831061080157336000908152600260209081526040808320600160a060020a0388168452909152812055610836565b610811818463ffffffff61050916565b336000908152600260209081526040808320600160a060020a03891684529091529020555b336000818152600260209081526040808320600160a060020a0389168085529083529281902054815190815290519293927f8c5be1e5ebec7d5bd14f71427d1e84f3dd0314c0f7b2291e5b200ac8c7c3b925929181900390910190a35060019392505050565b600854600160a060020a031633146108b357600080fd5b60085474010000000000000000000000000000000000000000900460ff16156108db57600080fd5b6001819055600854600160a060020a031660009081526020818152604090912082905584516109109160039190870190610b90565b508251610924906004906020860190610b90565b505060065550506008805474ff0000000000000000000000000000000000000000191674010000000000000000000000000000000000000000179055565b600160a060020a031660009081526020819052604090205490565b600854600160a060020a031681565b60075481565b6004805460408051602060026001851615610100026000190190941693909304601f810184900484028201840190925281815292918301828280156105b45780601f10610589576101008083540402835291602001916105b4565b33600090815260208190526040812054821115610a0957600080fd5b600160a060020a0383161515610a1e57600080fd5b33600090815260208190526040902054610a3e908363ffffffff61050916565b3360009081526020819052604080822092909255600160a060020a03851681522054610a70908363ffffffff61051b16565b600160a060020a038416600081815260208181526040918290209390935580518581529051919233927fddf252ad1be2c89b69c2b068fc378daa952ba7f163c4a11628f55a4df523b3ef9281900390910190a350600192915050565b336000908152600260209081526040808320600160a060020a0386168452909152812054610b00908363ffffffff61051b16565b336000818152600260209081526040808320600160a060020a0389168085529083529281902085905580519485525191937f8c5be1e5ebec7d5bd14f71427d1e84f3dd0314c0f7b2291e5b200ac8c7c3b925929081900390910190a350600192915050565b600160a060020a03918216600090815260026020908152604080832093909416825291909152205490565b828054600181600116156101000203166002900490600052602060002090601f016020900481019282601f10610bd157805160ff1916838001178555610bfe565b82800160010185558215610bfe579182015b82811115610bfe578251825591602001919060010190610be3565b50610c0a929150610c0e565b5090565b61062691905b80821115610c0a5760008155600101610c145600a165627a7a72305820a9d3454d091acf25a02b011bf9997efef2452544f9287a8f0c5ff429d4484f260029",
  "source": "pragma solidity ^0.4.22;\n\nimport 'openzeppelin-solidity/contracts/math/SafeMath.sol';\nimport 'openzeppelin-solidity/contracts/token/ERC20/StandardToken.sol';\n\ncontract Crowdsale is StandardToken {\n  using SafeMath for uint;\n\n  string public name;\n  string public symbol;\n  uint8 public decimals;\n  uint256 public unitsOneEthCanBuy;\n  uint256 public totalEthInWei;\n  address public owner;\n  bool initialized = false;\n\n  constructor() public {\n    decimals = 18;\n    owner = msg.sender;\n  }\n\n  modifier restricted {\n\t\trequire(msg.sender == owner);\n\t\t_;\n\t}\n\n\tmodifier uninitialized {\n\t\trequire(initialized == false);\n\t\t_;\t\n\t}\n\n  function initialize(\n  \tstring _name,\n    string _symbol,\n    uint256 _unitsOneEthCanBuy,\n    uint256 _totalSupply\n  ) public restricted uninitialized {\n  \ttotalSupply_ = _totalSupply;\n    balances[owner] = _totalSupply;\n    name = _name;\n    symbol = _symbol;\n    unitsOneEthCanBuy = _unitsOneEthCanBuy;\n    initialized = true;\n  }\n\n  function() public payable {\n    totalEthInWei = totalEthInWei + msg.value;\n    uint256 amount = msg.value * unitsOneEthCanBuy;\n    require(balances[owner] >= amount);\n    balances[owner] = balances[owner].sub(amount);\n    balances[msg.sender] = balances[msg.sender].add(amount);\n    emit Transfer(owner, msg.sender, amount);\n    owner.transfer(msg.value);\n  }\n}\n",
  "sourcePath": "/Users/hieu/dev/ninjatrade-contracts/contracts/Crowdsale.sol",
  "compiler": {
    "name": "solc",
    "version": "0.4.24+commit.e67f0147.Emscripten.clang"
  },
  "schemaVersion": "2.0.1",
  "updatedAt": "2019-04-18T08:08:01.205Z"
}