{
  "contractName": "Exchange",
  "abi": [
    {
      "constant": true,
      "inputs": [
        {
          "name": "",
          "type": "bytes32"
        }
      ],
      "name": "withdrawn",
      "outputs": [
        {
          "name": "",
          "type": "bool"
        }
      ],
      "payable": false,
      "stateMutability": "view",
      "type": "function"
    },
    {
      "constant": true,
      "inputs": [],
      "name": "superOwner",
      "outputs": [
        {
          "name": "",
          "type": "address"
        }
      ],
      "payable": false,
      "stateMutability": "view",
      "type": "function"
    },
    {
      "constant": true,
      "inputs": [],
      "name": "owner",
      "outputs": [
        {
          "name": "",
          "type": "address"
        }
      ],
      "payable": false,
      "stateMutability": "view",
      "type": "function"
    },
    {
      "constant": true,
      "inputs": [
        {
          "name": "",
          "type": "address"
        },
        {
          "name": "",
          "type": "address"
        }
      ],
      "name": "balances",
      "outputs": [
        {
          "name": "",
          "type": "uint256"
        }
      ],
      "payable": false,
      "stateMutability": "view",
      "type": "function"
    },
    {
      "constant": true,
      "inputs": [],
      "name": "feeCollector",
      "outputs": [
        {
          "name": "",
          "type": "address"
        }
      ],
      "payable": false,
      "stateMutability": "view",
      "type": "function"
    },
    {
      "constant": true,
      "inputs": [],
      "name": "timelock",
      "outputs": [
        {
          "name": "",
          "type": "uint256"
        }
      ],
      "payable": false,
      "stateMutability": "view",
      "type": "function"
    },
    {
      "constant": true,
      "inputs": [
        {
          "name": "",
          "type": "bytes32"
        }
      ],
      "name": "traded",
      "outputs": [
        {
          "name": "",
          "type": "bool"
        }
      ],
      "payable": false,
      "stateMutability": "view",
      "type": "function"
    },
    {
      "constant": true,
      "inputs": [
        {
          "name": "",
          "type": "address"
        }
      ],
      "name": "lastActivity",
      "outputs": [
        {
          "name": "",
          "type": "uint256"
        }
      ],
      "payable": false,
      "stateMutability": "view",
      "type": "function"
    },
    {
      "constant": true,
      "inputs": [
        {
          "name": "",
          "type": "bytes32"
        }
      ],
      "name": "orderFills",
      "outputs": [
        {
          "name": "",
          "type": "uint256"
        }
      ],
      "payable": false,
      "stateMutability": "view",
      "type": "function"
    },
    {
      "inputs": [],
      "payable": false,
      "stateMutability": "nonpayable",
      "type": "constructor"
    },
    {
      "anonymous": false,
      "inputs": [
        {
          "indexed": false,
          "name": "token",
          "type": "address"
        },
        {
          "indexed": false,
          "name": "account",
          "type": "address"
        },
        {
          "indexed": false,
          "name": "amount",
          "type": "uint256"
        },
        {
          "indexed": false,
          "name": "balance",
          "type": "uint256"
        }
      ],
      "name": "Deposit",
      "type": "event"
    },
    {
      "anonymous": false,
      "inputs": [
        {
          "indexed": false,
          "name": "token",
          "type": "address"
        },
        {
          "indexed": false,
          "name": "account",
          "type": "address"
        },
        {
          "indexed": false,
          "name": "amount",
          "type": "uint256"
        },
        {
          "indexed": false,
          "name": "balance",
          "type": "uint256"
        }
      ],
      "name": "Withdraw",
      "type": "event"
    },
    {
      "anonymous": false,
      "inputs": [
        {
          "indexed": false,
          "name": "tokenBuy",
          "type": "address"
        },
        {
          "indexed": false,
          "name": "amountBuy",
          "type": "uint256"
        },
        {
          "indexed": false,
          "name": "tokenSell",
          "type": "address"
        },
        {
          "indexed": false,
          "name": "amountSell",
          "type": "uint256"
        },
        {
          "indexed": false,
          "name": "get",
          "type": "address"
        },
        {
          "indexed": false,
          "name": "give",
          "type": "address"
        }
      ],
      "name": "Trade",
      "type": "event"
    },
    {
      "constant": false,
      "inputs": [
        {
          "name": "_feeCollector",
          "type": "address"
        }
      ],
      "name": "changeFeeCollector",
      "outputs": [],
      "payable": false,
      "stateMutability": "nonpayable",
      "type": "function"
    },
    {
      "constant": false,
      "inputs": [
        {
          "name": "_owner",
          "type": "address"
        }
      ],
      "name": "changeOwner",
      "outputs": [],
      "payable": false,
      "stateMutability": "nonpayable",
      "type": "function"
    },
    {
      "constant": false,
      "inputs": [
        {
          "name": "_superOwner",
          "type": "address"
        }
      ],
      "name": "changeSuperOwner",
      "outputs": [],
      "payable": false,
      "stateMutability": "nonpayable",
      "type": "function"
    },
    {
      "constant": false,
      "inputs": [
        {
          "name": "_duration",
          "type": "uint256"
        }
      ],
      "name": "setTimelock",
      "outputs": [],
      "payable": false,
      "stateMutability": "nonpayable",
      "type": "function"
    },
    {
      "constant": false,
      "inputs": [
        {
          "name": "_token",
          "type": "address"
        },
        {
          "name": "_amount",
          "type": "uint256"
        }
      ],
      "name": "deposit",
      "outputs": [],
      "payable": true,
      "stateMutability": "payable",
      "type": "function"
    },
    {
      "constant": false,
      "inputs": [
        {
          "name": "_token",
          "type": "address"
        },
        {
          "name": "_amount",
          "type": "uint256"
        },
        {
          "name": "_account",
          "type": "address"
        },
        {
          "name": "_nonce",
          "type": "uint256"
        },
        {
          "name": "v",
          "type": "uint8"
        },
        {
          "name": "r",
          "type": "bytes32"
        },
        {
          "name": "s",
          "type": "bytes32"
        },
        {
          "name": "_fee",
          "type": "uint256"
        }
      ],
      "name": "withdraw",
      "outputs": [],
      "payable": false,
      "stateMutability": "nonpayable",
      "type": "function"
    },
    {
      "constant": false,
      "inputs": [
        {
          "name": "_token",
          "type": "address"
        },
        {
          "name": "_amount",
          "type": "uint256"
        }
      ],
      "name": "withdrawEmergency",
      "outputs": [],
      "payable": false,
      "stateMutability": "nonpayable",
      "type": "function"
    },
    {
      "constant": false,
      "inputs": [
        {
          "name": "_addresses",
          "type": "address[]"
        },
        {
          "name": "_uints",
          "type": "uint256[]"
        },
        {
          "name": "v",
          "type": "uint8[]"
        },
        {
          "name": "rs",
          "type": "bytes32[]"
        }
      ],
      "name": "trade",
      "outputs": [],
      "payable": false,
      "stateMutability": "nonpayable",
      "type": "function"
    },
    {
      "constant": true,
      "inputs": [
        {
          "name": "_hash",
          "type": "bytes32"
        },
        {
          "name": "v",
          "type": "uint8"
        },
        {
          "name": "r",
          "type": "bytes32"
        },
        {
          "name": "s",
          "type": "bytes32"
        }
      ],
      "name": "recover",
      "outputs": [
        {
          "name": "",
          "type": "address"
        }
      ],
      "payable": false,
      "stateMutability": "pure",
      "type": "function"
    }
  ],
  "bytecode": "0x608060405234801561001057600080fd5b506000805433600160a060020a0319918216811783556002805483168217905560018054909216179055620186a0600355611ce890819061005190396000f3006080604052600436106100fb5763ffffffff7c01000000000000000000000000000000000000000000000000000000006000350416631044c66b81146101005780631e891c0a146101235780633823d66c1461013b57806347e7ef24146101675780636c3d7e1d1461017e5780636c8ae8dc146101a257806387dcd2b6146101df5780638da5cb5b146102105780639245290d1461022557806397128d6e14610246578063a6f9dae114610346578063c23f001f14610367578063c2bf17b0146103a0578063c415b95c146103c4578063d33219b4146103d9578063d5813323146103ee578063f07e96b314610406578063f7213db614610427575b600080fd5b34801561010c57600080fd5b50610121600160a060020a036004351661043f565b005b34801561012f57600080fd5b50610121600435610485565b34801561014757600080fd5b506101536004356104b1565b604080519115158252519081900360200190f35b610121600160a060020a03600435166024356104c6565b34801561018a57600080fd5b50610121600160a060020a03600435166024356106d4565b3480156101ae57600080fd5b50610121600160a060020a03600435811690602435906044351660643560ff6084351660a43560c43560e4356108d7565b3480156101eb57600080fd5b506101f4610c9a565b60408051600160a060020a039092168252519081900360200190f35b34801561021c57600080fd5b506101f4610ca9565b34801561023157600080fd5b50610121600160a060020a0360043516610cb8565b34801561025257600080fd5b506040805160206004803580820135838102808601850190965280855261012195369593946024949385019291829185019084908082843750506040805187358901803560208181028481018201909552818452989b9a998901989297509082019550935083925085019084908082843750506040805187358901803560208181028481018201909552818452989b9a998901989297509082019550935083925085019084908082843750506040805187358901803560208181028481018201909552818452989b9a998901989297509082019550935083925085019084908082843750949750610cfe9650505050505050565b34801561035257600080fd5b50610121600160a060020a0360043516611a47565b34801561037357600080fd5b5061038e600160a060020a0360043581169060243516611a8d565b60408051918252519081900360200190f35b3480156103ac57600080fd5b506101f460043560ff60243516604435606435611aaa565b3480156103d057600080fd5b506101f4611c0b565b3480156103e557600080fd5b5061038e611c1a565b3480156103fa57600080fd5b50610153600435611c20565b34801561041257600080fd5b5061038e600160a060020a0360043516611c35565b34801561043357600080fd5b5061038e600435611c47565b600154600160a060020a0316331461045657600080fd5b6001805473ffffffffffffffffffffffffffffffffffffffff1916600160a060020a0392909216919091179055565b600154600160a060020a0316331461049c57600080fd5b620f42408111156104ac57600080fd5b600355565b60076020526000908152604090205460ff1681565b336000908152600460205260409020439055600160a060020a0382161515610567573481146104f457600080fd5b3360009081527f05b8ccbb9d4d8fb16ea74ce3c29a41f1b461fbdaff4714a0d9a8eb05499746bc6020526040902054610533903463ffffffff611c5916565b3360009081527f05b8ccbb9d4d8fb16ea74ce3c29a41f1b461fbdaff4714a0d9a8eb05499746bc6020526040902055610667565b341561057257600080fd5b600160a060020a03821660009081526005602090815260408083203384529091529020546105a6908263ffffffff611c5916565b600160a060020a0383166000818152600560209081526040808320338085529083528184209590955580517f23b872dd0000000000000000000000000000000000000000000000000000000081526004810195909552306024860152604485018690525192936323b872dd9360648083019491928390030190829087803b15801561063057600080fd5b505af1158015610644573d6000803e3d6000fd5b505050506040513d602081101561065a57600080fd5b5051151561066757600080fd5b600160a060020a03821660008181526005602090815260408083203380855290835292819020548151948552918401929092528282018490526060830152517fdcbc1c05240f31ff3ad067ef1ee35ce4997762752e3a095284754544f4c709d79181900360800190a15050565b600354336000908152600460205260409020546106f890439063ffffffff611c6c16565b1161070257600080fd5b336000818152600460209081526040808320439055600160a060020a038616835260058252808320938352929052205481111561073e57600080fd5b600160a060020a0382166000908152600560209081526040808320338452909152902054610772908263ffffffff611c6c16565b600160a060020a038316600081815260056020908152604080832033845290915290209190915515156107cb57604051339082156108fc029083906000818181858888f1935050505015156107c657600080fd5b61086a565b604080517fa9059cbb000000000000000000000000000000000000000000000000000000008152336004820152602481018390529051600160a060020a0384169163a9059cbb9160448083019260209291908290030181600087803b15801561083357600080fd5b505af1158015610847573d6000803e3d6000fd5b505050506040513d602081101561085d57600080fd5b5051151561086a57600080fd5b600160a060020a03821660008181526005602090815260408083203380855290835292819020548151948552918401929092528282018490526060830152517ff341246adaac6f497bc2a656f546ab9e182111d630394f0c57c710a59a2cb5679181900360800190a15050565b60008054600160a060020a031633146108ef57600080fd5b3360009081526004602090815260409182902043905581516c0100000000000000000000000030810282840152600160a060020a038d811682026034840152604883018d90528b16026068820152607c8082018a905283518083039091018152609c9091019283905280519092918291908401908083835b602083106109865780518252601f199092019160209182019101610967565b51815160209384036101000a6000190180199092169116179052604080519290940182900390912060008181526007909252929020549194505060ff161591506109d1905057600080fd5b6000818152600760205260409020805460ff19166001179055336109f782878787611aaa565b600160a060020a031614610a0a57600080fd5b600160a060020a0389166000908152600560209081526040808320338452909152902054881115610a3a57600080fd5b600160a060020a0389166000908152600560209081526040808320338452909152902054610a6e908963ffffffff611c6c16565b600160a060020a038a16600090815260056020908152604080832033845290915290205566b1a2bc2ec50000821115610aac5766b1a2bc2ec5000091505b610ad4670de0b6b3a7640000610ac8848b63ffffffff611c7e16565b9063ffffffff611ca716565b600160a060020a03808b16600090815260056020908152604080832060025490941683529290522054909250610b10908363ffffffff611c5916565b600160a060020a03808b16600090815260056020908152604080832060025490941683529290522055610b49888363ffffffff611c6c16565b9750600160a060020a0389161515610b8757604051339089156108fc02908a906000818181858888f193505050501515610b8257600080fd5b610c26565b604080517fa9059cbb000000000000000000000000000000000000000000000000000000008152336004820152602481018a90529051600160a060020a038b169163a9059cbb9160448083019260209291908290030181600087803b158015610bef57600080fd5b505af1158015610c03573d6000803e3d6000fd5b505050506040513d6020811015610c1957600080fd5b50511515610c2657600080fd5b600160a060020a03891660008181526005602090815260408083203380855290835292819020548151948552918401929092528282018b90526060830152517ff341246adaac6f497bc2a656f546ab9e182111d630394f0c57c710a59a2cb5679181900360800190a1505050505050505050565b600154600160a060020a031681565b600054600160a060020a031681565b600154600160a060020a03163314610ccf57600080fd5b6002805473ffffffffffffffffffffffffffffffffffffffff1916600160a060020a0392909216919091179055565b60008054819081908190600160a060020a03163314610d1c57600080fd5b43600460008a6000815181101515610d3057fe5b90602001906020020151600160a060020a0316600160a060020a031681526020019081526020016000208190555043600460008a6001815181101515610d7257fe5b90602001906020020151600160a060020a0316600160a060020a031681526020019081526020016000208190555030886000815181101515610db057fe5b90602001906020020151896002815181101515610dc957fe5b90602001906020020151896000815181101515610de257fe5b906020019060200201518b6003815181101515610dfb57fe5b906020019060200201518b6001815181101515610e1457fe5b906020019060200201518c6003815181101515610e2d57fe5b906020019060200201518d6007815181101515610e4657fe5b6020908102909101810151604080516c01000000000000000000000000600160a060020a039b8c16810282860152998b168a026034820152978a1689026048890152605c88019690965293909716909502607c850152609084015260b083019390935260d0808301939093528051808303909301835260f09091019081905281519192909182918401908083835b60208310610ef35780518252601f199092019160209182019101610ed4565b6001836020036101000a03801982511681845116808217855250505050505090500191505060405180910390209350876000815181101515610f3157fe5b90602001906020020151600160a060020a0316610f9885886000815181101515610f5757fe5b90602001906020020151886000815181101515610f7057fe5b90602001906020020151896001815181101515610f8957fe5b90602001906020020151611aaa565b600160a060020a031614610fab57600080fd5b3084896001815181101515610fbc57fe5b90602001906020020151896002815181101515610fd557fe5b906020019060200201518a6004815181101515610fee57fe5b906020019060200201516040516020018086600160a060020a0316600160a060020a03166c01000000000000000000000000028152601401856000191660001916815260200184600160a060020a0316600160a060020a03166c01000000000000000000000000028152601401838152602001828152602001955050505050506040516020818303038152906040526040518082805190602001908083835b602083106110ac5780518252601f19909201916020918201910161108d565b6001836020036101000a038019825116818451168082178552505050505050905001915050604051809103902092508760018151811015156110ea57fe5b90602001906020020151600160a060020a03166111428488600181518110151561111057fe5b9060200190602002015188600281518110151561112957fe5b90602001906020020151896003815181101515610f8957fe5b600160a060020a03161461115557600080fd5b60008381526008602052604090205460ff161561117157600080fd5b6000838152600860205260409020805460ff1916600117905586516611c37937e0800090889060059081106111a257fe5b9060200190602002015111156111d4576611c37937e080008760058151811015156111c957fe5b602090810290910101525b6611c37937e080008760068151811015156111eb57fe5b90602001906020020151111561121d576611c37937e0800087600681518110151561121257fe5b602090810290910101525b86600281518110151561122c57fe5b90602001906020020151600560008a600281518110151561124957fe5b90602001906020020151600160a060020a0316600160a060020a0316815260200190815260200160002060008a600081518110151561128457fe5b6020908102909101810151600160a060020a031682528101919091526040016000205410156112b257600080fd5b61131b8760028151811015156112c457fe5b9060200190602002015161130f8960008151811015156112e057fe5b906020019060200201518a60018151811015156112f957fe5b602090810290910101519063ffffffff611ca716565b9063ffffffff611c7e16565b600560008a600381518110151561132e57fe5b90602001906020020151600160a060020a0316600160a060020a0316815260200190815260200160002060008a600181518110151561136957fe5b6020908102909101810151600160a060020a0316825281019190915260400160002054101561139757600080fd5b8660008151811015156113a657fe5b906020019060200201516113e98860028151811015156113c257fe5b6020908102909101810151600088815260069092526040909120549063ffffffff611c5916565b11156113f457600080fd5b611441670de0b6b3a7640000610ac889600281518110151561141257fe5b906020019060200201518a600681518110151561142b57fe5b602090810290910101519063ffffffff611c7e16565b91506114dc87600281518110151561145557fe5b90602001906020020151600560008b600281518110151561147257fe5b90602001906020020151600160a060020a0316600160a060020a0316815260200190815260200160002060008b60008151811015156114ad57fe5b6020908102909101810151600160a060020a03168252810191909152604001600020549063ffffffff611c6c16565b600560008a60028151811015156114ef57fe5b90602001906020020151600160a060020a0316600160a060020a0316815260200190815260200160002060008a600081518110151561152a57fe5b90602001906020020151600160a060020a0316600160a060020a03168152602001908152602001600020819055506116016115848389600281518110151561156e57fe5b602090810290910101519063ffffffff611c6c16565b600560008b600281518110151561159757fe5b90602001906020020151600160a060020a0316600160a060020a0316815260200190815260200160002060008b60018151811015156115d257fe5b6020908102909101810151600160a060020a03168252810191909152604001600020549063ffffffff611c5916565b600560008a600281518110151561161457fe5b90602001906020020151600160a060020a0316600160a060020a0316815260200190815260200160002060008a600181518110151561164f57fe5b90602001906020020151600160a060020a0316600160a060020a03168152602001908152602001600020819055506116d782600560008b600281518110151561169457fe5b6020908102909101810151600160a060020a039081168352828201939093526040918201600090812060025490941681529290529020549063ffffffff611c5916565b600560008a60028151811015156116ea57fe5b6020908102909101810151600160a060020a03908116835282820193909352604091820160009081206002549094168152929052812091909155875161178b91670de0b6b3a764000091610ac89161177c918c9190811061174757fe5b90602001906020020151610ac88c600281518110151561176357fe5b906020019060200201518d600181518110151561142b57fe5b8a600581518110151561142b57fe5b90506118006117b2826117a68a600081518110151561174757fe5b9063ffffffff611c6c16565b600560008b60038151811015156117c557fe5b90602001906020020151600160a060020a0316600160a060020a0316815260200190815260200160002060008b60008151811015156115d257fe5b600560008a600381518110151561181357fe5b90602001906020020151600160a060020a0316600160a060020a0316815260200190815260200160002060008a600081518110151561184e57fe5b90602001906020020151600160a060020a0316600160a060020a03168152602001908152602001600020819055506119146118c688600081518110151561189157fe5b90602001906020020151610ac88a60028151811015156118ad57fe5b906020019060200201518b600181518110151561142b57fe5b600560008b60038151811015156118d957fe5b90602001906020020151600160a060020a0316600160a060020a0316815260200190815260200160002060008b60018151811015156114ad57fe5b600560008a600381518110151561192757fe5b90602001906020020151600160a060020a0316600160a060020a0316815260200190815260200160002060008a600181518110151561196257fe5b90602001906020020151600160a060020a0316600160a060020a03168152602001908152602001600020819055506119a781600560008b600381518110151561169457fe5b600560008a60038151811015156119ba57fe5b6020908102909101810151600160a060020a039081168352828201939093526040918201600090812060028054909516825290915220919091558751611a2b9189918110611a0457fe5b6020908102909101810151600087815260069092526040909120549063ffffffff611c5916565b6000948552600660205260409094209390935550505050505050565b600154600160a060020a03163314611a5e57600080fd5b6000805473ffffffffffffffffffffffffffffffffffffffff1916600160a060020a0392909216919091179055565b600560209081526000928352604080842090915290825290205481565b604080518082018252601c8082527f19457468657265756d205369676e6564204d6573736167653a0a33320000000060208084019182529351600094859385938b939092019182918083835b60208310611b155780518252601f199092019160209182019101611af6565b51815160209384036101000a600019018019909216911617905292019384525060408051808503815293820190819052835193945092839250908401908083835b60208310611b755780518252601f199092019160209182019101611b56565b51815160209384036101000a600019018019909216911617905260408051929094018290038220600080845283830180875282905260ff8e1684870152606084018d9052608084018c905294519097506001965060a080840196509194601f19820194509281900390910191865af1158015611bf5573d6000803e3d6000fd5b5050604051601f19015198975050505050505050565b600254600160a060020a031681565b60035481565b60086020526000908152604090205460ff1681565b60046020526000908152604090205481565b60066020526000908152604090205481565b81810182811015611c6657fe5b92915050565b600082821115611c7857fe5b50900390565b6000821515611c8f57506000611c66565b50818102818382811515611c9f57fe5b0414611c6657fe5b60008183811515611cb457fe5b0493925050505600a165627a7a72305820f367b581d100d1ae3dfbc4e16552ed4d06fcbfcac2bc604b50757a2a72adb12b0029",
  "source": "pragma solidity ^0.4.22;\n\nimport 'openzeppelin-solidity/contracts/math/SafeMath.sol';\nimport 'openzeppelin-solidity/contracts/token/ERC20/StandardToken.sol';\n\ncontract Exchange {\n\tusing SafeMath for uint;\n\n  address public owner;\n  address public superOwner;\n  address public feeCollector;\n\tuint public timelock;\n\n\tmapping (address => uint) public lastActivity;\n  mapping (address => mapping (address => uint)) public balances;\n  mapping (bytes32 => uint) public orderFills;\n  mapping (bytes32 => bool) public withdrawn;\n  mapping (bytes32 => bool) public traded;\n\n  event Deposit(address token, address account, uint amount, uint balance);\n\tevent Withdraw(address token, address account, uint amount, uint balance);\n\tevent Trade(address tokenBuy, uint amountBuy, address tokenSell, uint amountSell, address get, address give);\n\n\tmodifier ownerOnly {\n\t\trequire(msg.sender == owner);\n\t\t_;\n\t}\n\n\tmodifier superOwnerOnly {\n\t\trequire(msg.sender == superOwner);\n\t\t_;\n\t}\n\n\tconstructor() public {\n\t\towner = msg.sender;\n\t\tfeeCollector = msg.sender;\n\t\tsuperOwner = msg.sender;\n  \ttimelock = 100000;\n\t}\n\n\tfunction changeFeeCollector(address _feeCollector) public superOwnerOnly {\n\t\tfeeCollector = _feeCollector;\n\t}\n\n\tfunction changeOwner(address _owner) public superOwnerOnly {\n\t\towner = _owner;\n\t}\n\n\tfunction changeSuperOwner(address _superOwner) public superOwnerOnly {\n\t\tsuperOwner = _superOwner;\n\t}\n\n\tfunction setTimelock(uint _duration) public superOwnerOnly {\n\t\trequire(_duration <= 1000000);\n\t\ttimelock = _duration;\n\t}\n\n\tfunction deposit(address _token, uint _amount) public payable {\n\t\tlastActivity[msg.sender] = block.number;\n\t\tif (_token == 0) {\n\t\trequire(msg.value == _amount);\n\t\tbalances[0][msg.sender] = balances[0][msg.sender].add(msg.value);\n    } else {\n\t\trequire(msg.value == 0);\n\t\tbalances[_token][msg.sender] = balances[_token][msg.sender].add(_amount);\n\t\trequire(StandardToken(_token).transferFrom(msg.sender, this, _amount));\n    }\n    emit Deposit(_token, msg.sender, _amount, balances[_token][msg.sender]);\n\t}\n\n\tfunction withdraw(address _token, uint _amount, address _account, uint _nonce, uint8 v, bytes32 r, bytes32 s, uint _fee) public ownerOnly {\n\t\tlastActivity[msg.sender] = block.number;\n\t\tbytes32 hash = keccak256(abi.encodePacked(this, _token, _amount, _account, _nonce));\n\t\trequire(!withdrawn[hash]);\n\t\twithdrawn[hash] = true;\n\t\trequire(recover(hash, v, r, s) == msg.sender);\n\t\trequire(balances[_token][msg.sender] >= _amount);\n    balances[_token][msg.sender] = balances[_token][msg.sender].sub(_amount);\n    if (_fee > 50 finney) _fee = 50 finney;\n    _fee = (_fee.mul(_amount)).div(1 ether);\n    balances[_token][feeCollector] = balances[_token][feeCollector].add(_fee);\n    _amount = _amount.sub(_fee);\n    if (_token == 0) {\n      require(msg.sender.send(_amount));\n    } else {\n      require(StandardToken(_token).transfer(msg.sender, _amount));\n    }\n    emit Withdraw(_token, msg.sender, _amount, balances[_token][msg.sender]);\n\t}\n\n\tfunction withdrawEmergency(address _token, uint _amount) public {\n\t\trequire(block.number.sub(lastActivity[msg.sender]) > timelock);\n\t\tlastActivity[msg.sender] = block.number;\n\t\trequire(balances[_token][msg.sender] >= _amount);\n    balances[_token][msg.sender] = balances[_token][msg.sender].sub(_amount);\n    if (_token == 0) {\n      require(msg.sender.send(_amount));\n    } else {\n      require(StandardToken(_token).transfer(msg.sender, _amount));\n    }\n    emit Withdraw(_token, msg.sender, _amount, balances[_token][msg.sender]);\n\t}\n\n\tfunction trade(address[] _addresses, uint[] _uints, uint8[] v, bytes32[] rs) public ownerOnly {\n\t\t/*\n\t\t\t_addresses[0] == maker\n\t\t\t_addresses[1] == taker\n\t\t\t_addresses[2] == giveToken\n\t\t\t_addresses[3] == takeToken\n\t\t\t_uints[0] == giveAmount\n\t\t\t_uints[1] == takeAmount\n\t\t\t_uints[2] == amount\n\t\t\t_uints[3] == makerNonce\n\t\t\t_uints[4] == takerNonce\n\t\t\t_uints[5] == makerFee\n\t\t\t_uints[6] == takerFee\n\t\t\t_uints[7] == expiry\n\t\t\tv[0] == makerV\n\t\t\tv[1] == takerV\n\t\t\trs[0]..[1] == makerR, makerS\n\t\t\trs[2]..[3] == takerR, takerS\n\t\t*/\n\t\tlastActivity[_addresses[0]] = block.number;\n\t\tlastActivity[_addresses[1]] = block.number;\n\t\tbytes32 orderHash = keccak256(abi.encodePacked(this, _addresses[0], _addresses[2], _uints[0], _addresses[3], _uints[1], _uints[3], _uints[7]));\n\t\trequire(recover(orderHash, v[0], rs[0], rs[1]) == _addresses[0]);\n\t\tbytes32 tradeHash = keccak256(abi.encodePacked(this, orderHash, _addresses[1], _uints[2], _uints[4]));\n\t\trequire(recover(tradeHash, v[1], rs[2], rs[3]) == _addresses[1]);\n\t\trequire(!traded[tradeHash]);\n\t\ttraded[tradeHash] = true;\n\t\tif (_uints[5] > 5 finney) _uints[5] = 5 finney;\n\t\tif (_uints[6] > 5 finney) _uints[6] = 5 finney;\n\t\trequire(balances[_addresses[2]][_addresses[0]] >= _uints[2]);\n\t\trequire(balances[_addresses[3]][_addresses[1]] >= (_uints[1].div(_uints[0])).mul(_uints[2]));\n\t\trequire(orderFills[orderHash].add(_uints[2]) <= _uints[0]);\n\t\tuint takerFee = (_uints[6].mul(_uints[2])).div(1 ether);\n\t\tbalances[_addresses[2]][_addresses[0]] = balances[_addresses[2]][_addresses[0]].sub(_uints[2]);\n\t\tbalances[_addresses[2]][_addresses[1]] = balances[_addresses[2]][_addresses[1]].add((_uints[2]).sub(takerFee));\n\t\tbalances[_addresses[2]][feeCollector] = balances[_addresses[2]][feeCollector].add(takerFee);\n\t\tuint makerFee = (_uints[5].mul((_uints[1].mul(_uints[2])).div(_uints[0]))).div(1 ether);\n\t\tbalances[_addresses[3]][_addresses[0]] = balances[_addresses[3]][_addresses[0]].add(((_uints[1].mul(_uints[2])).div(_uints[0])).sub(makerFee));\n\t\tbalances[_addresses[3]][_addresses[1]] = balances[_addresses[3]][_addresses[1]].sub((_uints[1].mul(_uints[2])).div(_uints[0]));\n\t\tbalances[_addresses[3]][feeCollector] = balances[_addresses[3]][feeCollector].add(makerFee);\n\t\torderFills[orderHash] = orderFills[orderHash].add(_uints[2]);\n\t}\n\n\tfunction recover(bytes32 _hash, uint8 v, bytes32 r, bytes32 s) public pure returns (address) {\n    bytes memory prefix = \"\\x19Ethereum Signed Message:\\n32\";\n    bytes32 hash = keccak256(abi.encodePacked(prefix, _hash));\n    return ecrecover(hash, v, r, s);\n\t}\n}\n\n",
  "sourcePath": "/Users/hieu/dev/odin-contracts/contracts/Exchange.sol",
  "compiler": {
    "name": "solc",
    "version": "0.4.24+commit.e67f0147.Emscripten.clang"
  },
  "schemaVersion": "2.0.1",
  "updatedAt": "2018-09-18T07:14:54.161Z"
}