{
  "contractName": "Exchange",
  "abi": [
    {
      "constant": true,
      "inputs": [],
      "name": "negativeFees",
      "outputs": [
        {
          "name": "",
          "type": "bool"
        }
      ],
      "payable": false,
      "stateMutability": "view",
      "type": "function"
    },
    {
      "constant": true,
      "inputs": [
        {
          "name": "",
          "type": "bytes32"
        }
      ],
      "name": "cancelled",
      "outputs": [
        {
          "name": "",
          "type": "bool"
        }
      ],
      "payable": false,
      "stateMutability": "view",
      "type": "function"
    },
    {
      "constant": true,
      "inputs": [],
      "name": "accountEjectionTimelock",
      "outputs": [
        {
          "name": "",
          "type": "uint256"
        }
      ],
      "payable": false,
      "stateMutability": "view",
      "type": "function"
    },
    {
      "constant": true,
      "inputs": [
        {
          "name": "",
          "type": "address"
        }
      ],
      "name": "cancelledOrders",
      "outputs": [
        {
          "name": "",
          "type": "uint256"
        }
      ],
      "payable": false,
      "stateMutability": "view",
      "type": "function"
    },
    {
      "constant": true,
      "inputs": [
        {
          "name": "",
          "type": "address"
        }
      ],
      "name": "accountEjectedAt",
      "outputs": [
        {
          "name": "",
          "type": "uint256"
        }
      ],
      "payable": false,
      "stateMutability": "view",
      "type": "function"
    },
    {
      "constant": true,
      "inputs": [],
      "name": "owner",
      "outputs": [
        {
          "name": "",
          "type": "address"
        }
      ],
      "payable": false,
      "stateMutability": "view",
      "type": "function"
    },
    {
      "constant": true,
      "inputs": [
        {
          "name": "",
          "type": "address"
        },
        {
          "name": "",
          "type": "address"
        }
      ],
      "name": "balances",
      "outputs": [
        {
          "name": "",
          "type": "uint256"
        }
      ],
      "payable": false,
      "stateMutability": "view",
      "type": "function"
    },
    {
      "constant": true,
      "inputs": [],
      "name": "feeCollector",
      "outputs": [
        {
          "name": "",
          "type": "address"
        }
      ],
      "payable": false,
      "stateMutability": "view",
      "type": "function"
    },
    {
      "constant": true,
      "inputs": [
        {
          "name": "",
          "type": "bytes32"
        }
      ],
      "name": "traded",
      "outputs": [
        {
          "name": "",
          "type": "bool"
        }
      ],
      "payable": false,
      "stateMutability": "view",
      "type": "function"
    },
    {
      "constant": true,
      "inputs": [],
      "name": "inactive",
      "outputs": [
        {
          "name": "",
          "type": "bool"
        }
      ],
      "payable": false,
      "stateMutability": "view",
      "type": "function"
    },
    {
      "constant": true,
      "inputs": [
        {
          "name": "",
          "type": "bytes32"
        }
      ],
      "name": "orderFills",
      "outputs": [
        {
          "name": "",
          "type": "uint256"
        }
      ],
      "payable": false,
      "stateMutability": "view",
      "type": "function"
    },
    {
      "constant": true,
      "inputs": [],
      "name": "server",
      "outputs": [
        {
          "name": "",
          "type": "address"
        }
      ],
      "payable": false,
      "stateMutability": "view",
      "type": "function"
    },
    {
      "inputs": [],
      "payable": false,
      "stateMutability": "nonpayable",
      "type": "constructor"
    },
    {
      "anonymous": false,
      "inputs": [
        {
          "indexed": false,
          "name": "token",
          "type": "address"
        },
        {
          "indexed": false,
          "name": "account",
          "type": "address"
        },
        {
          "indexed": false,
          "name": "amount",
          "type": "uint256"
        },
        {
          "indexed": false,
          "name": "balance",
          "type": "uint256"
        }
      ],
      "name": "Deposit",
      "type": "event"
    },
    {
      "anonymous": false,
      "inputs": [
        {
          "indexed": false,
          "name": "account",
          "type": "address"
        }
      ],
      "name": "Ejection",
      "type": "event"
    },
    {
      "constant": false,
      "inputs": [
        {
          "name": "value",
          "type": "uint256"
        }
      ],
      "name": "setAccountEjectionTimelock",
      "outputs": [],
      "payable": false,
      "stateMutability": "nonpayable",
      "type": "function"
    },
    {
      "constant": false,
      "inputs": [
        {
          "name": "_status",
          "type": "bool"
        }
      ],
      "name": "setNegativeFees",
      "outputs": [],
      "payable": false,
      "stateMutability": "nonpayable",
      "type": "function"
    },
    {
      "constant": false,
      "inputs": [],
      "name": "deactivate",
      "outputs": [],
      "payable": false,
      "stateMutability": "nonpayable",
      "type": "function"
    },
    {
      "constant": false,
      "inputs": [
        {
          "name": "_feeCollector",
          "type": "address"
        }
      ],
      "name": "changeFeeCollector",
      "outputs": [],
      "payable": false,
      "stateMutability": "nonpayable",
      "type": "function"
    },
    {
      "constant": false,
      "inputs": [
        {
          "name": "_server",
          "type": "address"
        }
      ],
      "name": "changeServer",
      "outputs": [],
      "payable": false,
      "stateMutability": "nonpayable",
      "type": "function"
    },
    {
      "constant": false,
      "inputs": [
        {
          "name": "_owner",
          "type": "address"
        }
      ],
      "name": "changeOwner",
      "outputs": [],
      "payable": false,
      "stateMutability": "nonpayable",
      "type": "function"
    },
    {
      "constant": false,
      "inputs": [],
      "name": "deposit",
      "outputs": [],
      "payable": true,
      "stateMutability": "payable",
      "type": "function"
    },
    {
      "constant": false,
      "inputs": [
        {
          "name": "_token",
          "type": "address"
        },
        {
          "name": "_amount",
          "type": "uint256"
        }
      ],
      "name": "depositToken",
      "outputs": [],
      "payable": false,
      "stateMutability": "nonpayable",
      "type": "function"
    },
    {
      "constant": false,
      "inputs": [
        {
          "name": "_token",
          "type": "address"
        },
        {
          "name": "_amount",
          "type": "uint256"
        },
        {
          "name": "_account",
          "type": "address"
        },
        {
          "name": "_fee",
          "type": "uint256"
        }
      ],
      "name": "withdraw",
      "outputs": [],
      "payable": false,
      "stateMutability": "nonpayable",
      "type": "function"
    },
    {
      "constant": false,
      "inputs": [],
      "name": "eject",
      "outputs": [],
      "payable": false,
      "stateMutability": "nonpayable",
      "type": "function"
    },
    {
      "constant": false,
      "inputs": [
        {
          "name": "_token",
          "type": "address"
        },
        {
          "name": "_amount",
          "type": "uint256"
        }
      ],
      "name": "directWithdraw",
      "outputs": [],
      "payable": false,
      "stateMutability": "nonpayable",
      "type": "function"
    },
    {
      "constant": false,
      "inputs": [
        {
          "name": "_addresses",
          "type": "address[]"
        },
        {
          "name": "_uints",
          "type": "uint256[]"
        },
        {
          "name": "v",
          "type": "uint8[]"
        },
        {
          "name": "rs",
          "type": "bytes32[]"
        }
      ],
      "name": "trade",
      "outputs": [],
      "payable": false,
      "stateMutability": "nonpayable",
      "type": "function"
    },
    {
      "constant": false,
      "inputs": [
        {
          "name": "_account",
          "type": "address"
        },
        {
          "name": "_nonce",
          "type": "uint256"
        }
      ],
      "name": "bulkCancelOrders",
      "outputs": [],
      "payable": false,
      "stateMutability": "nonpayable",
      "type": "function"
    },
    {
      "constant": false,
      "inputs": [
        {
          "name": "_hash",
          "type": "bytes32"
        }
      ],
      "name": "cancelOrder",
      "outputs": [],
      "payable": false,
      "stateMutability": "nonpayable",
      "type": "function"
    }
  ],
  "bytecode": "0x608060405234801561001057600080fd5b506002805433600160a060020a0319918216811790925560048054821683179055600380549091169091179055620186a0600155611e5d806100536000396000f3006080604052600436106101535763ffffffff7c010000000000000000000000000000000000000000000000000000000060003504166308fb8a888114610158578063253581e51461017b5780632ac12622146101a45780632c9f480d146101bc578063338b5dea146101e35780634b2084e31461020757806351b42b00146102355780635aec06c11461024a57806372324d4d1461026b5780637489ec231461028c57806382e94ac5146102a457806384373341146102b95780638da5cb5b146102d35780638f98f704146103045780639245290d1461032857806397128d6e14610349578063a6f9dae114610449578063c23f001f1461046a578063c415b95c14610491578063d06f34b2146104a6578063d0e30db0146104be578063d5813323146104c6578063ef9f269d146104de578063f7213db6146104f3578063f92649ed1461050b578063fd922a421461052f575b600080fd5b34801561016457600080fd5b50610179600160a060020a0360043516610544565b005b34801561018757600080fd5b5061019061058a565b604080519115158252519081900360200190f35b3480156101b057600080fd5b50610190600435610593565b3480156101c857600080fd5b506101d16105a8565b60408051918252519081900360200190f35b3480156101ef57600080fd5b50610179600160a060020a03600435166024356105ae565b34801561021357600080fd5b50610179600160a060020a036004358116906024359060443516606435610725565b34801561024157600080fd5b50610179610980565b34801561025657600080fd5b506101d1600160a060020a03600435166109a8565b34801561027757600080fd5b506101d1600160a060020a03600435166109ba565b34801561029857600080fd5b506101796004356109cc565b3480156102b057600080fd5b506101796109fe565b3480156102c557600080fd5b506101796004351515610a61565b3480156102df57600080fd5b506102e8610a8b565b60408051600160a060020a039092168252519081900360200190f35b34801561031057600080fd5b50610179600160a060020a0360043516602435610a9a565b34801561033457600080fd5b50610179600160a060020a0360043516610af1565b34801561035557600080fd5b506040805160206004803580820135838102808601850190965280855261017995369593946024949385019291829185019084908082843750506040805187358901803560208181028481018201909552818452989b9a998901989297509082019550935083925085019084908082843750506040805187358901803560208181028481018201909552818452989b9a998901989297509082019550935083925085019084908082843750506040805187358901803560208181028481018201909552818452989b9a998901989297509082019550935083925085019084908082843750949750610b379650505050505050565b34801561045557600080fd5b50610179600160a060020a0360043516611902565b34801561047657600080fd5b506101d1600160a060020a0360043581169060243516611948565b34801561049d57600080fd5b506102e8611965565b3480156104b257600080fd5b50610179600435611974565b6101796119a0565b3480156104d257600080fd5b50610190600435611a6e565b3480156104ea57600080fd5b50610190611a83565b3480156104ff57600080fd5b506101d1600435611a91565b34801561051757600080fd5b50610179600160a060020a0360043516602435611aa3565b34801561053b57600080fd5b506102e8611c5e565b600354600160a060020a0316331461055b57600080fd5b6002805473ffffffffffffffffffffffffffffffffffffffff1916600160a060020a0392909216919091179055565b60005460ff1681565b600a6020526000908152604090205460ff1681565b60015481565b600054610100900460ff16156105c357600080fd5b600160a060020a03821660009081526005602090815260408083203384529091529020546105f7908263ffffffff611c6d16565b600160a060020a0383166000818152600560209081526040808320338085529083528184209590955580517f23b872dd0000000000000000000000000000000000000000000000000000000081526004810195909552306024860152604485018690525192936323b872dd9360648083019491928390030190829087803b15801561068157600080fd5b505af1158015610695573d6000803e3d6000fd5b505050506040513d60208110156106ab57600080fd5b505115156106b857600080fd5b600160a060020a03821660008181526005602090815260408083203380855290835292819020548151948552918401929092528282018490526060830152517fdcbc1c05240f31ff3ad067ef1ee35ce4997762752e3a095284754544f4c709d79181900360800190a15050565b600254600160a060020a0316331461073c57600080fd5b600160a060020a0380851660009081526005602090815260408083209386168352929052205483111561076e57600080fd5b600160a060020a038085166000908152600560209081526040808320938616835292905220546107a4908463ffffffff611c8016565b600160a060020a0380861660009081526005602090815260408083209387168352929052205566b1a2bc2ec500008111156107e3575066b1a2bc2ec500005b61080b670de0b6b3a76400006107ff838663ffffffff611c9216565b9063ffffffff611cbb16565b600160a060020a03808616600090815260056020908152604080832060045490941683529290522054909150610847908263ffffffff611c6d16565b600160a060020a03808616600090815260056020908152604080832060045490941683529290522055610880838263ffffffff611c8016565b9250600160a060020a03841615156108c757604051600160a060020a0383169084156108fc029085906000818181858888f1935050505015156108c257600080fd5b61097a565b83600160a060020a031663a9059cbb83856040518363ffffffff167c01000000000000000000000000000000000000000000000000000000000281526004018083600160a060020a0316600160a060020a0316815260200182815260200192505050602060405180830381600087803b15801561094357600080fd5b505af1158015610957573d6000803e3d6000fd5b505050506040513d602081101561096d57600080fd5b5051151561097a57600080fd5b50505050565b600354600160a060020a0316331461099757600080fd5b6000805461ff001916610100179055565b60096020526000908152604090205481565b60086020526000908152604090205481565b600254600160a060020a031633146109e357600080fd5b6000908152600a60205260409020805460ff19166001179055565b3360009081526008602052604090205415610a1857600080fd5b33600081815260086020908152604091829020439055815192835290517ff65646537c435bb790f1113af8940702459843459f94029c00b7877a99b7e4e49281900390910190a1565b600354600160a060020a03163314610a7857600080fd5b6000805460ff1916911515919091179055565b600354600160a060020a031681565b600254600160a060020a03163314610ab157600080fd5b600160a060020a0382166000908152600960205260409020548111610ad557600080fd5b600160a060020a03909116600090815260096020526040902055565b600354600160a060020a03163314610b0857600080fd5b6004805473ffffffffffffffffffffffffffffffffffffffff1916600160a060020a0392909216919091179055565b60008054819081908190610100900460ff1615610b5357600080fd5b600254600160a060020a03163314610b6a57600080fd5b866003815181101515610b7957fe5b90602001906020020151600960008a6000815181101515610b9657fe5b6020908102909101810151600160a060020a031682528101919091526040016000205410610bc357600080fd5b30886000815181101515610bd357fe5b90602001906020020151896002815181101515610bec57fe5b90602001906020020151896000815181101515610c0557fe5b906020019060200201518b6003815181101515610c1e57fe5b906020019060200201518b6001815181101515610c3757fe5b906020019060200201518c6003815181101515610c5057fe5b906020019060200201518d6007815181101515610c6957fe5b6020908102909101810151604080516c01000000000000000000000000600160a060020a039b8c16810282860152998b168a026034820152978a1689026048890152605c88019690965293909716909502607c850152609084015260b083019390935260d0808301939093528051808303909301835260f09091019081905281519192909182918401908083835b60208310610d165780518252601f199092019160209182019101610cf7565b51815160209384036101000a600019018019909216911617905260408051929094018290039091206000818152600a909252929020549197505060ff16159150610d61905057600080fd5b876000815181101515610d7057fe5b90602001906020020151600160a060020a0316610dd785886000815181101515610d9657fe5b90602001906020020151886000815181101515610daf57fe5b90602001906020020151896001815181101515610dc857fe5b90602001906020020151611cd0565b600160a060020a031614610dea57600080fd5b3084896001815181101515610dfb57fe5b90602001906020020151896002815181101515610e1457fe5b906020019060200201518a6004815181101515610e2d57fe5b906020019060200201516040516020018086600160a060020a0316600160a060020a03166c01000000000000000000000000028152601401856000191660001916815260200184600160a060020a0316600160a060020a03166c01000000000000000000000000028152601401838152602001828152602001955050505050506040516020818303038152906040526040518082805190602001908083835b60208310610eeb5780518252601f199092019160209182019101610ecc565b51815160209384036101000a6000190180199092169116179052604080519290940182900390912060008181526007909252929020549196505060ff16159150610f36905057600080fd5b876001815181101515610f4557fe5b90602001906020020151600160a060020a0316610f9d84886001815181101515610f6b57fe5b90602001906020020151886002815181101515610f8457fe5b90602001906020020151896003815181101515610dc857fe5b600160a060020a031614610fb057600080fd5b6000838152600760205260409020805460ff1916600117905586516611c37937e080009088906005908110610fe157fe5b906020019060200201511115611013576611c37937e0800087600581518110151561100857fe5b602090810290910101525b6611c37937e0800087600681518110151561102a57fe5b90602001906020020151111561105c576611c37937e0800087600681518110151561105157fe5b602090810290910101525b86600281518110151561106b57fe5b90602001906020020151600560008a600281518110151561108857fe5b90602001906020020151600160a060020a0316600160a060020a0316815260200190815260200160002060008a60008151811015156110c357fe5b6020908102909101810151600160a060020a031682528101919091526040016000205410156110f157600080fd5b61114e87600081518110151561110357fe5b906020019060200201516107ff89600281518110151561111f57fe5b906020019060200201518a600181518110151561113857fe5b602090810290910101519063ffffffff611c9216565b600560008a600381518110151561116157fe5b90602001906020020151600160a060020a0316600160a060020a0316815260200190815260200160002060008a600181518110151561119c57fe5b6020908102909101810151600160a060020a031682528101919091526040016000205410156111ca57600080fd5b8660008151811015156111d957fe5b9060200190602002015161121c8860028151811015156111f557fe5b6020908102909101810151600088815260069092526040909120549063ffffffff611c6d16565b111561122757600080fd5b61125e670de0b6b3a76400006107ff89600281518110151561124557fe5b906020019060200201518a600681518110151561113857fe5b91506112f987600281518110151561127257fe5b90602001906020020151600560008b600281518110151561128f57fe5b90602001906020020151600160a060020a0316600160a060020a0316815260200190815260200160002060008b60008151811015156112ca57fe5b6020908102909101810151600160a060020a03168252810191909152604001600020549063ffffffff611c8016565b600560008a600281518110151561130c57fe5b90602001906020020151600160a060020a0316600160a060020a0316815260200190815260200160002060008a600081518110151561134757fe5b90602001906020020151600160a060020a0316600160a060020a031681526020019081526020016000208190555061141e6113a18389600281518110151561138b57fe5b602090810290910101519063ffffffff611c8016565b600560008b60028151811015156113b457fe5b90602001906020020151600160a060020a0316600160a060020a0316815260200190815260200160002060008b60018151811015156113ef57fe5b6020908102909101810151600160a060020a03168252810191909152604001600020549063ffffffff611c6d16565b600560008a600281518110151561143157fe5b90602001906020020151600160a060020a0316600160a060020a0316815260200190815260200160002060008a600181518110151561146c57fe5b90602001906020020151600160a060020a0316600160a060020a03168152602001908152602001600020819055506114f482600560008b60028151811015156114b157fe5b6020908102909101810151600160a060020a039081168352828201939093526040918201600090812060045490941681529290529020549063ffffffff611c6d16565b600560008a600281518110151561150757fe5b6020908102909101810151600160a060020a0390811683528282019390935260409182016000908120600454909416815292905281209190915587516115a891670de0b6b3a7640000916107ff91611599918c9190811061156457fe5b906020019060200201516107ff8c600281518110151561158057fe5b906020019060200201518d600181518110151561113857fe5b8a600581518110151561113857fe5b60005490915060ff16151561170c5761162a6115dc826115d08a600081518110151561156457fe5b9063ffffffff611c8016565b600560008b60038151811015156115ef57fe5b90602001906020020151600160a060020a0316600160a060020a0316815260200190815260200160002060008b60008151811015156113ef57fe5b600560008a600381518110151561163d57fe5b90602001906020020151600160a060020a0316600160a060020a0316815260200190815260200160002060008a600081518110151561167857fe5b90602001906020020151600160a060020a0316600160a060020a03168152602001908152602001600020819055506116bd81600560008b60038151811015156114b157fe5b600560008a60038151811015156116d057fe5b6020908102909101810151600160a060020a039081168352828201939093526040918201600090812060045490941681529290529020556117a3565b6117316115dc826117258a600081518110151561156457fe5b9063ffffffff611c6d16565b600560008a600381518110151561174457fe5b90602001906020020151600160a060020a0316600160a060020a0316815260200190815260200160002060008a600081518110151561177f57fe5b6020908102909101810151600160a060020a03168252810191909152604001600020555b61183b6117ed8860008151811015156117b857fe5b906020019060200201516107ff8a60028151811015156117d457fe5b906020019060200201518b600181518110151561113857fe5b600560008b600381518110151561180057fe5b90602001906020020151600160a060020a0316600160a060020a0316815260200190815260200160002060008b60018151811015156112ca57fe5b600560008a600381518110151561184e57fe5b90602001906020020151600160a060020a0316600160a060020a0316815260200190815260200160002060008a600181518110151561188957fe5b6020908102909101810151600160a060020a031682528101919091526040016000205586516118e690889060029081106118bf57fe5b6020908102909101810151600087815260069092526040909120549063ffffffff611c6d16565b6000948552600660205260409094209390935550505050505050565b600354600160a060020a0316331461191957600080fd5b6003805473ffffffffffffffffffffffffffffffffffffffff1916600160a060020a0392909216919091179055565b600560209081526000928352604080842090915290825290205481565b600454600160a060020a031681565b600354600160a060020a0316331461198b57600080fd5b620186a081111561199b57600080fd5b600155565b600054610100900460ff16156119b557600080fd5b3360009081527f05b8ccbb9d4d8fb16ea74ce3c29a41f1b461fbdaff4714a0d9a8eb05499746bc60205260409020546119f4903463ffffffff611c6d16565b3360008181527f05b8ccbb9d4d8fb16ea74ce3c29a41f1b461fbdaff4714a0d9a8eb05499746bc6020908152604080832085905580519283529082019290925234818301526060810192909252517fdcbc1c05240f31ff3ad067ef1ee35ce4997762752e3a095284754544f4c709d79181900360800190a1565b60076020526000908152604090205460ff1681565b600054610100900460ff1681565b60066020526000908152604090205481565b600054610100900460ff1680611af357503360009081526008602052604090205415801590611af3575060015433600090815260086020526040902054611af190439063ffffffff611c8016565b115b1515611afe57600080fd5b600160a060020a0382166000908152600560209081526040808320338452909152902054811115611b2e57600080fd5b600160a060020a0382166000908152600560209081526040808320338452909152902054611b62908263ffffffff611c8016565b600160a060020a03831660008181526005602090815260408083203384529091529020919091551515611bbb57604051339082156108fc029083906000818181858888f193505050501515611bb657600080fd5b611c5a565b604080517fa9059cbb000000000000000000000000000000000000000000000000000000008152336004820152602481018390529051600160a060020a0384169163a9059cbb9160448083019260209291908290030181600087803b158015611c2357600080fd5b505af1158015611c37573d6000803e3d6000fd5b505050506040513d6020811015611c4d57600080fd5b50511515611c5a57600080fd5b5050565b600254600160a060020a031681565b81810182811015611c7a57fe5b92915050565b600082821115611c8c57fe5b50900390565b6000821515611ca357506000611c7a565b50818102818382811515611cb357fe5b0414611c7a57fe5b60008183811515611cc857fe5b049392505050565b604080518082018252601c8082527f19457468657265756d205369676e6564204d6573736167653a0a33320000000060208084019182529351600094859385938b939092019182918083835b60208310611d3b5780518252601f199092019160209182019101611d1c565b51815160209384036101000a600019018019909216911617905292019384525060408051808503815293820190819052835193945092839250908401908083835b60208310611d9b5780518252601f199092019160209182019101611d7c565b51815160209384036101000a600019018019909216911617905260408051929094018290038220600080845283830180875282905260ff8e1684870152606084018d9052608084018c905294519097506001965060a080840196509194601f19820194509281900390910191865af1158015611e1b573d6000803e3d6000fd5b5050604051601f190151989750505050505050505600a165627a7a7230582074516b6f0cb039827dec22858eaf3cc5e6536cca0ceefdd7b553ad91dd5427860029",
  "source": "pragma solidity ^0.4.22;\n\nimport \"openzeppelin-solidity/contracts/math/SafeMath.sol\";\nimport \"openzeppelin-solidity/contracts/token/ERC20/ERC20.sol\";\n\ncontract Exchange {\n  using SafeMath for uint;\n\n  uint constant MAX_ACCOUNT_EJECTION_TIMELOCK = 100000;\n  bool public negativeFees;\n  bool public inactive;\n  uint public accountEjectionTimelock;\n  address public server;\n  address public owner;\n  address public feeCollector;\n  mapping (address => mapping (address => uint)) public balances;\n  mapping (bytes32 => uint) public orderFills;\n  mapping (bytes32 => bool) public traded;\n  mapping (address => uint) public accountEjectedAt;\n  mapping (address => uint) public cancelledOrders;\n  mapping (bytes32 => bool) public cancelled;\n\n  event Deposit(address token, address account, uint amount, uint balance);\n  event Ejection(address account);\n\n  constructor() public {\n    server = msg.sender;\n    feeCollector = msg.sender;\n    owner = msg.sender;\n    accountEjectionTimelock = MAX_ACCOUNT_EJECTION_TIMELOCK;\n  }\n\n  modifier onlyActive {\n    require(inactive == false);\n    _;\n  }\n\n  modifier onlyInactiveOrAccountEjected {\n    require(inactive || (\n      accountEjectedAt[msg.sender] != 0 && \n      block.number.sub(accountEjectedAt[msg.sender]) > accountEjectionTimelock\n    ));\n    _;\n  }\n\n  modifier onlyServer {\n \t  require(msg.sender == server);\n    _;\n  }\n\n  modifier onlyOwner {\n    require(msg.sender == owner);\n    _;\n  }\n\n  function setAccountEjectionTimelock(uint value) public onlyOwner {\n    require(value <= MAX_ACCOUNT_EJECTION_TIMELOCK);\n    accountEjectionTimelock = value;\n  }\n\n  function setNegativeFees(bool _status) public onlyOwner { negativeFees = _status; }\n\n  function deactivate() public onlyOwner { inactive = true; }\n\n  function changeFeeCollector(address _feeCollector) public onlyOwner { feeCollector = _feeCollector; }\n\n  function changeServer(address _server) public onlyOwner { server = _server; }\n\n  function changeOwner(address _owner) public onlyOwner { owner = _owner; }\n\n  function deposit() public payable onlyActive {\n    balances[0][msg.sender] = balances[0][msg.sender].add(msg.value);\n    emit Deposit(address(0), msg.sender, msg.value, balances[0][msg.sender]);\n  }\n\n  function depositToken(address _token, uint _amount) public onlyActive {\n    balances[_token][msg.sender] = balances[_token][msg.sender].add(_amount);\n    require(ERC20(_token).transferFrom(msg.sender, this, _amount));\n    emit Deposit(_token, msg.sender, _amount, balances[_token][msg.sender]);\n  }\n\n  function withdraw(address _token, uint _amount, address _account, uint _fee) public onlyServer {\n    require(balances[_token][_account] >= _amount);\n    balances[_token][_account] = balances[_token][_account].sub(_amount);\n    if (_fee > 50 finney) _fee = 50 finney;\n    _fee = (_fee.mul(_amount)).div(1 ether);\n    balances[_token][feeCollector] = balances[_token][feeCollector].add(_fee);\n    _amount = _amount.sub(_fee);\n    if (_token == 0) {\n      require(_account.send(_amount));\n    } else {\n      require(ERC20(_token).transfer(_account, _amount));\n    }\n  }\n\n  function eject() public {\n    require(accountEjectedAt[msg.sender] == 0);\n    accountEjectedAt[msg.sender] = block.number;\n    emit Ejection(msg.sender);\n  }\n\n  function directWithdraw(address _token, uint _amount) public onlyInactiveOrAccountEjected {\n    require(balances[_token][msg.sender] >= _amount);\n    balances[_token][msg.sender] = balances[_token][msg.sender].sub(_amount);\n    if (_token == 0) {\n      require(msg.sender.send(_amount));\n    } else {\n      require(ERC20(_token).transfer(msg.sender, _amount));\n    }\n  }\n\n  function trade(address[] _addresses, uint[] _uints, uint8[] v, bytes32[] rs) public onlyActive onlyServer {\n    /*\n      _addresses[0] == maker\n      _addresses[1] == taker\n      _addresses[2] == giveToken\n      _addresses[3] == takeToken\n      _uints[0] == giveAmount\n      _uints[1] == takeAmount\n      _uints[2] == fillAmount\n      _uints[3] == makerNonce\n      _uints[4] == takerNonce\n      _uints[5] == makerFee\n      _uints[6] == takerFee\n      _uints[7] == expiry\n      v[0] == makerV\n      v[1] == takerV\n      rs[0]..[1] == makerR, makerS\n      rs[2]..[3] == takerR, takerS\n    */\n    require(cancelledOrders[_addresses[0]] < _uints[3]);\n    bytes32 orderHash = keccak256(abi.encodePacked(this, _addresses[0], _addresses[2], _uints[0], _addresses[3], _uints[1], _uints[3], _uints[7]));\n    require(!cancelled[orderHash]);\n    require(recover(orderHash, v[0], rs[0], rs[1]) == _addresses[0]);\n    bytes32 tradeHash = keccak256(abi.encodePacked(this, orderHash, _addresses[1], _uints[2], _uints[4]));\n    require(!traded[tradeHash]);\n    require(recover(tradeHash, v[1], rs[2], rs[3]) == _addresses[1]);\n    traded[tradeHash] = true;\n    if (_uints[5] > 5 finney) _uints[5] = 5 finney;\n    if (_uints[6] > 5 finney) _uints[6] = 5 finney;\n    require(balances[_addresses[2]][_addresses[0]] >= _uints[2]);\n    require(balances[_addresses[3]][_addresses[1]] >= _uints[1].mul(_uints[2]).div(_uints[0]));\n    require(orderFills[orderHash].add(_uints[2]) <= _uints[0]);\n    // takerFee = takerFee * fillAmount / 1 ether\n    uint takerFee = (_uints[6].mul(_uints[2])).div(1 ether);\n    // makerGive = makerGive - fillAmount\n    balances[_addresses[2]][_addresses[0]] = balances[_addresses[2]][_addresses[0]].sub(_uints[2]);\n    // takerGive = takerGive + fillAmount - takerFee\n    balances[_addresses[2]][_addresses[1]] = balances[_addresses[2]][_addresses[1]].add((_uints[2]).sub(takerFee));\n    // feeGive = feeGive + takerFee\n    balances[_addresses[2]][feeCollector] = balances[_addresses[2]][feeCollector].add(takerFee);\n    // makerFee = makerFee * (takeAmount * fillAmount / giveAmount) / 1 ether\n    uint makerFee = (_uints[5].mul(_uints[1].mul(_uints[2]).div(_uints[0]))).div(1 ether);\n    if (!negativeFees) {\n      // makerTake = makerTake + (takeAmount * fillAmount / giveAmount) - makerFee\n      balances[_addresses[3]][_addresses[0]] = balances[_addresses[3]][_addresses[0]].add((_uints[1].mul(_uints[2]).div(_uints[0])).sub(makerFee));\n      // feeTake = feeTake + makerFee\n      balances[_addresses[3]][feeCollector] = balances[_addresses[3]][feeCollector].add(makerFee);\n    } else {\n      // makerTake = makerTake + (takeAmount * fillAmount / giveAmount) + makerFee\n      balances[_addresses[3]][_addresses[0]] = balances[_addresses[3]][_addresses[0]].add((_uints[1].mul(_uints[2]).div(_uints[0])).add(makerFee));\n    }\n    // takerTake = takerTake - (takeAmount * fillAmount / giveAmount)\n    balances[_addresses[3]][_addresses[1]] = balances[_addresses[3]][_addresses[1]].sub(_uints[1].mul(_uints[2]).div(_uints[0]));\n    orderFills[orderHash] = orderFills[orderHash].add(_uints[2]);\n  }\n \n  function bulkCancelOrders(address _account, uint _nonce) public onlyServer {\n    require(_nonce > cancelledOrders[_account]);\n    cancelledOrders[_account] = _nonce;\n  }\n\n  function cancelOrder(bytes32 _hash) public onlyServer {\n    cancelled[_hash] = true;\n  }\n\n  function recover(bytes32 _hash, uint8 v, bytes32 r, bytes32 s) private pure returns (address) {\n    bytes memory prefix = \"\\x19Ethereum Signed Message:\\n32\";\n    bytes32 hash = keccak256(abi.encodePacked(prefix, _hash));\n    return ecrecover(hash, v, r, s);\n  }\n}\n\n",
  "sourcePath": "/Users/hieu/dev/dreamx-contracts/contracts/Exchange.sol",
  "compiler": {
    "name": "solc",
    "version": "0.4.24+commit.e67f0147.Emscripten.clang"
  },
  "schemaVersion": "2.0.1",
  "updatedAt": "2020-03-11T03:57:25.386Z"
}