{
  "contractName": "ExchangePure",
  "abi": [
    {
      "constant": true,
      "inputs": [
        {
          "name": "",
          "type": "uint256"
        }
      ],
      "name": "fees",
      "outputs": [
        {
          "name": "",
          "type": "uint256"
        }
      ],
      "payable": false,
      "stateMutability": "view",
      "type": "function"
    },
    {
      "inputs": [],
      "payable": false,
      "stateMutability": "nonpayable",
      "type": "constructor"
    },
    {
      "anonymous": false,
      "inputs": [
        {
          "indexed": true,
          "name": "token",
          "type": "address"
        },
        {
          "indexed": true,
          "name": "user",
          "type": "address"
        },
        {
          "indexed": false,
          "name": "amount",
          "type": "uint256"
        },
        {
          "indexed": false,
          "name": "balance",
          "type": "uint256"
        }
      ],
      "name": "Deposit",
      "type": "event"
    },
    {
      "anonymous": false,
      "inputs": [
        {
          "indexed": true,
          "name": "token",
          "type": "address"
        },
        {
          "indexed": true,
          "name": "user",
          "type": "address"
        },
        {
          "indexed": false,
          "name": "amount",
          "type": "uint256"
        },
        {
          "indexed": false,
          "name": "balance",
          "type": "uint256"
        }
      ],
      "name": "Withdraw",
      "type": "event"
    },
    {
      "anonymous": false,
      "inputs": [
        {
          "indexed": true,
          "name": "user",
          "type": "address"
        },
        {
          "indexed": true,
          "name": "market",
          "type": "address"
        },
        {
          "indexed": true,
          "name": "id",
          "type": "uint64"
        },
        {
          "indexed": false,
          "name": "price",
          "type": "uint256"
        },
        {
          "indexed": false,
          "name": "amount",
          "type": "uint256"
        },
        {
          "indexed": false,
          "name": "timestamp",
          "type": "uint256"
        },
        {
          "indexed": false,
          "name": "sell",
          "type": "bool"
        }
      ],
      "name": "NewOrder",
      "type": "event"
    },
    {
      "anonymous": false,
      "inputs": [
        {
          "indexed": true,
          "name": "token",
          "type": "address"
        },
        {
          "indexed": false,
          "name": "price",
          "type": "uint256"
        }
      ],
      "name": "Ask",
      "type": "event"
    },
    {
      "anonymous": false,
      "inputs": [
        {
          "indexed": true,
          "name": "token",
          "type": "address"
        },
        {
          "indexed": false,
          "name": "price",
          "type": "uint256"
        }
      ],
      "name": "Bid",
      "type": "event"
    },
    {
      "anonymous": false,
      "inputs": [
        {
          "indexed": true,
          "name": "token",
          "type": "address"
        },
        {
          "indexed": true,
          "name": "bid",
          "type": "uint64"
        },
        {
          "indexed": true,
          "name": "ask",
          "type": "uint64"
        },
        {
          "indexed": false,
          "name": "price",
          "type": "uint256"
        },
        {
          "indexed": false,
          "name": "amount",
          "type": "uint256"
        },
        {
          "indexed": false,
          "name": "timestamp",
          "type": "uint256"
        },
        {
          "indexed": false,
          "name": "sell",
          "type": "bool"
        }
      ],
      "name": "Trade",
      "type": "event"
    },
    {
      "constant": false,
      "inputs": [
        {
          "name": "_feeCollector",
          "type": "address"
        }
      ],
      "name": "changeFeeCollector",
      "outputs": [],
      "payable": false,
      "stateMutability": "nonpayable",
      "type": "function"
    },
    {
      "constant": false,
      "inputs": [
        {
          "name": "_type",
          "type": "uint256"
        },
        {
          "name": "_value",
          "type": "uint256"
        }
      ],
      "name": "changeFee",
      "outputs": [],
      "payable": false,
      "stateMutability": "nonpayable",
      "type": "function"
    },
    {
      "constant": false,
      "inputs": [
        {
          "name": "_owner",
          "type": "address"
        }
      ],
      "name": "changeOwner",
      "outputs": [],
      "payable": false,
      "stateMutability": "nonpayable",
      "type": "function"
    },
    {
      "constant": false,
      "inputs": [
        {
          "name": "_token",
          "type": "address"
        },
        {
          "name": "_amount",
          "type": "uint256"
        }
      ],
      "name": "deposit",
      "outputs": [],
      "payable": true,
      "stateMutability": "payable",
      "type": "function"
    },
    {
      "constant": false,
      "inputs": [
        {
          "name": "_token",
          "type": "address"
        },
        {
          "name": "_amount",
          "type": "uint256"
        }
      ],
      "name": "withdraw",
      "outputs": [],
      "payable": false,
      "stateMutability": "nonpayable",
      "type": "function"
    },
    {
      "constant": true,
      "inputs": [
        {
          "name": "_token",
          "type": "address"
        },
        {
          "name": "_user",
          "type": "address"
        }
      ],
      "name": "getBalance",
      "outputs": [
        {
          "name": "available",
          "type": "uint256"
        },
        {
          "name": "reserved",
          "type": "uint256"
        }
      ],
      "payable": false,
      "stateMutability": "view",
      "type": "function"
    },
    {
      "constant": false,
      "inputs": [
        {
          "name": "_marketAddress",
          "type": "address"
        },
        {
          "name": "_amount",
          "type": "uint256"
        },
        {
          "name": "_price",
          "type": "uint256"
        },
        {
          "name": "_sell",
          "type": "bool"
        }
      ],
      "name": "createOrder",
      "outputs": [],
      "payable": false,
      "stateMutability": "nonpayable",
      "type": "function"
    },
    {
      "constant": false,
      "inputs": [
        {
          "name": "_marketAddress",
          "type": "address"
        },
        {
          "name": "_orderId",
          "type": "uint64"
        }
      ],
      "name": "cancelOrder",
      "outputs": [],
      "payable": false,
      "stateMutability": "nonpayable",
      "type": "function"
    },
    {
      "constant": true,
      "inputs": [
        {
          "name": "_marketAddress",
          "type": "address"
        },
        {
          "name": "_orderId",
          "type": "uint64"
        }
      ],
      "name": "getOrder",
      "outputs": [
        {
          "name": "user",
          "type": "address"
        },
        {
          "name": "amount",
          "type": "uint256"
        },
        {
          "name": "price",
          "type": "uint256"
        },
        {
          "name": "next",
          "type": "uint64"
        },
        {
          "name": "prev",
          "type": "uint64"
        },
        {
          "name": "sell",
          "type": "bool"
        },
        {
          "name": "timestamp",
          "type": "uint256"
        }
      ],
      "payable": false,
      "stateMutability": "view",
      "type": "function"
    },
    {
      "constant": true,
      "inputs": [
        {
          "name": "_marketAddress",
          "type": "address"
        }
      ],
      "name": "getMarketInfo",
      "outputs": [
        {
          "name": "bid",
          "type": "uint64"
        },
        {
          "name": "ask",
          "type": "uint64"
        }
      ],
      "payable": false,
      "stateMutability": "view",
      "type": "function"
    },
    {
      "constant": true,
      "inputs": [
        {
          "name": "_marketAddress",
          "type": "address"
        },
        {
          "name": "_price",
          "type": "uint256"
        }
      ],
      "name": "getLastOrderIdForMarketPrice",
      "outputs": [
        {
          "name": "id",
          "type": "uint64"
        }
      ],
      "payable": false,
      "stateMutability": "view",
      "type": "function"
    }
  ],
  "bytecode": "0x608060405234801561001057600080fd5b50600080547fffffffff0000000000000000000000000000000000000000ffffffffffffffff163368010000000000000000810291909117825560018054600160a060020a031916909117905561333190819061006d90396000f3006080604052600436106100a05763ffffffff60e060020a6000350416630cf85bcc81146100a557806347e7ef24146100ec5780634acc79ed146101055780639245290d1461012f5780639956b43614610150578063a4d91c9a1461017c578063a6f9dae1146101f7578063cb10580514610218578063d4ba166614610258578063d4fac45d14610285578063e3ca2d65146102c5578063f3fef3a3146102e0575b600080fd5b3480156100b157600080fd5b506100c6600160a060020a0360043516610304565b604080516001604060020a03938416815291909216602082015281519081900390910190f35b610103600160a060020a03600435166024356103c4565b005b34801561011157600080fd5b5061011d600435610592565b60408051918252519081900360200190f35b34801561013b57600080fd5b50610103600160a060020a03600435166105a4565b34801561015c57600080fd5b50610103600160a060020a036004351660243560443560643515156105f1565b34801561018857600080fd5b506101a9600160a060020a03600435166001604060020a0360243516610d33565b60408051600160a060020a0390981688526020880196909652868601949094526001604060020a03928316606087015291166080850152151560a084015260c0830152519081900360e00190f35b34801561020357600080fd5b50610103600160a060020a0360043516610e05565b34801561022457600080fd5b5061023c600160a060020a0360043516602435610e64565b604080516001604060020a039092168252519081900360200190f35b34801561026457600080fd5b50610103600160a060020a03600435166001604060020a0360243516610e98565b34801561029157600080fd5b506102ac600160a060020a0360043581169060243516611053565b6040805192835260208301919091528051918290030190f35b3480156102d157600080fd5b50610103600435602435611086565b3480156102ec57600080fd5b50610103600160a060020a03600435166024356110b1565b60008061030f613213565b600160a060020a038416151561032457600080fd5b505050600160a060020a0316600090815260046020818152604092839020835160c08101855260028201546001604060020a0390811660a0830190815282529190930154808216928401839052604060020a81048216948401859052700100000000000000000000000000000000810482166060850152780100000000000000000000000000000000000000000000000090041660809092019190915291565b600160a060020a038216151561042f573481146103e057600080fd5b3360009081526000805160206132c6833981519152602052604090205461040d903463ffffffff61132a16565b3360009081526000805160206132c6833981519152602052604090205561052f565b341561043a57600080fd5b600160a060020a038216600090815260026020908152604080832033845290915290205461046e908263ffffffff61132a16565b600160a060020a0383166000818152600260209081526040808320338085529083528184209590955580517f23b872dd0000000000000000000000000000000000000000000000000000000081526004810195909552306024860152604485018690525192936323b872dd9360648083019491928390030190829087803b1580156104f857600080fd5b505af115801561050c573d6000803e3d6000fd5b505050506040513d602081101561052257600080fd5b5051151561052f57600080fd5b600160a060020a038216600081815260026020908152604080832033808552908352928190205481518681529283015280519293927fdcbc1c05240f31ff3ad067ef1ee35ce4997762752e3a095284754544f4c709d79281900390910190a35050565b60036020526000908152604090205481565b600054604060020a9004600160a060020a031633146105c257600080fd5b6001805473ffffffffffffffffffffffffffffffffffffffff1916600160a060020a0392909216919091179055565b60006105fb613249565b60008080808080600160a060020a038c16151561061757600080fd5b600160a060020a038c166000908152600460209081526040808320338b52918a018e905289018c90528a15801560608b01524260808b0152825467ffffffffffffffff19811660016001604060020a03928316019182161790935590995090965061071c57600160a060020a038c1660009081526002602090815260408083203384529091529020546106b0908c63ffffffff61134716565b600160a060020a038d1660009081526002602090815260408083203384529091529020908155600101546106e4908c61132a565b600160a060020a038d1660009081526002602090815260408083203384529091529020600101556107178c89898961135e565b6107cd565b610744670de0b6b3a76400006107388c8e63ffffffff61153216565b9063ffffffff61156016565b3360009081526000805160206132c68339815191526020526040902054909550610774908663ffffffff61134716565b3360009081526000805160206132c683398151915260205260409020908155600101546107a1908661132a565b3360009081526000805160206132c683398151915260205260409020600101556107cd8c898989611583565b602087015115610d2557604080880151600090815260018a0160205220546001604060020a0316151561088e578760020173__RedBlackTree__________________________63eb9d50e4909189604001516040518363ffffffff1660e060020a028152600401808381526020018281526020019250505060206040518083038186803b15801561085d57600080fd5b505af4158015610871573d6000803e3d6000fd5b505050506040513d602081101561088757600080fd5b50516108ac565b604080880151600090815260018a0160205220546001604060020a03165b6001604060020a03808216600081815260208c905260408082206005810154604060020a8104861684528284209516835291209397509550909350909150156109b85760028301548a1061095a57600580840180546001604060020a0380821660a08c015287811660c08c0152891667ffffffffffffffff1990911681179091559082018054604060020a9092026fffffffffffffffff0000000000000000199092169190911790556109b3565b6001604060020a0380851660a089015260058085018054604060020a808204851660c08d0152938a169384026fffffffffffffffff0000000000000000199091161790558301805467ffffffffffffffff191690911790555b6109c7565b600060a0880181905260c08801525b866060015180156109e3575060048801546001604060020a0316155b80610a1d575086606001518015610a1d575060048801546001604060020a0316600090815260208990526040908190206002015490880151105b15610a82576004880180546001604060020a03881667ffffffffffffffff19909116179055604080518b81529051600160a060020a038e16917fe684a55f31b79eca403df938249029212a5925ec6be8012e099b45bc1019e5d2919081900360200190a25b8660600151158015610aa657506004880154604060020a90046001604060020a0316155b80610ae957508660600151158015610ae957506004880154604060020a90046001604060020a031660009081526020899052604090819020600201549088015110155b15610b5c576004880180546001604060020a038816604060020a026fffffffffffffffff000000000000000019909116179055604080518b81529051600160a060020a038e16917f32eb218d63024a6bd54a3e6467c1545c355c44c2e1c17940b1a0ed1555ffeffe919081900360200190a25b6040870151610b799060028a01908690899063ffffffff61178816565b86886000016000886001604060020a03166001604060020a0316815260200190815260200160002060008201518160000160006101000a815481600160a060020a030219169083600160a060020a03160217905550602082015181600101556040820151816002015560608201518160030160006101000a81548160ff0219169083151502179055506080820151816004015560a08201518160050160006101000a8154816001604060020a0302191690836001604060020a0316021790555060c08201518160050160086101000a8154816001604060020a0302191690836001604060020a03160217905550905050858860010160008960400151815260200190815260200160002060006101000a8154816001604060020a0302191690836001604060020a03160217905550856001604060020a03168c600160a060020a031633600160a060020a03167ff5a4026cc8202624d31de8fb5fd91611f38f46e72d1e39dfae4852c53059fcde8a604001518b60200151428d60600151604051808581526020018481526020018381526020018215151515815260200194505050505060405180910390a45b505050505050505050505050565b6000806000806000806000610d46613249565b600160a060020a038a161515610d5b57600080fd5b50505050600160a060020a0395861660009081526004602081815260408084206001604060020a03998a168552825292839020835160e0810185528154909a16808b526001820154928b018390526002820154948b01859052600382015460ff16151560608c018190529382015460808c01819052600590920154808b1660a08d01819052604060020a909104909a1660c0909b018b90529a919993989750929550909350909150565b600054604060020a9004600160a060020a03163314610e2357600080fd5b60008054600160a060020a03909216604060020a027fffffffff0000000000000000000000000000000000000000ffffffffffffffff909216919091179055565b600160a060020a0390911660009081526004602090815260408083209383526001909301905220546001604060020a031690565b60008080600160a060020a0385161515610eb157600080fd5b600160a060020a0380861660009081526004602090815260408083206001604060020a03891684529182905290912080549195509350163314610ef357600080fd5b600382015460ff1615610f9c576001820154600160a060020a0386166000908152600260209081526040808320338452909152902054610f389163ffffffff61132a16565b600160a060020a03861660009081526002602090815260408083203384529091529020908155600183810154910154610f7091611347565b600160a060020a0386166000908152600260209081526040808320338452909152902060010155611041565b610fc3670de0b6b3a76400006107388460010154856002015461153290919063ffffffff16565b3360009081526000805160206132c68339815191526020526040902054909150610ff3908263ffffffff61132a16565b3360009081526000805160206132c683398151915260205260409020908155600101546110209082611347565b3360009081526000805160206132c683398151915260205260409020600101555b61104b8585611930565b505050505050565b600160a060020a039182166000908152600260209081526040808320939094168252919091522080546001909101549091565b66b1a2bc2ec5000081111561109f575066b1a2bc2ec500005b60009182526003602052604090912055565b600160a060020a03821660009081526002602090815260408083203384529091528120548211156110e157600080fd5b600160a060020a0383166000908152600260209081526040808320338452909152902054611115908363ffffffff61134716565b600160a060020a038416600090815260026020818152604080842033855290915282209290925561117191670de0b6b3a7640000916107389186916003915b81526020019081526020016000205461153290919063ffffffff16565b600160a060020a038085166000908152600260209081526040808320600154909416835292905220549091506111ad908263ffffffff61132a16565b600160a060020a03808516600081815260026020908152604080832060015490951683529390529190912091909155151561121d57336108fc6111f6848463ffffffff61134716565b6040518115909202916000818181858888f19350505050151561121857600080fd5b6112c6565b600160a060020a03831663a9059cbb3361123d858563ffffffff61134716565b6040518363ffffffff1660e060020a0281526004018083600160a060020a0316600160a060020a0316815260200182815260200192505050602060405180830381600087803b15801561128f57600080fd5b505af11580156112a3573d6000803e3d6000fd5b505050506040513d60208110156112b957600080fd5b505115156112c657600080fd5b600160a060020a038316600081815260026020908152604080832033808552908352928190205481518781529283015280519293927ff341246adaac6f497bc2a656f546ab9e182111d630394f0c57c710a59a2cb5679281900390910190a3505050565b60008282018381101561133c57600080fd5b8091505b5092915050565b6000808383111561135757600080fd5b5050900390565b60008060008061136c613249565b6004880154604060020a90046001604060020a031694505b6001604060020a0385161580159061139f5750602087015115155b80156113cb57506001604060020a03851660009081526020899052604090819020600201549088015111155b15611527576001604060020a03851660009081526020898152604090912060018101549189015190955010611406578360010154925061140e565b866020015192505b611431670de0b6b3a764000061073886600201548661153290919063ffffffff16565b6020880151909250611449908463ffffffff61134716565b60208801526001840154611463908463ffffffff61134716565b600185015583548751611487916000918c91600160a060020a031690868885611d47565b846001604060020a0316866001604060020a03168a600160a060020a03167f55b32d6233426fc7f87c6cbb2710d14d738b3277d7c879d5ca2f2aa19b508d80876002015487428d60600151604051808581526020018481526020018381526020018215151515815260200194505050505060405180910390a460018401541561150f57611527565b6115198986611930565b90508060c001519450611384565b505050505050505050565b6000808315156115455760009150611340565b5082820282848281151561155557fe5b041461133c57600080fd5b60008080831161156f57600080fd5b828481151561157a57fe5b04949350505050565b6000806000806000611593613249565b60048901546001604060020a031695505b6001604060020a038616158015906115bf5750602088015115155b80156115eb57506001604060020a038616600090815260208a9052604090819020600201549089015110155b1561177c576001604060020a038616600090815260208a815260409091206001810154918a015190965010611626578460010154935061162e565b876020015193505b611651670de0b6b3a764000061073887600201548761153290919063ffffffff16565b92506116868361167a670de0b6b3a76400006107388c604001518961153290919063ffffffff16565b9063ffffffff61134716565b602089015190925061169e908563ffffffff61134716565b602089015260018501546116b8908563ffffffff61134716565b6001860155845488516116dc918c91600091600160a060020a031690888888611d47565b856001604060020a0316876001604060020a03168b600160a060020a03167f55b32d6233426fc7f87c6cbb2710d14d738b3277d7c879d5ca2f2aa19b508d80886002015488428e60600151604051808581526020018481526020018381526020018215151515815260200194505050505060405180910390a46001850154156117645761177c565b61176e8a87611930565b90508060a0015195506115a4565b50505050505050505050565b611790613285565b608081018290526001604060020a038416602082018190526001825215611861576001604060020a038416600090815260018087016020526040909120015482101561181d576001604060020a03808516600090815260018701602052604090208054918516604860020a0270ffffffffffffffff0000000000000000001990921691909117905561185c565b6001604060020a03808516600090815260018701602052604090208054918516608860020a026000805160206132e68339815191529092169190911790555b61187c565b845467ffffffffffffffff19166001604060020a0384161785555b6001604060020a0380841660009081526001808801602090815260409283902085518154928701519487015160608801518716608860020a026000805160206132e6833981519152918816604860020a0270ffffffffffffffff00000000000000000019979098166101000268ffffffffffffffff001993151560ff1990961695909517929092169390931794909416949094171691909117825560808301519101556119298584612010565b5050505050565b611938613249565b6000611942613249565b5050600160a060020a0380841660009081526004602081815260408084206001604060020a0380891680875282855295839020835160e08101855281549098168852600181015494880194909452600284015492870192909252600383015460ff161515606087015282840154608087015260059092015480821660a0870152604060020a9004811660c08601529181015490939291161415611afb5760408082015160c08301516001604060020a03166000908152602085905291909120600201541415611a855760c081015160048301805467ffffffffffffffff19166001604060020a039092169182179055600090815260208381526040918290206002015482519081529151600160a060020a038816927fe684a55f31b79eca403df938249029212a5925ec6be8012e099b45bc1019e5d292908290030190a2611afb565b60a081015160048301805467ffffffffffffffff19166001604060020a039092169182179055600090815260208381526040918290206002015482519081529151600160a060020a038816927fe684a55f31b79eca403df938249029212a5925ec6be8012e099b45bc1019e5d292908290030190a25b60048201546001604060020a03858116604060020a909204161415611b9e5760c08101516004830180546fffffffffffffffff00000000000000001916604060020a6001604060020a03909316928302179055600090815260208381526040918290206002015482519081529151600160a060020a038816927f32eb218d63024a6bd54a3e6467c1545c355c44c2e1c17940b1a0ed1555ffeffe92908290030190a25b60c08101805160a0830180516001604060020a03908116600090815260208781526040808320600590810180546fffffffffffffffff00000000000000001916604060020a98871698909802979097179096559351955183168252838220909401805467ffffffffffffffff191695831695909517909455818501518452600186019092529091205485821691161415611cbc5760408082015160c08301516001604060020a03166000908152602085905291909120600201541415611c995760c081015160408083015160009081526001850160205220805467ffffffffffffffff19166001604060020a03909216919091179055611cbc565b60408082015160009081526001840160205220805467ffffffffffffffff191690555b611ccf600283018563ffffffff61225b16565b6001604060020a0384166000908152602083905260408120805473ffffffffffffffffffffffffffffffffffffffff19168155600181018290556002810182905560038101805460ff19169055600481019190915560050180546fffffffffffffffffffffffffffffffff1916905591505092915050565b600080611d63670de0b6b3a76400006107388660038580611154565b9150611d80670de0b6b3a764000061073887600360006001611154565b600160a060020a03808b166000908152600260209081526040808320938c1683529290522060010154909150611dbc908663ffffffff61134716565b600160a060020a03808b166000908152600260209081526040808320938c1683529290522060010155611e2a611df8858463ffffffff61134716565b600160a060020a03808b166000908152600260209081526040808320938d16835292905220549063ffffffff61132a16565b600160a060020a0389811660009081526002602090815260408083208c851684529091528082209390935590881681522060010154611e6f90849061167a9087611347565b600160a060020a03808a166000908152600260209081526040808320938b1683529290522060010155611edd611eab868363ffffffff61134716565b600160a060020a03808c166000908152600260209081526040808320938c16835292905220549063ffffffff61132a16565b600160a060020a03808b1660009081526002602081815260408084208c861680865290835281852096909655938d16835290815282822093825292909252902054611f2e908463ffffffff61132a16565b600160a060020a03808a1660009081526002602081815260408084208c861685528252808420959095558d841683529081528382206001549093168252919091522054611f81908263ffffffff61132a16565b600160a060020a03808b1660009081526002602081815260408084206001805487168652908352818520969096558d8516845291815281832094549093168252929091522054611fd7908363ffffffff61132a16565b600160a060020a039889166000908152600260209081526040808320600154909c1683529a905298909820979097555050505050505050565b6001604060020a03808216600090815260018401602052604081205461010090049091169080821515612064576001604060020a03841660009081526001860160205260409020805460ff19169055611929565b6001604060020a038316600090815260018601602052604090205460ff161561192957612091858561264c565b915061209d858561267f565b90506001604060020a038116158015906120d157506001604060020a038116600090815260018601602052604090205460ff165b1561212b576001604060020a03808416600090815260018088016020526040808320805460ff199081169091558585168452818420805482169055938616835290912080549092161790556121268583612010565b611929565b6001604060020a038381166000908152600187016020526040902054608860020a9004811690851614801561218557506001604060020a038281166000908152600187016020526040902054604860020a90048116908416145b156121c057612194858461273c565b6001604060020a039384166000908152600186016020526040902054604860020a900490931692612251565b6001604060020a038381166000908152600187016020526040902054604860020a9004811690851614801561221a57506001604060020a038281166000908152600187016020526040902054608860020a90048116908416145b1561225157612229858461296f565b6001604060020a039384166000908152600186016020526040902054608860020a9004909316925b6119298585612ba2565b6001604060020a0380821660009081526001840160205260408120549091608860020a8204811691604860020a900416828083158015906122a457506001604060020a03831615155b15612438578394505b6001604060020a038086166000908152600189016020526040902054604860020a90041615612302576001604060020a039485166000908152600188016020526040902054604860020a9004909416936122ad565b6001604060020a038086166000908152600189016020526040902054610100900481169250861682146123b6576001604060020a03858116600081815260018a0160205260408082208054878616845291909220805470ffffffffffffffff0000000000000000001916608860020a928390048616604860020a0217815582546000805160206132e683398151915216948916909102939093179055815468ffffffffffffffff0019166101009091021790555b6001604060020a0385811660009081526001890160205260409020805470ffffffffffffffff0000000000000000001916604860020a92861692830217905515612433576001604060020a038084166000908152600189016020526040902080549187166101000268ffffffffffffffff00199092169190911790555b612453565b6001604060020a0384161561244f57839450612453565b8294505b506001604060020a0385811660009081526001880160205260408082205487841683529120805468ffffffffffffffff00191661010092839004909316918202929092179091558015612559576001604060020a038181166000908152600189016020526040902054604860020a900481169087161415612515576001604060020a03808216600090815260018901602052604090208054918716604860020a0270ffffffffffffffff00000000000000000019909216919091179055612554565b6001604060020a03808216600090815260018901602052604090208054918716608860020a026000805160206132e68339815191529092169190911790555b612574565b865467ffffffffffffffff19166001604060020a0386161787555b6001604060020a038616600090815260018801602052604090205460ff1615156125ec576001604060020a038516600090815260018801602052604090205460ff16156125e2576001604060020a03851660009081526001880160205260409020805460ff191690556125ec565b6125ec8786612c73565b5050506001604060020a03909216600090815260019384016020526040808220805478ffffffffffffffffffffffffffffffffffffffffffffffffff19908116825590860183905582805290822080549091168155909301929092555050565b6001604060020a038082166000908152600184016020526040808220546101009081900484168352912054041692915050565b60008061268c848461264c565b90506001604060020a03811615156126a75760009150611340565b6001604060020a03808216600090815260018601602052604080822054868416835291205461010090048216604860020a909104909116141561270f576001604060020a038082166000908152600186016020526040902054608860020a9004169150611340565b6001604060020a038082166000908152600186016020526040902054604860020a90041691505092915050565b6001604060020a03818116600090815260018401602052604080822054608860020a8104841680845291909220805468ffffffffffffffff0019166101009384900490941692830293909317909255801561284a576001604060020a038181166000908152600186016020526040902054604860020a900481169084161415612806576001604060020a03808216600090815260018601602052604090208054918416604860020a0270ffffffffffffffff00000000000000000019909216919091179055612845565b6001604060020a03808216600090815260018601602052604090208054918416608860020a026000805160206132e68339815191529092169190911790555b612865565b835467ffffffffffffffff19166001604060020a0383161784555b6001604060020a0382811660008181526001870160205260408082208054888616845291832080546000805160206132e683398151915216604860020a938490048716608860020a02179055929091529054041615612906576001604060020a03808316600090815260018601602052604080822054604860020a900483168252902080549185166101000268ffffffffffffffff00199092169190911790555b506001604060020a0391821660008181526001949094016020526040808520805468ffffffffffffffff00191661010094909516938402949094179093559083529120805470ffffffffffffffff0000000000000000001916604860020a909202919091179055565b6001604060020a03818116600090815260018401602052604080822054604860020a8104841680845291909220805468ffffffffffffffff00191661010093849004909416928302939093179092558015612a7d576001604060020a038181166000908152600186016020526040902054604860020a900481169084161415612a39576001604060020a03808216600090815260018601602052604090208054918416604860020a0270ffffffffffffffff00000000000000000019909216919091179055612a78565b6001604060020a03808216600090815260018601602052604090208054918416608860020a026000805160206132e68339815191529092169190911790555b612a98565b835467ffffffffffffffff19166001604060020a0383161784555b6001604060020a03828116600081815260018701602052604080822080548886168452918320805470ffffffffffffffff0000000000000000001916608860020a938490048716604860020a02179055929091529054041615612b3d576001604060020a03808316600090815260018601602052604080822054608860020a900483168252902080549185166101000268ffffffffffffffff00199092169190911790555b506001604060020a0391821660008181526001949094016020526040808520805468ffffffffffffffff0019166101009490951693840294909417909355908352912080546000805160206132e683398151915216608860020a909202919091179055565b6001604060020a038082166000908152600184016020526040812054610100900490911690612bd1848461264c565b6001604060020a03808416600081815260018089016020526040808320805460ff19908116825586881685529184208054909216909217905591905254919250848116604860020a90920416148015612c4f57506001604060020a038181166000908152600186016020526040902054604860020a90048116908316145b15612c6357612c5e848261296f565b612c6d565b612c6d848261273c565b50505050565b6001604060020a0380821660009081526001840160205260408120546101009004909116908115612c6d57612ca88484612d41565b6001604060020a038116600090815260018601602052604090205490915060ff1615612d37576001604060020a03828116600081815260018781016020526040808320805460ff1990811690931781558686168452908320805490921690915591905254604860020a900481169084161415612d2d57612d28848361273c565b612d37565b612d37848361296f565b612c6d8484612dd5565b6001604060020a03808216600081815260018501602052604080822054610100900484168083529082205491939092604860020a909204161415612daa576001604060020a038082166000908152600186016020526040902054608860020a9004169150611340565b6001604060020a038082166000908152600186016020526040902054604860020a9004169150611340565b600080600080612de58686612d41565b6001604060020a03808716600090815260018901602052604080822054838516835281832054610100909104841680845291909220549397509550604860020a810482169450608860020a900416915060ff16158015612e6057506001604060020a038416600090815260018701602052604090205460ff16155b8015612e8757506001604060020a038216600090815260018701602052604090205460ff16155b8015612eae57506001604060020a038116600090815260018701602052604090205460ff16155b15612ee9576001604060020a038416600090815260018781016020526040909120805460ff19169091179055612ee48684612c73565b61104b565b6001604060020a038316600090815260018701602052604090205460ff168015612f2e57506001604060020a038416600090815260018701602052604090205460ff16155b8015612f5557506001604060020a038216600090815260018701602052604090205460ff16155b8015612f7c57506001604060020a038116600090815260018701602052604090205460ff16155b15612fbf576001604060020a03808516600090815260018881016020526040808320805460ff19908116909317905592861682529190208054909116905561104b565b6001604060020a038416600090815260018701602052604090205460ff161515613164576001604060020a038381166000908152600188016020526040902054604860020a9004811690861614801561303357506001604060020a038116600090815260018701602052604090205460ff16155b801561305957506001604060020a038216600090815260018701602052604090205460ff165b156130a6576001604060020a03808516600090815260018881016020526040808320805460ff1990811690931790559285168252919020805490911690556130a1868561296f565b613164565b6001604060020a038381166000908152600188016020526040902054608860020a900481169086161480156130f657506001604060020a038216600090815260018701602052604090205460ff16155b801561311c57506001604060020a038116600090815260018701602052604090205460ff165b15613164576001604060020a03808516600090815260018881016020526040808320805460ff199081169093179055928416825291902080549091169055613164868561273c565b6001604060020a03808416600081815260018901602052604080822080548986168452918320805460ff909316151560ff199384161790559290915281541690819055868216604860020a90910490911614156131e7576001604060020a03811660009081526001870160205260409020805460ff19169055612ee4868461273c565b6001604060020a03821660009081526001870160205260409020805460ff1916905561104b868461296f565b60a0604051908101604052806132276132b3565b8152600060208201819052604082018190526060820181905260809091015290565b6040805160e081018252600080825260208201819052918101829052606081018290526080810182905260a0810182905260c081019190915290565b6040805160a08101825260008082526020820181905291810182905260608101829052608081019190915290565b604080516020810190915260008152905600ac33ff75c19e70fe83507db0d683fd3465c996598dc972688b7ace676c89077bffffffffffffff0000000000000000ffffffffffffffffffffffffffffffffffa165627a7a723058205b4ff94ae88aef841b205316b7ef21c4efd42468858d9949678f137c2e4418200029",
  "source": "pragma solidity ^0.4.22;\n\nimport './lib/ERC20.sol';\nimport './lib/SafeMath.sol';\nimport './lib/RedBlackTree.sol';\n\ncontract ExchangePure {\n\tusing SafeMath for uint;\n\tusing RedBlackTree for RedBlackTree.Tree;\n\n\tenum Fee {\n\t\tMaker,\n\t\tTaker,\n\t\tWithdrawal\n\t}\n\n\tstruct Balance {\n\t\tuint available;\n\t\tuint reserved;\n\t}\n\n\tstruct Order {\n    address user;\n    uint amount;\n    uint price;\n    bool sell;\n    uint timestamp;\n    uint64 next;\n    uint64 prev;\n  }\n\n  struct Market {\n  \tmapping (uint64 => Order) orderbook;\n  \tmapping (uint => uint64) lastIdForPrice;\n  \tRedBlackTree.Tree priceTree;\n    uint64 bid;\n    uint64 ask;\n    uint64 first;\n    uint64 last;\n  }\n\n  uint64 private lastId;\n  address private owner;\n  address private feeCollector;\n  mapping (address => mapping (address => Balance)) private balances;\n  mapping (uint => uint) public fees;\n  mapping (address => Market) private markets;\n\n  event Deposit(address indexed token, address indexed user, uint amount, uint balance);\n\tevent Withdraw(address indexed token, address indexed user, uint amount, uint balance);\n\tevent NewOrder(address indexed user, address indexed market, uint64 indexed id, uint price, uint amount, uint timestamp, bool sell);\n\tevent Ask(address indexed token, uint price);\n  event Bid(address indexed token, uint price);\n  event Trade(address indexed token, uint64 indexed bid, uint64 indexed ask, uint price, uint amount, uint timestamp, bool sell);\n\n\tmodifier ownerOnly {\n\t\trequire(msg.sender == owner);\n\t\t_;\n\t}\n\n\tconstructor() public {\n\t\towner = msg.sender;\n\t\tfeeCollector = msg.sender;\n\t}\n\n\tfunction changeFeeCollector(address _feeCollector) public ownerOnly {\n\t\tfeeCollector = _feeCollector;\n\t}\n\n\tfunction changeFee(uint _type, uint _value) public {\n\t\tif (_value > 50 finney) _value = 50 finney;\n\t\tfees[_type] = _value;\n\t}\n\n\tfunction changeOwner(address _owner) public ownerOnly {\n\t\towner = _owner;\n\t}\n\n\tfunction deposit(address _token, uint _amount) public payable {\n\t\tif (_token == 0) {\n\t\t\trequire(msg.value == _amount);\n\t\t\tbalances[0][msg.sender].available = balances[0][msg.sender].available.add(msg.value);\n    } else {\n\t\t\trequire(msg.value == 0);\n\t\t\tbalances[_token][msg.sender].available = balances[_token][msg.sender].available.add(_amount);\n\t\t\trequire(ERC20(_token).transferFrom(msg.sender, this, _amount));\n    }\n    emit Deposit(_token, msg.sender, _amount, balances[_token][msg.sender].available);\n\t}\n\n\tfunction withdraw(address _token, uint _amount) public {\n\t\trequire(balances[_token][msg.sender].available >= _amount);\n    balances[_token][msg.sender].available = balances[_token][msg.sender].available.sub(_amount);\n    uint fee = (fees[uint(Fee.Withdrawal)].mul(_amount)).div(1 ether);\n    balances[_token][feeCollector].available = balances[_token][feeCollector].available.add(fee);\n    if (_token == 0) {\n      require(msg.sender.send(_amount.sub(fee)));\n    } else {\n      require(ERC20(_token).transfer(msg.sender, _amount.sub(fee)));\n    }\n    emit Withdraw(_token, msg.sender, _amount, balances[_token][msg.sender].available);\n\t}\n\n\tfunction getBalance(address _token, address _user) public view returns(uint available, uint reserved) {\n\t\tavailable = balances[_token][_user].available;\n    reserved = balances[_token][_user].reserved;\n\t}\n\n\tfunction createOrder(address _marketAddress, uint _amount, uint _price, bool _sell) public {\n\t\trequire(_marketAddress != 0);\n\n\t\tMarket storage market = markets[_marketAddress];\n\t\tOrder memory order;\n\t\torder.user = msg.sender;\n\t\torder.amount = _amount;\n\t\torder.price = _price;\n\t\torder.sell = _sell;\n\t\torder.timestamp = now;\n\n\t\tuint64 orderId = ++lastId;\n\n\t\tif (order.sell) {\n\t\t\tbalances[_marketAddress][msg.sender].available = balances[_marketAddress][msg.sender].available.sub(_amount);\n\t\t\tbalances[_marketAddress][msg.sender].reserved = balances[_marketAddress][msg.sender].reserved.add(_amount);\n\t\t\tmatchBuyOrders(_marketAddress, market, order, orderId);\n\t\t} else {\n\t\t\tuint etherAmount = (_price.mul(_amount)).div(1 ether);\n\t\t\tbalances[0][msg.sender].available = balances[0][msg.sender].available.sub(etherAmount);\n\t\t\tbalances[0][msg.sender].reserved = balances[0][msg.sender].reserved.add(etherAmount);\n\t\t\tmatchSellOrders(_marketAddress, market, order, orderId);\n\t\t}\n\n\t\tif (order.amount != 0) {\n\t\t\tuint64 parentId = market.lastIdForPrice[order.price] != 0 ? market.lastIdForPrice[order.price] : market.priceTree.find(order.price);\n\t\t\tOrder storage parent = market.orderbook[parentId];\n\t\t\tOrder storage parentPrev = market.orderbook[parent.prev];\n\t\t\tOrder storage parentNext = market.orderbook[parent.next];\n\t\t\n\t\t\tif (parentId != 0) {\n\t\t\t\tif (_price >= parent.price) {\n\t\t\t\t\torder.next = parent.next;\n\t\t\t\t\torder.prev = parentId;\n\t\t\t\t\tparent.next = orderId;\n\t\t\t\t\tparentNext.prev = orderId;\n\t\t\t\t} else {\n\t\t\t\t\torder.next = parentId;\n\t\t\t\t\torder.prev = parent.prev;\n\t\t\t\t\tparent.prev = orderId;\n\t\t\t\t\tparentPrev.next = orderId;\n\t\t\t\t}\n\t\t\t} else {\n\t\t\t\torder.next = 0;\n\t\t\t\torder.prev = 0;\n\t\t\t}\n\n\t\t\tif ((order.sell && market.bid == 0) || (order.sell && order.price < market.orderbook[market.bid].price)) {\n\t\t\t\tmarket.bid = orderId;\n\t\t\t\temit Bid(_marketAddress, _price);\n\t\t\t}\n\n\t\t\tif ((!order.sell && market.ask == 0) || (!order.sell && order.price >= market.orderbook[market.ask].price)) {\n\t\t\t\tmarket.ask = orderId;\n\t\t\t\temit Ask(_marketAddress, _price);\n\t\t\t}\n\n\t\t\tmarket.priceTree.placeAfter(parentId, orderId, order.price);\n\t\t\tmarket.orderbook[orderId] = order;\n\t\t\tmarket.lastIdForPrice[order.price] = orderId;\n\t\t\temit NewOrder(msg.sender, _marketAddress, orderId, order.price, order.amount, now, order.sell);\n\t\t}\n\t}\n\n\tfunction matchSellOrders(address _marketAddress, Market storage market, Order memory order, uint64 orderId) private {\n\t\tuint64 matchedId = market.bid;\n\n\t\twhile (matchedId != 0 && order.amount != 0 && order.price >= market.orderbook[matchedId].price) {\n\t\t\tOrder storage matchedOrder = market.orderbook[matchedId];\n\n\t\t\tuint tradeAmountInTokens;\n\t\t\tif (order.amount >= matchedOrder.amount) {\n\t\t\t\ttradeAmountInTokens = matchedOrder.amount;\n\t\t\t} else {\n\t\t\t\ttradeAmountInTokens = order.amount;\n\t\t\t}\n\t\t\tuint tradeAmountInEther = (tradeAmountInTokens.mul(matchedOrder.price)).div(1 ether);\n\t\t\tuint overpaid = ((tradeAmountInTokens.mul(order.price)).div(1 ether)).sub(tradeAmountInEther);\n\t\t\torder.amount = order.amount.sub(tradeAmountInTokens);\n\t\t\tmatchedOrder.amount = matchedOrder.amount.sub(tradeAmountInTokens);\n\n\t\t\ttrade(_marketAddress, 0, matchedOrder.user, order.user, tradeAmountInTokens, tradeAmountInEther, overpaid);\n\n\t\t\temit Trade(_marketAddress, orderId, matchedId, matchedOrder.price, tradeAmountInTokens, now, order.sell);\n\n\t\t\tif (matchedOrder.amount != 0) {\n\t\t\t\tbreak;\n\t\t\t}\n\n\t\t\tOrder memory removed = remove(_marketAddress, matchedId);\n\n\t\t\tmatchedId = removed.next;\n\t\t}\n\t}\n\n\tfunction matchBuyOrders(address _marketAddress, Market storage market, Order memory order, uint64 orderId) private {\n\t\tuint64 matchedId = market.ask;\n\n\t\twhile (matchedId != 0 && order.amount != 0 && order.price <= market.orderbook[matchedId].price) {\n\t\t\tOrder storage matchedOrder = market.orderbook[matchedId];\n\n\t\t\tuint tradeAmountInTokens;\n\t\t\tif (order.amount >= matchedOrder.amount) {\n\t\t\t\ttradeAmountInTokens = matchedOrder.amount;\n\t\t\t} else {\n\t\t\t\ttradeAmountInTokens = order.amount;\n\t\t\t}\n\t\t\tuint tradeAmountInEther = (tradeAmountInTokens.mul(matchedOrder.price)).div(1 ether);\n\t\t\torder.amount = order.amount.sub(tradeAmountInTokens);\n\t\t\tmatchedOrder.amount = matchedOrder.amount.sub(tradeAmountInTokens);\n\n\t\t\ttrade(0, _marketAddress, matchedOrder.user, order.user, tradeAmountInEther, tradeAmountInTokens, 0);\n\n\t\t\temit Trade(_marketAddress, orderId, matchedId, matchedOrder.price, tradeAmountInTokens, now, order.sell);\n\n\t\t\tif (matchedOrder.amount != 0) {\n\t\t\t\tbreak;\n\t\t\t}\n\n\t\t\tOrder memory removed = remove(_marketAddress, matchedId);\n\t\t\tmatchedId = removed.prev;\n\t\t}\n\t}\n\n\tfunction trade(address token1, address token2, address user1, address user2, uint amount1, uint amount2, uint overpaid) private {\n\t\tuint makerFee = (fees[uint(Fee.Maker)].mul(amount2)).div(1 ether);\n\t\tuint takerFee = (fees[uint(Fee.Taker)].mul(amount1)).div(1 ether);\n\t\tbalances[token1][user1].reserved = balances[token1][user1].reserved.sub(amount1);\n\t\tbalances[token2][user1].available = balances[token2][user1].available.add(amount2.sub(makerFee));\n\t\tbalances[token2][user2].reserved = balances[token2][user2].reserved.sub(amount2).sub(overpaid);\n\t\tbalances[token1][user2].available = balances[token1][user2].available.add(amount1.sub(takerFee));\n\t\tbalances[token2][user2].available = balances[token2][user2].available.add(overpaid);\n\t\tbalances[token1][feeCollector].available = balances[token1][feeCollector].available.add(takerFee);\n\t\tbalances[token2][feeCollector].available = balances[token2][feeCollector].available.add(makerFee);\n\t}\n\n\tfunction cancelOrder(address _marketAddress, uint64 _orderId) public {\n\t\trequire(_marketAddress != 0);\n\t\tMarket storage market = markets[_marketAddress];\n\t\tOrder storage order = market.orderbook[_orderId];\n\t\trequire(order.user == msg.sender);\n\n\t\tif (order.sell) {\n\t\t\tbalances[_marketAddress][msg.sender].available = balances[_marketAddress][msg.sender].available.add(order.amount);\n\t\t\tbalances[_marketAddress][msg.sender].reserved = balances[_marketAddress][msg.sender].reserved.sub(order.amount);\n\t\t} else {\n\t\t\tuint etherAmount = (order.price.mul(order.amount)).div(1 ether);\n\t\t\tbalances[0][msg.sender].available = balances[0][msg.sender].available.add(etherAmount);\n\t\t\tbalances[0][msg.sender].reserved = balances[0][msg.sender].reserved.sub(etherAmount);\n\t\t}\n\n\t\tremove(_marketAddress, _orderId);\n\t}\n\n\tfunction remove(address _marketAddress, uint64 _orderId) private returns (Order) {\n\t\tMarket storage market = markets[_marketAddress];\n\t\tOrder memory order = market.orderbook[_orderId];\n\t\tif (market.bid == _orderId) {\n\t\t\tif (market.orderbook[order.prev].price == order.price) {\n\t\t\t\tmarket.bid = order.prev;\n\t    \temit Bid(_marketAddress, market.orderbook[order.prev].price);\n\t\t\t} else {\n\t\t\t\tmarket.bid = order.next;\n\t    \temit Bid(_marketAddress, market.orderbook[order.next].price);\n\t\t\t}\n\t\t}\n\t\tif (market.ask == _orderId) {\n\t    market.ask = order.prev;\n\t    emit Ask(_marketAddress, market.orderbook[order.prev].price);\n\t\t}\n\t\tmarket.orderbook[order.next].prev = order.prev;\n\t\tmarket.orderbook[order.prev].next = order.next;\n\t\tif (market.lastIdForPrice[order.price] == _orderId) {\n\t\t\tif (market.orderbook[order.prev].price == order.price) {\n\t\t\t\tmarket.lastIdForPrice[order.price] = order.prev;\n\t\t\t} else {\n\t\t\t\tdelete market.lastIdForPrice[order.price];\n\t\t\t}\n\t\t}\n\t\tmarket.priceTree.remove(_orderId);\n\t\tdelete market.orderbook[_orderId];\n\t\treturn order;\n\t}\n\n\tfunction getOrder(address _marketAddress, uint64 _orderId) public view returns (address user, uint amount, uint price, uint64 next, uint64 prev, bool sell, uint timestamp) {\n\t\trequire(_marketAddress != 0);\n\t\tOrder memory order = markets[_marketAddress].orderbook[_orderId];\n\t\tuser = order.user;\n\t\tamount = order.amount;\n\t\tprice = order.price;\n\t\tnext = order.next;\n\t\tprev = order.prev;\n\t\tsell = order.sell;\n\t\ttimestamp = order.timestamp;\n\t}\n\n\tfunction getMarketInfo(address _marketAddress) public view returns (uint64 bid, uint64 ask) {\n\t\trequire(_marketAddress != 0);\n\t\tMarket memory market = markets[_marketAddress];\n\t\tbid = market.bid;\n\t\task = market.ask;\n\t}\n\n\tfunction getLastOrderIdForMarketPrice(address _marketAddress, uint _price) public view returns (uint64 id) {\n\t\tid = markets[_marketAddress].lastIdForPrice[_price];\n\t}\n}\n\n",
  "sourcePath": "/Users/hieu/dev/odin-contracts/contracts/ExchangePure.sol",
  "compiler": {
    "name": "solc",
    "version": "0.4.24+commit.e67f0147.Emscripten.clang"
  },
  "schemaVersion": "2.0.1",
  "updatedAt": "2018-12-13T16:19:17.923Z"
}