{
  "contractName": "Exchange",
  "abi": [
    {
      "constant": true,
      "inputs": [],
      "name": "airdropAccountAddress",
      "outputs": [
        {
          "name": "",
          "type": "address"
        }
      ],
      "payable": false,
      "stateMutability": "view",
      "type": "function"
    },
    {
      "constant": true,
      "inputs": [],
      "name": "signer",
      "outputs": [
        {
          "name": "",
          "type": "address"
        }
      ],
      "payable": false,
      "stateMutability": "view",
      "type": "function"
    },
    {
      "constant": true,
      "inputs": [],
      "name": "airdropStatus",
      "outputs": [
        {
          "name": "",
          "type": "bool"
        }
      ],
      "payable": false,
      "stateMutability": "view",
      "type": "function"
    },
    {
      "constant": true,
      "inputs": [
        {
          "name": "",
          "type": "bytes32"
        }
      ],
      "name": "withdrawn",
      "outputs": [
        {
          "name": "",
          "type": "bool"
        }
      ],
      "payable": false,
      "stateMutability": "view",
      "type": "function"
    },
    {
      "constant": true,
      "inputs": [],
      "name": "airdropRatePerEth",
      "outputs": [
        {
          "name": "",
          "type": "uint256"
        }
      ],
      "payable": false,
      "stateMutability": "view",
      "type": "function"
    },
    {
      "constant": true,
      "inputs": [],
      "name": "owner",
      "outputs": [
        {
          "name": "",
          "type": "address"
        }
      ],
      "payable": false,
      "stateMutability": "view",
      "type": "function"
    },
    {
      "constant": true,
      "inputs": [],
      "name": "airdropTokenAddress",
      "outputs": [
        {
          "name": "",
          "type": "address"
        }
      ],
      "payable": false,
      "stateMutability": "view",
      "type": "function"
    },
    {
      "constant": true,
      "inputs": [
        {
          "name": "",
          "type": "address"
        },
        {
          "name": "",
          "type": "address"
        }
      ],
      "name": "balances",
      "outputs": [
        {
          "name": "",
          "type": "uint256"
        }
      ],
      "payable": false,
      "stateMutability": "view",
      "type": "function"
    },
    {
      "constant": true,
      "inputs": [],
      "name": "feeCollector",
      "outputs": [
        {
          "name": "",
          "type": "address"
        }
      ],
      "payable": false,
      "stateMutability": "view",
      "type": "function"
    },
    {
      "constant": true,
      "inputs": [],
      "name": "timelock",
      "outputs": [
        {
          "name": "",
          "type": "uint256"
        }
      ],
      "payable": false,
      "stateMutability": "view",
      "type": "function"
    },
    {
      "constant": true,
      "inputs": [
        {
          "name": "",
          "type": "bytes32"
        }
      ],
      "name": "traded",
      "outputs": [
        {
          "name": "",
          "type": "bool"
        }
      ],
      "payable": false,
      "stateMutability": "view",
      "type": "function"
    },
    {
      "constant": true,
      "inputs": [
        {
          "name": "",
          "type": "address"
        }
      ],
      "name": "lastActivity",
      "outputs": [
        {
          "name": "",
          "type": "uint256"
        }
      ],
      "payable": false,
      "stateMutability": "view",
      "type": "function"
    },
    {
      "constant": true,
      "inputs": [
        {
          "name": "",
          "type": "bytes32"
        }
      ],
      "name": "orderFills",
      "outputs": [
        {
          "name": "",
          "type": "uint256"
        }
      ],
      "payable": false,
      "stateMutability": "view",
      "type": "function"
    },
    {
      "inputs": [],
      "payable": false,
      "stateMutability": "nonpayable",
      "type": "constructor"
    },
    {
      "anonymous": false,
      "inputs": [
        {
          "indexed": false,
          "name": "token",
          "type": "address"
        },
        {
          "indexed": false,
          "name": "account",
          "type": "address"
        },
        {
          "indexed": false,
          "name": "amount",
          "type": "uint256"
        },
        {
          "indexed": false,
          "name": "balance",
          "type": "uint256"
        }
      ],
      "name": "Deposit",
      "type": "event"
    },
    {
      "anonymous": false,
      "inputs": [
        {
          "indexed": false,
          "name": "token",
          "type": "address"
        },
        {
          "indexed": false,
          "name": "account",
          "type": "address"
        },
        {
          "indexed": false,
          "name": "amount",
          "type": "uint256"
        },
        {
          "indexed": false,
          "name": "balance",
          "type": "uint256"
        }
      ],
      "name": "Withdraw",
      "type": "event"
    },
    {
      "anonymous": false,
      "inputs": [
        {
          "indexed": false,
          "name": "tokenBuy",
          "type": "address"
        },
        {
          "indexed": false,
          "name": "amountBuy",
          "type": "uint256"
        },
        {
          "indexed": false,
          "name": "tokenSell",
          "type": "address"
        },
        {
          "indexed": false,
          "name": "amountSell",
          "type": "uint256"
        },
        {
          "indexed": false,
          "name": "get",
          "type": "address"
        },
        {
          "indexed": false,
          "name": "give",
          "type": "address"
        }
      ],
      "name": "Trade",
      "type": "event"
    },
    {
      "constant": false,
      "inputs": [
        {
          "name": "_status",
          "type": "bool"
        }
      ],
      "name": "setAirdropStatus",
      "outputs": [],
      "payable": false,
      "stateMutability": "nonpayable",
      "type": "function"
    },
    {
      "constant": false,
      "inputs": [
        {
          "name": "_address",
          "type": "address"
        }
      ],
      "name": "setAirdropTokenAddress",
      "outputs": [],
      "payable": false,
      "stateMutability": "nonpayable",
      "type": "function"
    },
    {
      "constant": false,
      "inputs": [
        {
          "name": "_ratePerEth",
          "type": "uint256"
        }
      ],
      "name": "setAirdropRatePerEth",
      "outputs": [],
      "payable": false,
      "stateMutability": "nonpayable",
      "type": "function"
    },
    {
      "constant": false,
      "inputs": [
        {
          "name": "_address",
          "type": "address"
        }
      ],
      "name": "changeAirdropAccountAddress",
      "outputs": [],
      "payable": false,
      "stateMutability": "nonpayable",
      "type": "function"
    },
    {
      "constant": false,
      "inputs": [
        {
          "name": "_feeCollector",
          "type": "address"
        }
      ],
      "name": "changeFeeCollector",
      "outputs": [],
      "payable": false,
      "stateMutability": "nonpayable",
      "type": "function"
    },
    {
      "constant": false,
      "inputs": [
        {
          "name": "_signer",
          "type": "address"
        }
      ],
      "name": "changeSigner",
      "outputs": [],
      "payable": false,
      "stateMutability": "nonpayable",
      "type": "function"
    },
    {
      "constant": false,
      "inputs": [
        {
          "name": "_owner",
          "type": "address"
        }
      ],
      "name": "changeOwner",
      "outputs": [],
      "payable": false,
      "stateMutability": "nonpayable",
      "type": "function"
    },
    {
      "constant": false,
      "inputs": [
        {
          "name": "_duration",
          "type": "uint256"
        }
      ],
      "name": "setTimelock",
      "outputs": [],
      "payable": false,
      "stateMutability": "nonpayable",
      "type": "function"
    },
    {
      "constant": false,
      "inputs": [
        {
          "name": "_token",
          "type": "address"
        },
        {
          "name": "_amount",
          "type": "uint256"
        }
      ],
      "name": "deposit",
      "outputs": [],
      "payable": true,
      "stateMutability": "payable",
      "type": "function"
    },
    {
      "constant": false,
      "inputs": [
        {
          "name": "_token",
          "type": "address"
        },
        {
          "name": "_amount",
          "type": "uint256"
        },
        {
          "name": "_account",
          "type": "address"
        },
        {
          "name": "_nonce",
          "type": "uint256"
        },
        {
          "name": "v",
          "type": "uint8"
        },
        {
          "name": "r",
          "type": "bytes32"
        },
        {
          "name": "s",
          "type": "bytes32"
        },
        {
          "name": "_fee",
          "type": "uint256"
        }
      ],
      "name": "withdraw",
      "outputs": [],
      "payable": false,
      "stateMutability": "nonpayable",
      "type": "function"
    },
    {
      "constant": false,
      "inputs": [
        {
          "name": "_token",
          "type": "address"
        },
        {
          "name": "_amount",
          "type": "uint256"
        }
      ],
      "name": "withdrawEmergency",
      "outputs": [],
      "payable": false,
      "stateMutability": "nonpayable",
      "type": "function"
    },
    {
      "constant": false,
      "inputs": [
        {
          "name": "_addresses",
          "type": "address[]"
        },
        {
          "name": "_uints",
          "type": "uint256[]"
        },
        {
          "name": "v",
          "type": "uint8[]"
        },
        {
          "name": "rs",
          "type": "bytes32[]"
        }
      ],
      "name": "trade",
      "outputs": [],
      "payable": false,
      "stateMutability": "nonpayable",
      "type": "function"
    }
  ],
  "bytecode": "0x608060405234801561001057600080fd5b506000805433600160a060020a0319918216811783556002805483168217905560018054831682179055620186a0600355600b805490921617905561213d90819061005b90396000f3006080604052600436106101485763ffffffff7c010000000000000000000000000000000000000000000000000000000060003504166308ed0236811461014d5780630dee3198146101695780631e891c0a1461019a578063238ac933146101b25780632cf1a5fb146101c75780633823d66c146101f057806347e7ef24146102085780636c3d7e1d1461021f5780636c8ae8dc146102435780636cb2456e146102805780636ef0222c146102a15780638cef41b6146102c85780638da5cb5b146102e05780639245290d146102f557806397128d6e14610316578063a6f9dae114610416578063aad2b72314610437578063b73e0e8b14610458578063b864ba7d1461046d578063c23f001f1461048e578063c415b95c146104b5578063d33219b4146104ca578063d5813323146104df578063f07e96b3146104f7578063f7213db614610518575b600080fd5b34801561015957600080fd5b506101676004351515610530565b005b34801561017557600080fd5b5061017e61055a565b60408051600160a060020a039092168252519081900360200190f35b3480156101a657600080fd5b50610167600435610569565b3480156101be57600080fd5b5061017e610595565b3480156101d357600080fd5b506101dc6105a4565b604080519115158252519081900360200190f35b3480156101fc57600080fd5b506101dc6004356105ad565b610167600160a060020a03600435166024356105c2565b34801561022b57600080fd5b50610167600160a060020a03600435166024356107d0565b34801561024f57600080fd5b50610167600160a060020a03600435811690602435906044351660643560ff6084351660a43560c43560e4356109d3565b34801561028c57600080fd5b50610167600160a060020a0360043516610d96565b3480156102ad57600080fd5b506102b6610ddc565b60408051918252519081900360200190f35b3480156102d457600080fd5b50610167600435610de2565b3480156102ec57600080fd5b5061017e610dfe565b34801561030157600080fd5b50610167600160a060020a0360043516610e0d565b34801561032257600080fd5b506040805160206004803580820135838102808601850190965280855261016795369593946024949385019291829185019084908082843750506040805187358901803560208181028481018201909552818452989b9a998901989297509082019550935083925085019084908082843750506040805187358901803560208181028481018201909552818452989b9a998901989297509082019550935083925085019084908082843750506040805187358901803560208181028481018201909552818452989b9a998901989297509082019550935083925085019084908082843750949750610e539650505050505050565b34801561042257600080fd5b50610167600160a060020a0360043516611df6565b34801561044357600080fd5b50610167600160a060020a0360043516611e3c565b34801561046457600080fd5b5061017e611e82565b34801561047957600080fd5b50610167600160a060020a0360043516611e96565b34801561049a57600080fd5b506102b6600160a060020a0360043581169060243516611ee2565b3480156104c157600080fd5b5061017e611eff565b3480156104d657600080fd5b506102b6611f0e565b3480156104eb57600080fd5b506101dc600435611f14565b34801561050357600080fd5b506102b6600160a060020a0360043516611f29565b34801561052457600080fd5b506102b6600435611f3b565b600154600160a060020a0316331461054757600080fd5b6009805460ff1916911515919091179055565b600b54600160a060020a031681565b600154600160a060020a0316331461058057600080fd5b620f424081111561059057600080fd5b600355565b600054600160a060020a031681565b60095460ff1681565b60076020526000908152604090205460ff1681565b336000908152600460205260409020439055600160a060020a0382161515610663573481146105f057600080fd5b3360009081527f05b8ccbb9d4d8fb16ea74ce3c29a41f1b461fbdaff4714a0d9a8eb05499746bc602052604090205461062f903463ffffffff611f4d16565b3360009081527f05b8ccbb9d4d8fb16ea74ce3c29a41f1b461fbdaff4714a0d9a8eb05499746bc6020526040902055610763565b341561066e57600080fd5b600160a060020a03821660009081526005602090815260408083203384529091529020546106a2908263ffffffff611f4d16565b600160a060020a0383166000818152600560209081526040808320338085529083528184209590955580517f23b872dd0000000000000000000000000000000000000000000000000000000081526004810195909552306024860152604485018690525192936323b872dd9360648083019491928390030190829087803b15801561072c57600080fd5b505af1158015610740573d6000803e3d6000fd5b505050506040513d602081101561075657600080fd5b5051151561076357600080fd5b600160a060020a03821660008181526005602090815260408083203380855290835292819020548151948552918401929092528282018490526060830152517fdcbc1c05240f31ff3ad067ef1ee35ce4997762752e3a095284754544f4c709d79181900360800190a15050565b600354336000908152600460205260409020546107f490439063ffffffff611f6016565b116107fe57600080fd5b336000818152600460209081526040808320439055600160a060020a038616835260058252808320938352929052205481111561083a57600080fd5b600160a060020a038216600090815260056020908152604080832033845290915290205461086e908263ffffffff611f6016565b600160a060020a038316600081815260056020908152604080832033845290915290209190915515156108c757604051339082156108fc029083906000818181858888f1935050505015156108c257600080fd5b610966565b604080517fa9059cbb000000000000000000000000000000000000000000000000000000008152336004820152602481018390529051600160a060020a0384169163a9059cbb9160448083019260209291908290030181600087803b15801561092f57600080fd5b505af1158015610943573d6000803e3d6000fd5b505050506040513d602081101561095957600080fd5b5051151561096657600080fd5b600160a060020a03821660008181526005602090815260408083203380855290835292819020548151948552918401929092528282018490526060830152517ff341246adaac6f497bc2a656f546ab9e182111d630394f0c57c710a59a2cb5679181900360800190a15050565b60008054600160a060020a031633146109eb57600080fd5b3360009081526004602090815260409182902043905581516c0100000000000000000000000030810282840152600160a060020a038d811682026034840152604883018d90528b16026068820152607c8082018a905283518083039091018152609c9091019283905280519092918291908401908083835b60208310610a825780518252601f199092019160209182019101610a63565b51815160209384036101000a6000190180199092169116179052604080519290940182900390912060008181526007909252929020549194505060ff16159150610acd905057600080fd5b6000818152600760205260409020805460ff1916600117905533610af382878787611f72565b600160a060020a031614610b0657600080fd5b600160a060020a0389166000908152600560209081526040808320338452909152902054881115610b3657600080fd5b600160a060020a0389166000908152600560209081526040808320338452909152902054610b6a908963ffffffff611f6016565b600160a060020a038a16600090815260056020908152604080832033845290915290205566b1a2bc2ec50000821115610ba85766b1a2bc2ec5000091505b610bd0670de0b6b3a7640000610bc4848b63ffffffff6120d316565b9063ffffffff6120fc16565b600160a060020a03808b16600090815260056020908152604080832060025490941683529290522054909250610c0c908363ffffffff611f4d16565b600160a060020a03808b16600090815260056020908152604080832060025490941683529290522055610c45888363ffffffff611f6016565b9750600160a060020a0389161515610c8357604051339089156108fc02908a906000818181858888f193505050501515610c7e57600080fd5b610d22565b604080517fa9059cbb000000000000000000000000000000000000000000000000000000008152336004820152602481018a90529051600160a060020a038b169163a9059cbb9160448083019260209291908290030181600087803b158015610ceb57600080fd5b505af1158015610cff573d6000803e3d6000fd5b505050506040513d6020811015610d1557600080fd5b50511515610d2257600080fd5b600160a060020a03891660008181526005602090815260408083203380855290835292819020548151948552918401929092528282018b90526060830152517ff341246adaac6f497bc2a656f546ab9e182111d630394f0c57c710a59a2cb5679181900360800190a1505050505050505050565b600154600160a060020a03163314610dad57600080fd5b600b805473ffffffffffffffffffffffffffffffffffffffff1916600160a060020a0392909216919091179055565b600a5481565b600154600160a060020a03163314610df957600080fd5b600a55565b600154600160a060020a031681565b600154600160a060020a03163314610e2457600080fd5b6002805473ffffffffffffffffffffffffffffffffffffffff1916600160a060020a0392909216919091179055565b6000805481908190819081908190600160a060020a03163314610e7557600080fd5b43600460008c6000815181101515610e8957fe5b90602001906020020151600160a060020a0316600160a060020a031681526020019081526020016000208190555043600460008c6001815181101515610ecb57fe5b90602001906020020151600160a060020a0316600160a060020a0316815260200190815260200160002081905550308a6000815181101515610f0957fe5b906020019060200201518b6002815181101515610f2257fe5b906020019060200201518b6000815181101515610f3b57fe5b906020019060200201518d6003815181101515610f5457fe5b906020019060200201518d6001815181101515610f6d57fe5b906020019060200201518e6003815181101515610f8657fe5b906020019060200201518f6007815181101515610f9f57fe5b6020908102909101810151604080516c01000000000000000000000000600160a060020a039b8c16810282860152998b168a026034820152978a1689026048890152605c88019690965293909716909502607c850152609084015260b083019390935260d0808301939093528051808303909301835260f09091019081905281519192909182918401908083835b6020831061104c5780518252601f19909201916020918201910161102d565b6001836020036101000a0380198251168184511680821785525050505050509050019150506040518091039020955089600081518110151561108a57fe5b90602001906020020151600160a060020a03166110f1878a60008151811015156110b057fe5b906020019060200201518a60008151811015156110c957fe5b906020019060200201518b60018151811015156110e257fe5b90602001906020020151611f72565b600160a060020a03161461110457600080fd5b30868b600181518110151561111557fe5b906020019060200201518b600281518110151561112e57fe5b906020019060200201518c600481518110151561114757fe5b906020019060200201516040516020018086600160a060020a0316600160a060020a03166c01000000000000000000000000028152601401856000191660001916815260200184600160a060020a0316600160a060020a03166c01000000000000000000000000028152601401838152602001828152602001955050505050506040516020818303038152906040526040518082805190602001908083835b602083106112055780518252601f1990920191602091820191016111e6565b6001836020036101000a0380198251168184511680821785525050505050509050019150506040518091039020945089600181518110151561124357fe5b90602001906020020151600160a060020a031661129b868a600181518110151561126957fe5b906020019060200201518a600281518110151561128257fe5b906020019060200201518b60038151811015156110e257fe5b600160a060020a0316146112ae57600080fd5b60008581526008602052604090205460ff16156112ca57600080fd5b6000858152600860205260409020805460ff1916600117905588516611c37937e08000908a9060059081106112fb57fe5b90602001906020020151111561132d576611c37937e0800089600581518110151561132257fe5b602090810290910101525b6611c37937e0800089600681518110151561134457fe5b906020019060200201511115611376576611c37937e0800089600681518110151561136b57fe5b602090810290910101525b88600281518110151561138557fe5b90602001906020020151600560008c60028151811015156113a257fe5b90602001906020020151600160a060020a0316600160a060020a0316815260200190815260200160002060008c60008151811015156113dd57fe5b6020908102909101810151600160a060020a0316825281019190915260400160002054101561140b57600080fd5b61147489600281518110151561141d57fe5b906020019060200201516114688b600081518110151561143957fe5b906020019060200201518c600181518110151561145257fe5b602090810290910101519063ffffffff6120fc16565b9063ffffffff6120d316565b600560008c600381518110151561148757fe5b90602001906020020151600160a060020a0316600160a060020a0316815260200190815260200160002060008c60018151811015156114c257fe5b6020908102909101810151600160a060020a031682528101919091526040016000205410156114f057600080fd5b8860008151811015156114ff57fe5b906020019060200201516115428a600281518110151561151b57fe5b602090810290910181015160008a815260069092526040909120549063ffffffff611f4d16565b111561154d57600080fd5b61159a670de0b6b3a7640000610bc48b600281518110151561156b57fe5b906020019060200201518c600681518110151561158457fe5b602090810290910101519063ffffffff6120d316565b93506116358960028151811015156115ae57fe5b90602001906020020151600560008d60028151811015156115cb57fe5b90602001906020020151600160a060020a0316600160a060020a0316815260200190815260200160002060008d600081518110151561160657fe5b6020908102909101810151600160a060020a03168252810191909152604001600020549063ffffffff611f6016565b600560008c600281518110151561164857fe5b90602001906020020151600160a060020a0316600160a060020a0316815260200190815260200160002060008c600081518110151561168357fe5b90602001906020020151600160a060020a0316600160a060020a031681526020019081526020016000208190555061175a6116dd858b60028151811015156116c757fe5b602090810290910101519063ffffffff611f6016565b600560008d60028151811015156116f057fe5b90602001906020020151600160a060020a0316600160a060020a0316815260200190815260200160002060008d600181518110151561172b57fe5b6020908102909101810151600160a060020a03168252810191909152604001600020549063ffffffff611f4d16565b600560008c600281518110151561176d57fe5b90602001906020020151600160a060020a0316600160a060020a0316815260200190815260200160002060008c60018151811015156117a857fe5b90602001906020020151600160a060020a0316600160a060020a031681526020019081526020016000208190555061183084600560008d60028151811015156117ed57fe5b6020908102909101810151600160a060020a039081168352828201939093526040918201600090812060025490941681529290529020549063ffffffff611f4d16565b600560008c600281518110151561184357fe5b6020908102909101810151600160a060020a0390811683528282019390935260409182016000908120600254909416815292905281209190915589516118e491670de0b6b3a764000091610bc4916118d5918e919081106118a057fe5b90602001906020020151610bc48e60028151811015156118bc57fe5b906020019060200201518f600181518110151561158457fe5b8c600581518110151561158457fe5b925061195961190b846118ff8c60008151811015156118a057fe5b9063ffffffff611f6016565b600560008d600381518110151561191e57fe5b90602001906020020151600160a060020a0316600160a060020a0316815260200190815260200160002060008d600081518110151561172b57fe5b600560008c600381518110151561196c57fe5b90602001906020020151600160a060020a0316600160a060020a0316815260200190815260200160002060008c60008151811015156119a757fe5b90602001906020020151600160a060020a0316600160a060020a0316815260200190815260200160002081905550611a6d611a1f8a60008151811015156119ea57fe5b90602001906020020151610bc48c6002815181101515611a0657fe5b906020019060200201518d600181518110151561158457fe5b600560008d6003815181101515611a3257fe5b90602001906020020151600160a060020a0316600160a060020a0316815260200190815260200160002060008d600181518110151561160657fe5b600560008c6003815181101515611a8057fe5b90602001906020020151600160a060020a0316600160a060020a0316815260200190815260200160002060008c6001815181101515611abb57fe5b90602001906020020151600160a060020a0316600160a060020a0316815260200190815260200160002081905550611b0083600560008d60038151811015156117ed57fe5b600560008c6003815181101515611b1357fe5b6020908102909101810151600160a060020a039081168352828201939093526040918201600090812060028054909516825290915220919091558951611b84918b918110611b5d57fe5b6020908102909101810151600089815260069092526040909120549063ffffffff611f4d16565b60008781526006602052604090205560095460ff1615611dea57886000815181101515611bad57fe5b906020019060200201519150896003815181101515611bc857fe5b90602001906020020151600160a060020a031660001415611bff57886001815181101515611bf257fe5b9060200190602002015191505b600a54611c1390839063ffffffff6120d316565b9050611c2681600263ffffffff6120d316565b600954600160a060020a0361010090910481166000908152600560209081526040808320600b54909416835292905220541015611c6257600080fd5b611cb3611c7682600263ffffffff6120d316565b600954600160a060020a0361010090910481166000908152600560209081526040808320600b54909416835292905220549063ffffffff611f6016565b60098054600160a060020a036101009182900481166000908152600560208181526040808420600b5486168552825280842097909755945493909304909116815291529081208b51611d0e928492918e908290811061172b57fe5b6009546101009004600160a060020a031660009081526005602052604081208c519091908d9082908110611d3e57fe5b6020908102909101810151600160a060020a03908116835282820193909352604091820160009081209490945560095461010090049092168352600590915281208b51611d95928492918e90600190811061172b57fe5b6009546101009004600160a060020a031660009081526005602052604081208c519091908d906001908110611dc657fe5b6020908102909101810151600160a060020a03168252810191909152604001600020555b50505050505050505050565b600154600160a060020a03163314611e0d57600080fd5b6001805473ffffffffffffffffffffffffffffffffffffffff1916600160a060020a0392909216919091179055565b600154600160a060020a03163314611e5357600080fd5b6000805473ffffffffffffffffffffffffffffffffffffffff1916600160a060020a0392909216919091179055565b6009546101009004600160a060020a031681565b600154600160a060020a03163314611ead57600080fd5b60098054600160a060020a039092166101000274ffffffffffffffffffffffffffffffffffffffff0019909216919091179055565b600560209081526000928352604080842090915290825290205481565b600254600160a060020a031681565b60035481565b60086020526000908152604090205460ff1681565b60046020526000908152604090205481565b60066020526000908152604090205481565b81810182811015611f5a57fe5b92915050565b600082821115611f6c57fe5b50900390565b604080518082018252601c8082527f19457468657265756d205369676e6564204d6573736167653a0a33320000000060208084019182529351600094859385938b939092019182918083835b60208310611fdd5780518252601f199092019160209182019101611fbe565b51815160209384036101000a600019018019909216911617905292019384525060408051808503815293820190819052835193945092839250908401908083835b6020831061203d5780518252601f19909201916020918201910161201e565b51815160209384036101000a600019018019909216911617905260408051929094018290038220600080845283830180875282905260ff8e1684870152606084018d9052608084018c905294519097506001965060a080840196509194601f19820194509281900390910191865af11580156120bd573d6000803e3d6000fd5b5050604051601f19015198975050505050505050565b60008215156120e457506000611f5a565b508181028183828115156120f457fe5b0414611f5a57fe5b6000818381151561210957fe5b0493925050505600a165627a7a723058208a958e15a5344e1212631dd5bf29add51700acbab5420f9845da3abc6dab98c00029",
  "source": "pragma solidity ^0.4.22;\n\nimport 'openzeppelin-solidity/contracts/math/SafeMath.sol';\nimport 'openzeppelin-solidity/contracts/token/ERC20/StandardToken.sol';\n\ncontract Exchange {\n\tusing SafeMath for uint;\n\n  address public signer;\n  address public owner;\n  address public feeCollector;\n\tuint public timelock;\n\tmapping (address => uint) public lastActivity;\n  mapping (address => mapping (address => uint)) public balances;\n  mapping (bytes32 => uint) public orderFills;\n  mapping (bytes32 => bool) public withdrawn;\n  mapping (bytes32 => bool) public traded;\n  bool public airdropStatus;\n\taddress public airdropTokenAddress;\n\tuint public airdropRatePerEth;\n\taddress public airdropAccountAddress;\n\n  event Deposit(address token, address account, uint amount, uint balance);\n\tevent Withdraw(address token, address account, uint amount, uint balance);\n\tevent Trade(address tokenBuy, uint amountBuy, address tokenSell, uint amountSell, address get, address give);\n\n\tmodifier signerOnly {\n\t\trequire(msg.sender == signer);\n\t\t_;\n\t}\n\n\tmodifier ownerOnly {\n\t\trequire(msg.sender == owner);\n\t\t_;\n\t}\n\n\tconstructor() public {\n\t\tsigner = msg.sender;\n\t\tfeeCollector = msg.sender;\n\t\towner = msg.sender;\n  \ttimelock = 100000;\n  \tairdropAccountAddress = msg.sender;\n\t}\n\n\tfunction setAirdropStatus(bool _status) public ownerOnly {\n\t\tairdropStatus = _status;\n\t}\n\n\tfunction setAirdropTokenAddress(address _address) public ownerOnly {\n\t\tairdropTokenAddress = _address;\n\t}\n\n\tfunction setAirdropRatePerEth(uint _ratePerEth) public ownerOnly {\n\t\tairdropRatePerEth = _ratePerEth;\n\t} \n\n\tfunction changeAirdropAccountAddress(address _address) public ownerOnly {\n\t\tairdropAccountAddress = _address;\n\t}\n\n\tfunction changeFeeCollector(address _feeCollector) public ownerOnly {\n\t\tfeeCollector = _feeCollector;\n\t}\n\n\tfunction changeSigner(address _signer) public ownerOnly {\n\t\tsigner = _signer;\n\t}\n\n\tfunction changeOwner(address _owner) public ownerOnly {\n\t\towner = _owner;\n\t}\n\n\tfunction setTimelock(uint _duration) public ownerOnly {\n\t\trequire(_duration <= 1000000);\n\t\ttimelock = _duration;\n\t}\n\n\tfunction deposit(address _token, uint _amount) public payable {\n\t\tlastActivity[msg.sender] = block.number;\n\t\tif (_token == 0) {\n\t\t\trequire(msg.value == _amount);\n\t\t\tbalances[0][msg.sender] = balances[0][msg.sender].add(msg.value);\n    } else {\n\t\t\trequire(msg.value == 0);\n\t\t\tbalances[_token][msg.sender] = balances[_token][msg.sender].add(_amount);\n\t\t\trequire(StandardToken(_token).transferFrom(msg.sender, this, _amount));\n    }\n    emit Deposit(_token, msg.sender, _amount, balances[_token][msg.sender]);\n\t}\n\n\tfunction withdraw(address _token, uint _amount, address _account, uint _nonce, uint8 v, bytes32 r, bytes32 s, uint _fee) public signerOnly {\n\t\tlastActivity[msg.sender] = block.number;\n\t\tbytes32 hash = keccak256(abi.encodePacked(this, _token, _amount, _account, _nonce));\n\t\trequire(!withdrawn[hash]);\n\t\twithdrawn[hash] = true;\n\t\trequire(recover(hash, v, r, s) == msg.sender);\n\t\trequire(balances[_token][msg.sender] >= _amount);\n    balances[_token][msg.sender] = balances[_token][msg.sender].sub(_amount);\n    if (_fee > 50 finney) _fee = 50 finney;\n    _fee = (_fee.mul(_amount)).div(1 ether);\n    balances[_token][feeCollector] = balances[_token][feeCollector].add(_fee);\n    _amount = _amount.sub(_fee);\n    if (_token == 0) {\n      require(msg.sender.send(_amount));\n    } else {\n      require(StandardToken(_token).transfer(msg.sender, _amount));\n    }\n    emit Withdraw(_token, msg.sender, _amount, balances[_token][msg.sender]);\n\t}\n\n\tfunction withdrawEmergency(address _token, uint _amount) public {\n\t\trequire(block.number.sub(lastActivity[msg.sender]) > timelock);\n\t\tlastActivity[msg.sender] = block.number;\n\t\trequire(balances[_token][msg.sender] >= _amount);\n    balances[_token][msg.sender] = balances[_token][msg.sender].sub(_amount);\n    if (_token == 0) {\n      require(msg.sender.send(_amount));\n    } else {\n      require(StandardToken(_token).transfer(msg.sender, _amount));\n    }\n    emit Withdraw(_token, msg.sender, _amount, balances[_token][msg.sender]);\n\t}\n\n\tfunction trade(address[] _addresses, uint[] _uints, uint8[] v, bytes32[] rs) public signerOnly {\n\t\t/*\n\t\t\t_addresses[0] == maker\n\t\t\t_addresses[1] == taker\n\t\t\t_addresses[2] == giveToken\n\t\t\t_addresses[3] == takeToken\n\t\t\t_uints[0] == giveAmount\n\t\t\t_uints[1] == takeAmount\n\t\t\t_uints[2] == amount\n\t\t\t_uints[3] == makerNonce\n\t\t\t_uints[4] == takerNonce\n\t\t\t_uints[5] == makerFee\n\t\t\t_uints[6] == takerFee\n\t\t\t_uints[7] == expiry\n\t\t\tv[0] == makerV\n\t\t\tv[1] == takerV\n\t\t\trs[0]..[1] == makerR, makerS\n\t\t\trs[2]..[3] == takerR, takerS\n\t\t*/\n\t\tlastActivity[_addresses[0]] = block.number;\n\t\tlastActivity[_addresses[1]] = block.number;\n\t\tbytes32 orderHash = keccak256(abi.encodePacked(this, _addresses[0], _addresses[2], _uints[0], _addresses[3], _uints[1], _uints[3], _uints[7]));\n\t\trequire(recover(orderHash, v[0], rs[0], rs[1]) == _addresses[0]);\n\t\tbytes32 tradeHash = keccak256(abi.encodePacked(this, orderHash, _addresses[1], _uints[2], _uints[4]));\n\t\trequire(recover(tradeHash, v[1], rs[2], rs[3]) == _addresses[1]);\n\t\trequire(!traded[tradeHash]);\n\t\ttraded[tradeHash] = true;\n\t\tif (_uints[5] > 5 finney) _uints[5] = 5 finney;\n\t\tif (_uints[6] > 5 finney) _uints[6] = 5 finney;\n\t\trequire(balances[_addresses[2]][_addresses[0]] >= _uints[2]);\n\t\trequire(balances[_addresses[3]][_addresses[1]] >= (_uints[1].div(_uints[0])).mul(_uints[2]));\n\t\trequire(orderFills[orderHash].add(_uints[2]) <= _uints[0]);\n\t\tuint takerFee = (_uints[6].mul(_uints[2])).div(1 ether);\n\t\tbalances[_addresses[2]][_addresses[0]] = balances[_addresses[2]][_addresses[0]].sub(_uints[2]);\n\t\tbalances[_addresses[2]][_addresses[1]] = balances[_addresses[2]][_addresses[1]].add((_uints[2]).sub(takerFee));\n\t\tbalances[_addresses[2]][feeCollector] = balances[_addresses[2]][feeCollector].add(takerFee);\n\t\tuint makerFee = (_uints[5].mul((_uints[1].mul(_uints[2])).div(_uints[0]))).div(1 ether);\n\t\tbalances[_addresses[3]][_addresses[0]] = balances[_addresses[3]][_addresses[0]].add(((_uints[1].mul(_uints[2])).div(_uints[0])).sub(makerFee));\n\t\tbalances[_addresses[3]][_addresses[1]] = balances[_addresses[3]][_addresses[1]].sub((_uints[1].mul(_uints[2])).div(_uints[0]));\n\t\tbalances[_addresses[3]][feeCollector] = balances[_addresses[3]][feeCollector].add(makerFee);\n\t\torderFills[orderHash] = orderFills[orderHash].add(_uints[2]);\n\n\t\tif (airdropStatus) {\n\t\t\tuint totalTradedAmount = _uints[0];\n\t\t\tif (_addresses[3] == 0) totalTradedAmount = _uints[1];\n\t\t\tuint airdropAmount = totalTradedAmount.mul(airdropRatePerEth);\n\t\t\trequire(balances[airdropTokenAddress][airdropAccountAddress] >= airdropAmount.mul(2));\n\t\t\tbalances[airdropTokenAddress][airdropAccountAddress] = balances[airdropTokenAddress][airdropAccountAddress].sub(airdropAmount.mul(2));\n\t\t\tbalances[airdropTokenAddress][_addresses[0]] = balances[airdropTokenAddress][_addresses[0]].add(airdropAmount);\n\t\t\tbalances[airdropTokenAddress][_addresses[1]] = balances[airdropTokenAddress][_addresses[1]].add(airdropAmount);\n\t\t}\n\t}\n\n\tfunction recover(bytes32 _hash, uint8 v, bytes32 r, bytes32 s) private pure returns (address) {\n    bytes memory prefix = \"\\x19Ethereum Signed Message:\\n32\";\n    bytes32 hash = keccak256(abi.encodePacked(prefix, _hash));\n    return ecrecover(hash, v, r, s);\n\t}\n}\n\n",
  "sourcePath": "/Users/hieu/dev/odin-contracts/contracts/Exchange.sol",
  "compiler": {
    "name": "solc",
    "version": "0.4.24+commit.e67f0147.Emscripten.clang"
  },
  "schemaVersion": "2.0.1",
  "updatedAt": "2018-10-27T16:23:22.099Z"
}