{
  "contractName": "Exchange",
  "abi": [
    {
      "constant": true,
      "inputs": [
        {
          "name": "",
          "type": "address"
        }
      ],
      "name": "useFeeToken",
      "outputs": [
        {
          "name": "",
          "type": "bool"
        }
      ],
      "payable": false,
      "stateMutability": "view",
      "type": "function"
    },
    {
      "constant": true,
      "inputs": [],
      "name": "airdropAccountAddress",
      "outputs": [
        {
          "name": "",
          "type": "address"
        }
      ],
      "payable": false,
      "stateMutability": "view",
      "type": "function"
    },
    {
      "constant": true,
      "inputs": [],
      "name": "feeTokenStatus",
      "outputs": [
        {
          "name": "",
          "type": "bool"
        }
      ],
      "payable": false,
      "stateMutability": "view",
      "type": "function"
    },
    {
      "constant": true,
      "inputs": [],
      "name": "signer",
      "outputs": [
        {
          "name": "",
          "type": "address"
        }
      ],
      "payable": false,
      "stateMutability": "view",
      "type": "function"
    },
    {
      "constant": true,
      "inputs": [],
      "name": "feeTokenRatePerEth",
      "outputs": [
        {
          "name": "",
          "type": "uint256"
        }
      ],
      "payable": false,
      "stateMutability": "view",
      "type": "function"
    },
    {
      "constant": true,
      "inputs": [
        {
          "name": "",
          "type": "bytes32"
        }
      ],
      "name": "cancelled",
      "outputs": [
        {
          "name": "",
          "type": "bool"
        }
      ],
      "payable": false,
      "stateMutability": "view",
      "type": "function"
    },
    {
      "constant": true,
      "inputs": [],
      "name": "airdropStatus",
      "outputs": [
        {
          "name": "",
          "type": "bool"
        }
      ],
      "payable": false,
      "stateMutability": "view",
      "type": "function"
    },
    {
      "constant": true,
      "inputs": [
        {
          "name": "",
          "type": "bytes32"
        }
      ],
      "name": "withdrawn",
      "outputs": [
        {
          "name": "",
          "type": "bool"
        }
      ],
      "payable": false,
      "stateMutability": "view",
      "type": "function"
    },
    {
      "constant": true,
      "inputs": [
        {
          "name": "",
          "type": "address"
        }
      ],
      "name": "cancelledOrders",
      "outputs": [
        {
          "name": "",
          "type": "uint256"
        }
      ],
      "payable": false,
      "stateMutability": "view",
      "type": "function"
    },
    {
      "constant": true,
      "inputs": [],
      "name": "airdropRatePerEth",
      "outputs": [
        {
          "name": "",
          "type": "uint256"
        }
      ],
      "payable": false,
      "stateMutability": "view",
      "type": "function"
    },
    {
      "constant": true,
      "inputs": [],
      "name": "owner",
      "outputs": [
        {
          "name": "",
          "type": "address"
        }
      ],
      "payable": false,
      "stateMutability": "view",
      "type": "function"
    },
    {
      "constant": true,
      "inputs": [],
      "name": "airdropTokenAddress",
      "outputs": [
        {
          "name": "",
          "type": "address"
        }
      ],
      "payable": false,
      "stateMutability": "view",
      "type": "function"
    },
    {
      "constant": true,
      "inputs": [],
      "name": "feeTokenAddress",
      "outputs": [
        {
          "name": "",
          "type": "address"
        }
      ],
      "payable": false,
      "stateMutability": "view",
      "type": "function"
    },
    {
      "constant": true,
      "inputs": [
        {
          "name": "",
          "type": "address"
        },
        {
          "name": "",
          "type": "address"
        }
      ],
      "name": "balances",
      "outputs": [
        {
          "name": "",
          "type": "uint256"
        }
      ],
      "payable": false,
      "stateMutability": "view",
      "type": "function"
    },
    {
      "constant": true,
      "inputs": [],
      "name": "feeCollector",
      "outputs": [
        {
          "name": "",
          "type": "address"
        }
      ],
      "payable": false,
      "stateMutability": "view",
      "type": "function"
    },
    {
      "constant": true,
      "inputs": [],
      "name": "timelock",
      "outputs": [
        {
          "name": "",
          "type": "uint256"
        }
      ],
      "payable": false,
      "stateMutability": "view",
      "type": "function"
    },
    {
      "constant": true,
      "inputs": [
        {
          "name": "",
          "type": "bytes32"
        }
      ],
      "name": "traded",
      "outputs": [
        {
          "name": "",
          "type": "bool"
        }
      ],
      "payable": false,
      "stateMutability": "view",
      "type": "function"
    },
    {
      "constant": true,
      "inputs": [
        {
          "name": "",
          "type": "address"
        }
      ],
      "name": "lastActivity",
      "outputs": [
        {
          "name": "",
          "type": "uint256"
        }
      ],
      "payable": false,
      "stateMutability": "view",
      "type": "function"
    },
    {
      "constant": true,
      "inputs": [
        {
          "name": "",
          "type": "bytes32"
        }
      ],
      "name": "orderFills",
      "outputs": [
        {
          "name": "",
          "type": "uint256"
        }
      ],
      "payable": false,
      "stateMutability": "view",
      "type": "function"
    },
    {
      "inputs": [],
      "payable": false,
      "stateMutability": "nonpayable",
      "type": "constructor"
    },
    {
      "anonymous": false,
      "inputs": [
        {
          "indexed": false,
          "name": "token",
          "type": "address"
        },
        {
          "indexed": false,
          "name": "account",
          "type": "address"
        },
        {
          "indexed": false,
          "name": "amount",
          "type": "uint256"
        },
        {
          "indexed": false,
          "name": "balance",
          "type": "uint256"
        }
      ],
      "name": "Deposit",
      "type": "event"
    },
    {
      "anonymous": false,
      "inputs": [
        {
          "indexed": false,
          "name": "token",
          "type": "address"
        },
        {
          "indexed": false,
          "name": "account",
          "type": "address"
        },
        {
          "indexed": false,
          "name": "amount",
          "type": "uint256"
        },
        {
          "indexed": false,
          "name": "balance",
          "type": "uint256"
        }
      ],
      "name": "Withdraw",
      "type": "event"
    },
    {
      "anonymous": false,
      "inputs": [
        {
          "indexed": false,
          "name": "tokenBuy",
          "type": "address"
        },
        {
          "indexed": false,
          "name": "amountBuy",
          "type": "uint256"
        },
        {
          "indexed": false,
          "name": "tokenSell",
          "type": "address"
        },
        {
          "indexed": false,
          "name": "amountSell",
          "type": "uint256"
        },
        {
          "indexed": false,
          "name": "get",
          "type": "address"
        },
        {
          "indexed": false,
          "name": "give",
          "type": "address"
        }
      ],
      "name": "Trade",
      "type": "event"
    },
    {
      "constant": false,
      "inputs": [
        {
          "name": "_status",
          "type": "bool"
        }
      ],
      "name": "setAirdropStatus",
      "outputs": [],
      "payable": false,
      "stateMutability": "nonpayable",
      "type": "function"
    },
    {
      "constant": false,
      "inputs": [
        {
          "name": "_address",
          "type": "address"
        }
      ],
      "name": "setAirdropTokenAddress",
      "outputs": [],
      "payable": false,
      "stateMutability": "nonpayable",
      "type": "function"
    },
    {
      "constant": false,
      "inputs": [
        {
          "name": "_ratePerEth",
          "type": "uint256"
        }
      ],
      "name": "setAirdropRatePerEth",
      "outputs": [],
      "payable": false,
      "stateMutability": "nonpayable",
      "type": "function"
    },
    {
      "constant": false,
      "inputs": [
        {
          "name": "_address",
          "type": "address"
        }
      ],
      "name": "changeAirdropAccountAddress",
      "outputs": [],
      "payable": false,
      "stateMutability": "nonpayable",
      "type": "function"
    },
    {
      "constant": false,
      "inputs": [
        {
          "name": "_feeCollector",
          "type": "address"
        }
      ],
      "name": "changeFeeCollector",
      "outputs": [],
      "payable": false,
      "stateMutability": "nonpayable",
      "type": "function"
    },
    {
      "constant": false,
      "inputs": [
        {
          "name": "_signer",
          "type": "address"
        }
      ],
      "name": "changeSigner",
      "outputs": [],
      "payable": false,
      "stateMutability": "nonpayable",
      "type": "function"
    },
    {
      "constant": false,
      "inputs": [
        {
          "name": "_owner",
          "type": "address"
        }
      ],
      "name": "changeOwner",
      "outputs": [],
      "payable": false,
      "stateMutability": "nonpayable",
      "type": "function"
    },
    {
      "constant": false,
      "inputs": [
        {
          "name": "_duration",
          "type": "uint256"
        }
      ],
      "name": "setTimelock",
      "outputs": [],
      "payable": false,
      "stateMutability": "nonpayable",
      "type": "function"
    },
    {
      "constant": false,
      "inputs": [
        {
          "name": "_rate",
          "type": "uint256"
        }
      ],
      "name": "setFeeTokenRatePerEth",
      "outputs": [],
      "payable": false,
      "stateMutability": "nonpayable",
      "type": "function"
    },
    {
      "constant": false,
      "inputs": [
        {
          "name": "_status",
          "type": "bool"
        }
      ],
      "name": "setFeeTokenStatus",
      "outputs": [],
      "payable": false,
      "stateMutability": "nonpayable",
      "type": "function"
    },
    {
      "constant": false,
      "inputs": [
        {
          "name": "_address",
          "type": "address"
        }
      ],
      "name": "setFeeTokenAddress",
      "outputs": [],
      "payable": false,
      "stateMutability": "nonpayable",
      "type": "function"
    },
    {
      "constant": false,
      "inputs": [
        {
          "name": "_token",
          "type": "address"
        },
        {
          "name": "_amount",
          "type": "uint256"
        }
      ],
      "name": "deposit",
      "outputs": [],
      "payable": true,
      "stateMutability": "payable",
      "type": "function"
    },
    {
      "constant": false,
      "inputs": [
        {
          "name": "_token",
          "type": "address"
        },
        {
          "name": "_amount",
          "type": "uint256"
        },
        {
          "name": "_account",
          "type": "address"
        },
        {
          "name": "_nonce",
          "type": "uint256"
        },
        {
          "name": "v",
          "type": "uint8"
        },
        {
          "name": "r",
          "type": "bytes32"
        },
        {
          "name": "s",
          "type": "bytes32"
        },
        {
          "name": "_fee",
          "type": "uint256"
        }
      ],
      "name": "withdraw",
      "outputs": [],
      "payable": false,
      "stateMutability": "nonpayable",
      "type": "function"
    },
    {
      "constant": false,
      "inputs": [
        {
          "name": "_token",
          "type": "address"
        },
        {
          "name": "_amount",
          "type": "uint256"
        }
      ],
      "name": "withdrawEmergency",
      "outputs": [],
      "payable": false,
      "stateMutability": "nonpayable",
      "type": "function"
    },
    {
      "constant": false,
      "inputs": [
        {
          "name": "_addresses",
          "type": "address[]"
        },
        {
          "name": "_uints",
          "type": "uint256[]"
        },
        {
          "name": "v",
          "type": "uint8[]"
        },
        {
          "name": "rs",
          "type": "bytes32[]"
        }
      ],
      "name": "trade",
      "outputs": [],
      "payable": false,
      "stateMutability": "nonpayable",
      "type": "function"
    },
    {
      "constant": false,
      "inputs": [
        {
          "name": "_account",
          "type": "address"
        },
        {
          "name": "_nonce",
          "type": "uint256"
        }
      ],
      "name": "bulkCancelOrders",
      "outputs": [],
      "payable": false,
      "stateMutability": "nonpayable",
      "type": "function"
    },
    {
      "constant": false,
      "inputs": [
        {
          "name": "_hash",
          "type": "bytes32"
        }
      ],
      "name": "cancelOrder",
      "outputs": [],
      "payable": false,
      "stateMutability": "nonpayable",
      "type": "function"
    }
  ],
  "bytecode": "0x608060405234801561001057600080fd5b506000805433600160a060020a0319918216811783556002805483168217905560018054831682179055620186a0600355600b80549092161790556127ea90819061005b90396000f3006080604052600436106101c15763ffffffff7c010000000000000000000000000000000000000000000000000000000060003504166308ed023681146101c65780630aa57f05146101e25780630dee31981461021757806317f4b8ee146102485780631e891c0a1461025d578063238ac93314610275578063242f7e1a1461028a5780632ac12622146102b15780632cf1a5fb146102c95780633823d66c146102de57806347e7ef24146102f65780635aec06c11461030d5780636c3d7e1d1461032e5780636c8ae8dc146103525780636cb2456e1461038f5780636ef0222c146103b05780637489ec23146103c55780638cef41b6146103dd5780638da5cb5b146103f55780638f98f7041461040a5780639245290d1461042e57806397128d6e1461044f578063a6f9dae11461054f578063aad2b72314610570578063b73e0e8b14610591578063b864ba7d146105a6578063b8df0dea146105c7578063c23f001f146105dc578063c415b95c14610603578063c91b10a414610618578063cf351c1d14610632578063d33219b414610653578063d5238df514610668578063d581332314610680578063f07e96b314610698578063f7213db6146106b9575b600080fd5b3480156101d257600080fd5b506101e060043515156106d1565b005b3480156101ee57600080fd5b50610203600160a060020a03600435166106fb565b604080519115158252519081900360200190f35b34801561022357600080fd5b5061022c610710565b60408051600160a060020a039092168252519081900360200190f35b34801561025457600080fd5b5061020361071f565b34801561026957600080fd5b506101e0600435610728565b34801561028157600080fd5b5061022c610754565b34801561029657600080fd5b5061029f610763565b60408051918252519081900360200190f35b3480156102bd57600080fd5b50610203600435610769565b3480156102d557600080fd5b5061020361077e565b3480156102ea57600080fd5b50610203600435610787565b6101e0600160a060020a036004351660243561079c565b34801561031957600080fd5b5061029f600160a060020a03600435166109aa565b34801561033a57600080fd5b506101e0600160a060020a03600435166024356109bc565b34801561035e57600080fd5b506101e0600160a060020a03600435811690602435906044351660643560ff6084351660a43560c43560e435610bbf565b34801561039b57600080fd5b506101e0600160a060020a0360043516610fb7565b3480156103bc57600080fd5b5061029f610ffd565b3480156103d157600080fd5b506101e0600435611003565b3480156103e957600080fd5b506101e0600435611035565b34801561040157600080fd5b5061022c611051565b34801561041657600080fd5b506101e0600160a060020a0360043516602435611060565b34801561043a57600080fd5b506101e0600160a060020a03600435166110b7565b34801561045b57600080fd5b50604080516020600480358082013583810280860185019096528085526101e095369593946024949385019291829185019084908082843750506040805187358901803560208181028481018201909552818452989b9a998901989297509082019550935083925085019084908082843750506040805187358901803560208181028481018201909552818452989b9a998901989297509082019550935083925085019084908082843750506040805187358901803560208181028481018201909552818452989b9a9989019892975090820195509350839250850190849080828437509497506110fd9650505050505050565b34801561055b57600080fd5b506101e0600160a060020a03600435166123fd565b34801561057c57600080fd5b506101e0600160a060020a0360043516612443565b34801561059d57600080fd5b5061022c612489565b3480156105b257600080fd5b506101e0600160a060020a036004351661249d565b3480156105d357600080fd5b5061022c6124e9565b3480156105e857600080fd5b5061029f600160a060020a03600435811690602435166124fd565b34801561060f57600080fd5b5061022c61251a565b34801561062457600080fd5b506101e06004351515612529565b34801561063e57600080fd5b506101e0600160a060020a0360043516612553565b34801561065f57600080fd5b5061029f61259f565b34801561067457600080fd5b506101e06004356125a5565b34801561068c57600080fd5b506102036004356125c1565b3480156106a457600080fd5b5061029f600160a060020a03600435166125d6565b3480156106c557600080fd5b5061029f6004356125e8565b600154600160a060020a031633146106e857600080fd5b6009805460ff1916911515919091179055565b600c6020526000908152604090205460ff1681565b600b54600160a060020a031681565b600e5460ff1681565b600154600160a060020a0316331461073f57600080fd5b620f424081111561074f57600080fd5b600355565b600054600160a060020a031681565b600d5481565b60106020526000908152604090205460ff1681565b60095460ff1681565b60076020526000908152604090205460ff1681565b336000908152600460205260409020439055600160a060020a038216151561083d573481146107ca57600080fd5b3360009081527f05b8ccbb9d4d8fb16ea74ce3c29a41f1b461fbdaff4714a0d9a8eb05499746bc6020526040902054610809903463ffffffff6125fa16565b3360009081527f05b8ccbb9d4d8fb16ea74ce3c29a41f1b461fbdaff4714a0d9a8eb05499746bc602052604090205561093d565b341561084857600080fd5b600160a060020a038216600090815260056020908152604080832033845290915290205461087c908263ffffffff6125fa16565b600160a060020a0383166000818152600560209081526040808320338085529083528184209590955580517f23b872dd0000000000000000000000000000000000000000000000000000000081526004810195909552306024860152604485018690525192936323b872dd9360648083019491928390030190829087803b15801561090657600080fd5b505af115801561091a573d6000803e3d6000fd5b505050506040513d602081101561093057600080fd5b5051151561093d57600080fd5b600160a060020a03821660008181526005602090815260408083203380855290835292819020548151948552918401929092528282018490526060830152517fdcbc1c05240f31ff3ad067ef1ee35ce4997762752e3a095284754544f4c709d79181900360800190a15050565b600f6020526000908152604090205481565b600354336000908152600460205260409020546109e090439063ffffffff61260d16565b116109ea57600080fd5b336000818152600460209081526040808320439055600160a060020a0386168352600582528083209383529290522054811115610a2657600080fd5b600160a060020a0382166000908152600560209081526040808320338452909152902054610a5a908263ffffffff61260d16565b600160a060020a03831660008181526005602090815260408083203384529091529020919091551515610ab357604051339082156108fc029083906000818181858888f193505050501515610aae57600080fd5b610b52565b604080517fa9059cbb000000000000000000000000000000000000000000000000000000008152336004820152602481018390529051600160a060020a0384169163a9059cbb9160448083019260209291908290030181600087803b158015610b1b57600080fd5b505af1158015610b2f573d6000803e3d6000fd5b505050506040513d6020811015610b4557600080fd5b50511515610b5257600080fd5b600160a060020a03821660008181526005602090815260408083203380855290835292819020548151948552918401929092528282018490526060830152517ff341246adaac6f497bc2a656f546ab9e182111d630394f0c57c710a59a2cb5679181900360800190a15050565b60008054600160a060020a03163314610bd757600080fd5b600160a060020a0380881660008181526004602090815260409182902043905581516c0100000000000000000000000030810282840152948e1685026034820152604881018d9052939092026068840152607c8084018a905281518085039091018152609c90930190819052825190918291908401908083835b60208310610c705780518252601f199092019160209182019101610c51565b51815160209384036101000a6000190180199092169116179052604080519290940182900390912060008181526007909252929020549194505060ff16159150610cbb905057600080fd5b6000818152600760205260409020805460ff19166001179055600160a060020a038716610cea8287878761261f565b600160a060020a031614610cfd57600080fd5b600160a060020a03808a166000908152600560209081526040808320938b1683529290522054881115610d2f57600080fd5b600160a060020a03808a166000908152600560209081526040808320938b1683529290522054610d65908963ffffffff61260d16565b600160a060020a03808b166000908152600560209081526040808320938c168352929052205566b1a2bc2ec50000821115610da55766b1a2bc2ec5000091505b610dcd670de0b6b3a7640000610dc1848b63ffffffff61278016565b9063ffffffff6127a916565b600160a060020a03808b16600090815260056020908152604080832060025490941683529290522054909250610e09908363ffffffff6125fa16565b600160a060020a03808b16600090815260056020908152604080832060025490941683529290522055610e42888363ffffffff61260d16565b9750600160a060020a0389161515610e8957604051600160a060020a0388169089156108fc02908a906000818181858888f193505050501515610e8457600080fd5b610f3c565b88600160a060020a031663a9059cbb888a6040518363ffffffff167c01000000000000000000000000000000000000000000000000000000000281526004018083600160a060020a0316600160a060020a0316815260200182815260200192505050602060405180830381600087803b158015610f0557600080fd5b505af1158015610f19573d6000803e3d6000fd5b505050506040513d6020811015610f2f57600080fd5b50511515610f3c57600080fd5b600160a060020a03808a166000818152600560209081526040808320948c1680845294825291829020548251938452908301939093528181018b9052606082019290925290517ff341246adaac6f497bc2a656f546ab9e182111d630394f0c57c710a59a2cb5679181900360800190a1505050505050505050565b600154600160a060020a03163314610fce57600080fd5b600b805473ffffffffffffffffffffffffffffffffffffffff1916600160a060020a0392909216919091179055565b600a5481565b600054600160a060020a0316331461101a57600080fd5b6000908152601060205260409020805460ff19166001179055565b600154600160a060020a0316331461104c57600080fd5b600a55565b600154600160a060020a031681565b600054600160a060020a0316331461107757600080fd5b600160a060020a0382166000908152600f6020526040902054811161109b57600080fd5b600160a060020a039091166000908152600f6020526040902055565b600154600160a060020a031633146110ce57600080fd5b6002805473ffffffffffffffffffffffffffffffffffffffff1916600160a060020a0392909216919091179055565b6000805481908190819081908190600160a060020a0316331461111f57600080fd5b88600381518110151561112e57fe5b90602001906020020151600f60008c600081518110151561114b57fe5b6020908102909101810151600160a060020a03168252810191909152604001600020541061117857600080fd5b43600460008c600081518110151561118c57fe5b90602001906020020151600160a060020a0316600160a060020a031681526020019081526020016000208190555043600460008c60018151811015156111ce57fe5b90602001906020020151600160a060020a0316600160a060020a0316815260200190815260200160002081905550308a600081518110151561120c57fe5b906020019060200201518b600281518110151561122557fe5b906020019060200201518b600081518110151561123e57fe5b906020019060200201518d600381518110151561125757fe5b906020019060200201518d600181518110151561127057fe5b906020019060200201518e600381518110151561128957fe5b906020019060200201518f60078151811015156112a257fe5b6020908102909101810151604080516c01000000000000000000000000600160a060020a039b8c16810282860152998b168a026034820152978a1689026048890152605c88019690965293909716909502607c850152609084015260b083019390935260d0808301939093528051808303909301835260f09091019081905281519192909182918401908083835b6020831061134f5780518252601f199092019160209182019101611330565b51815160209384036101000a6000190180199092169116179052604080519290940182900390912060008181526010909252929020549199505060ff1615915061139a905057600080fd5b8960008151811015156113a957fe5b90602001906020020151600160a060020a0316611410878a60008151811015156113cf57fe5b906020019060200201518a60008151811015156113e857fe5b906020019060200201518b600181518110151561140157fe5b9060200190602002015161261f565b600160a060020a03161461142357600080fd5b30868b600181518110151561143457fe5b906020019060200201518b600281518110151561144d57fe5b906020019060200201518c600481518110151561146657fe5b906020019060200201516040516020018086600160a060020a0316600160a060020a03166c01000000000000000000000000028152601401856000191660001916815260200184600160a060020a0316600160a060020a03166c01000000000000000000000000028152601401838152602001828152602001955050505050506040516020818303038152906040526040518082805190602001908083835b602083106115245780518252601f199092019160209182019101611505565b6001836020036101000a0380198251168184511680821785525050505050509050019150506040518091039020945089600181518110151561156257fe5b90602001906020020151600160a060020a03166115ba868a600181518110151561158857fe5b906020019060200201518a60028151811015156115a157fe5b906020019060200201518b600381518110151561140157fe5b600160a060020a0316146115cd57600080fd5b60008581526008602052604090205460ff16156115e957600080fd5b6000858152600860205260409020805460ff1916600117905588516611c37937e08000908a90600590811061161a57fe5b90602001906020020151111561164c576611c37937e0800089600581518110151561164157fe5b602090810290910101525b6611c37937e0800089600681518110151561166357fe5b906020019060200201511115611695576611c37937e0800089600681518110151561168a57fe5b602090810290910101525b8860028151811015156116a457fe5b90602001906020020151600560008c60028151811015156116c157fe5b90602001906020020151600160a060020a0316600160a060020a0316815260200190815260200160002060008c60008151811015156116fc57fe5b6020908102909101810151600160a060020a0316825281019190915260400160002054101561172a57600080fd5b61179389600281518110151561173c57fe5b906020019060200201516117878b600081518110151561175857fe5b906020019060200201518c600181518110151561177157fe5b602090810290910101519063ffffffff6127a916565b9063ffffffff61278016565b600560008c60038151811015156117a657fe5b90602001906020020151600160a060020a0316600160a060020a0316815260200190815260200160002060008c60018151811015156117e157fe5b6020908102909101810151600160a060020a0316825281019190915260400160002054101561180f57600080fd5b88600081518110151561181e57fe5b906020019060200201516118618a600281518110151561183a57fe5b602090810290910181015160008a815260069092526040909120549063ffffffff6125fa16565b111561186c57600080fd5b88600081518110151561187b57fe5b90602001906020020151935089600381518110151561189657fe5b90602001906020020151600160a060020a0316600014156118cd578860018151811015156118c057fe5b9060200190602002015193505b61191a670de0b6b3a7640000610dc18b60028151811015156118eb57fe5b906020019060200201518c600681518110151561190457fe5b602090810290910101519063ffffffff61278016565b9250600c60008b600181518110151561192f57fe5b6020908102909101810151600160a060020a031682528101919091526040016000205460ff1615611a9857600d5461196e90859063ffffffff61278016565b600e546101009004600160a060020a031660009081526005602052604081208c519091908d90600190811061199f57fe5b6020908102909101810151600160a060020a031682528101919091526040016000205410611a985760009250611a436119e3600d548661278090919063ffffffff16565b600e546101009004600160a060020a031660009081526005602052604081208d519091908e906001908110611a1457fe5b6020908102909101810151600160a060020a03168252810191909152604001600020549063ffffffff61260d16565b600e546101009004600160a060020a031660009081526005602052604081208c519091908d906001908110611a7457fe5b6020908102909101810151600160a060020a03168252810191909152604001600020555b611b02896002815181101515611aaa57fe5b90602001906020020151600560008d6002815181101515611ac757fe5b90602001906020020151600160a060020a0316600160a060020a0316815260200190815260200160002060008d6000815181101515611a1457fe5b600560008c6002815181101515611b1557fe5b90602001906020020151600160a060020a0316600160a060020a0316815260200190815260200160002060008c6000815181101515611b5057fe5b90602001906020020151600160a060020a0316600160a060020a0316815260200190815260200160002081905550611c27611baa848b6002815181101515611b9457fe5b602090810290910101519063ffffffff61260d16565b600560008d6002815181101515611bbd57fe5b90602001906020020151600160a060020a0316600160a060020a0316815260200190815260200160002060008d6001815181101515611bf857fe5b6020908102909101810151600160a060020a03168252810191909152604001600020549063ffffffff6125fa16565b600560008c6002815181101515611c3a57fe5b90602001906020020151600160a060020a0316600160a060020a0316815260200190815260200160002060008c6001815181101515611c7557fe5b90602001906020020151600160a060020a0316600160a060020a0316815260200190815260200160002081905550611cfd83600560008d6002815181101515611cba57fe5b6020908102909101810151600160a060020a039081168352828201939093526040918201600090812060025490941681529290529020549063ffffffff6125fa16565b600560008c6002815181101515611d1057fe5b6020908102909101810151600160a060020a039081168352828201939093526040918201600090812060025490941681529290528120919091558951611db191670de0b6b3a764000091610dc191611da2918e91908110611d6d57fe5b90602001906020020151610dc18e6002815181101515611d8957fe5b906020019060200201518f600181518110151561190457fe5b8c600581518110151561190457fe5b9150600c60008b6000815181101515611dc657fe5b6020908102909101810151600160a060020a031682528101919091526040016000205460ff1615611efd57600d54611e0590859063ffffffff61278016565b600e546101009004600160a060020a031660009081526005602052604081208c519091908d9082908110611e3557fe5b6020908102909101810151600160a060020a031682528101919091526040016000205410611efd5760009150611ea9611e79600d548661278090919063ffffffff16565b600e546101009004600160a060020a031660009081526005602052604081208d519091908e9082908110611a1457fe5b600e546101009004600160a060020a031660009081526005602052604081208c519091908d9082908110611ed957fe5b6020908102909101810151600160a060020a03168252810191909152604001600020555b611f70611f2283611f168c6000815181101515611d6d57fe5b9063ffffffff61260d16565b600560008d6003815181101515611f3557fe5b90602001906020020151600160a060020a0316600160a060020a0316815260200190815260200160002060008d6000815181101515611bf857fe5b600560008c6003815181101515611f8357fe5b90602001906020020151600160a060020a0316600160a060020a0316815260200190815260200160002060008c6000815181101515611fbe57fe5b90602001906020020151600160a060020a0316600160a060020a03168152602001908152602001600020819055506120846120368a600081518110151561200157fe5b90602001906020020151610dc18c600281518110151561201d57fe5b906020019060200201518d600181518110151561190457fe5b600560008d600381518110151561204957fe5b90602001906020020151600160a060020a0316600160a060020a0316815260200190815260200160002060008d6001815181101515611a1457fe5b600560008c600381518110151561209757fe5b90602001906020020151600160a060020a0316600160a060020a0316815260200190815260200160002060008c60018151811015156120d257fe5b90602001906020020151600160a060020a0316600160a060020a031681526020019081526020016000208190555061211782600560008d6003815181101515611cba57fe5b600560008c600381518110151561212a57fe5b6020908102909101810151600160a060020a03908116835282820193909352604091820160009081206002805490951682529091522091909155895161219b918b91811061217457fe5b6020908102909101810151600089815260069092526040909120549063ffffffff6125fa16565b60008781526006602052604090205560095460ff16156123f157600a546121c990859063ffffffff61278016565b600954600160a060020a0361010090910481166000908152600560209081526040808320600b549094168352929052205490915081116123f15781156122f957600954600160a060020a0361010090910481166000908152600560209081526040808320600b549094168352929052205461224a908263ffffffff61260d16565b60098054600160a060020a036101009182900481166000908152600560208181526040808420600b5486168552825280842097909755945493909304909116815291529081208b516122a5928492918e9082908110611bf857fe5b6009546101009004600160a060020a031660009081526005602052604081208c519091908d90829081106122d557fe5b6020908102909101810151600160a060020a03168252810191909152604001600020555b82156123f157600954600160a060020a0361010090910481166000908152600560209081526040808320600b5490941683529290522054612340908263ffffffff61260d16565b60098054600160a060020a036101009182900481166000908152600560208181526040808420600b5486168552825280842097909755945493909304909116815291529081208b5161239c928492918e906001908110611bf857fe5b6009546101009004600160a060020a031660009081526005602052604081208c519091908d9060019081106123cd57fe5b6020908102909101810151600160a060020a03168252810191909152604001600020555b50505050505050505050565b600154600160a060020a0316331461241457600080fd5b6001805473ffffffffffffffffffffffffffffffffffffffff1916600160a060020a0392909216919091179055565b600154600160a060020a0316331461245a57600080fd5b6000805473ffffffffffffffffffffffffffffffffffffffff1916600160a060020a0392909216919091179055565b6009546101009004600160a060020a031681565b600154600160a060020a031633146124b457600080fd5b60098054600160a060020a039092166101000274ffffffffffffffffffffffffffffffffffffffff0019909216919091179055565b600e546101009004600160a060020a031681565b600560209081526000928352604080842090915290825290205481565b600254600160a060020a031681565b600154600160a060020a0316331461254057600080fd5b600e805460ff1916911515919091179055565b600154600160a060020a0316331461256a57600080fd5b600e8054600160a060020a039092166101000274ffffffffffffffffffffffffffffffffffffffff0019909216919091179055565b60035481565b600154600160a060020a031633146125bc57600080fd5b600d55565b60086020526000908152604090205460ff1681565b60046020526000908152604090205481565b60066020526000908152604090205481565b8181018281101561260757fe5b92915050565b60008282111561261957fe5b50900390565b604080518082018252601c8082527f19457468657265756d205369676e6564204d6573736167653a0a33320000000060208084019182529351600094859385938b939092019182918083835b6020831061268a5780518252601f19909201916020918201910161266b565b51815160209384036101000a600019018019909216911617905292019384525060408051808503815293820190819052835193945092839250908401908083835b602083106126ea5780518252601f1990920191602091820191016126cb565b51815160209384036101000a600019018019909216911617905260408051929094018290038220600080845283830180875282905260ff8e1684870152606084018d9052608084018c905294519097506001965060a080840196509194601f19820194509281900390910191865af115801561276a573d6000803e3d6000fd5b5050604051601f19015198975050505050505050565b600082151561279157506000612607565b508181028183828115156127a157fe5b041461260757fe5b600081838115156127b657fe5b0493925050505600a165627a7a7230582084461a7ddc0f0bdc0b8cd285acaf47cf85660fbd7f8ac1318f8cf1b2ef3df8610029",
  "source": "pragma solidity ^0.4.22;\n\nimport 'openzeppelin-solidity/contracts/math/SafeMath.sol';\nimport 'openzeppelin-solidity/contracts/token/ERC20/StandardToken.sol';\n\ncontract Exchange {\n\tusing SafeMath for uint;\n\n  address public signer;\n  address public owner;\n  address public feeCollector;\n\tuint public timelock;\n\tmapping (address => uint) public lastActivity;\n  mapping (address => mapping (address => uint)) public balances;\n  mapping (bytes32 => uint) public orderFills;\n  mapping (bytes32 => bool) public withdrawn;\n  mapping (bytes32 => bool) public traded;\n  bool public airdropStatus;\n\taddress public airdropTokenAddress;\n\tuint public airdropRatePerEth;\n\taddress public airdropAccountAddress;\n\n  event Deposit(address token, address account, uint amount, uint balance);\n\tevent Withdraw(address token, address account, uint amount, uint balance);\n\tevent Trade(address tokenBuy, uint amountBuy, address tokenSell, uint amountSell, address get, address give);\n\n\tmodifier signerOnly {\n\t\trequire(msg.sender == signer);\n\t\t_;\n\t}\n\n\tmodifier ownerOnly {\n\t\trequire(msg.sender == owner);\n\t\t_;\n\t}\n\n\tconstructor() public {\n\t\tsigner = msg.sender;\n\t\tfeeCollector = msg.sender;\n\t\towner = msg.sender;\n  \ttimelock = 100000;\n  \tairdropAccountAddress = msg.sender;\n\t}\n\n\tfunction setAirdropStatus(bool _status) public ownerOnly {\n\t\tairdropStatus = _status;\n\t}\n\n\tfunction setAirdropTokenAddress(address _address) public ownerOnly {\n\t\tairdropTokenAddress = _address;\n\t}\n\n\tfunction setAirdropRatePerEth(uint _ratePerEth) public ownerOnly {\n\t\tairdropRatePerEth = _ratePerEth;\n\t} \n\n\tfunction changeAirdropAccountAddress(address _address) public ownerOnly {\n\t\tairdropAccountAddress = _address;\n\t}\n\n\tfunction changeFeeCollector(address _feeCollector) public ownerOnly {\n\t\tfeeCollector = _feeCollector;\n\t}\n\n\tfunction changeSigner(address _signer) public ownerOnly {\n\t\tsigner = _signer;\n\t}\n\n\tfunction changeOwner(address _owner) public ownerOnly {\n\t\towner = _owner;\n\t}\n\n\tfunction setTimelock(uint _duration) public ownerOnly {\n\t\trequire(_duration <= 1000000);\n\t\ttimelock = _duration;\n\t}\n\n\tmapping (address => bool) public useFeeToken;\n\tuint public feeTokenRatePerEth;\n\tbool public feeTokenStatus;\n\taddress public feeTokenAddress;\n\n\tfunction setFeeTokenRatePerEth(uint _rate) public ownerOnly {\n\t\tfeeTokenRatePerEth = _rate;\n\t}\n\n\tfunction setFeeTokenStatus(bool _status) public ownerOnly {\n\t\tfeeTokenStatus = _status;\n\t}\n\n\tfunction setFeeTokenAddress(address _address) public ownerOnly {\n\t\tfeeTokenAddress = _address;\n\t}\n\n\tfunction deposit(address _token, uint _amount) public payable {\n\t\tlastActivity[msg.sender] = block.number;\n\t\tif (_token == 0) {\n\t\t\trequire(msg.value == _amount);\n\t\t\tbalances[0][msg.sender] = balances[0][msg.sender].add(msg.value);\n    } else {\n\t\t\trequire(msg.value == 0);\n\t\t\tbalances[_token][msg.sender] = balances[_token][msg.sender].add(_amount);\n\t\t\trequire(StandardToken(_token).transferFrom(msg.sender, this, _amount));\n    }\n    emit Deposit(_token, msg.sender, _amount, balances[_token][msg.sender]);\n\t}\n\n\tfunction withdraw(address _token, uint _amount, address _account, uint _nonce, uint8 v, bytes32 r, bytes32 s, uint _fee) public signerOnly {\n\t\tlastActivity[_account] = block.number;\n\t\tbytes32 hash = keccak256(abi.encodePacked(this, _token, _amount, _account, _nonce));\n\t\trequire(!withdrawn[hash]);\n\t\twithdrawn[hash] = true;\n\t\trequire(recover(hash, v, r, s) == _account);\n\t\trequire(balances[_token][_account] >= _amount);\n    balances[_token][_account] = balances[_token][_account].sub(_amount);\n    if (_fee > 50 finney) _fee = 50 finney;\n    _fee = (_fee.mul(_amount)).div(1 ether);\n    balances[_token][feeCollector] = balances[_token][feeCollector].add(_fee);\n    _amount = _amount.sub(_fee);\n    if (_token == 0) {\n      require(_account.send(_amount));\n    } else {\n      require(StandardToken(_token).transfer(_account, _amount));\n    }\n    emit Withdraw(_token, _account, _amount, balances[_token][_account]);\n\t}\n\n\tfunction withdrawEmergency(address _token, uint _amount) public {\n\t\trequire(block.number.sub(lastActivity[msg.sender]) > timelock);\n\t\tlastActivity[msg.sender] = block.number;\n\t\trequire(balances[_token][msg.sender] >= _amount);\n    balances[_token][msg.sender] = balances[_token][msg.sender].sub(_amount);\n    if (_token == 0) {\n      require(msg.sender.send(_amount));\n    } else {\n      require(StandardToken(_token).transfer(msg.sender, _amount));\n    }\n    emit Withdraw(_token, msg.sender, _amount, balances[_token][msg.sender]);\n\t}\n\n\tfunction trade(address[] _addresses, uint[] _uints, uint8[] v, bytes32[] rs) public signerOnly {\n\t\t/*\n\t\t\t_addresses[0] == maker\n\t\t\t_addresses[1] == taker\n\t\t\t_addresses[2] == giveToken\n\t\t\t_addresses[3] == takeToken\n\t\t\t_uints[0] == giveAmount\n\t\t\t_uints[1] == takeAmount\n\t\t\t_uints[2] == fillAmount\n\t\t\t_uints[3] == makerNonce\n\t\t\t_uints[4] == takerNonce\n\t\t\t_uints[5] == makerFee\n\t\t\t_uints[6] == takerFee\n\t\t\t_uints[7] == expiry\n\t\t\tv[0] == makerV\n\t\t\tv[1] == takerV\n\t\t\trs[0]..[1] == makerR, makerS\n\t\t\trs[2]..[3] == takerR, takerS\n\t\t*/\n\t\trequire(cancelledOrders[_addresses[0]] < _uints[3]);\n\t\tlastActivity[_addresses[0]] = block.number;\n\t\tlastActivity[_addresses[1]] = block.number;\n\t\tbytes32 orderHash = keccak256(abi.encodePacked(this, _addresses[0], _addresses[2], _uints[0], _addresses[3], _uints[1], _uints[3], _uints[7]));\n\t\trequire(!cancelled[orderHash]);\n\t\trequire(recover(orderHash, v[0], rs[0], rs[1]) == _addresses[0]);\n\t\tbytes32 tradeHash = keccak256(abi.encodePacked(this, orderHash, _addresses[1], _uints[2], _uints[4]));\n\t\trequire(recover(tradeHash, v[1], rs[2], rs[3]) == _addresses[1]);\n\t\trequire(!traded[tradeHash]);\n\t\ttraded[tradeHash] = true;\n\t\tif (_uints[5] > 5 finney) _uints[5] = 5 finney;\n\t\tif (_uints[6] > 5 finney) _uints[6] = 5 finney;\n\t\trequire(balances[_addresses[2]][_addresses[0]] >= _uints[2]);\n\t\trequire(balances[_addresses[3]][_addresses[1]] >= (_uints[1].div(_uints[0])).mul(_uints[2]));\n\t\trequire(orderFills[orderHash].add(_uints[2]) <= _uints[0]);\n\t\tuint totalTradedAmount = _uints[0];\n\t\tif (_addresses[3] == 0) totalTradedAmount = _uints[1];\n\t\tuint takerFee = (_uints[6].mul(_uints[2])).div(1 ether);\n\t\tif (useFeeToken[_addresses[1]]) {\n\t\t\tif (balances[feeTokenAddress][_addresses[1]] >= totalTradedAmount.mul(feeTokenRatePerEth)) {\n\t\t\t\ttakerFee = 0;\n\t\t\t\tbalances[feeTokenAddress][_addresses[1]] = balances[feeTokenAddress][_addresses[1]].sub(totalTradedAmount.mul(feeTokenRatePerEth));\n\t\t\t}\n\t\t}\n\t\tbalances[_addresses[2]][_addresses[0]] = balances[_addresses[2]][_addresses[0]].sub(_uints[2]);\n\t\tbalances[_addresses[2]][_addresses[1]] = balances[_addresses[2]][_addresses[1]].add((_uints[2]).sub(takerFee));\n\t\tbalances[_addresses[2]][feeCollector] = balances[_addresses[2]][feeCollector].add(takerFee);\n\t\tuint makerFee = (_uints[5].mul((_uints[1].mul(_uints[2])).div(_uints[0]))).div(1 ether);\n\t\tif (useFeeToken[_addresses[0]]) {\n\t\t\tif (balances[feeTokenAddress][_addresses[0]] >= totalTradedAmount.mul(feeTokenRatePerEth)) {\n\t\t\t\tmakerFee = 0;\n\t\t\t\tbalances[feeTokenAddress][_addresses[0]] = balances[feeTokenAddress][_addresses[0]].sub(totalTradedAmount.mul(feeTokenRatePerEth));\n\t\t\t}\n\t\t}\n\t\tbalances[_addresses[3]][_addresses[0]] = balances[_addresses[3]][_addresses[0]].add(((_uints[1].mul(_uints[2])).div(_uints[0])).sub(makerFee));\n\t\tbalances[_addresses[3]][_addresses[1]] = balances[_addresses[3]][_addresses[1]].sub((_uints[1].mul(_uints[2])).div(_uints[0]));\n\t\tbalances[_addresses[3]][feeCollector] = balances[_addresses[3]][feeCollector].add(makerFee);\n\t\torderFills[orderHash] = orderFills[orderHash].add(_uints[2]);\n\t\tif (airdropStatus) {\n\t\t\tuint airdropAmount = totalTradedAmount.mul(airdropRatePerEth);\n\t\t\tif (balances[airdropTokenAddress][airdropAccountAddress] >= airdropAmount) {\n\t\t\t\tif (makerFee != 0) {\n\t\t\t\t\tbalances[airdropTokenAddress][airdropAccountAddress] = balances[airdropTokenAddress][airdropAccountAddress].sub(airdropAmount);\n\t\t\t\t\tbalances[airdropTokenAddress][_addresses[0]] = balances[airdropTokenAddress][_addresses[0]].add(airdropAmount);\n\t\t\t\t}\n\t\t\t\tif (takerFee != 0) {\n\t\t\t\t\tbalances[airdropTokenAddress][airdropAccountAddress] = balances[airdropTokenAddress][airdropAccountAddress].sub(airdropAmount);\n\t\t\t\t\tbalances[airdropTokenAddress][_addresses[1]] = balances[airdropTokenAddress][_addresses[1]].add(airdropAmount);\n\t\t\t\t}\n\t\t\t}\n\t\t}\n\t}\n\n\tfunction recover(bytes32 _hash, uint8 v, bytes32 r, bytes32 s) private pure returns (address) {\n    bytes memory prefix = \"\\x19Ethereum Signed Message:\\n32\";\n    bytes32 hash = keccak256(abi.encodePacked(prefix, _hash));\n    return ecrecover(hash, v, r, s);\n\t}\n\n\tmapping (address => uint256) public cancelledOrders;\n\tmapping (bytes32 => bool) public cancelled;\n\n\tfunction bulkCancelOrders(address _account, uint256 _nonce) public signerOnly {\n\t\trequire(_nonce > cancelledOrders[_account]);\n    cancelledOrders[_account] = _nonce;\n  }\n\n  function cancelOrder (bytes32 _hash) public signerOnly {\n  \tcancelled[_hash] = true;\n  }\n}\n\n",
  "sourcePath": "/Users/hieu/dev/odin-contracts/contracts/Exchange.sol",
  "compiler": {
    "name": "solc",
    "version": "0.4.24+commit.e67f0147.Emscripten.clang"
  },
  "schemaVersion": "2.0.1",
  "updatedAt": "2018-12-13T16:19:17.910Z"
}