{
  "contractName": "Exchange",
  "abi": [
    {
      "constant": true,
      "inputs": [
        {
          "name": "",
          "type": "address"
        }
      ],
      "name": "useFeeToken",
      "outputs": [
        {
          "name": "",
          "type": "bool"
        }
      ],
      "payable": false,
      "stateMutability": "view",
      "type": "function"
    },
    {
      "constant": true,
      "inputs": [],
      "name": "airdropAccountAddress",
      "outputs": [
        {
          "name": "",
          "type": "address"
        }
      ],
      "payable": false,
      "stateMutability": "view",
      "type": "function"
    },
    {
      "constant": true,
      "inputs": [],
      "name": "feeTokenStatus",
      "outputs": [
        {
          "name": "",
          "type": "bool"
        }
      ],
      "payable": false,
      "stateMutability": "view",
      "type": "function"
    },
    {
      "constant": true,
      "inputs": [],
      "name": "feeTokenRatePerEth",
      "outputs": [
        {
          "name": "",
          "type": "uint256"
        }
      ],
      "payable": false,
      "stateMutability": "view",
      "type": "function"
    },
    {
      "constant": true,
      "inputs": [
        {
          "name": "",
          "type": "bytes32"
        }
      ],
      "name": "cancelled",
      "outputs": [
        {
          "name": "",
          "type": "bool"
        }
      ],
      "payable": false,
      "stateMutability": "view",
      "type": "function"
    },
    {
      "constant": true,
      "inputs": [],
      "name": "airdropStatus",
      "outputs": [
        {
          "name": "",
          "type": "bool"
        }
      ],
      "payable": false,
      "stateMutability": "view",
      "type": "function"
    },
    {
      "constant": true,
      "inputs": [
        {
          "name": "",
          "type": "bytes32"
        }
      ],
      "name": "withdrawn",
      "outputs": [
        {
          "name": "",
          "type": "bool"
        }
      ],
      "payable": false,
      "stateMutability": "view",
      "type": "function"
    },
    {
      "constant": true,
      "inputs": [
        {
          "name": "",
          "type": "address"
        }
      ],
      "name": "cancelledOrders",
      "outputs": [
        {
          "name": "",
          "type": "uint256"
        }
      ],
      "payable": false,
      "stateMutability": "view",
      "type": "function"
    },
    {
      "constant": true,
      "inputs": [],
      "name": "airdropRatePerEth",
      "outputs": [
        {
          "name": "",
          "type": "uint256"
        }
      ],
      "payable": false,
      "stateMutability": "view",
      "type": "function"
    },
    {
      "constant": true,
      "inputs": [],
      "name": "owner",
      "outputs": [
        {
          "name": "",
          "type": "address"
        }
      ],
      "payable": false,
      "stateMutability": "view",
      "type": "function"
    },
    {
      "constant": true,
      "inputs": [],
      "name": "airdropTokenAddress",
      "outputs": [
        {
          "name": "",
          "type": "address"
        }
      ],
      "payable": false,
      "stateMutability": "view",
      "type": "function"
    },
    {
      "constant": true,
      "inputs": [],
      "name": "feeTokenAddress",
      "outputs": [
        {
          "name": "",
          "type": "address"
        }
      ],
      "payable": false,
      "stateMutability": "view",
      "type": "function"
    },
    {
      "constant": true,
      "inputs": [
        {
          "name": "",
          "type": "address"
        },
        {
          "name": "",
          "type": "address"
        }
      ],
      "name": "balances",
      "outputs": [
        {
          "name": "",
          "type": "uint256"
        }
      ],
      "payable": false,
      "stateMutability": "view",
      "type": "function"
    },
    {
      "constant": true,
      "inputs": [],
      "name": "feeCollector",
      "outputs": [
        {
          "name": "",
          "type": "address"
        }
      ],
      "payable": false,
      "stateMutability": "view",
      "type": "function"
    },
    {
      "constant": true,
      "inputs": [],
      "name": "timelock",
      "outputs": [
        {
          "name": "",
          "type": "uint256"
        }
      ],
      "payable": false,
      "stateMutability": "view",
      "type": "function"
    },
    {
      "constant": true,
      "inputs": [
        {
          "name": "",
          "type": "bytes32"
        }
      ],
      "name": "traded",
      "outputs": [
        {
          "name": "",
          "type": "bool"
        }
      ],
      "payable": false,
      "stateMutability": "view",
      "type": "function"
    },
    {
      "constant": true,
      "inputs": [
        {
          "name": "",
          "type": "address"
        }
      ],
      "name": "lastActivity",
      "outputs": [
        {
          "name": "",
          "type": "uint256"
        }
      ],
      "payable": false,
      "stateMutability": "view",
      "type": "function"
    },
    {
      "constant": true,
      "inputs": [
        {
          "name": "",
          "type": "bytes32"
        }
      ],
      "name": "orderFills",
      "outputs": [
        {
          "name": "",
          "type": "uint256"
        }
      ],
      "payable": false,
      "stateMutability": "view",
      "type": "function"
    },
    {
      "constant": true,
      "inputs": [],
      "name": "server",
      "outputs": [
        {
          "name": "",
          "type": "address"
        }
      ],
      "payable": false,
      "stateMutability": "view",
      "type": "function"
    },
    {
      "inputs": [],
      "payable": false,
      "stateMutability": "nonpayable",
      "type": "constructor"
    },
    {
      "payable": false,
      "stateMutability": "nonpayable",
      "type": "fallback"
    },
    {
      "anonymous": false,
      "inputs": [
        {
          "indexed": false,
          "name": "token",
          "type": "address"
        },
        {
          "indexed": false,
          "name": "account",
          "type": "address"
        },
        {
          "indexed": false,
          "name": "amount",
          "type": "uint256"
        },
        {
          "indexed": false,
          "name": "balance",
          "type": "uint256"
        }
      ],
      "name": "Deposit",
      "type": "event"
    },
    {
      "anonymous": false,
      "inputs": [
        {
          "indexed": false,
          "name": "token",
          "type": "address"
        },
        {
          "indexed": false,
          "name": "account",
          "type": "address"
        },
        {
          "indexed": false,
          "name": "amount",
          "type": "uint256"
        },
        {
          "indexed": false,
          "name": "balance",
          "type": "uint256"
        }
      ],
      "name": "Withdraw",
      "type": "event"
    },
    {
      "anonymous": false,
      "inputs": [
        {
          "indexed": false,
          "name": "tokenBuy",
          "type": "address"
        },
        {
          "indexed": false,
          "name": "amountBuy",
          "type": "uint256"
        },
        {
          "indexed": false,
          "name": "tokenSell",
          "type": "address"
        },
        {
          "indexed": false,
          "name": "amountSell",
          "type": "uint256"
        },
        {
          "indexed": false,
          "name": "get",
          "type": "address"
        },
        {
          "indexed": false,
          "name": "give",
          "type": "address"
        }
      ],
      "name": "Trade",
      "type": "event"
    },
    {
      "anonymous": false,
      "inputs": [
        {
          "indexed": false,
          "name": "exchange",
          "type": "address"
        },
        {
          "indexed": false,
          "name": "maker",
          "type": "address"
        },
        {
          "indexed": false,
          "name": "giveToken",
          "type": "address"
        },
        {
          "indexed": false,
          "name": "giveAmount",
          "type": "uint256"
        },
        {
          "indexed": false,
          "name": "takeToken",
          "type": "address"
        },
        {
          "indexed": false,
          "name": "takeAmount",
          "type": "uint256"
        },
        {
          "indexed": false,
          "name": "nonce",
          "type": "uint256"
        },
        {
          "indexed": false,
          "name": "expiry",
          "type": "uint256"
        },
        {
          "indexed": false,
          "name": "payload",
          "type": "bytes"
        },
        {
          "indexed": false,
          "name": "orderHash",
          "type": "bytes32"
        }
      ],
      "name": "Order",
      "type": "event"
    },
    {
      "constant": false,
      "inputs": [
        {
          "name": "_status",
          "type": "bool"
        }
      ],
      "name": "setAirdropStatus",
      "outputs": [],
      "payable": false,
      "stateMutability": "nonpayable",
      "type": "function"
    },
    {
      "constant": false,
      "inputs": [
        {
          "name": "_address",
          "type": "address"
        }
      ],
      "name": "setAirdropTokenAddress",
      "outputs": [],
      "payable": false,
      "stateMutability": "nonpayable",
      "type": "function"
    },
    {
      "constant": false,
      "inputs": [
        {
          "name": "_ratePerEth",
          "type": "uint256"
        }
      ],
      "name": "setAirdropRatePerEth",
      "outputs": [],
      "payable": false,
      "stateMutability": "nonpayable",
      "type": "function"
    },
    {
      "constant": false,
      "inputs": [
        {
          "name": "_address",
          "type": "address"
        }
      ],
      "name": "changeAirdropAccountAddress",
      "outputs": [],
      "payable": false,
      "stateMutability": "nonpayable",
      "type": "function"
    },
    {
      "constant": false,
      "inputs": [
        {
          "name": "_feeCollector",
          "type": "address"
        }
      ],
      "name": "changeFeeCollector",
      "outputs": [],
      "payable": false,
      "stateMutability": "nonpayable",
      "type": "function"
    },
    {
      "constant": false,
      "inputs": [
        {
          "name": "_server",
          "type": "address"
        }
      ],
      "name": "changeServer",
      "outputs": [],
      "payable": false,
      "stateMutability": "nonpayable",
      "type": "function"
    },
    {
      "constant": false,
      "inputs": [
        {
          "name": "_owner",
          "type": "address"
        }
      ],
      "name": "changeOwner",
      "outputs": [],
      "payable": false,
      "stateMutability": "nonpayable",
      "type": "function"
    },
    {
      "constant": false,
      "inputs": [
        {
          "name": "_duration",
          "type": "uint256"
        }
      ],
      "name": "setTimelock",
      "outputs": [],
      "payable": false,
      "stateMutability": "nonpayable",
      "type": "function"
    },
    {
      "constant": false,
      "inputs": [
        {
          "name": "_rate",
          "type": "uint256"
        }
      ],
      "name": "setFeeTokenRatePerEth",
      "outputs": [],
      "payable": false,
      "stateMutability": "nonpayable",
      "type": "function"
    },
    {
      "constant": false,
      "inputs": [
        {
          "name": "_status",
          "type": "bool"
        }
      ],
      "name": "setFeeTokenStatus",
      "outputs": [],
      "payable": false,
      "stateMutability": "nonpayable",
      "type": "function"
    },
    {
      "constant": false,
      "inputs": [
        {
          "name": "_address",
          "type": "address"
        }
      ],
      "name": "setFeeTokenAddress",
      "outputs": [],
      "payable": false,
      "stateMutability": "nonpayable",
      "type": "function"
    },
    {
      "constant": false,
      "inputs": [
        {
          "name": "_token",
          "type": "address"
        },
        {
          "name": "_amount",
          "type": "uint256"
        }
      ],
      "name": "deposit",
      "outputs": [],
      "payable": true,
      "stateMutability": "payable",
      "type": "function"
    },
    {
      "constant": false,
      "inputs": [
        {
          "name": "_token",
          "type": "address"
        },
        {
          "name": "_amount",
          "type": "uint256"
        },
        {
          "name": "_account",
          "type": "address"
        },
        {
          "name": "_nonce",
          "type": "uint256"
        },
        {
          "name": "v",
          "type": "uint8"
        },
        {
          "name": "r",
          "type": "bytes32"
        },
        {
          "name": "s",
          "type": "bytes32"
        },
        {
          "name": "_fee",
          "type": "uint256"
        }
      ],
      "name": "withdraw",
      "outputs": [],
      "payable": false,
      "stateMutability": "nonpayable",
      "type": "function"
    },
    {
      "constant": false,
      "inputs": [
        {
          "name": "_token",
          "type": "address"
        },
        {
          "name": "_amount",
          "type": "uint256"
        }
      ],
      "name": "withdrawEmergency",
      "outputs": [],
      "payable": false,
      "stateMutability": "nonpayable",
      "type": "function"
    },
    {
      "constant": false,
      "inputs": [
        {
          "name": "_addresses",
          "type": "address[]"
        },
        {
          "name": "_uints",
          "type": "uint256[]"
        },
        {
          "name": "v",
          "type": "uint8[]"
        },
        {
          "name": "rs",
          "type": "bytes32[]"
        }
      ],
      "name": "trade",
      "outputs": [],
      "payable": false,
      "stateMutability": "nonpayable",
      "type": "function"
    },
    {
      "constant": false,
      "inputs": [
        {
          "name": "_account",
          "type": "address"
        },
        {
          "name": "_nonce",
          "type": "uint256"
        }
      ],
      "name": "bulkCancelOrders",
      "outputs": [],
      "payable": false,
      "stateMutability": "nonpayable",
      "type": "function"
    },
    {
      "constant": false,
      "inputs": [
        {
          "name": "_hash",
          "type": "bytes32"
        }
      ],
      "name": "cancelOrder",
      "outputs": [],
      "payable": false,
      "stateMutability": "nonpayable",
      "type": "function"
    }
  ],
  "bytecode": "0x608060405234801561001057600080fd5b506000805433600160a060020a0319918216811783556002805483168217905560018054831682179055620186a0600355600b80549092161790556127f790819061005b90396000f3006080604052600436106101c15763ffffffff7c010000000000000000000000000000000000000000000000000000000060003504166308ed023681146101d357806308fb8a88146101ef5780630aa57f05146102105780630dee31981461024557806317f4b8ee146102765780631e891c0a1461028b578063242f7e1a146102a35780632ac12622146102ca5780632cf1a5fb146102e25780633823d66c146102f757806347e7ef241461030f5780635aec06c1146103265780636c3d7e1d146103475780636c8ae8dc1461036b5780636cb2456e146103a85780636ef0222c146103c95780637489ec23146103de5780638cef41b6146103f65780638da5cb5b1461040e5780638f98f704146104235780639245290d1461044757806397128d6e14610468578063a6f9dae114610568578063b73e0e8b14610589578063b864ba7d1461059e578063b8df0dea146105bf578063c23f001f146105d4578063c415b95c146105fb578063c91b10a414610610578063cf351c1d1461062a578063d33219b41461064b578063d5238df514610660578063d581332314610678578063f07e96b314610690578063f7213db6146106b1578063fd922a42146106c9575b3480156101cd57600080fd5b50600080fd5b3480156101df57600080fd5b506101ed60043515156106de565b005b3480156101fb57600080fd5b506101ed600160a060020a0360043516610708565b34801561021c57600080fd5b50610231600160a060020a036004351661074e565b604080519115158252519081900360200190f35b34801561025157600080fd5b5061025a610763565b60408051600160a060020a039092168252519081900360200190f35b34801561028257600080fd5b50610231610772565b34801561029757600080fd5b506101ed60043561077b565b3480156102af57600080fd5b506102b86107a7565b60408051918252519081900360200190f35b3480156102d657600080fd5b506102316004356107ad565b3480156102ee57600080fd5b506102316107c2565b34801561030357600080fd5b506102316004356107cb565b6101ed600160a060020a03600435166024356107e0565b34801561033257600080fd5b506102b8600160a060020a03600435166109ee565b34801561035357600080fd5b506101ed600160a060020a0360043516602435610a00565b34801561037757600080fd5b506101ed600160a060020a03600435811690602435906044351660643560ff6084351660a43560c43560e435610c03565b3480156103b457600080fd5b506101ed600160a060020a0360043516610ffb565b3480156103d557600080fd5b506102b8611041565b3480156103ea57600080fd5b506101ed600435611047565b34801561040257600080fd5b506101ed600435611079565b34801561041a57600080fd5b5061025a611095565b34801561042f57600080fd5b506101ed600160a060020a03600435166024356110a4565b34801561045357600080fd5b506101ed600160a060020a03600435166110fb565b34801561047457600080fd5b50604080516020600480358082013583810280860185019096528085526101ed95369593946024949385019291829185019084908082843750506040805187358901803560208181028481018201909552818452989b9a998901989297509082019550935083925085019084908082843750506040805187358901803560208181028481018201909552818452989b9a998901989297509082019550935083925085019084908082843750506040805187358901803560208181028481018201909552818452989b9a9989019892975090820195509350839250850190849080828437509497506111419650505050505050565b34801561057457600080fd5b506101ed600160a060020a0360043516612441565b34801561059557600080fd5b5061025a612487565b3480156105aa57600080fd5b506101ed600160a060020a036004351661249b565b3480156105cb57600080fd5b5061025a6124e7565b3480156105e057600080fd5b506102b8600160a060020a03600435811690602435166124fb565b34801561060757600080fd5b5061025a612518565b34801561061c57600080fd5b506101ed6004351515612527565b34801561063657600080fd5b506101ed600160a060020a0360043516612551565b34801561065757600080fd5b506102b861259d565b34801561066c57600080fd5b506101ed6004356125a3565b34801561068457600080fd5b506102316004356125bf565b34801561069c57600080fd5b506102b8600160a060020a03600435166125d4565b3480156106bd57600080fd5b506102b86004356125e6565b3480156106d557600080fd5b5061025a6125f8565b600154600160a060020a031633146106f557600080fd5b6009805460ff1916911515919091179055565b600154600160a060020a0316331461071f57600080fd5b6000805473ffffffffffffffffffffffffffffffffffffffff1916600160a060020a0392909216919091179055565b600c6020526000908152604090205460ff1681565b600b54600160a060020a031681565b600e5460ff1681565b600154600160a060020a0316331461079257600080fd5b620f42408111156107a257600080fd5b600355565b600d5481565b60106020526000908152604090205460ff1681565b60095460ff1681565b60076020526000908152604090205460ff1681565b336000908152600460205260409020439055600160a060020a03821615156108815734811461080e57600080fd5b3360009081527f05b8ccbb9d4d8fb16ea74ce3c29a41f1b461fbdaff4714a0d9a8eb05499746bc602052604090205461084d903463ffffffff61260716565b3360009081527f05b8ccbb9d4d8fb16ea74ce3c29a41f1b461fbdaff4714a0d9a8eb05499746bc6020526040902055610981565b341561088c57600080fd5b600160a060020a03821660009081526005602090815260408083203384529091529020546108c0908263ffffffff61260716565b600160a060020a0383166000818152600560209081526040808320338085529083528184209590955580517f23b872dd0000000000000000000000000000000000000000000000000000000081526004810195909552306024860152604485018690525192936323b872dd9360648083019491928390030190829087803b15801561094a57600080fd5b505af115801561095e573d6000803e3d6000fd5b505050506040513d602081101561097457600080fd5b5051151561098157600080fd5b600160a060020a03821660008181526005602090815260408083203380855290835292819020548151948552918401929092528282018490526060830152517fdcbc1c05240f31ff3ad067ef1ee35ce4997762752e3a095284754544f4c709d79181900360800190a15050565b600f6020526000908152604090205481565b60035433600090815260046020526040902054610a2490439063ffffffff61261a16565b11610a2e57600080fd5b336000818152600460209081526040808320439055600160a060020a0386168352600582528083209383529290522054811115610a6a57600080fd5b600160a060020a0382166000908152600560209081526040808320338452909152902054610a9e908263ffffffff61261a16565b600160a060020a03831660008181526005602090815260408083203384529091529020919091551515610af757604051339082156108fc029083906000818181858888f193505050501515610af257600080fd5b610b96565b604080517fa9059cbb000000000000000000000000000000000000000000000000000000008152336004820152602481018390529051600160a060020a0384169163a9059cbb9160448083019260209291908290030181600087803b158015610b5f57600080fd5b505af1158015610b73573d6000803e3d6000fd5b505050506040513d6020811015610b8957600080fd5b50511515610b9657600080fd5b600160a060020a03821660008181526005602090815260408083203380855290835292819020548151948552918401929092528282018490526060830152517ff341246adaac6f497bc2a656f546ab9e182111d630394f0c57c710a59a2cb5679181900360800190a15050565b60008054600160a060020a03163314610c1b57600080fd5b600160a060020a0380881660008181526004602090815260409182902043905581516c0100000000000000000000000030810282840152948e1685026034820152604881018d9052939092026068840152607c8084018a905281518085039091018152609c90930190819052825190918291908401908083835b60208310610cb45780518252601f199092019160209182019101610c95565b51815160209384036101000a6000190180199092169116179052604080519290940182900390912060008181526007909252929020549194505060ff16159150610cff905057600080fd5b6000818152600760205260409020805460ff19166001179055600160a060020a038716610d2e8287878761262c565b600160a060020a031614610d4157600080fd5b600160a060020a03808a166000908152600560209081526040808320938b1683529290522054881115610d7357600080fd5b600160a060020a03808a166000908152600560209081526040808320938b1683529290522054610da9908963ffffffff61261a16565b600160a060020a03808b166000908152600560209081526040808320938c168352929052205566b1a2bc2ec50000821115610de95766b1a2bc2ec5000091505b610e11670de0b6b3a7640000610e05848b63ffffffff61278d16565b9063ffffffff6127b616565b600160a060020a03808b16600090815260056020908152604080832060025490941683529290522054909250610e4d908363ffffffff61260716565b600160a060020a03808b16600090815260056020908152604080832060025490941683529290522055610e86888363ffffffff61261a16565b9750600160a060020a0389161515610ecd57604051600160a060020a0388169089156108fc02908a906000818181858888f193505050501515610ec857600080fd5b610f80565b88600160a060020a031663a9059cbb888a6040518363ffffffff167c01000000000000000000000000000000000000000000000000000000000281526004018083600160a060020a0316600160a060020a0316815260200182815260200192505050602060405180830381600087803b158015610f4957600080fd5b505af1158015610f5d573d6000803e3d6000fd5b505050506040513d6020811015610f7357600080fd5b50511515610f8057600080fd5b600160a060020a03808a166000818152600560209081526040808320948c1680845294825291829020548251938452908301939093528181018b9052606082019290925290517ff341246adaac6f497bc2a656f546ab9e182111d630394f0c57c710a59a2cb5679181900360800190a1505050505050505050565b600154600160a060020a0316331461101257600080fd5b600b805473ffffffffffffffffffffffffffffffffffffffff1916600160a060020a0392909216919091179055565b600a5481565b600054600160a060020a0316331461105e57600080fd5b6000908152601060205260409020805460ff19166001179055565b600154600160a060020a0316331461109057600080fd5b600a55565b600154600160a060020a031681565b600054600160a060020a031633146110bb57600080fd5b600160a060020a0382166000908152600f602052604090205481116110df57600080fd5b600160a060020a039091166000908152600f6020526040902055565b600154600160a060020a0316331461111257600080fd5b6002805473ffffffffffffffffffffffffffffffffffffffff1916600160a060020a0392909216919091179055565b6000805481908190819081908190600160a060020a0316331461116357600080fd5b88600381518110151561117257fe5b90602001906020020151600f60008c600081518110151561118f57fe5b6020908102909101810151600160a060020a0316825281019190915260400160002054106111bc57600080fd5b43600460008c60008151811015156111d057fe5b90602001906020020151600160a060020a0316600160a060020a031681526020019081526020016000208190555043600460008c600181518110151561121257fe5b90602001906020020151600160a060020a0316600160a060020a0316815260200190815260200160002081905550308a600081518110151561125057fe5b906020019060200201518b600281518110151561126957fe5b906020019060200201518b600081518110151561128257fe5b906020019060200201518d600381518110151561129b57fe5b906020019060200201518d60018151811015156112b457fe5b906020019060200201518e60038151811015156112cd57fe5b906020019060200201518f60078151811015156112e657fe5b6020908102909101810151604080516c01000000000000000000000000600160a060020a039b8c16810282860152998b168a026034820152978a1689026048890152605c88019690965293909716909502607c850152609084015260b083019390935260d0808301939093528051808303909301835260f09091019081905281519192909182918401908083835b602083106113935780518252601f199092019160209182019101611374565b51815160209384036101000a6000190180199092169116179052604080519290940182900390912060008181526010909252929020549199505060ff161591506113de905057600080fd5b8960008151811015156113ed57fe5b90602001906020020151600160a060020a0316611454878a600081518110151561141357fe5b906020019060200201518a600081518110151561142c57fe5b906020019060200201518b600181518110151561144557fe5b9060200190602002015161262c565b600160a060020a03161461146757600080fd5b30868b600181518110151561147857fe5b906020019060200201518b600281518110151561149157fe5b906020019060200201518c60048151811015156114aa57fe5b906020019060200201516040516020018086600160a060020a0316600160a060020a03166c01000000000000000000000000028152601401856000191660001916815260200184600160a060020a0316600160a060020a03166c01000000000000000000000000028152601401838152602001828152602001955050505050506040516020818303038152906040526040518082805190602001908083835b602083106115685780518252601f199092019160209182019101611549565b6001836020036101000a038019825116818451168082178552505050505050905001915050604051809103902094508960018151811015156115a657fe5b90602001906020020151600160a060020a03166115fe868a60018151811015156115cc57fe5b906020019060200201518a60028151811015156115e557fe5b906020019060200201518b600381518110151561144557fe5b600160a060020a03161461161157600080fd5b60008581526008602052604090205460ff161561162d57600080fd5b6000858152600860205260409020805460ff1916600117905588516611c37937e08000908a90600590811061165e57fe5b906020019060200201511115611690576611c37937e0800089600581518110151561168557fe5b602090810290910101525b6611c37937e080008960068151811015156116a757fe5b9060200190602002015111156116d9576611c37937e080008960068151811015156116ce57fe5b602090810290910101525b8860028151811015156116e857fe5b90602001906020020151600560008c600281518110151561170557fe5b90602001906020020151600160a060020a0316600160a060020a0316815260200190815260200160002060008c600081518110151561174057fe5b6020908102909101810151600160a060020a0316825281019190915260400160002054101561176e57600080fd5b6117d789600281518110151561178057fe5b906020019060200201516117cb8b600081518110151561179c57fe5b906020019060200201518c60018151811015156117b557fe5b602090810290910101519063ffffffff6127b616565b9063ffffffff61278d16565b600560008c60038151811015156117ea57fe5b90602001906020020151600160a060020a0316600160a060020a0316815260200190815260200160002060008c600181518110151561182557fe5b6020908102909101810151600160a060020a0316825281019190915260400160002054101561185357600080fd5b88600081518110151561186257fe5b906020019060200201516118a58a600281518110151561187e57fe5b602090810290910181015160008a815260069092526040909120549063ffffffff61260716565b11156118b057600080fd5b8860008151811015156118bf57fe5b9060200190602002015193508960038151811015156118da57fe5b90602001906020020151600160a060020a0316600014156119115788600181518110151561190457fe5b9060200190602002015193505b61195e670de0b6b3a7640000610e058b600281518110151561192f57fe5b906020019060200201518c600681518110151561194857fe5b602090810290910101519063ffffffff61278d16565b9250600c60008b600181518110151561197357fe5b6020908102909101810151600160a060020a031682528101919091526040016000205460ff1615611adc57600d546119b290859063ffffffff61278d16565b600e546101009004600160a060020a031660009081526005602052604081208c519091908d9060019081106119e357fe5b6020908102909101810151600160a060020a031682528101919091526040016000205410611adc5760009250611a87611a27600d548661278d90919063ffffffff16565b600e546101009004600160a060020a031660009081526005602052604081208d519091908e906001908110611a5857fe5b6020908102909101810151600160a060020a03168252810191909152604001600020549063ffffffff61261a16565b600e546101009004600160a060020a031660009081526005602052604081208c519091908d906001908110611ab857fe5b6020908102909101810151600160a060020a03168252810191909152604001600020555b611b46896002815181101515611aee57fe5b90602001906020020151600560008d6002815181101515611b0b57fe5b90602001906020020151600160a060020a0316600160a060020a0316815260200190815260200160002060008d6000815181101515611a5857fe5b600560008c6002815181101515611b5957fe5b90602001906020020151600160a060020a0316600160a060020a0316815260200190815260200160002060008c6000815181101515611b9457fe5b90602001906020020151600160a060020a0316600160a060020a0316815260200190815260200160002081905550611c6b611bee848b6002815181101515611bd857fe5b602090810290910101519063ffffffff61261a16565b600560008d6002815181101515611c0157fe5b90602001906020020151600160a060020a0316600160a060020a0316815260200190815260200160002060008d6001815181101515611c3c57fe5b6020908102909101810151600160a060020a03168252810191909152604001600020549063ffffffff61260716565b600560008c6002815181101515611c7e57fe5b90602001906020020151600160a060020a0316600160a060020a0316815260200190815260200160002060008c6001815181101515611cb957fe5b90602001906020020151600160a060020a0316600160a060020a0316815260200190815260200160002081905550611d4183600560008d6002815181101515611cfe57fe5b6020908102909101810151600160a060020a039081168352828201939093526040918201600090812060025490941681529290529020549063ffffffff61260716565b600560008c6002815181101515611d5457fe5b6020908102909101810151600160a060020a039081168352828201939093526040918201600090812060025490941681529290528120919091558951611df591670de0b6b3a764000091610e0591611de6918e91908110611db157fe5b90602001906020020151610e058e6002815181101515611dcd57fe5b906020019060200201518f600181518110151561194857fe5b8c600581518110151561194857fe5b9150600c60008b6000815181101515611e0a57fe5b6020908102909101810151600160a060020a031682528101919091526040016000205460ff1615611f4157600d54611e4990859063ffffffff61278d16565b600e546101009004600160a060020a031660009081526005602052604081208c519091908d9082908110611e7957fe5b6020908102909101810151600160a060020a031682528101919091526040016000205410611f415760009150611eed611ebd600d548661278d90919063ffffffff16565b600e546101009004600160a060020a031660009081526005602052604081208d519091908e9082908110611a5857fe5b600e546101009004600160a060020a031660009081526005602052604081208c519091908d9082908110611f1d57fe5b6020908102909101810151600160a060020a03168252810191909152604001600020555b611fb4611f6683611f5a8c6000815181101515611db157fe5b9063ffffffff61261a16565b600560008d6003815181101515611f7957fe5b90602001906020020151600160a060020a0316600160a060020a0316815260200190815260200160002060008d6000815181101515611c3c57fe5b600560008c6003815181101515611fc757fe5b90602001906020020151600160a060020a0316600160a060020a0316815260200190815260200160002060008c600081518110151561200257fe5b90602001906020020151600160a060020a0316600160a060020a03168152602001908152602001600020819055506120c861207a8a600081518110151561204557fe5b90602001906020020151610e058c600281518110151561206157fe5b906020019060200201518d600181518110151561194857fe5b600560008d600381518110151561208d57fe5b90602001906020020151600160a060020a0316600160a060020a0316815260200190815260200160002060008d6001815181101515611a5857fe5b600560008c60038151811015156120db57fe5b90602001906020020151600160a060020a0316600160a060020a0316815260200190815260200160002060008c600181518110151561211657fe5b90602001906020020151600160a060020a0316600160a060020a031681526020019081526020016000208190555061215b82600560008d6003815181101515611cfe57fe5b600560008c600381518110151561216e57fe5b6020908102909101810151600160a060020a0390811683528282019390935260409182016000908120600280549095168252909152209190915589516121df918b9181106121b857fe5b6020908102909101810151600089815260069092526040909120549063ffffffff61260716565b60008781526006602052604090205560095460ff161561243557600a5461220d90859063ffffffff61278d16565b600954600160a060020a0361010090910481166000908152600560209081526040808320600b5490941683529290522054909150811161243557811561233d57600954600160a060020a0361010090910481166000908152600560209081526040808320600b549094168352929052205461228e908263ffffffff61261a16565b60098054600160a060020a036101009182900481166000908152600560208181526040808420600b5486168552825280842097909755945493909304909116815291529081208b516122e9928492918e9082908110611c3c57fe5b6009546101009004600160a060020a031660009081526005602052604081208c519091908d908290811061231957fe5b6020908102909101810151600160a060020a03168252810191909152604001600020555b821561243557600954600160a060020a0361010090910481166000908152600560209081526040808320600b5490941683529290522054612384908263ffffffff61261a16565b60098054600160a060020a036101009182900481166000908152600560208181526040808420600b5486168552825280842097909755945493909304909116815291529081208b516123e0928492918e906001908110611c3c57fe5b6009546101009004600160a060020a031660009081526005602052604081208c519091908d90600190811061241157fe5b6020908102909101810151600160a060020a03168252810191909152604001600020555b50505050505050505050565b600154600160a060020a0316331461245857600080fd5b6001805473ffffffffffffffffffffffffffffffffffffffff1916600160a060020a0392909216919091179055565b6009546101009004600160a060020a031681565b600154600160a060020a031633146124b257600080fd5b60098054600160a060020a039092166101000274ffffffffffffffffffffffffffffffffffffffff0019909216919091179055565b600e546101009004600160a060020a031681565b600560209081526000928352604080842090915290825290205481565b600254600160a060020a031681565b600154600160a060020a0316331461253e57600080fd5b600e805460ff1916911515919091179055565b600154600160a060020a0316331461256857600080fd5b600e8054600160a060020a039092166101000274ffffffffffffffffffffffffffffffffffffffff0019909216919091179055565b60035481565b600154600160a060020a031633146125ba57600080fd5b600d55565b60086020526000908152604090205460ff1681565b60046020526000908152604090205481565b60066020526000908152604090205481565b600054600160a060020a031681565b8181018281101561261457fe5b92915050565b60008282111561262657fe5b50900390565b604080518082018252601c8082527f19457468657265756d205369676e6564204d6573736167653a0a33320000000060208084019182529351600094859385938b939092019182918083835b602083106126975780518252601f199092019160209182019101612678565b51815160209384036101000a600019018019909216911617905292019384525060408051808503815293820190819052835193945092839250908401908083835b602083106126f75780518252601f1990920191602091820191016126d8565b51815160209384036101000a600019018019909216911617905260408051929094018290038220600080845283830180875282905260ff8e1684870152606084018d9052608084018c905294519097506001965060a080840196509194601f19820194509281900390910191865af1158015612777573d6000803e3d6000fd5b5050604051601f19015198975050505050505050565b600082151561279e57506000612614565b508181028183828115156127ae57fe5b041461261457fe5b600081838115156127c357fe5b0493925050505600a165627a7a7230582095d09a7e8d3642bca2e86beda35a4cfe83b31a0f328bf70d188249f54ae496e30029",
  "source": "pragma solidity ^0.4.22;\n\nimport \"openzeppelin-solidity/contracts/math/SafeMath.sol\";\nimport \"openzeppelin-solidity/contracts/token/ERC20/StandardToken.sol\";\n\ncontract Exchange {\n    using SafeMath for uint;\n\n    address public server;\n    address public owner;\n    address public feeCollector;\n    uint public timelock;\n    mapping (address => uint) public lastActivity;\n    mapping (address => mapping (address => uint)) public balances;\n    mapping (bytes32 => uint) public orderFills;\n    mapping (bytes32 => bool) public withdrawn;\n    mapping (bytes32 => bool) public traded;\n    bool public airdropStatus;\n    address public airdropTokenAddress;\n    uint public airdropRatePerEth;\n    address public airdropAccountAddress;\n\n    event Deposit(address token, address account, uint amount, uint balance);\n    event Withdraw(address token, address account, uint amount, uint balance);\n    event Trade(address tokenBuy, uint amountBuy, address tokenSell, uint amountSell, address get, address give);\n    event Order(address exchange, address maker, address giveToken, uint giveAmount, address takeToken, uint takeAmount, uint nonce, uint expiry, bytes payload, bytes32 orderHash);\n\n    modifier serverOnly {\n        require(msg.sender == server);\n        _;\n    }\n\n    modifier ownerOnly {\n        require(msg.sender == owner);\n        _;\n    }\n\n    constructor() public {\n        server = msg.sender;\n        feeCollector = msg.sender;\n        owner = msg.sender;\n        timelock = 100000;\n        airdropAccountAddress = msg.sender;\n    }\n\n    function setAirdropStatus(bool _status) public ownerOnly {\n        airdropStatus = _status;\n    }\n\n    function setAirdropTokenAddress(address _address) public ownerOnly {\n        airdropTokenAddress = _address;\n    }\n\n    function setAirdropRatePerEth(uint _ratePerEth) public ownerOnly {\n        airdropRatePerEth = _ratePerEth;\n    } \n\n    function changeAirdropAccountAddress(address _address) public ownerOnly {\n        airdropAccountAddress = _address;\n    }\n\n    function changeFeeCollector(address _feeCollector) public ownerOnly {\n        feeCollector = _feeCollector;\n    }\n\n    function changeServer(address _server) public ownerOnly {\n        server = _server;\n    }\n\n    function changeOwner(address _owner) public ownerOnly {\n        owner = _owner;\n    }\n\n    function setTimelock(uint _duration) public ownerOnly {\n        require(_duration <= 1000000);\n        timelock = _duration;\n    }\n\n    mapping (address => bool) public useFeeToken;\n    uint public feeTokenRatePerEth;\n    bool public feeTokenStatus;\n    address public feeTokenAddress;\n\n    function setFeeTokenRatePerEth(uint _rate) public ownerOnly {\n        feeTokenRatePerEth = _rate;\n    }\n\n    function setFeeTokenStatus(bool _status) public ownerOnly {\n        feeTokenStatus = _status;\n    }\n\n    function setFeeTokenAddress(address _address) public ownerOnly {\n        feeTokenAddress = _address;\n    }\n\n    function deposit(address _token, uint _amount) public payable {\n        lastActivity[msg.sender] = block.number;\n        if (_token == 0) {\n            require(msg.value == _amount);\n            balances[0][msg.sender] = balances[0][msg.sender].add(msg.value);\n        } else {\n            require(msg.value == 0);\n            balances[_token][msg.sender] = balances[_token][msg.sender].add(_amount);\n            require(StandardToken(_token).transferFrom(msg.sender, this, _amount));\n        }\n        emit Deposit(_token, msg.sender, _amount, balances[_token][msg.sender]);\n    }\n\n    function withdraw(address _token, uint _amount, address _account, uint _nonce, uint8 v, bytes32 r, bytes32 s, uint _fee) public serverOnly {\n        lastActivity[_account] = block.number;\n        bytes32 hash = keccak256(abi.encodePacked(this, _token, _amount, _account, _nonce));\n        require(!withdrawn[hash]);\n        withdrawn[hash] = true;\n        require(recover(hash, v, r, s) == _account);\n        require(balances[_token][_account] >= _amount);\n        balances[_token][_account] = balances[_token][_account].sub(_amount);\n        if (_fee > 50 finney) _fee = 50 finney;\n        _fee = (_fee.mul(_amount)).div(1 ether);\n        balances[_token][feeCollector] = balances[_token][feeCollector].add(_fee);\n        _amount = _amount.sub(_fee);\n        if (_token == 0) {\n            require(_account.send(_amount));\n        } else {\n            require(StandardToken(_token).transfer(_account, _amount));\n        }\n        emit Withdraw(_token, _account, _amount, balances[_token][_account]);\n    }\n\n    function withdrawEmergency(address _token, uint _amount) public {\n        require(block.number.sub(lastActivity[msg.sender]) > timelock);\n        lastActivity[msg.sender] = block.number;\n        require(balances[_token][msg.sender] >= _amount);\n        balances[_token][msg.sender] = balances[_token][msg.sender].sub(_amount);\n        if (_token == 0) {\n            require(msg.sender.send(_amount));\n        } else {\n            require(StandardToken(_token).transfer(msg.sender, _amount));\n        }\n        emit Withdraw(_token, msg.sender, _amount, balances[_token][msg.sender]);\n    }\n\n    function trade(address[] _addresses, uint[] _uints, uint8[] v, bytes32[] rs) public serverOnly {\n        /*\n            _addresses[0] == maker\n            _addresses[1] == taker\n            _addresses[2] == giveToken\n            _addresses[3] == takeToken\n            _uints[0] == giveAmount\n            _uints[1] == takeAmount\n            _uints[2] == fillAmount\n            _uints[3] == makerNonce\n            _uints[4] == takerNonce\n            _uints[5] == makerFee\n            _uints[6] == takerFee\n            _uints[7] == expiry\n            v[0] == makerV\n            v[1] == takerV\n            rs[0]..[1] == makerR, makerS\n            rs[2]..[3] == takerR, takerS\n        */\n        require(cancelledOrders[_addresses[0]] < _uints[3]);\n        lastActivity[_addresses[0]] = block.number;\n        lastActivity[_addresses[1]] = block.number;\n        bytes32 orderHash = keccak256(abi.encodePacked(this, _addresses[0], _addresses[2], _uints[0], _addresses[3], _uints[1], _uints[3], _uints[7]));\n        require(!cancelled[orderHash]);\n        require(recover(orderHash, v[0], rs[0], rs[1]) == _addresses[0]);\n        bytes32 tradeHash = keccak256(abi.encodePacked(this, orderHash, _addresses[1], _uints[2], _uints[4]));\n        require(recover(tradeHash, v[1], rs[2], rs[3]) == _addresses[1]);\n        require(!traded[tradeHash]);\n        traded[tradeHash] = true;\n        if (_uints[5] > 5 finney) _uints[5] = 5 finney;\n        if (_uints[6] > 5 finney) _uints[6] = 5 finney;\n        require(balances[_addresses[2]][_addresses[0]] >= _uints[2]);\n        require(balances[_addresses[3]][_addresses[1]] >= (_uints[1].div(_uints[0])).mul(_uints[2]));\n        require(orderFills[orderHash].add(_uints[2]) <= _uints[0]);\n        uint totalTradedAmount = _uints[0];\n        if (_addresses[3] == 0) totalTradedAmount = _uints[1];\n        uint takerFee = (_uints[6].mul(_uints[2])).div(1 ether);\n        if (useFeeToken[_addresses[1]]) {\n            if (balances[feeTokenAddress][_addresses[1]] >= totalTradedAmount.mul(feeTokenRatePerEth)) {\n                takerFee = 0;\n                balances[feeTokenAddress][_addresses[1]] = balances[feeTokenAddress][_addresses[1]].sub(totalTradedAmount.mul(feeTokenRatePerEth));\n            }\n        }\n        balances[_addresses[2]][_addresses[0]] = balances[_addresses[2]][_addresses[0]].sub(_uints[2]);\n        balances[_addresses[2]][_addresses[1]] = balances[_addresses[2]][_addresses[1]].add((_uints[2]).sub(takerFee));\n        balances[_addresses[2]][feeCollector] = balances[_addresses[2]][feeCollector].add(takerFee);\n        uint makerFee = (_uints[5].mul((_uints[1].mul(_uints[2])).div(_uints[0]))).div(1 ether);\n        if (useFeeToken[_addresses[0]]) {\n            if (balances[feeTokenAddress][_addresses[0]] >= totalTradedAmount.mul(feeTokenRatePerEth)) {\n                makerFee = 0;\n                balances[feeTokenAddress][_addresses[0]] = balances[feeTokenAddress][_addresses[0]].sub(totalTradedAmount.mul(feeTokenRatePerEth));\n            }\n        }\n        balances[_addresses[3]][_addresses[0]] = balances[_addresses[3]][_addresses[0]].add(((_uints[1].mul(_uints[2])).div(_uints[0])).sub(makerFee));\n        balances[_addresses[3]][_addresses[1]] = balances[_addresses[3]][_addresses[1]].sub((_uints[1].mul(_uints[2])).div(_uints[0]));\n        balances[_addresses[3]][feeCollector] = balances[_addresses[3]][feeCollector].add(makerFee);\n        orderFills[orderHash] = orderFills[orderHash].add(_uints[2]);\n        if (airdropStatus) {\n            uint airdropAmount = totalTradedAmount.mul(airdropRatePerEth);\n            if (balances[airdropTokenAddress][airdropAccountAddress] >= airdropAmount) {\n                if (makerFee != 0) {\n                    balances[airdropTokenAddress][airdropAccountAddress] = balances[airdropTokenAddress][airdropAccountAddress].sub(airdropAmount);\n                    balances[airdropTokenAddress][_addresses[0]] = balances[airdropTokenAddress][_addresses[0]].add(airdropAmount);\n                }\n                if (takerFee != 0) {\n                    balances[airdropTokenAddress][airdropAccountAddress] = balances[airdropTokenAddress][airdropAccountAddress].sub(airdropAmount);\n                    balances[airdropTokenAddress][_addresses[1]] = balances[airdropTokenAddress][_addresses[1]].add(airdropAmount);\n                }\n            }\n        }\n    }\n\n    function recover(bytes32 _hash, uint8 v, bytes32 r, bytes32 s) private pure returns (address) {\n        bytes memory prefix = \"\\x19Ethereum Signed Message:\\n32\";\n        bytes32 hash = keccak256(abi.encodePacked(prefix, _hash));\n        return ecrecover(hash, v, r, s);\n    }\n  \n    mapping (address => uint256) public cancelledOrders;\n    mapping (bytes32 => bool) public cancelled;\n    \n    function bulkCancelOrders(address _account, uint256 _nonce) public serverOnly {\n        require(_nonce > cancelledOrders[_account]);\n        cancelledOrders[_account] = _nonce;\n    }\n\n    function cancelOrder (bytes32 _hash) public serverOnly {\n        cancelled[_hash] = true;\n    }\n\n    function() external {\n        throw;\n    }\n}\n\n",
  "sourcePath": "/Users/hieu/dev/ninjatrade-contracts/contracts/Exchange.sol",
  "compiler": {
    "name": "solc",
    "version": "0.4.24+commit.e67f0147.Emscripten.clang"
  },
  "schemaVersion": "2.0.1",
  "updatedAt": "2019-03-18T17:48:13.322Z"
}