{
  "contractName": "Exchange",
  "abi": [
    {
      "constant": true,
      "inputs": [
        {
          "name": "",
          "type": "address"
        }
      ],
      "name": "accountManualWithdraws",
      "outputs": [
        {
          "name": "",
          "type": "bool"
        }
      ],
      "payable": false,
      "stateMutability": "view",
      "type": "function"
    },
    {
      "constant": true,
      "inputs": [
        {
          "name": "",
          "type": "address"
        }
      ],
      "name": "useFeeToken",
      "outputs": [
        {
          "name": "",
          "type": "bool"
        }
      ],
      "payable": false,
      "stateMutability": "view",
      "type": "function"
    },
    {
      "constant": true,
      "inputs": [],
      "name": "airdropAccountAddress",
      "outputs": [
        {
          "name": "",
          "type": "address"
        }
      ],
      "payable": false,
      "stateMutability": "view",
      "type": "function"
    },
    {
      "constant": true,
      "inputs": [],
      "name": "feeTokenStatus",
      "outputs": [
        {
          "name": "",
          "type": "bool"
        }
      ],
      "payable": false,
      "stateMutability": "view",
      "type": "function"
    },
    {
      "constant": true,
      "inputs": [],
      "name": "feeTokenRatePerEth",
      "outputs": [
        {
          "name": "",
          "type": "uint256"
        }
      ],
      "payable": false,
      "stateMutability": "view",
      "type": "function"
    },
    {
      "constant": true,
      "inputs": [
        {
          "name": "",
          "type": "bytes32"
        }
      ],
      "name": "cancelled",
      "outputs": [
        {
          "name": "",
          "type": "bool"
        }
      ],
      "payable": false,
      "stateMutability": "view",
      "type": "function"
    },
    {
      "constant": true,
      "inputs": [],
      "name": "airdropStatus",
      "outputs": [
        {
          "name": "",
          "type": "bool"
        }
      ],
      "payable": false,
      "stateMutability": "view",
      "type": "function"
    },
    {
      "constant": true,
      "inputs": [],
      "name": "contractManualWithdraws",
      "outputs": [
        {
          "name": "",
          "type": "bool"
        }
      ],
      "payable": false,
      "stateMutability": "view",
      "type": "function"
    },
    {
      "constant": true,
      "inputs": [
        {
          "name": "",
          "type": "address"
        }
      ],
      "name": "cancelledOrders",
      "outputs": [
        {
          "name": "",
          "type": "uint256"
        }
      ],
      "payable": false,
      "stateMutability": "view",
      "type": "function"
    },
    {
      "constant": true,
      "inputs": [],
      "name": "airdropRatePerEth",
      "outputs": [
        {
          "name": "",
          "type": "uint256"
        }
      ],
      "payable": false,
      "stateMutability": "view",
      "type": "function"
    },
    {
      "constant": true,
      "inputs": [],
      "name": "owner",
      "outputs": [
        {
          "name": "",
          "type": "address"
        }
      ],
      "payable": false,
      "stateMutability": "view",
      "type": "function"
    },
    {
      "constant": true,
      "inputs": [],
      "name": "airdropTokenAddress",
      "outputs": [
        {
          "name": "",
          "type": "address"
        }
      ],
      "payable": false,
      "stateMutability": "view",
      "type": "function"
    },
    {
      "constant": true,
      "inputs": [],
      "name": "feeTokenAddress",
      "outputs": [
        {
          "name": "",
          "type": "address"
        }
      ],
      "payable": false,
      "stateMutability": "view",
      "type": "function"
    },
    {
      "constant": true,
      "inputs": [
        {
          "name": "",
          "type": "address"
        },
        {
          "name": "",
          "type": "address"
        }
      ],
      "name": "balances",
      "outputs": [
        {
          "name": "",
          "type": "uint256"
        }
      ],
      "payable": false,
      "stateMutability": "view",
      "type": "function"
    },
    {
      "constant": true,
      "inputs": [],
      "name": "feeCollector",
      "outputs": [
        {
          "name": "",
          "type": "address"
        }
      ],
      "payable": false,
      "stateMutability": "view",
      "type": "function"
    },
    {
      "constant": true,
      "inputs": [
        {
          "name": "",
          "type": "bytes32"
        }
      ],
      "name": "traded",
      "outputs": [
        {
          "name": "",
          "type": "bool"
        }
      ],
      "payable": false,
      "stateMutability": "view",
      "type": "function"
    },
    {
      "constant": true,
      "inputs": [
        {
          "name": "",
          "type": "bytes32"
        }
      ],
      "name": "orderFills",
      "outputs": [
        {
          "name": "",
          "type": "uint256"
        }
      ],
      "payable": false,
      "stateMutability": "view",
      "type": "function"
    },
    {
      "constant": true,
      "inputs": [],
      "name": "server",
      "outputs": [
        {
          "name": "",
          "type": "address"
        }
      ],
      "payable": false,
      "stateMutability": "view",
      "type": "function"
    },
    {
      "inputs": [],
      "payable": false,
      "stateMutability": "nonpayable",
      "type": "constructor"
    },
    {
      "payable": false,
      "stateMutability": "nonpayable",
      "type": "fallback"
    },
    {
      "anonymous": false,
      "inputs": [
        {
          "indexed": false,
          "name": "token",
          "type": "address"
        },
        {
          "indexed": false,
          "name": "account",
          "type": "address"
        },
        {
          "indexed": false,
          "name": "amount",
          "type": "uint256"
        },
        {
          "indexed": false,
          "name": "balance",
          "type": "uint256"
        }
      ],
      "name": "Deposit",
      "type": "event"
    },
    {
      "anonymous": false,
      "inputs": [
        {
          "indexed": false,
          "name": "token",
          "type": "address"
        },
        {
          "indexed": false,
          "name": "account",
          "type": "address"
        },
        {
          "indexed": false,
          "name": "amount",
          "type": "uint256"
        },
        {
          "indexed": false,
          "name": "balance",
          "type": "uint256"
        }
      ],
      "name": "Withdraw",
      "type": "event"
    },
    {
      "anonymous": false,
      "inputs": [
        {
          "indexed": false,
          "name": "tokenBuy",
          "type": "address"
        },
        {
          "indexed": false,
          "name": "amountBuy",
          "type": "uint256"
        },
        {
          "indexed": false,
          "name": "tokenSell",
          "type": "address"
        },
        {
          "indexed": false,
          "name": "amountSell",
          "type": "uint256"
        },
        {
          "indexed": false,
          "name": "get",
          "type": "address"
        },
        {
          "indexed": false,
          "name": "give",
          "type": "address"
        }
      ],
      "name": "Trade",
      "type": "event"
    },
    {
      "anonymous": false,
      "inputs": [
        {
          "indexed": false,
          "name": "exchange",
          "type": "address"
        },
        {
          "indexed": false,
          "name": "maker",
          "type": "address"
        },
        {
          "indexed": false,
          "name": "giveToken",
          "type": "address"
        },
        {
          "indexed": false,
          "name": "giveAmount",
          "type": "uint256"
        },
        {
          "indexed": false,
          "name": "takeToken",
          "type": "address"
        },
        {
          "indexed": false,
          "name": "takeAmount",
          "type": "uint256"
        },
        {
          "indexed": false,
          "name": "nonce",
          "type": "uint256"
        },
        {
          "indexed": false,
          "name": "expiry",
          "type": "uint256"
        },
        {
          "indexed": false,
          "name": "payload",
          "type": "bytes"
        },
        {
          "indexed": false,
          "name": "orderHash",
          "type": "bytes32"
        }
      ],
      "name": "Order",
      "type": "event"
    },
    {
      "constant": false,
      "inputs": [
        {
          "name": "_status",
          "type": "bool"
        }
      ],
      "name": "setAirdropStatus",
      "outputs": [],
      "payable": false,
      "stateMutability": "nonpayable",
      "type": "function"
    },
    {
      "constant": false,
      "inputs": [
        {
          "name": "_status",
          "type": "bool"
        }
      ],
      "name": "setContractManualWithdraws",
      "outputs": [],
      "payable": false,
      "stateMutability": "nonpayable",
      "type": "function"
    },
    {
      "constant": false,
      "inputs": [
        {
          "name": "_account",
          "type": "address"
        },
        {
          "name": "_status",
          "type": "bool"
        }
      ],
      "name": "setAccountManualWithdraws",
      "outputs": [],
      "payable": false,
      "stateMutability": "nonpayable",
      "type": "function"
    },
    {
      "constant": false,
      "inputs": [
        {
          "name": "_address",
          "type": "address"
        }
      ],
      "name": "setAirdropTokenAddress",
      "outputs": [],
      "payable": false,
      "stateMutability": "nonpayable",
      "type": "function"
    },
    {
      "constant": false,
      "inputs": [
        {
          "name": "_ratePerEth",
          "type": "uint256"
        }
      ],
      "name": "setAirdropRatePerEth",
      "outputs": [],
      "payable": false,
      "stateMutability": "nonpayable",
      "type": "function"
    },
    {
      "constant": false,
      "inputs": [
        {
          "name": "_address",
          "type": "address"
        }
      ],
      "name": "changeAirdropAccountAddress",
      "outputs": [],
      "payable": false,
      "stateMutability": "nonpayable",
      "type": "function"
    },
    {
      "constant": false,
      "inputs": [
        {
          "name": "_feeCollector",
          "type": "address"
        }
      ],
      "name": "changeFeeCollector",
      "outputs": [],
      "payable": false,
      "stateMutability": "nonpayable",
      "type": "function"
    },
    {
      "constant": false,
      "inputs": [
        {
          "name": "_server",
          "type": "address"
        }
      ],
      "name": "changeServer",
      "outputs": [],
      "payable": false,
      "stateMutability": "nonpayable",
      "type": "function"
    },
    {
      "constant": false,
      "inputs": [
        {
          "name": "_owner",
          "type": "address"
        }
      ],
      "name": "changeOwner",
      "outputs": [],
      "payable": false,
      "stateMutability": "nonpayable",
      "type": "function"
    },
    {
      "constant": false,
      "inputs": [
        {
          "name": "_rate",
          "type": "uint256"
        }
      ],
      "name": "setFeeTokenRatePerEth",
      "outputs": [],
      "payable": false,
      "stateMutability": "nonpayable",
      "type": "function"
    },
    {
      "constant": false,
      "inputs": [
        {
          "name": "_status",
          "type": "bool"
        }
      ],
      "name": "setFeeTokenStatus",
      "outputs": [],
      "payable": false,
      "stateMutability": "nonpayable",
      "type": "function"
    },
    {
      "constant": false,
      "inputs": [
        {
          "name": "_address",
          "type": "address"
        }
      ],
      "name": "setFeeTokenAddress",
      "outputs": [],
      "payable": false,
      "stateMutability": "nonpayable",
      "type": "function"
    },
    {
      "constant": false,
      "inputs": [
        {
          "name": "_token",
          "type": "address"
        },
        {
          "name": "_amount",
          "type": "uint256"
        }
      ],
      "name": "deposit",
      "outputs": [],
      "payable": true,
      "stateMutability": "payable",
      "type": "function"
    },
    {
      "constant": false,
      "inputs": [
        {
          "name": "_token",
          "type": "address"
        },
        {
          "name": "_amount",
          "type": "uint256"
        },
        {
          "name": "_account",
          "type": "address"
        },
        {
          "name": "_fee",
          "type": "uint256"
        }
      ],
      "name": "withdraw",
      "outputs": [],
      "payable": false,
      "stateMutability": "nonpayable",
      "type": "function"
    },
    {
      "constant": false,
      "inputs": [
        {
          "name": "_token",
          "type": "address"
        },
        {
          "name": "_amount",
          "type": "uint256"
        }
      ],
      "name": "withdrawEmergency",
      "outputs": [],
      "payable": false,
      "stateMutability": "nonpayable",
      "type": "function"
    },
    {
      "constant": false,
      "inputs": [
        {
          "name": "_addresses",
          "type": "address[]"
        },
        {
          "name": "_uints",
          "type": "uint256[]"
        },
        {
          "name": "v",
          "type": "uint8[]"
        },
        {
          "name": "rs",
          "type": "bytes32[]"
        }
      ],
      "name": "trade",
      "outputs": [],
      "payable": false,
      "stateMutability": "nonpayable",
      "type": "function"
    },
    {
      "constant": false,
      "inputs": [
        {
          "name": "_account",
          "type": "address"
        },
        {
          "name": "_nonce",
          "type": "uint256"
        }
      ],
      "name": "bulkCancelOrders",
      "outputs": [],
      "payable": false,
      "stateMutability": "nonpayable",
      "type": "function"
    },
    {
      "constant": false,
      "inputs": [
        {
          "name": "_hash",
          "type": "bytes32"
        }
      ],
      "name": "cancelOrder",
      "outputs": [],
      "payable": false,
      "stateMutability": "nonpayable",
      "type": "function"
    }
  ],
  "bytecode": "0x608060405234801561001057600080fd5b506000805433600160a060020a0319918216811783556002805483168217905560018054831682179055600a80549092161790556006805461ffff1916905561262590819061005f90396000f3006080604052600436106101c15763ffffffff7c0100000000000000000000000000000000000000000000000000000000600035041663080c87a381146101d357806308ed02361461020857806308fb8a88146102245780630aa57f05146102455780630dee31981461026657806317f4b8ee14610297578063242f7e1a146102ac5780632ac12622146102d35780632cf1a5fb146102eb57806334c1d91e14610300578063386fd4291461031a57806347e7ef241461032f5780634b2084e3146103465780635aec06c1146103745780636c3d7e1d146103955780636cb2456e146103b95780636ef0222c146103da5780637489ec23146103ef5780638cef41b6146104075780638da5cb5b1461041f5780638f98f704146104345780639245290d1461045857806397128d6e14610479578063a6f9dae114610579578063b73e0e8b1461059a578063b864ba7d146105af578063b8df0dea146105d0578063be06f2d7146105e5578063c23f001f1461060b578063c415b95c14610632578063c91b10a414610647578063cf351c1d14610661578063d5238df514610682578063d58133231461069a578063f7213db6146106b2578063fd922a42146106ca575b3480156101cd57600080fd5b50600080fd5b3480156101df57600080fd5b506101f4600160a060020a03600435166106df565b604080519115158252519081900360200190f35b34801561021457600080fd5b5061022260043515156106f4565b005b34801561023057600080fd5b50610222600160a060020a036004351661071e565b34801561025157600080fd5b506101f4600160a060020a0360043516610764565b34801561027257600080fd5b5061027b610779565b60408051600160a060020a039092168252519081900360200190f35b3480156102a357600080fd5b506101f4610788565b3480156102b857600080fd5b506102c1610791565b60408051918252519081900360200190f35b3480156102df57600080fd5b506101f4600435610797565b3480156102f757600080fd5b506101f46107ac565b34801561030c57600080fd5b5061022260043515156107b5565b34801561032657600080fd5b506101f46107e6565b610222600160a060020a03600435166024356107f4565b34801561035257600080fd5b50610222600160a060020a0360043581169060243590604435166064356109f0565b34801561038057600080fd5b506102c1600160a060020a0360043516610cbb565b3480156103a157600080fd5b50610222600160a060020a0360043516602435610ccd565b3480156103c557600080fd5b50610222600160a060020a0360043516610ec6565b3480156103e657600080fd5b506102c1610f0c565b3480156103fb57600080fd5b50610222600435610f12565b34801561041357600080fd5b50610222600435610f44565b34801561042b57600080fd5b5061027b610f60565b34801561044057600080fd5b50610222600160a060020a0360043516602435610f6f565b34801561046457600080fd5b50610222600160a060020a0360043516610fc6565b34801561048557600080fd5b506040805160206004803580820135838102808601850190965280855261022295369593946024949385019291829185019084908082843750506040805187358901803560208181028481018201909552818452989b9a998901989297509082019550935083925085019084908082843750506040805187358901803560208181028481018201909552818452989b9a998901989297509082019550935083925085019084908082843750506040805187358901803560208181028481018201909552818452989b9a99890198929750908201955093508392508501908490808284375094975061100c9650505050505050565b34801561058557600080fd5b50610222600160a060020a0360043516612239565b3480156105a657600080fd5b5061027b61227f565b3480156105bb57600080fd5b50610222600160a060020a036004351661228e565b3480156105dc57600080fd5b5061027b6122d4565b3480156105f157600080fd5b50610222600160a060020a036004351660243515156122e8565b34801561061757600080fd5b506102c1600160a060020a0360043581169060243516612341565b34801561063e57600080fd5b5061027b61235e565b34801561065357600080fd5b50610222600435151561236d565b34801561066d57600080fd5b50610222600160a060020a0360043516612397565b34801561068e57600080fd5b506102226004356123e3565b3480156106a657600080fd5b506101f46004356123ff565b3480156106be57600080fd5b506102c1600435612414565b3480156106d657600080fd5b5061027b612426565b60076020526000908152604090205460ff1681565b600154600160a060020a0316331461070b57600080fd5b6006805460ff1916911515919091179055565b600154600160a060020a0316331461073557600080fd5b6000805473ffffffffffffffffffffffffffffffffffffffff1916600160a060020a0392909216919091179055565b600b6020526000908152604090205460ff1681565b600a54600160a060020a031681565b600d5460ff1681565b600c5481565b600f6020526000908152604090205460ff1681565b60065460ff1681565b600154600160a060020a031633146107cc57600080fd5b600680549115156101000261ff0019909216919091179055565b600654610100900460ff1681565b600160a060020a03821615156108835734811461081057600080fd5b3360009081527f3617319a054d772f909f7c479a2cebe5066e836a939412e32403c99029b92eff602052604090205461084f903463ffffffff61243516565b3360009081527f3617319a054d772f909f7c479a2cebe5066e836a939412e32403c99029b92eff6020526040902055610983565b341561088e57600080fd5b600160a060020a03821660009081526003602090815260408083203384529091529020546108c2908263ffffffff61243516565b600160a060020a0383166000818152600360209081526040808320338085529083528184209590955580517f23b872dd0000000000000000000000000000000000000000000000000000000081526004810195909552306024860152604485018690525192936323b872dd9360648083019491928390030190829087803b15801561094c57600080fd5b505af1158015610960573d6000803e3d6000fd5b505050506040513d602081101561097657600080fd5b5051151561098357600080fd5b600160a060020a03821660008181526003602090815260408083203380855290835292819020548151948552918401929092528282018490526060830152517fdcbc1c05240f31ff3ad067ef1ee35ce4997762752e3a095284754544f4c709d79181900360800190a15050565b600054600160a060020a03163314610a0757600080fd5b600160a060020a03808516600090815260036020908152604080832093861683529290522054831115610a3957600080fd5b600160a060020a03808516600090815260036020908152604080832093861683529290522054610a6f908463ffffffff61244816565b600160a060020a0380861660009081526003602090815260408083209387168352929052205566b1a2bc2ec50000811115610aae575066b1a2bc2ec500005b610ad6670de0b6b3a7640000610aca838663ffffffff61245a16565b9063ffffffff61248316565b600160a060020a03808616600090815260036020908152604080832060025490941683529290522054909150610b12908263ffffffff61243516565b600160a060020a03808616600090815260036020908152604080832060025490941683529290522055610b4b838263ffffffff61244816565b9250600160a060020a0384161515610b9257604051600160a060020a0383169084156108fc029085906000818181858888f193505050501515610b8d57600080fd5b610c45565b83600160a060020a031663a9059cbb83856040518363ffffffff167c01000000000000000000000000000000000000000000000000000000000281526004018083600160a060020a0316600160a060020a0316815260200182815260200192505050602060405180830381600087803b158015610c0e57600080fd5b505af1158015610c22573d6000803e3d6000fd5b505050506040513d6020811015610c3857600080fd5b50511515610c4557600080fd5b600160a060020a0380851660008181526003602090815260408083209487168084529482529182902054825193845290830193909352818101869052606082019290925290517ff341246adaac6f497bc2a656f546ab9e182111d630394f0c57c710a59a2cb5679181900360800190a150505050565b600e6020526000908152604090205481565b600654610100900460ff1680610cf257503360009081526007602052604090205460ff165b1515610cfd57600080fd5b600160a060020a0382166000908152600360209081526040808320338452909152902054811115610d2d57600080fd5b600160a060020a0382166000908152600360209081526040808320338452909152902054610d61908263ffffffff61244816565b600160a060020a03831660008181526003602090815260408083203384529091529020919091551515610dba57604051339082156108fc029083906000818181858888f193505050501515610db557600080fd5b610e59565b604080517fa9059cbb000000000000000000000000000000000000000000000000000000008152336004820152602481018390529051600160a060020a0384169163a9059cbb9160448083019260209291908290030181600087803b158015610e2257600080fd5b505af1158015610e36573d6000803e3d6000fd5b505050506040513d6020811015610e4c57600080fd5b50511515610e5957600080fd5b600160a060020a03821660008181526003602090815260408083203380855290835292819020548151948552918401929092528282018490526060830152517ff341246adaac6f497bc2a656f546ab9e182111d630394f0c57c710a59a2cb5679181900360800190a15050565b600154600160a060020a03163314610edd57600080fd5b600a805473ffffffffffffffffffffffffffffffffffffffff1916600160a060020a0392909216919091179055565b60095481565b600054600160a060020a03163314610f2957600080fd5b6000908152600f60205260409020805460ff19166001179055565b600154600160a060020a03163314610f5b57600080fd5b600955565b600154600160a060020a031681565b600054600160a060020a03163314610f8657600080fd5b600160a060020a0382166000908152600e60205260409020548111610faa57600080fd5b600160a060020a039091166000908152600e6020526040902055565b600154600160a060020a03163314610fdd57600080fd5b6002805473ffffffffffffffffffffffffffffffffffffffff1916600160a060020a0392909216919091179055565b6000805481908190819081908190600160a060020a0316331461102e57600080fd5b88600381518110151561103d57fe5b90602001906020020151600e60008c600081518110151561105a57fe5b6020908102909101810151600160a060020a03168252810191909152604001600020541061108757600080fd5b308a600081518110151561109757fe5b906020019060200201518b60028151811015156110b057fe5b906020019060200201518b60008151811015156110c957fe5b906020019060200201518d60038151811015156110e257fe5b906020019060200201518d60018151811015156110fb57fe5b906020019060200201518e600381518110151561111457fe5b906020019060200201518f600781518110151561112d57fe5b6020908102909101810151604080516c01000000000000000000000000600160a060020a039b8c16810282860152998b168a026034820152978a1689026048890152605c88019690965293909716909502607c850152609084015260b083019390935260d0808301939093528051808303909301835260f09091019081905281519192909182918401908083835b602083106111da5780518252601f1990920191602091820191016111bb565b51815160209384036101000a600019018019909216911617905260408051929094018290039091206000818152600f909252929020549199505060ff16159150611225905057600080fd5b89600081518110151561123457fe5b90602001906020020151600160a060020a031661129b878a600081518110151561125a57fe5b906020019060200201518a600081518110151561127357fe5b906020019060200201518b600181518110151561128c57fe5b90602001906020020151612498565b600160a060020a0316146112ae57600080fd5b30868b60018151811015156112bf57fe5b906020019060200201518b60028151811015156112d857fe5b906020019060200201518c60048151811015156112f157fe5b906020019060200201516040516020018086600160a060020a0316600160a060020a03166c01000000000000000000000000028152601401856000191660001916815260200184600160a060020a0316600160a060020a03166c01000000000000000000000000028152601401838152602001828152602001955050505050506040516020818303038152906040526040518082805190602001908083835b602083106113af5780518252601f199092019160209182019101611390565b6001836020036101000a038019825116818451168082178552505050505050905001915050604051809103902094508960018151811015156113ed57fe5b90602001906020020151600160a060020a0316611445868a600181518110151561141357fe5b906020019060200201518a600281518110151561142c57fe5b906020019060200201518b600381518110151561128c57fe5b600160a060020a03161461145857600080fd5b60008581526005602052604090205460ff161561147457600080fd5b6000858152600560208190526040909120805460ff1916600117905589516611c37937e08000918b9181106114a557fe5b9060200190602002015111156114d7576611c37937e080008960058151811015156114cc57fe5b602090810290910101525b6611c37937e080008960068151811015156114ee57fe5b906020019060200201511115611520576611c37937e0800089600681518110151561151557fe5b602090810290910101525b88600281518110151561152f57fe5b90602001906020020151600360008c600281518110151561154c57fe5b90602001906020020151600160a060020a0316600160a060020a0316815260200190815260200160002060008c600081518110151561158757fe5b6020908102909101810151600160a060020a031682528101919091526040016000205410156115b557600080fd5b6116128960008151811015156115c757fe5b90602001906020020151610aca8b60028151811015156115e357fe5b906020019060200201518c60018151811015156115fc57fe5b602090810290910101519063ffffffff61245a16565b600360008c600381518110151561162557fe5b90602001906020020151600160a060020a0316600160a060020a0316815260200190815260200160002060008c600181518110151561166057fe5b6020908102909101810151600160a060020a0316825281019190915260400160002054101561168e57600080fd5b88600081518110151561169d57fe5b906020019060200201516116e08a60028151811015156116b957fe5b602090810290910181015160008a815260049092526040909120549063ffffffff61243516565b11156116eb57600080fd5b8860008151811015156116fa57fe5b90602001906020020151935089600381518110151561171557fe5b90602001906020020151600160a060020a03166000141561174c5788600181518110151561173f57fe5b9060200190602002015193505b611783670de0b6b3a7640000610aca8b600281518110151561176a57fe5b906020019060200201518c60068151811015156115fc57fe5b9250600b60008b600181518110151561179857fe5b6020908102909101810151600160a060020a031682528101919091526040016000205460ff161561190157600c546117d790859063ffffffff61245a16565b600d546101009004600160a060020a031660009081526003602052604081208c519091908d90600190811061180857fe5b6020908102909101810151600160a060020a03168252810191909152604001600020541061190157600092506118ac61184c600c548661245a90919063ffffffff16565b600d546101009004600160a060020a031660009081526003602052604081208d519091908e90600190811061187d57fe5b6020908102909101810151600160a060020a03168252810191909152604001600020549063ffffffff61244816565b600d546101009004600160a060020a031660009081526003602052604081208c519091908d9060019081106118dd57fe5b6020908102909101810151600160a060020a03168252810191909152604001600020555b61196b89600281518110151561191357fe5b90602001906020020151600360008d600281518110151561193057fe5b90602001906020020151600160a060020a0316600160a060020a0316815260200190815260200160002060008d600081518110151561187d57fe5b600360008c600281518110151561197e57fe5b90602001906020020151600160a060020a0316600160a060020a0316815260200190815260200160002060008c60008151811015156119b957fe5b90602001906020020151600160a060020a0316600160a060020a0316815260200190815260200160002081905550611a90611a13848b60028151811015156119fd57fe5b602090810290910101519063ffffffff61244816565b600360008d6002815181101515611a2657fe5b90602001906020020151600160a060020a0316600160a060020a0316815260200190815260200160002060008d6001815181101515611a6157fe5b6020908102909101810151600160a060020a03168252810191909152604001600020549063ffffffff61243516565b600360008c6002815181101515611aa357fe5b90602001906020020151600160a060020a0316600160a060020a0316815260200190815260200160002060008c6001815181101515611ade57fe5b90602001906020020151600160a060020a0316600160a060020a0316815260200190815260200160002081905550611b6683600360008d6002815181101515611b2357fe5b6020908102909101810151600160a060020a039081168352828201939093526040918201600090812060025490941681529290529020549063ffffffff61243516565b600360008c6002815181101515611b7957fe5b6020908102909101810151600160a060020a039081168352828201939093526040918201600090812060025490941681529290528120919091558951611c1a91670de0b6b3a764000091610aca91611c0b918e91908110611bd657fe5b90602001906020020151610aca8e6002815181101515611bf257fe5b906020019060200201518f60018151811015156115fc57fe5b8c60058151811015156115fc57fe5b9150600b60008b6000815181101515611c2f57fe5b6020908102909101810151600160a060020a031682528101919091526040016000205460ff1615611d6657600c54611c6e90859063ffffffff61245a16565b600d546101009004600160a060020a031660009081526003602052604081208c519091908d9082908110611c9e57fe5b6020908102909101810151600160a060020a031682528101919091526040016000205410611d665760009150611d12611ce2600c548661245a90919063ffffffff16565b600d546101009004600160a060020a031660009081526003602052604081208d519091908e908290811061187d57fe5b600d546101009004600160a060020a031660009081526003602052604081208c519091908d9082908110611d4257fe5b6020908102909101810151600160a060020a03168252810191909152604001600020555b611dd9611d8b83611d7f8c6000815181101515611bd657fe5b9063ffffffff61244816565b600360008d6003815181101515611d9e57fe5b90602001906020020151600160a060020a0316600160a060020a0316815260200190815260200160002060008d6000815181101515611a6157fe5b600360008c6003815181101515611dec57fe5b90602001906020020151600160a060020a0316600160a060020a0316815260200190815260200160002060008c6000815181101515611e2757fe5b90602001906020020151600160a060020a0316600160a060020a0316815260200190815260200160002081905550611eed611e9f8a6000815181101515611e6a57fe5b90602001906020020151610aca8c6002815181101515611e8657fe5b906020019060200201518d60018151811015156115fc57fe5b600360008d6003815181101515611eb257fe5b90602001906020020151600160a060020a0316600160a060020a0316815260200190815260200160002060008d600181518110151561187d57fe5b600360008c6003815181101515611f0057fe5b90602001906020020151600160a060020a0316600160a060020a0316815260200190815260200160002060008c6001815181101515611f3b57fe5b90602001906020020151600160a060020a0316600160a060020a0316815260200190815260200160002081905550611f8082600360008d6003815181101515611b2357fe5b600360008c6003815181101515611f9357fe5b6020908102909101810151600160a060020a039081168352828201939093526040918201600090812060028054909516825290915220919091558951612004918b918110611fdd57fe5b6020908102909101810151600089815260049092526040909120549063ffffffff61243516565b60008781526004602052604090205560065460ff161561222d5760095461203290859063ffffffff61245a16565b600854600160a060020a039081166000908152600360209081526040808320600a5490941683529290522054909150811161222d57811561214957600854600160a060020a039081166000908152600360209081526040808320600a54909416835292905220546120a9908263ffffffff61244816565b60088054600160a060020a039081166000908152600360208181526040808420600a54861685528252808420969096559354909216815291529081208b516120fa928492918e9082908110611a6157fe5b600854600160a060020a031660009081526003602052604081208c519091908d908290811061212557fe5b6020908102909101810151600160a060020a03168252810191909152604001600020555b821561222d57600854600160a060020a039081166000908152600360209081526040808320600a549094168352929052205461218b908263ffffffff61244816565b60088054600160a060020a039081166000908152600360208181526040808420600a54861685528252808420969096559354909216815291529081208b516121dd928492918e906001908110611a6157fe5b600854600160a060020a031660009081526003602052604081208c519091908d90600190811061220957fe5b6020908102909101810151600160a060020a03168252810191909152604001600020555b50505050505050505050565b600154600160a060020a0316331461225057600080fd5b6001805473ffffffffffffffffffffffffffffffffffffffff1916600160a060020a0392909216919091179055565b600854600160a060020a031681565b600154600160a060020a031633146122a557600080fd5b6008805473ffffffffffffffffffffffffffffffffffffffff1916600160a060020a0392909216919091179055565b600d546101009004600160a060020a031681565b600154600160a060020a031633148061230b5750600054600160a060020a031633145b151561231657600080fd5b600160a060020a03919091166000908152600760205260409020805460ff1916911515919091179055565b600360209081526000928352604080842090915290825290205481565b600254600160a060020a031681565b600154600160a060020a0316331461238457600080fd5b600d805460ff1916911515919091179055565b600154600160a060020a031633146123ae57600080fd5b600d8054600160a060020a039092166101000274ffffffffffffffffffffffffffffffffffffffff0019909216919091179055565b600154600160a060020a031633146123fa57600080fd5b600c55565b60056020526000908152604090205460ff1681565b60046020526000908152604090205481565b600054600160a060020a031681565b8181018281101561244257fe5b92915050565b60008282111561245457fe5b50900390565b600082151561246b57506000612442565b5081810281838281151561247b57fe5b041461244257fe5b6000818381151561249057fe5b049392505050565b604080518082018252601c8082527f19457468657265756d205369676e6564204d6573736167653a0a33320000000060208084019182529351600094859385938b939092019182918083835b602083106125035780518252601f1990920191602091820191016124e4565b51815160209384036101000a600019018019909216911617905292019384525060408051808503815293820190819052835193945092839250908401908083835b602083106125635780518252601f199092019160209182019101612544565b51815160209384036101000a600019018019909216911617905260408051929094018290038220600080845283830180875282905260ff8e1684870152606084018d9052608084018c905294519097506001965060a080840196509194601f19820194509281900390910191865af11580156125e3573d6000803e3d6000fd5b5050604051601f190151989750505050505050505600a165627a7a7230582039404b9660e6907ec34f32c67564fba15dfee60191879616d73e3c00b7e4cac20029",
  "source": "pragma solidity ^0.4.22;\n\nimport \"openzeppelin-solidity/contracts/math/SafeMath.sol\";\nimport \"openzeppelin-solidity/contracts/token/ERC20/StandardToken.sol\";\n\ncontract Exchange {\n    using SafeMath for uint;\n\n    address public server;\n    address public owner;\n    address public feeCollector;\n    mapping (address => mapping (address => uint)) public balances;\n    mapping (bytes32 => uint) public orderFills;\n    mapping (bytes32 => bool) public traded;\n    bool public airdropStatus;\n    bool public contractManualWithdraws;\n    mapping (address => bool) public accountManualWithdraws;\n    address public airdropTokenAddress;\n    uint public airdropRatePerEth;\n    address public airdropAccountAddress;\n\n    event Deposit(address token, address account, uint amount, uint balance);\n    event Withdraw(address token, address account, uint amount, uint balance);\n    event Trade(address tokenBuy, uint amountBuy, address tokenSell, uint amountSell, address get, address give);\n    event Order(address exchange, address maker, address giveToken, uint giveAmount, address takeToken, uint takeAmount, uint nonce, uint expiry, bytes payload, bytes32 orderHash);\n\n    modifier serverOnly {\n        require(msg.sender == server);\n        _;\n    }\n\n    modifier ownerOnly {\n        require(msg.sender == owner);\n        _;\n    }\n\n    modifier ownerOrServerOnly {\n        require(msg.sender == owner || msg.sender == server);\n        _;\n    }\n\n    constructor() public {\n        server = msg.sender;\n        feeCollector = msg.sender;\n        owner = msg.sender;\n        airdropAccountAddress = msg.sender;\n        airdropStatus = false;\n        contractManualWithdraws = false;\n    }\n\n    function setAirdropStatus(bool _status) public ownerOnly {\n        airdropStatus = _status;\n    }\n\n    function setContractManualWithdraws(bool _status) public ownerOnly {\n        contractManualWithdraws = _status;\n    }\n\n    function setAccountManualWithdraws(address _account, bool _status) public ownerOrServerOnly {\n        accountManualWithdraws[_account] = _status;\n    }\n\n    function setAirdropTokenAddress(address _address) public ownerOnly {\n        airdropTokenAddress = _address;\n    }\n\n    function setAirdropRatePerEth(uint _ratePerEth) public ownerOnly {\n        airdropRatePerEth = _ratePerEth;\n    } \n\n    function changeAirdropAccountAddress(address _address) public ownerOnly {\n        airdropAccountAddress = _address;\n    }\n\n    function changeFeeCollector(address _feeCollector) public ownerOnly {\n        feeCollector = _feeCollector;\n    }\n\n    function changeServer(address _server) public ownerOnly {\n        server = _server;\n    }\n\n    function changeOwner(address _owner) public ownerOnly {\n        owner = _owner;\n    }\n\n    mapping (address => bool) public useFeeToken;\n    uint public feeTokenRatePerEth;\n    bool public feeTokenStatus;\n    address public feeTokenAddress;\n\n    function setFeeTokenRatePerEth(uint _rate) public ownerOnly {\n        feeTokenRatePerEth = _rate;\n    }\n\n    function setFeeTokenStatus(bool _status) public ownerOnly {\n        feeTokenStatus = _status;\n    }\n\n    function setFeeTokenAddress(address _address) public ownerOnly {\n        feeTokenAddress = _address;\n    }\n\n    function deposit(address _token, uint _amount) public payable {\n        if (_token == 0) {\n            require(msg.value == _amount);\n            balances[0][msg.sender] = balances[0][msg.sender].add(msg.value);\n        } else {\n            require(msg.value == 0);\n            balances[_token][msg.sender] = balances[_token][msg.sender].add(_amount);\n            require(StandardToken(_token).transferFrom(msg.sender, this, _amount));\n        }\n        emit Deposit(_token, msg.sender, _amount, balances[_token][msg.sender]);\n    }\n\n    function withdraw(address _token, uint _amount, address _account, uint _fee) public serverOnly {\n        require(balances[_token][_account] >= _amount);\n        balances[_token][_account] = balances[_token][_account].sub(_amount);\n        if (_fee > 50 finney) _fee = 50 finney;\n        _fee = (_fee.mul(_amount)).div(1 ether);\n        balances[_token][feeCollector] = balances[_token][feeCollector].add(_fee);\n        _amount = _amount.sub(_fee);\n        if (_token == 0) {\n            require(_account.send(_amount));\n        } else {\n            require(StandardToken(_token).transfer(_account, _amount));\n        }\n        emit Withdraw(_token, _account, _amount, balances[_token][_account]);\n    }\n\n    function withdrawEmergency(address _token, uint _amount) public {\n        require(contractManualWithdraws || accountManualWithdraws[msg.sender]);\n        require(balances[_token][msg.sender] >= _amount);\n        balances[_token][msg.sender] = balances[_token][msg.sender].sub(_amount);\n        if (_token == 0) {\n            require(msg.sender.send(_amount));\n        } else {\n            require(StandardToken(_token).transfer(msg.sender, _amount));\n        }\n        emit Withdraw(_token, msg.sender, _amount, balances[_token][msg.sender]);\n    }\n\n    function trade(address[] _addresses, uint[] _uints, uint8[] v, bytes32[] rs) public serverOnly {\n        /*\n            _addresses[0] == maker\n            _addresses[1] == taker\n            _addresses[2] == giveToken\n            _addresses[3] == takeToken\n            _uints[0] == giveAmount\n            _uints[1] == takeAmount\n            _uints[2] == fillAmount\n            _uints[3] == makerNonce\n            _uints[4] == takerNonce\n            _uints[5] == makerFee\n            _uints[6] == takerFee\n            _uints[7] == expiry\n            v[0] == makerV\n            v[1] == takerV\n            rs[0]..[1] == makerR, makerS\n            rs[2]..[3] == takerR, takerS\n        */\n        require(cancelledOrders[_addresses[0]] < _uints[3]);\n        bytes32 orderHash = keccak256(abi.encodePacked(this, _addresses[0], _addresses[2], _uints[0], _addresses[3], _uints[1], _uints[3], _uints[7]));\n        require(!cancelled[orderHash]);\n        require(recover(orderHash, v[0], rs[0], rs[1]) == _addresses[0]);\n        bytes32 tradeHash = keccak256(abi.encodePacked(this, orderHash, _addresses[1], _uints[2], _uints[4]));\n        require(recover(tradeHash, v[1], rs[2], rs[3]) == _addresses[1]);\n        require(!traded[tradeHash]);\n        traded[tradeHash] = true;\n        if (_uints[5] > 5 finney) _uints[5] = 5 finney;\n        if (_uints[6] > 5 finney) _uints[6] = 5 finney;\n        require(balances[_addresses[2]][_addresses[0]] >= _uints[2]);\n        require(balances[_addresses[3]][_addresses[1]] >= _uints[1].mul(_uints[2]).div(_uints[0]));\n        require(orderFills[orderHash].add(_uints[2]) <= _uints[0]);\n        uint totalTradedAmount = _uints[0];\n        if (_addresses[3] == 0) totalTradedAmount = _uints[1];\n        // takerFee = takerFee * fillAmount / 1 ether\n        uint takerFee = (_uints[6].mul(_uints[2])).div(1 ether);\n        if (useFeeToken[_addresses[1]]) {\n            if (balances[feeTokenAddress][_addresses[1]] >= totalTradedAmount.mul(feeTokenRatePerEth)) {\n                takerFee = 0;\n                balances[feeTokenAddress][_addresses[1]] = balances[feeTokenAddress][_addresses[1]].sub(totalTradedAmount.mul(feeTokenRatePerEth));\n            }\n        }\n        // makerGive = makerGive - fillAmount\n        balances[_addresses[2]][_addresses[0]] = balances[_addresses[2]][_addresses[0]].sub(_uints[2]);\n        // takerGive = takerGive + fillAmount - takerFee\n        balances[_addresses[2]][_addresses[1]] = balances[_addresses[2]][_addresses[1]].add((_uints[2]).sub(takerFee));\n        // feeGive = feeGive + takerFee\n        balances[_addresses[2]][feeCollector] = balances[_addresses[2]][feeCollector].add(takerFee);\n        // makerFee = makerFee * (takeAmount * fillAmount / giveAmount) / 1 ether\n        uint makerFee = (_uints[5].mul(_uints[1].mul(_uints[2]).div(_uints[0]))).div(1 ether);\n        if (useFeeToken[_addresses[0]]) {\n            if (balances[feeTokenAddress][_addresses[0]] >= totalTradedAmount.mul(feeTokenRatePerEth)) {\n                makerFee = 0;\n                balances[feeTokenAddress][_addresses[0]] = balances[feeTokenAddress][_addresses[0]].sub(totalTradedAmount.mul(feeTokenRatePerEth));\n            }\n        }\n        // makerTake = makerTake + (takeAmount * fillAmount / giveAmount) - makerFee\n        balances[_addresses[3]][_addresses[0]] = balances[_addresses[3]][_addresses[0]].add((_uints[1].mul(_uints[2]).div(_uints[0])).sub(makerFee));\n        // takerTake = takerTake - (takeAmount * fillAmount / giveAmount)\n        balances[_addresses[3]][_addresses[1]] = balances[_addresses[3]][_addresses[1]].sub(_uints[1].mul(_uints[2]).div(_uints[0]));\n        // feeTaker = feeTaker + makerFee\n        balances[_addresses[3]][feeCollector] = balances[_addresses[3]][feeCollector].add(makerFee);\n        orderFills[orderHash] = orderFills[orderHash].add(_uints[2]);\n        if (airdropStatus) {\n            uint airdropAmount = totalTradedAmount.mul(airdropRatePerEth);\n            if (balances[airdropTokenAddress][airdropAccountAddress] >= airdropAmount) {\n                if (makerFee != 0) {\n                    balances[airdropTokenAddress][airdropAccountAddress] = balances[airdropTokenAddress][airdropAccountAddress].sub(airdropAmount);\n                    balances[airdropTokenAddress][_addresses[0]] = balances[airdropTokenAddress][_addresses[0]].add(airdropAmount);\n                }\n                if (takerFee != 0) {\n                    balances[airdropTokenAddress][airdropAccountAddress] = balances[airdropTokenAddress][airdropAccountAddress].sub(airdropAmount);\n                    balances[airdropTokenAddress][_addresses[1]] = balances[airdropTokenAddress][_addresses[1]].add(airdropAmount);\n                }\n            }\n        }\n    }\n\n    function recover(bytes32 _hash, uint8 v, bytes32 r, bytes32 s) private pure returns (address) {\n        bytes memory prefix = \"\\x19Ethereum Signed Message:\\n32\";\n        bytes32 hash = keccak256(abi.encodePacked(prefix, _hash));\n        return ecrecover(hash, v, r, s);\n    }\n  \n    mapping (address => uint256) public cancelledOrders;\n    mapping (bytes32 => bool) public cancelled;\n    \n    function bulkCancelOrders(address _account, uint256 _nonce) public serverOnly {\n        require(_nonce > cancelledOrders[_account]);\n        cancelledOrders[_account] = _nonce;\n    }\n\n    function cancelOrder (bytes32 _hash) public serverOnly {\n        cancelled[_hash] = true;\n    }\n\n    function() external {\n        revert();\n    }\n}\n\n",
  "sourcePath": "/Users/hieu/dev/dreamx-contracts/contracts/Exchange.sol",
  "compiler": {
    "name": "solc",
    "version": "0.4.25+commit.59dbf8f1.Emscripten.clang"
  },
  "schemaVersion": "2.0.2",
  "updatedAt": "2019-11-29T11:39:40.881Z"
}