{
  "contractName": "Exchange",
  "abi": [
    {
      "constant": true,
      "inputs": [
        {
          "name": "",
          "type": "address"
        }
      ],
      "name": "useFeeToken",
      "outputs": [
        {
          "name": "",
          "type": "bool"
        }
      ],
      "payable": false,
      "stateMutability": "view",
      "type": "function"
    },
    {
      "constant": true,
      "inputs": [],
      "name": "airdropAccountAddress",
      "outputs": [
        {
          "name": "",
          "type": "address"
        }
      ],
      "payable": false,
      "stateMutability": "view",
      "type": "function"
    },
    {
      "constant": true,
      "inputs": [],
      "name": "feeTokenStatus",
      "outputs": [
        {
          "name": "",
          "type": "bool"
        }
      ],
      "payable": false,
      "stateMutability": "view",
      "type": "function"
    },
    {
      "constant": true,
      "inputs": [],
      "name": "signer",
      "outputs": [
        {
          "name": "",
          "type": "address"
        }
      ],
      "payable": false,
      "stateMutability": "view",
      "type": "function"
    },
    {
      "constant": true,
      "inputs": [],
      "name": "feeTokenRatePerEth",
      "outputs": [
        {
          "name": "",
          "type": "uint256"
        }
      ],
      "payable": false,
      "stateMutability": "view",
      "type": "function"
    },
    {
      "constant": true,
      "inputs": [],
      "name": "airdropStatus",
      "outputs": [
        {
          "name": "",
          "type": "bool"
        }
      ],
      "payable": false,
      "stateMutability": "view",
      "type": "function"
    },
    {
      "constant": true,
      "inputs": [
        {
          "name": "",
          "type": "bytes32"
        }
      ],
      "name": "withdrawn",
      "outputs": [
        {
          "name": "",
          "type": "bool"
        }
      ],
      "payable": false,
      "stateMutability": "view",
      "type": "function"
    },
    {
      "constant": true,
      "inputs": [],
      "name": "airdropRatePerEth",
      "outputs": [
        {
          "name": "",
          "type": "uint256"
        }
      ],
      "payable": false,
      "stateMutability": "view",
      "type": "function"
    },
    {
      "constant": true,
      "inputs": [],
      "name": "owner",
      "outputs": [
        {
          "name": "",
          "type": "address"
        }
      ],
      "payable": false,
      "stateMutability": "view",
      "type": "function"
    },
    {
      "constant": true,
      "inputs": [],
      "name": "airdropTokenAddress",
      "outputs": [
        {
          "name": "",
          "type": "address"
        }
      ],
      "payable": false,
      "stateMutability": "view",
      "type": "function"
    },
    {
      "constant": true,
      "inputs": [],
      "name": "feeTokenAddress",
      "outputs": [
        {
          "name": "",
          "type": "address"
        }
      ],
      "payable": false,
      "stateMutability": "view",
      "type": "function"
    },
    {
      "constant": true,
      "inputs": [
        {
          "name": "",
          "type": "address"
        },
        {
          "name": "",
          "type": "address"
        }
      ],
      "name": "balances",
      "outputs": [
        {
          "name": "",
          "type": "uint256"
        }
      ],
      "payable": false,
      "stateMutability": "view",
      "type": "function"
    },
    {
      "constant": true,
      "inputs": [],
      "name": "feeCollector",
      "outputs": [
        {
          "name": "",
          "type": "address"
        }
      ],
      "payable": false,
      "stateMutability": "view",
      "type": "function"
    },
    {
      "constant": true,
      "inputs": [],
      "name": "timelock",
      "outputs": [
        {
          "name": "",
          "type": "uint256"
        }
      ],
      "payable": false,
      "stateMutability": "view",
      "type": "function"
    },
    {
      "constant": true,
      "inputs": [
        {
          "name": "",
          "type": "bytes32"
        }
      ],
      "name": "traded",
      "outputs": [
        {
          "name": "",
          "type": "bool"
        }
      ],
      "payable": false,
      "stateMutability": "view",
      "type": "function"
    },
    {
      "constant": true,
      "inputs": [
        {
          "name": "",
          "type": "address"
        }
      ],
      "name": "lastActivity",
      "outputs": [
        {
          "name": "",
          "type": "uint256"
        }
      ],
      "payable": false,
      "stateMutability": "view",
      "type": "function"
    },
    {
      "constant": true,
      "inputs": [
        {
          "name": "",
          "type": "bytes32"
        }
      ],
      "name": "orderFills",
      "outputs": [
        {
          "name": "",
          "type": "uint256"
        }
      ],
      "payable": false,
      "stateMutability": "view",
      "type": "function"
    },
    {
      "inputs": [],
      "payable": false,
      "stateMutability": "nonpayable",
      "type": "constructor"
    },
    {
      "anonymous": false,
      "inputs": [
        {
          "indexed": false,
          "name": "token",
          "type": "address"
        },
        {
          "indexed": false,
          "name": "account",
          "type": "address"
        },
        {
          "indexed": false,
          "name": "amount",
          "type": "uint256"
        },
        {
          "indexed": false,
          "name": "balance",
          "type": "uint256"
        }
      ],
      "name": "Deposit",
      "type": "event"
    },
    {
      "anonymous": false,
      "inputs": [
        {
          "indexed": false,
          "name": "token",
          "type": "address"
        },
        {
          "indexed": false,
          "name": "account",
          "type": "address"
        },
        {
          "indexed": false,
          "name": "amount",
          "type": "uint256"
        },
        {
          "indexed": false,
          "name": "balance",
          "type": "uint256"
        }
      ],
      "name": "Withdraw",
      "type": "event"
    },
    {
      "anonymous": false,
      "inputs": [
        {
          "indexed": false,
          "name": "tokenBuy",
          "type": "address"
        },
        {
          "indexed": false,
          "name": "amountBuy",
          "type": "uint256"
        },
        {
          "indexed": false,
          "name": "tokenSell",
          "type": "address"
        },
        {
          "indexed": false,
          "name": "amountSell",
          "type": "uint256"
        },
        {
          "indexed": false,
          "name": "get",
          "type": "address"
        },
        {
          "indexed": false,
          "name": "give",
          "type": "address"
        }
      ],
      "name": "Trade",
      "type": "event"
    },
    {
      "constant": false,
      "inputs": [
        {
          "name": "_status",
          "type": "bool"
        }
      ],
      "name": "setAirdropStatus",
      "outputs": [],
      "payable": false,
      "stateMutability": "nonpayable",
      "type": "function"
    },
    {
      "constant": false,
      "inputs": [
        {
          "name": "_address",
          "type": "address"
        }
      ],
      "name": "setAirdropTokenAddress",
      "outputs": [],
      "payable": false,
      "stateMutability": "nonpayable",
      "type": "function"
    },
    {
      "constant": false,
      "inputs": [
        {
          "name": "_ratePerEth",
          "type": "uint256"
        }
      ],
      "name": "setAirdropRatePerEth",
      "outputs": [],
      "payable": false,
      "stateMutability": "nonpayable",
      "type": "function"
    },
    {
      "constant": false,
      "inputs": [
        {
          "name": "_address",
          "type": "address"
        }
      ],
      "name": "changeAirdropAccountAddress",
      "outputs": [],
      "payable": false,
      "stateMutability": "nonpayable",
      "type": "function"
    },
    {
      "constant": false,
      "inputs": [
        {
          "name": "_feeCollector",
          "type": "address"
        }
      ],
      "name": "changeFeeCollector",
      "outputs": [],
      "payable": false,
      "stateMutability": "nonpayable",
      "type": "function"
    },
    {
      "constant": false,
      "inputs": [
        {
          "name": "_signer",
          "type": "address"
        }
      ],
      "name": "changeSigner",
      "outputs": [],
      "payable": false,
      "stateMutability": "nonpayable",
      "type": "function"
    },
    {
      "constant": false,
      "inputs": [
        {
          "name": "_owner",
          "type": "address"
        }
      ],
      "name": "changeOwner",
      "outputs": [],
      "payable": false,
      "stateMutability": "nonpayable",
      "type": "function"
    },
    {
      "constant": false,
      "inputs": [
        {
          "name": "_duration",
          "type": "uint256"
        }
      ],
      "name": "setTimelock",
      "outputs": [],
      "payable": false,
      "stateMutability": "nonpayable",
      "type": "function"
    },
    {
      "constant": false,
      "inputs": [
        {
          "name": "_rate",
          "type": "uint256"
        }
      ],
      "name": "setFeeTokenRatePerEth",
      "outputs": [],
      "payable": false,
      "stateMutability": "nonpayable",
      "type": "function"
    },
    {
      "constant": false,
      "inputs": [
        {
          "name": "_status",
          "type": "bool"
        }
      ],
      "name": "setFeeTokenStatus",
      "outputs": [],
      "payable": false,
      "stateMutability": "nonpayable",
      "type": "function"
    },
    {
      "constant": false,
      "inputs": [
        {
          "name": "_address",
          "type": "address"
        }
      ],
      "name": "setFeeTokenAddress",
      "outputs": [],
      "payable": false,
      "stateMutability": "nonpayable",
      "type": "function"
    },
    {
      "constant": false,
      "inputs": [
        {
          "name": "_token",
          "type": "address"
        },
        {
          "name": "_amount",
          "type": "uint256"
        }
      ],
      "name": "deposit",
      "outputs": [],
      "payable": true,
      "stateMutability": "payable",
      "type": "function"
    },
    {
      "constant": false,
      "inputs": [
        {
          "name": "_token",
          "type": "address"
        },
        {
          "name": "_amount",
          "type": "uint256"
        },
        {
          "name": "_account",
          "type": "address"
        },
        {
          "name": "_nonce",
          "type": "uint256"
        },
        {
          "name": "v",
          "type": "uint8"
        },
        {
          "name": "r",
          "type": "bytes32"
        },
        {
          "name": "s",
          "type": "bytes32"
        },
        {
          "name": "_fee",
          "type": "uint256"
        }
      ],
      "name": "withdraw",
      "outputs": [],
      "payable": false,
      "stateMutability": "nonpayable",
      "type": "function"
    },
    {
      "constant": false,
      "inputs": [
        {
          "name": "_token",
          "type": "address"
        },
        {
          "name": "_amount",
          "type": "uint256"
        }
      ],
      "name": "withdrawEmergency",
      "outputs": [],
      "payable": false,
      "stateMutability": "nonpayable",
      "type": "function"
    },
    {
      "constant": false,
      "inputs": [
        {
          "name": "_addresses",
          "type": "address[]"
        },
        {
          "name": "_uints",
          "type": "uint256[]"
        },
        {
          "name": "v",
          "type": "uint8[]"
        },
        {
          "name": "rs",
          "type": "bytes32[]"
        }
      ],
      "name": "trade",
      "outputs": [],
      "payable": false,
      "stateMutability": "nonpayable",
      "type": "function"
    }
  ],
  "bytecode": "0x608060405234801561001057600080fd5b506000805433600160a060020a0319918216811783556002805483168217905560018054831682179055620186a0600355600b805490921617905561262490819061005b90396000f3006080604052600436106101955763ffffffff7c010000000000000000000000000000000000000000000000000000000060003504166308ed0236811461019a5780630aa57f05146101b65780630dee3198146101eb57806317f4b8ee1461021c5780631e891c0a14610231578063238ac93314610249578063242f7e1a1461025e5780632cf1a5fb146102855780633823d66c1461029a57806347e7ef24146102b25780636c3d7e1d146102c95780636c8ae8dc146102ed5780636cb2456e1461032a5780636ef0222c1461034b5780638cef41b6146103605780638da5cb5b146103785780639245290d1461038d57806397128d6e146103ae578063a6f9dae1146104ae578063aad2b723146104cf578063b73e0e8b146104f0578063b864ba7d14610505578063b8df0dea14610526578063c23f001f1461053b578063c415b95c14610562578063c91b10a414610577578063cf351c1d14610591578063d33219b4146105b2578063d5238df5146105c7578063d5813323146105df578063f07e96b3146105f7578063f7213db614610618575b600080fd5b3480156101a657600080fd5b506101b46004351515610630565b005b3480156101c257600080fd5b506101d7600160a060020a036004351661065a565b604080519115158252519081900360200190f35b3480156101f757600080fd5b5061020061066f565b60408051600160a060020a039092168252519081900360200190f35b34801561022857600080fd5b506101d761067e565b34801561023d57600080fd5b506101b4600435610687565b34801561025557600080fd5b506102006106b3565b34801561026a57600080fd5b506102736106c2565b60408051918252519081900360200190f35b34801561029157600080fd5b506101d76106c8565b3480156102a657600080fd5b506101d76004356106d1565b6101b4600160a060020a03600435166024356106e6565b3480156102d557600080fd5b506101b4600160a060020a03600435166024356108f4565b3480156102f957600080fd5b506101b4600160a060020a03600435811690602435906044351660643560ff6084351660a43560c43560e435610af7565b34801561033657600080fd5b506101b4600160a060020a0360043516610eef565b34801561035757600080fd5b50610273610f35565b34801561036c57600080fd5b506101b4600435610f3b565b34801561038457600080fd5b50610200610f57565b34801561039957600080fd5b506101b4600160a060020a0360043516610f66565b3480156103ba57600080fd5b50604080516020600480358082013583810280860185019096528085526101b495369593946024949385019291829185019084908082843750506040805187358901803560208181028481018201909552818452989b9a998901989297509082019550935083925085019084908082843750506040805187358901803560208181028481018201909552818452989b9a998901989297509082019550935083925085019084908082843750506040805187358901803560208181028481018201909552818452989b9a998901989297509082019550935083925085019084908082843750949750610fac9650505050505050565b3480156104ba57600080fd5b506101b4600160a060020a0360043516612237565b3480156104db57600080fd5b506101b4600160a060020a036004351661227d565b3480156104fc57600080fd5b506102006122c3565b34801561051157600080fd5b506101b4600160a060020a03600435166122d7565b34801561053257600080fd5b50610200612323565b34801561054757600080fd5b50610273600160a060020a0360043581169060243516612337565b34801561056e57600080fd5b50610200612354565b34801561058357600080fd5b506101b46004351515612363565b34801561059d57600080fd5b506101b4600160a060020a036004351661238d565b3480156105be57600080fd5b506102736123d9565b3480156105d357600080fd5b506101b46004356123df565b3480156105eb57600080fd5b506101d76004356123fb565b34801561060357600080fd5b50610273600160a060020a0360043516612410565b34801561062457600080fd5b50610273600435612422565b600154600160a060020a0316331461064757600080fd5b6009805460ff1916911515919091179055565b600c6020526000908152604090205460ff1681565b600b54600160a060020a031681565b600e5460ff1681565b600154600160a060020a0316331461069e57600080fd5b620f42408111156106ae57600080fd5b600355565b600054600160a060020a031681565b600d5481565b60095460ff1681565b60076020526000908152604090205460ff1681565b336000908152600460205260409020439055600160a060020a03821615156107875734811461071457600080fd5b3360009081527f05b8ccbb9d4d8fb16ea74ce3c29a41f1b461fbdaff4714a0d9a8eb05499746bc6020526040902054610753903463ffffffff61243416565b3360009081527f05b8ccbb9d4d8fb16ea74ce3c29a41f1b461fbdaff4714a0d9a8eb05499746bc6020526040902055610887565b341561079257600080fd5b600160a060020a03821660009081526005602090815260408083203384529091529020546107c6908263ffffffff61243416565b600160a060020a0383166000818152600560209081526040808320338085529083528184209590955580517f23b872dd0000000000000000000000000000000000000000000000000000000081526004810195909552306024860152604485018690525192936323b872dd9360648083019491928390030190829087803b15801561085057600080fd5b505af1158015610864573d6000803e3d6000fd5b505050506040513d602081101561087a57600080fd5b5051151561088757600080fd5b600160a060020a03821660008181526005602090815260408083203380855290835292819020548151948552918401929092528282018490526060830152517fdcbc1c05240f31ff3ad067ef1ee35ce4997762752e3a095284754544f4c709d79181900360800190a15050565b6003543360009081526004602052604090205461091890439063ffffffff61244716565b1161092257600080fd5b336000818152600460209081526040808320439055600160a060020a038616835260058252808320938352929052205481111561095e57600080fd5b600160a060020a0382166000908152600560209081526040808320338452909152902054610992908263ffffffff61244716565b600160a060020a038316600081815260056020908152604080832033845290915290209190915515156109eb57604051339082156108fc029083906000818181858888f1935050505015156109e657600080fd5b610a8a565b604080517fa9059cbb000000000000000000000000000000000000000000000000000000008152336004820152602481018390529051600160a060020a0384169163a9059cbb9160448083019260209291908290030181600087803b158015610a5357600080fd5b505af1158015610a67573d6000803e3d6000fd5b505050506040513d6020811015610a7d57600080fd5b50511515610a8a57600080fd5b600160a060020a03821660008181526005602090815260408083203380855290835292819020548151948552918401929092528282018490526060830152517ff341246adaac6f497bc2a656f546ab9e182111d630394f0c57c710a59a2cb5679181900360800190a15050565b60008054600160a060020a03163314610b0f57600080fd5b600160a060020a0380881660008181526004602090815260409182902043905581516c0100000000000000000000000030810282840152948e1685026034820152604881018d9052939092026068840152607c8084018a905281518085039091018152609c90930190819052825190918291908401908083835b60208310610ba85780518252601f199092019160209182019101610b89565b51815160209384036101000a6000190180199092169116179052604080519290940182900390912060008181526007909252929020549194505060ff16159150610bf3905057600080fd5b6000818152600760205260409020805460ff19166001179055600160a060020a038716610c2282878787612459565b600160a060020a031614610c3557600080fd5b600160a060020a03808a166000908152600560209081526040808320938b1683529290522054881115610c6757600080fd5b600160a060020a03808a166000908152600560209081526040808320938b1683529290522054610c9d908963ffffffff61244716565b600160a060020a03808b166000908152600560209081526040808320938c168352929052205566b1a2bc2ec50000821115610cdd5766b1a2bc2ec5000091505b610d05670de0b6b3a7640000610cf9848b63ffffffff6125ba16565b9063ffffffff6125e316565b600160a060020a03808b16600090815260056020908152604080832060025490941683529290522054909250610d41908363ffffffff61243416565b600160a060020a03808b16600090815260056020908152604080832060025490941683529290522055610d7a888363ffffffff61244716565b9750600160a060020a0389161515610dc157604051600160a060020a0388169089156108fc02908a906000818181858888f193505050501515610dbc57600080fd5b610e74565b88600160a060020a031663a9059cbb888a6040518363ffffffff167c01000000000000000000000000000000000000000000000000000000000281526004018083600160a060020a0316600160a060020a0316815260200182815260200192505050602060405180830381600087803b158015610e3d57600080fd5b505af1158015610e51573d6000803e3d6000fd5b505050506040513d6020811015610e6757600080fd5b50511515610e7457600080fd5b600160a060020a03808a166000818152600560209081526040808320948c1680845294825291829020548251938452908301939093528181018b9052606082019290925290517ff341246adaac6f497bc2a656f546ab9e182111d630394f0c57c710a59a2cb5679181900360800190a1505050505050505050565b600154600160a060020a03163314610f0657600080fd5b600b805473ffffffffffffffffffffffffffffffffffffffff1916600160a060020a0392909216919091179055565b600a5481565b600154600160a060020a03163314610f5257600080fd5b600a55565b600154600160a060020a031681565b600154600160a060020a03163314610f7d57600080fd5b6002805473ffffffffffffffffffffffffffffffffffffffff1916600160a060020a0392909216919091179055565b6000805481908190819081908190600160a060020a03163314610fce57600080fd5b43600460008c6000815181101515610fe257fe5b90602001906020020151600160a060020a0316600160a060020a031681526020019081526020016000208190555043600460008c600181518110151561102457fe5b90602001906020020151600160a060020a0316600160a060020a0316815260200190815260200160002081905550308a600081518110151561106257fe5b906020019060200201518b600281518110151561107b57fe5b906020019060200201518b600081518110151561109457fe5b906020019060200201518d60038151811015156110ad57fe5b906020019060200201518d60018151811015156110c657fe5b906020019060200201518e60038151811015156110df57fe5b906020019060200201518f60078151811015156110f857fe5b6020908102909101810151604080516c01000000000000000000000000600160a060020a039b8c16810282860152998b168a026034820152978a1689026048890152605c88019690965293909716909502607c850152609084015260b083019390935260d0808301939093528051808303909301835260f09091019081905281519192909182918401908083835b602083106111a55780518252601f199092019160209182019101611186565b6001836020036101000a038019825116818451168082178552505050505050905001915050604051809103902095508960008151811015156111e357fe5b90602001906020020151600160a060020a031661124a878a600081518110151561120957fe5b906020019060200201518a600081518110151561122257fe5b906020019060200201518b600181518110151561123b57fe5b90602001906020020151612459565b600160a060020a03161461125d57600080fd5b30868b600181518110151561126e57fe5b906020019060200201518b600281518110151561128757fe5b906020019060200201518c60048151811015156112a057fe5b906020019060200201516040516020018086600160a060020a0316600160a060020a03166c01000000000000000000000000028152601401856000191660001916815260200184600160a060020a0316600160a060020a03166c01000000000000000000000000028152601401838152602001828152602001955050505050506040516020818303038152906040526040518082805190602001908083835b6020831061135e5780518252601f19909201916020918201910161133f565b6001836020036101000a0380198251168184511680821785525050505050509050019150506040518091039020945089600181518110151561139c57fe5b90602001906020020151600160a060020a03166113f4868a60018151811015156113c257fe5b906020019060200201518a60028151811015156113db57fe5b906020019060200201518b600381518110151561123b57fe5b600160a060020a03161461140757600080fd5b60008581526008602052604090205460ff161561142357600080fd5b6000858152600860205260409020805460ff1916600117905588516611c37937e08000908a90600590811061145457fe5b906020019060200201511115611486576611c37937e0800089600581518110151561147b57fe5b602090810290910101525b6611c37937e0800089600681518110151561149d57fe5b9060200190602002015111156114cf576611c37937e080008960068151811015156114c457fe5b602090810290910101525b8860028151811015156114de57fe5b90602001906020020151600560008c60028151811015156114fb57fe5b90602001906020020151600160a060020a0316600160a060020a0316815260200190815260200160002060008c600081518110151561153657fe5b6020908102909101810151600160a060020a0316825281019190915260400160002054101561156457600080fd5b6115cd89600281518110151561157657fe5b906020019060200201516115c18b600081518110151561159257fe5b906020019060200201518c60018151811015156115ab57fe5b602090810290910101519063ffffffff6125e316565b9063ffffffff6125ba16565b600560008c60038151811015156115e057fe5b90602001906020020151600160a060020a0316600160a060020a0316815260200190815260200160002060008c600181518110151561161b57fe5b6020908102909101810151600160a060020a0316825281019190915260400160002054101561164957600080fd5b88600081518110151561165857fe5b9060200190602002015161169b8a600281518110151561167457fe5b602090810290910181015160008a815260069092526040909120549063ffffffff61243416565b11156116a657600080fd5b8860008151811015156116b557fe5b9060200190602002015193508960038151811015156116d057fe5b90602001906020020151600160a060020a031660001415611707578860018151811015156116fa57fe5b9060200190602002015193505b611754670de0b6b3a7640000610cf98b600281518110151561172557fe5b906020019060200201518c600681518110151561173e57fe5b602090810290910101519063ffffffff6125ba16565b9250600c60008b600181518110151561176957fe5b6020908102909101810151600160a060020a031682528101919091526040016000205460ff16156118d257600d546117a890859063ffffffff6125ba16565b600e546101009004600160a060020a031660009081526005602052604081208c519091908d9060019081106117d957fe5b6020908102909101810151600160a060020a0316825281019190915260400160002054106118d2576000925061187d61181d600d54866125ba90919063ffffffff16565b600e546101009004600160a060020a031660009081526005602052604081208d519091908e90600190811061184e57fe5b6020908102909101810151600160a060020a03168252810191909152604001600020549063ffffffff61244716565b600e546101009004600160a060020a031660009081526005602052604081208c519091908d9060019081106118ae57fe5b6020908102909101810151600160a060020a03168252810191909152604001600020555b61193c8960028151811015156118e457fe5b90602001906020020151600560008d600281518110151561190157fe5b90602001906020020151600160a060020a0316600160a060020a0316815260200190815260200160002060008d600081518110151561184e57fe5b600560008c600281518110151561194f57fe5b90602001906020020151600160a060020a0316600160a060020a0316815260200190815260200160002060008c600081518110151561198a57fe5b90602001906020020151600160a060020a0316600160a060020a0316815260200190815260200160002081905550611a616119e4848b60028151811015156119ce57fe5b602090810290910101519063ffffffff61244716565b600560008d60028151811015156119f757fe5b90602001906020020151600160a060020a0316600160a060020a0316815260200190815260200160002060008d6001815181101515611a3257fe5b6020908102909101810151600160a060020a03168252810191909152604001600020549063ffffffff61243416565b600560008c6002815181101515611a7457fe5b90602001906020020151600160a060020a0316600160a060020a0316815260200190815260200160002060008c6001815181101515611aaf57fe5b90602001906020020151600160a060020a0316600160a060020a0316815260200190815260200160002081905550611b3783600560008d6002815181101515611af457fe5b6020908102909101810151600160a060020a039081168352828201939093526040918201600090812060025490941681529290529020549063ffffffff61243416565b600560008c6002815181101515611b4a57fe5b6020908102909101810151600160a060020a039081168352828201939093526040918201600090812060025490941681529290528120919091558951611beb91670de0b6b3a764000091610cf991611bdc918e91908110611ba757fe5b90602001906020020151610cf98e6002815181101515611bc357fe5b906020019060200201518f600181518110151561173e57fe5b8c600581518110151561173e57fe5b9150600c60008b6000815181101515611c0057fe5b6020908102909101810151600160a060020a031682528101919091526040016000205460ff1615611d3757600d54611c3f90859063ffffffff6125ba16565b600e546101009004600160a060020a031660009081526005602052604081208c519091908d9082908110611c6f57fe5b6020908102909101810151600160a060020a031682528101919091526040016000205410611d375760009150611ce3611cb3600d54866125ba90919063ffffffff16565b600e546101009004600160a060020a031660009081526005602052604081208d519091908e908290811061184e57fe5b600e546101009004600160a060020a031660009081526005602052604081208c519091908d9082908110611d1357fe5b6020908102909101810151600160a060020a03168252810191909152604001600020555b611daa611d5c83611d508c6000815181101515611ba757fe5b9063ffffffff61244716565b600560008d6003815181101515611d6f57fe5b90602001906020020151600160a060020a0316600160a060020a0316815260200190815260200160002060008d6000815181101515611a3257fe5b600560008c6003815181101515611dbd57fe5b90602001906020020151600160a060020a0316600160a060020a0316815260200190815260200160002060008c6000815181101515611df857fe5b90602001906020020151600160a060020a0316600160a060020a0316815260200190815260200160002081905550611ebe611e708a6000815181101515611e3b57fe5b90602001906020020151610cf98c6002815181101515611e5757fe5b906020019060200201518d600181518110151561173e57fe5b600560008d6003815181101515611e8357fe5b90602001906020020151600160a060020a0316600160a060020a0316815260200190815260200160002060008d600181518110151561184e57fe5b600560008c6003815181101515611ed157fe5b90602001906020020151600160a060020a0316600160a060020a0316815260200190815260200160002060008c6001815181101515611f0c57fe5b90602001906020020151600160a060020a0316600160a060020a0316815260200190815260200160002081905550611f5182600560008d6003815181101515611af457fe5b600560008c6003815181101515611f6457fe5b6020908102909101810151600160a060020a039081168352828201939093526040918201600090812060028054909516825290915220919091558951611fd5918b918110611fae57fe5b6020908102909101810151600089815260069092526040909120549063ffffffff61243416565b60008781526006602052604090205560095460ff161561222b57600a5461200390859063ffffffff6125ba16565b600954600160a060020a0361010090910481166000908152600560209081526040808320600b5490941683529290522054909150811161222b57811561213357600954600160a060020a0361010090910481166000908152600560209081526040808320600b5490941683529290522054612084908263ffffffff61244716565b60098054600160a060020a036101009182900481166000908152600560208181526040808420600b5486168552825280842097909755945493909304909116815291529081208b516120df928492918e9082908110611a3257fe5b6009546101009004600160a060020a031660009081526005602052604081208c519091908d908290811061210f57fe5b6020908102909101810151600160a060020a03168252810191909152604001600020555b821561222b57600954600160a060020a0361010090910481166000908152600560209081526040808320600b549094168352929052205461217a908263ffffffff61244716565b60098054600160a060020a036101009182900481166000908152600560208181526040808420600b5486168552825280842097909755945493909304909116815291529081208b516121d6928492918e906001908110611a3257fe5b6009546101009004600160a060020a031660009081526005602052604081208c519091908d90600190811061220757fe5b6020908102909101810151600160a060020a03168252810191909152604001600020555b50505050505050505050565b600154600160a060020a0316331461224e57600080fd5b6001805473ffffffffffffffffffffffffffffffffffffffff1916600160a060020a0392909216919091179055565b600154600160a060020a0316331461229457600080fd5b6000805473ffffffffffffffffffffffffffffffffffffffff1916600160a060020a0392909216919091179055565b6009546101009004600160a060020a031681565b600154600160a060020a031633146122ee57600080fd5b60098054600160a060020a039092166101000274ffffffffffffffffffffffffffffffffffffffff0019909216919091179055565b600e546101009004600160a060020a031681565b600560209081526000928352604080842090915290825290205481565b600254600160a060020a031681565b600154600160a060020a0316331461237a57600080fd5b600e805460ff1916911515919091179055565b600154600160a060020a031633146123a457600080fd5b600e8054600160a060020a039092166101000274ffffffffffffffffffffffffffffffffffffffff0019909216919091179055565b60035481565b600154600160a060020a031633146123f657600080fd5b600d55565b60086020526000908152604090205460ff1681565b60046020526000908152604090205481565b60066020526000908152604090205481565b8181018281101561244157fe5b92915050565b60008282111561245357fe5b50900390565b604080518082018252601c8082527f19457468657265756d205369676e6564204d6573736167653a0a33320000000060208084019182529351600094859385938b939092019182918083835b602083106124c45780518252601f1990920191602091820191016124a5565b51815160209384036101000a600019018019909216911617905292019384525060408051808503815293820190819052835193945092839250908401908083835b602083106125245780518252601f199092019160209182019101612505565b51815160209384036101000a600019018019909216911617905260408051929094018290038220600080845283830180875282905260ff8e1684870152606084018d9052608084018c905294519097506001965060a080840196509194601f19820194509281900390910191865af11580156125a4573d6000803e3d6000fd5b5050604051601f19015198975050505050505050565b60008215156125cb57506000612441565b508181028183828115156125db57fe5b041461244157fe5b600081838115156125f057fe5b0493925050505600a165627a7a72305820fe6ae8a8793a4661811dd3db59b9ddb89aa5463a962545d2b1e73467033783880029",
  "source": "pragma solidity ^0.4.22;\n\nimport 'openzeppelin-solidity/contracts/math/SafeMath.sol';\nimport 'openzeppelin-solidity/contracts/token/ERC20/StandardToken.sol';\n\ncontract Exchange {\n\tusing SafeMath for uint;\n\n  address public signer;\n  address public owner;\n  address public feeCollector;\n\tuint public timelock;\n\tmapping (address => uint) public lastActivity;\n  mapping (address => mapping (address => uint)) public balances;\n  mapping (bytes32 => uint) public orderFills;\n  mapping (bytes32 => bool) public withdrawn;\n  mapping (bytes32 => bool) public traded;\n  bool public airdropStatus;\n\taddress public airdropTokenAddress;\n\tuint public airdropRatePerEth;\n\taddress public airdropAccountAddress;\n\n  event Deposit(address token, address account, uint amount, uint balance);\n\tevent Withdraw(address token, address account, uint amount, uint balance);\n\tevent Trade(address tokenBuy, uint amountBuy, address tokenSell, uint amountSell, address get, address give);\n\n\tmodifier signerOnly {\n\t\trequire(msg.sender == signer);\n\t\t_;\n\t}\n\n\tmodifier ownerOnly {\n\t\trequire(msg.sender == owner);\n\t\t_;\n\t}\n\n\tconstructor() public {\n\t\tsigner = msg.sender;\n\t\tfeeCollector = msg.sender;\n\t\towner = msg.sender;\n  \ttimelock = 100000;\n  \tairdropAccountAddress = msg.sender;\n\t}\n\n\tfunction setAirdropStatus(bool _status) public ownerOnly {\n\t\tairdropStatus = _status;\n\t}\n\n\tfunction setAirdropTokenAddress(address _address) public ownerOnly {\n\t\tairdropTokenAddress = _address;\n\t}\n\n\tfunction setAirdropRatePerEth(uint _ratePerEth) public ownerOnly {\n\t\tairdropRatePerEth = _ratePerEth;\n\t} \n\n\tfunction changeAirdropAccountAddress(address _address) public ownerOnly {\n\t\tairdropAccountAddress = _address;\n\t}\n\n\tfunction changeFeeCollector(address _feeCollector) public ownerOnly {\n\t\tfeeCollector = _feeCollector;\n\t}\n\n\tfunction changeSigner(address _signer) public ownerOnly {\n\t\tsigner = _signer;\n\t}\n\n\tfunction changeOwner(address _owner) public ownerOnly {\n\t\towner = _owner;\n\t}\n\n\tfunction setTimelock(uint _duration) public ownerOnly {\n\t\trequire(_duration <= 1000000);\n\t\ttimelock = _duration;\n\t}\n\n\tmapping (address => bool) public useFeeToken;\n\tuint public feeTokenRatePerEth;\n\tbool public feeTokenStatus;\n\taddress public feeTokenAddress;\n\n\tfunction setFeeTokenRatePerEth(uint _rate) public ownerOnly {\n\t\tfeeTokenRatePerEth = _rate;\n\t}\n\n\tfunction setFeeTokenStatus(bool _status) public ownerOnly {\n\t\tfeeTokenStatus = _status;\n\t}\n\n\tfunction setFeeTokenAddress(address _address) public ownerOnly {\n\t\tfeeTokenAddress = _address;\n\t}\n\n\tfunction deposit(address _token, uint _amount) public payable {\n\t\tlastActivity[msg.sender] = block.number;\n\t\tif (_token == 0) {\n\t\t\trequire(msg.value == _amount);\n\t\t\tbalances[0][msg.sender] = balances[0][msg.sender].add(msg.value);\n    } else {\n\t\t\trequire(msg.value == 0);\n\t\t\tbalances[_token][msg.sender] = balances[_token][msg.sender].add(_amount);\n\t\t\trequire(StandardToken(_token).transferFrom(msg.sender, this, _amount));\n    }\n    emit Deposit(_token, msg.sender, _amount, balances[_token][msg.sender]);\n\t}\n\n\tfunction withdraw(address _token, uint _amount, address _account, uint _nonce, uint8 v, bytes32 r, bytes32 s, uint _fee) public signerOnly {\n\t\tlastActivity[_account] = block.number;\n\t\tbytes32 hash = keccak256(abi.encodePacked(this, _token, _amount, _account, _nonce));\n\t\trequire(!withdrawn[hash]);\n\t\twithdrawn[hash] = true;\n\t\trequire(recover(hash, v, r, s) == _account);\n\t\trequire(balances[_token][_account] >= _amount);\n    balances[_token][_account] = balances[_token][_account].sub(_amount);\n    if (_fee > 50 finney) _fee = 50 finney;\n    _fee = (_fee.mul(_amount)).div(1 ether);\n    balances[_token][feeCollector] = balances[_token][feeCollector].add(_fee);\n    _amount = _amount.sub(_fee);\n    if (_token == 0) {\n      require(_account.send(_amount));\n    } else {\n      require(StandardToken(_token).transfer(_account, _amount));\n    }\n    emit Withdraw(_token, _account, _amount, balances[_token][_account]);\n\t}\n\n\tfunction withdrawEmergency(address _token, uint _amount) public {\n\t\trequire(block.number.sub(lastActivity[msg.sender]) > timelock);\n\t\tlastActivity[msg.sender] = block.number;\n\t\trequire(balances[_token][msg.sender] >= _amount);\n    balances[_token][msg.sender] = balances[_token][msg.sender].sub(_amount);\n    if (_token == 0) {\n      require(msg.sender.send(_amount));\n    } else {\n      require(StandardToken(_token).transfer(msg.sender, _amount));\n    }\n    emit Withdraw(_token, msg.sender, _amount, balances[_token][msg.sender]);\n\t}\n\n\tfunction trade(address[] _addresses, uint[] _uints, uint8[] v, bytes32[] rs) public signerOnly {\n\t\t/*\n\t\t\t_addresses[0] == maker\n\t\t\t_addresses[1] == taker\n\t\t\t_addresses[2] == giveToken\n\t\t\t_addresses[3] == takeToken\n\t\t\t_uints[0] == giveAmount\n\t\t\t_uints[1] == takeAmount\n\t\t\t_uints[2] == amount\n\t\t\t_uints[3] == makerNonce\n\t\t\t_uints[4] == takerNonce\n\t\t\t_uints[5] == makerFee\n\t\t\t_uints[6] == takerFee\n\t\t\t_uints[7] == expiry\n\t\t\tv[0] == makerV\n\t\t\tv[1] == takerV\n\t\t\trs[0]..[1] == makerR, makerS\n\t\t\trs[2]..[3] == takerR, takerS\n\t\t*/\n\t\tlastActivity[_addresses[0]] = block.number;\n\t\tlastActivity[_addresses[1]] = block.number;\n\t\tbytes32 orderHash = keccak256(abi.encodePacked(this, _addresses[0], _addresses[2], _uints[0], _addresses[3], _uints[1], _uints[3], _uints[7]));\n\t\trequire(recover(orderHash, v[0], rs[0], rs[1]) == _addresses[0]);\n\t\tbytes32 tradeHash = keccak256(abi.encodePacked(this, orderHash, _addresses[1], _uints[2], _uints[4]));\n\t\trequire(recover(tradeHash, v[1], rs[2], rs[3]) == _addresses[1]);\n\t\trequire(!traded[tradeHash]);\n\t\ttraded[tradeHash] = true;\n\t\tif (_uints[5] > 5 finney) _uints[5] = 5 finney;\n\t\tif (_uints[6] > 5 finney) _uints[6] = 5 finney;\n\t\trequire(balances[_addresses[2]][_addresses[0]] >= _uints[2]);\n\t\trequire(balances[_addresses[3]][_addresses[1]] >= (_uints[1].div(_uints[0])).mul(_uints[2]));\n\t\trequire(orderFills[orderHash].add(_uints[2]) <= _uints[0]);\n\t\tuint totalTradedAmount = _uints[0];\n\t\tif (_addresses[3] == 0) totalTradedAmount = _uints[1];\n\t\tuint takerFee = (_uints[6].mul(_uints[2])).div(1 ether);\n\t\tif (useFeeToken[_addresses[1]]) {\n\t\t\tif (balances[feeTokenAddress][_addresses[1]] >= totalTradedAmount.mul(feeTokenRatePerEth)) {\n\t\t\t\ttakerFee = 0;\n\t\t\t\tbalances[feeTokenAddress][_addresses[1]] = balances[feeTokenAddress][_addresses[1]].sub(totalTradedAmount.mul(feeTokenRatePerEth));\n\t\t\t}\n\t\t}\n\t\tbalances[_addresses[2]][_addresses[0]] = balances[_addresses[2]][_addresses[0]].sub(_uints[2]);\n\t\tbalances[_addresses[2]][_addresses[1]] = balances[_addresses[2]][_addresses[1]].add((_uints[2]).sub(takerFee));\n\t\tbalances[_addresses[2]][feeCollector] = balances[_addresses[2]][feeCollector].add(takerFee);\n\t\tuint makerFee = (_uints[5].mul((_uints[1].mul(_uints[2])).div(_uints[0]))).div(1 ether);\n\t\tif (useFeeToken[_addresses[0]]) {\n\t\t\tif (balances[feeTokenAddress][_addresses[0]] >= totalTradedAmount.mul(feeTokenRatePerEth)) {\n\t\t\t\tmakerFee = 0;\n\t\t\t\tbalances[feeTokenAddress][_addresses[0]] = balances[feeTokenAddress][_addresses[0]].sub(totalTradedAmount.mul(feeTokenRatePerEth));\n\t\t\t}\n\t\t}\n\t\tbalances[_addresses[3]][_addresses[0]] = balances[_addresses[3]][_addresses[0]].add(((_uints[1].mul(_uints[2])).div(_uints[0])).sub(makerFee));\n\t\tbalances[_addresses[3]][_addresses[1]] = balances[_addresses[3]][_addresses[1]].sub((_uints[1].mul(_uints[2])).div(_uints[0]));\n\t\tbalances[_addresses[3]][feeCollector] = balances[_addresses[3]][feeCollector].add(makerFee);\n\t\torderFills[orderHash] = orderFills[orderHash].add(_uints[2]);\n\t\tif (airdropStatus) {\n\t\t\tuint airdropAmount = totalTradedAmount.mul(airdropRatePerEth);\n\t\t\tif (balances[airdropTokenAddress][airdropAccountAddress] >= airdropAmount) {\n\t\t\t\tif (makerFee != 0) {\n\t\t\t\t\tbalances[airdropTokenAddress][airdropAccountAddress] = balances[airdropTokenAddress][airdropAccountAddress].sub(airdropAmount);\n\t\t\t\t\tbalances[airdropTokenAddress][_addresses[0]] = balances[airdropTokenAddress][_addresses[0]].add(airdropAmount);\n\t\t\t\t}\n\t\t\t\tif (takerFee != 0) {\n\t\t\t\t\tbalances[airdropTokenAddress][airdropAccountAddress] = balances[airdropTokenAddress][airdropAccountAddress].sub(airdropAmount);\n\t\t\t\t\tbalances[airdropTokenAddress][_addresses[1]] = balances[airdropTokenAddress][_addresses[1]].add(airdropAmount);\n\t\t\t\t}\n\t\t\t}\n\t\t}\n\t}\n\n\tfunction recover(bytes32 _hash, uint8 v, bytes32 r, bytes32 s) private pure returns (address) {\n    bytes memory prefix = \"\\x19Ethereum Signed Message:\\n32\";\n    bytes32 hash = keccak256(abi.encodePacked(prefix, _hash));\n    return ecrecover(hash, v, r, s);\n\t}\n}\n\n",
  "sourcePath": "/Users/hieu/dev/odin-contracts/contracts/Exchange.sol",
  "compiler": {
    "name": "solc",
    "version": "0.4.24+commit.e67f0147.Emscripten.clang"
  },
  "schemaVersion": "2.0.1",
  "updatedAt": "2018-11-09T14:13:13.692Z"
}