{
  "contractName": "Exchange",
  "abi": [
    {
      "constant": true,
      "inputs": [
        {
          "name": "",
          "type": "address"
        }
      ],
      "name": "useFeeToken",
      "outputs": [
        {
          "name": "",
          "type": "bool"
        }
      ],
      "payable": false,
      "stateMutability": "view",
      "type": "function"
    },
    {
      "constant": true,
      "inputs": [],
      "name": "airdropAccountAddress",
      "outputs": [
        {
          "name": "",
          "type": "address"
        }
      ],
      "payable": false,
      "stateMutability": "view",
      "type": "function"
    },
    {
      "constant": true,
      "inputs": [],
      "name": "feeTokenStatus",
      "outputs": [
        {
          "name": "",
          "type": "bool"
        }
      ],
      "payable": false,
      "stateMutability": "view",
      "type": "function"
    },
    {
      "constant": true,
      "inputs": [],
      "name": "feeTokenRatePerEth",
      "outputs": [
        {
          "name": "",
          "type": "uint256"
        }
      ],
      "payable": false,
      "stateMutability": "view",
      "type": "function"
    },
    {
      "constant": true,
      "inputs": [
        {
          "name": "",
          "type": "bytes32"
        }
      ],
      "name": "cancelled",
      "outputs": [
        {
          "name": "",
          "type": "bool"
        }
      ],
      "payable": false,
      "stateMutability": "view",
      "type": "function"
    },
    {
      "constant": true,
      "inputs": [],
      "name": "airdropStatus",
      "outputs": [
        {
          "name": "",
          "type": "bool"
        }
      ],
      "payable": false,
      "stateMutability": "view",
      "type": "function"
    },
    {
      "constant": true,
      "inputs": [
        {
          "name": "",
          "type": "bytes32"
        }
      ],
      "name": "withdrawn",
      "outputs": [
        {
          "name": "",
          "type": "bool"
        }
      ],
      "payable": false,
      "stateMutability": "view",
      "type": "function"
    },
    {
      "constant": true,
      "inputs": [
        {
          "name": "",
          "type": "address"
        }
      ],
      "name": "cancelledOrders",
      "outputs": [
        {
          "name": "",
          "type": "uint256"
        }
      ],
      "payable": false,
      "stateMutability": "view",
      "type": "function"
    },
    {
      "constant": true,
      "inputs": [],
      "name": "airdropRatePerEth",
      "outputs": [
        {
          "name": "",
          "type": "uint256"
        }
      ],
      "payable": false,
      "stateMutability": "view",
      "type": "function"
    },
    {
      "constant": true,
      "inputs": [],
      "name": "owner",
      "outputs": [
        {
          "name": "",
          "type": "address"
        }
      ],
      "payable": false,
      "stateMutability": "view",
      "type": "function"
    },
    {
      "constant": true,
      "inputs": [],
      "name": "manualWithdraws",
      "outputs": [
        {
          "name": "",
          "type": "bool"
        }
      ],
      "payable": false,
      "stateMutability": "view",
      "type": "function"
    },
    {
      "constant": true,
      "inputs": [],
      "name": "airdropTokenAddress",
      "outputs": [
        {
          "name": "",
          "type": "address"
        }
      ],
      "payable": false,
      "stateMutability": "view",
      "type": "function"
    },
    {
      "constant": true,
      "inputs": [],
      "name": "feeTokenAddress",
      "outputs": [
        {
          "name": "",
          "type": "address"
        }
      ],
      "payable": false,
      "stateMutability": "view",
      "type": "function"
    },
    {
      "constant": true,
      "inputs": [
        {
          "name": "",
          "type": "address"
        },
        {
          "name": "",
          "type": "address"
        }
      ],
      "name": "balances",
      "outputs": [
        {
          "name": "",
          "type": "uint256"
        }
      ],
      "payable": false,
      "stateMutability": "view",
      "type": "function"
    },
    {
      "constant": true,
      "inputs": [],
      "name": "feeCollector",
      "outputs": [
        {
          "name": "",
          "type": "address"
        }
      ],
      "payable": false,
      "stateMutability": "view",
      "type": "function"
    },
    {
      "constant": true,
      "inputs": [],
      "name": "timelock",
      "outputs": [
        {
          "name": "",
          "type": "uint256"
        }
      ],
      "payable": false,
      "stateMutability": "view",
      "type": "function"
    },
    {
      "constant": true,
      "inputs": [
        {
          "name": "",
          "type": "bytes32"
        }
      ],
      "name": "traded",
      "outputs": [
        {
          "name": "",
          "type": "bool"
        }
      ],
      "payable": false,
      "stateMutability": "view",
      "type": "function"
    },
    {
      "constant": true,
      "inputs": [
        {
          "name": "",
          "type": "address"
        }
      ],
      "name": "lastActivity",
      "outputs": [
        {
          "name": "",
          "type": "uint256"
        }
      ],
      "payable": false,
      "stateMutability": "view",
      "type": "function"
    },
    {
      "constant": true,
      "inputs": [
        {
          "name": "",
          "type": "bytes32"
        }
      ],
      "name": "orderFills",
      "outputs": [
        {
          "name": "",
          "type": "uint256"
        }
      ],
      "payable": false,
      "stateMutability": "view",
      "type": "function"
    },
    {
      "constant": true,
      "inputs": [],
      "name": "server",
      "outputs": [
        {
          "name": "",
          "type": "address"
        }
      ],
      "payable": false,
      "stateMutability": "view",
      "type": "function"
    },
    {
      "inputs": [],
      "payable": false,
      "stateMutability": "nonpayable",
      "type": "constructor"
    },
    {
      "payable": false,
      "stateMutability": "nonpayable",
      "type": "fallback"
    },
    {
      "anonymous": false,
      "inputs": [
        {
          "indexed": false,
          "name": "token",
          "type": "address"
        },
        {
          "indexed": false,
          "name": "account",
          "type": "address"
        },
        {
          "indexed": false,
          "name": "amount",
          "type": "uint256"
        },
        {
          "indexed": false,
          "name": "balance",
          "type": "uint256"
        }
      ],
      "name": "Deposit",
      "type": "event"
    },
    {
      "anonymous": false,
      "inputs": [
        {
          "indexed": false,
          "name": "token",
          "type": "address"
        },
        {
          "indexed": false,
          "name": "account",
          "type": "address"
        },
        {
          "indexed": false,
          "name": "amount",
          "type": "uint256"
        },
        {
          "indexed": false,
          "name": "balance",
          "type": "uint256"
        }
      ],
      "name": "Withdraw",
      "type": "event"
    },
    {
      "anonymous": false,
      "inputs": [
        {
          "indexed": false,
          "name": "tokenBuy",
          "type": "address"
        },
        {
          "indexed": false,
          "name": "amountBuy",
          "type": "uint256"
        },
        {
          "indexed": false,
          "name": "tokenSell",
          "type": "address"
        },
        {
          "indexed": false,
          "name": "amountSell",
          "type": "uint256"
        },
        {
          "indexed": false,
          "name": "get",
          "type": "address"
        },
        {
          "indexed": false,
          "name": "give",
          "type": "address"
        }
      ],
      "name": "Trade",
      "type": "event"
    },
    {
      "anonymous": false,
      "inputs": [
        {
          "indexed": false,
          "name": "exchange",
          "type": "address"
        },
        {
          "indexed": false,
          "name": "maker",
          "type": "address"
        },
        {
          "indexed": false,
          "name": "giveToken",
          "type": "address"
        },
        {
          "indexed": false,
          "name": "giveAmount",
          "type": "uint256"
        },
        {
          "indexed": false,
          "name": "takeToken",
          "type": "address"
        },
        {
          "indexed": false,
          "name": "takeAmount",
          "type": "uint256"
        },
        {
          "indexed": false,
          "name": "nonce",
          "type": "uint256"
        },
        {
          "indexed": false,
          "name": "expiry",
          "type": "uint256"
        },
        {
          "indexed": false,
          "name": "payload",
          "type": "bytes"
        },
        {
          "indexed": false,
          "name": "orderHash",
          "type": "bytes32"
        }
      ],
      "name": "Order",
      "type": "event"
    },
    {
      "constant": false,
      "inputs": [
        {
          "name": "_status",
          "type": "bool"
        }
      ],
      "name": "setAirdropStatus",
      "outputs": [],
      "payable": false,
      "stateMutability": "nonpayable",
      "type": "function"
    },
    {
      "constant": false,
      "inputs": [
        {
          "name": "_status",
          "type": "bool"
        }
      ],
      "name": "setManualWithdraws",
      "outputs": [],
      "payable": false,
      "stateMutability": "nonpayable",
      "type": "function"
    },
    {
      "constant": false,
      "inputs": [
        {
          "name": "_address",
          "type": "address"
        }
      ],
      "name": "setAirdropTokenAddress",
      "outputs": [],
      "payable": false,
      "stateMutability": "nonpayable",
      "type": "function"
    },
    {
      "constant": false,
      "inputs": [
        {
          "name": "_ratePerEth",
          "type": "uint256"
        }
      ],
      "name": "setAirdropRatePerEth",
      "outputs": [],
      "payable": false,
      "stateMutability": "nonpayable",
      "type": "function"
    },
    {
      "constant": false,
      "inputs": [
        {
          "name": "_address",
          "type": "address"
        }
      ],
      "name": "changeAirdropAccountAddress",
      "outputs": [],
      "payable": false,
      "stateMutability": "nonpayable",
      "type": "function"
    },
    {
      "constant": false,
      "inputs": [
        {
          "name": "_feeCollector",
          "type": "address"
        }
      ],
      "name": "changeFeeCollector",
      "outputs": [],
      "payable": false,
      "stateMutability": "nonpayable",
      "type": "function"
    },
    {
      "constant": false,
      "inputs": [
        {
          "name": "_server",
          "type": "address"
        }
      ],
      "name": "changeServer",
      "outputs": [],
      "payable": false,
      "stateMutability": "nonpayable",
      "type": "function"
    },
    {
      "constant": false,
      "inputs": [
        {
          "name": "_owner",
          "type": "address"
        }
      ],
      "name": "changeOwner",
      "outputs": [],
      "payable": false,
      "stateMutability": "nonpayable",
      "type": "function"
    },
    {
      "constant": false,
      "inputs": [
        {
          "name": "_duration",
          "type": "uint256"
        }
      ],
      "name": "setTimelock",
      "outputs": [],
      "payable": false,
      "stateMutability": "nonpayable",
      "type": "function"
    },
    {
      "constant": false,
      "inputs": [
        {
          "name": "_rate",
          "type": "uint256"
        }
      ],
      "name": "setFeeTokenRatePerEth",
      "outputs": [],
      "payable": false,
      "stateMutability": "nonpayable",
      "type": "function"
    },
    {
      "constant": false,
      "inputs": [
        {
          "name": "_status",
          "type": "bool"
        }
      ],
      "name": "setFeeTokenStatus",
      "outputs": [],
      "payable": false,
      "stateMutability": "nonpayable",
      "type": "function"
    },
    {
      "constant": false,
      "inputs": [
        {
          "name": "_address",
          "type": "address"
        }
      ],
      "name": "setFeeTokenAddress",
      "outputs": [],
      "payable": false,
      "stateMutability": "nonpayable",
      "type": "function"
    },
    {
      "constant": false,
      "inputs": [
        {
          "name": "_token",
          "type": "address"
        },
        {
          "name": "_amount",
          "type": "uint256"
        }
      ],
      "name": "deposit",
      "outputs": [],
      "payable": true,
      "stateMutability": "payable",
      "type": "function"
    },
    {
      "constant": false,
      "inputs": [
        {
          "name": "_token",
          "type": "address"
        },
        {
          "name": "_amount",
          "type": "uint256"
        },
        {
          "name": "_account",
          "type": "address"
        },
        {
          "name": "_nonce",
          "type": "uint256"
        },
        {
          "name": "v",
          "type": "uint8"
        },
        {
          "name": "r",
          "type": "bytes32"
        },
        {
          "name": "s",
          "type": "bytes32"
        },
        {
          "name": "_fee",
          "type": "uint256"
        }
      ],
      "name": "withdraw",
      "outputs": [],
      "payable": false,
      "stateMutability": "nonpayable",
      "type": "function"
    },
    {
      "constant": false,
      "inputs": [
        {
          "name": "_token",
          "type": "address"
        },
        {
          "name": "_amount",
          "type": "uint256"
        }
      ],
      "name": "withdrawEmergency",
      "outputs": [],
      "payable": false,
      "stateMutability": "nonpayable",
      "type": "function"
    },
    {
      "constant": false,
      "inputs": [
        {
          "name": "_addresses",
          "type": "address[]"
        },
        {
          "name": "_uints",
          "type": "uint256[]"
        },
        {
          "name": "v",
          "type": "uint8[]"
        },
        {
          "name": "rs",
          "type": "bytes32[]"
        }
      ],
      "name": "trade",
      "outputs": [],
      "payable": false,
      "stateMutability": "nonpayable",
      "type": "function"
    },
    {
      "constant": false,
      "inputs": [
        {
          "name": "_account",
          "type": "address"
        },
        {
          "name": "_nonce",
          "type": "uint256"
        }
      ],
      "name": "bulkCancelOrders",
      "outputs": [],
      "payable": false,
      "stateMutability": "nonpayable",
      "type": "function"
    },
    {
      "constant": false,
      "inputs": [
        {
          "name": "_hash",
          "type": "bytes32"
        }
      ],
      "name": "cancelOrder",
      "outputs": [],
      "payable": false,
      "stateMutability": "nonpayable",
      "type": "function"
    }
  ],
  "bytecode": "0x608060405234801561001057600080fd5b506000805433600160a060020a0319918216811783556002805483168217905560018054831682179055620186a0600355600b80549092161790556009805461ffff1916905561289b90819061006690396000f3006080604052600436106101d75763ffffffff7c010000000000000000000000000000000000000000000000000000000060003504166308ed023681146101e957806308fb8a88146102055780630aa57f05146102265780630dee31981461025b57806317f4b8ee1461028c5780631e891c0a146102a1578063242f7e1a146102b95780632ac12622146102e05780632cf1a5fb146102f85780633823d66c1461030d57806347e7ef24146103255780635aec06c11461033c5780636c3d7e1d1461035d5780636c8ae8dc146103815780636cb2456e146103be5780636ef0222c146103df5780637489ec23146103f45780638cef41b61461040c5780638da5cb5b146104245780638f98f704146104395780639245290d1461045d578063927e5d381461047e57806397128d6e14610493578063a6f9dae114610593578063b73e0e8b146105b4578063b864ba7d146105c9578063b8df0dea146105ea578063b9f3484d146105ff578063c23f001f14610619578063c415b95c14610640578063c91b10a414610655578063cf351c1d1461066f578063d33219b414610690578063d5238df5146106a5578063d5813323146106bd578063f07e96b3146106d5578063f7213db6146106f6578063fd922a421461070e575b3480156101e357600080fd5b50600080fd5b3480156101f557600080fd5b506102036004351515610723565b005b34801561021157600080fd5b50610203600160a060020a036004351661074d565b34801561023257600080fd5b50610247600160a060020a0360043516610793565b604080519115158252519081900360200190f35b34801561026757600080fd5b506102706107a8565b60408051600160a060020a039092168252519081900360200190f35b34801561029857600080fd5b506102476107b7565b3480156102ad57600080fd5b506102036004356107c0565b3480156102c557600080fd5b506102ce6107ec565b60408051918252519081900360200190f35b3480156102ec57600080fd5b506102476004356107f2565b34801561030457600080fd5b50610247610807565b34801561031957600080fd5b50610247600435610810565b610203600160a060020a0360043516602435610825565b34801561034857600080fd5b506102ce600160a060020a0360043516610a33565b34801561036957600080fd5b50610203600160a060020a0360043516602435610a45565b34801561038d57600080fd5b50610203600160a060020a03600435811690602435906044351660643560ff6084351660a43560c43560e435610c5e565b3480156103ca57600080fd5b50610203600160a060020a0360043516611056565b3480156103eb57600080fd5b506102ce61109c565b34801561040057600080fd5b506102036004356110a2565b34801561041857600080fd5b506102036004356110d4565b34801561043057600080fd5b506102706110f0565b34801561044557600080fd5b50610203600160a060020a03600435166024356110ff565b34801561046957600080fd5b50610203600160a060020a0360043516611156565b34801561048a57600080fd5b5061024761119c565b34801561049f57600080fd5b506040805160206004803580820135838102808601850190965280855261020395369593946024949385019291829185019084908082843750506040805187358901803560208181028481018201909552818452989b9a998901989297509082019550935083925085019084908082843750506040805187358901803560208181028481018201909552818452989b9a998901989297509082019550935083925085019084908082843750506040805187358901803560208181028481018201909552818452989b9a9989019892975090820195509350839250850190849080828437509497506111aa9650505050505050565b34801561059f57600080fd5b50610203600160a060020a03600435166124b1565b3480156105c057600080fd5b506102706124f7565b3480156105d557600080fd5b50610203600160a060020a036004351661250c565b3480156105f657600080fd5b5061027061255a565b34801561060b57600080fd5b50610203600435151561256e565b34801561062557600080fd5b506102ce600160a060020a036004358116906024351661259f565b34801561064c57600080fd5b506102706125bc565b34801561066157600080fd5b5061020360043515156125cb565b34801561067b57600080fd5b50610203600160a060020a03600435166125f5565b34801561069c57600080fd5b506102ce612641565b3480156106b157600080fd5b50610203600435612647565b3480156106c957600080fd5b50610247600435612663565b3480156106e157600080fd5b506102ce600160a060020a0360043516612678565b34801561070257600080fd5b506102ce60043561268a565b34801561071a57600080fd5b5061027061269c565b600154600160a060020a0316331461073a57600080fd5b6009805460ff1916911515919091179055565b600154600160a060020a0316331461076457600080fd5b6000805473ffffffffffffffffffffffffffffffffffffffff1916600160a060020a0392909216919091179055565b600c6020526000908152604090205460ff1681565b600b54600160a060020a031681565b600e5460ff1681565b600154600160a060020a031633146107d757600080fd5b620f42408111156107e757600080fd5b600355565b600d5481565b60106020526000908152604090205460ff1681565b60095460ff1681565b60076020526000908152604090205460ff1681565b336000908152600460205260409020439055600160a060020a03821615156108c65734811461085357600080fd5b3360009081527f05b8ccbb9d4d8fb16ea74ce3c29a41f1b461fbdaff4714a0d9a8eb05499746bc6020526040902054610892903463ffffffff6126ab16565b3360009081527f05b8ccbb9d4d8fb16ea74ce3c29a41f1b461fbdaff4714a0d9a8eb05499746bc60205260409020556109c6565b34156108d157600080fd5b600160a060020a0382166000908152600560209081526040808320338452909152902054610905908263ffffffff6126ab16565b600160a060020a0383166000818152600560209081526040808320338085529083528184209590955580517f23b872dd0000000000000000000000000000000000000000000000000000000081526004810195909552306024860152604485018690525192936323b872dd9360648083019491928390030190829087803b15801561098f57600080fd5b505af11580156109a3573d6000803e3d6000fd5b505050506040513d60208110156109b957600080fd5b505115156109c657600080fd5b600160a060020a03821660008181526005602090815260408083203380855290835292819020548151948552918401929092528282018490526060830152517fdcbc1c05240f31ff3ad067ef1ee35ce4997762752e3a095284754544f4c709d79181900360800190a15050565b600f6020526000908152604090205481565b600954610100900460ff161515610a5b57600080fd5b60035433600090815260046020526040902054610a7f90439063ffffffff6126be16565b11610a8957600080fd5b336000818152600460209081526040808320439055600160a060020a0386168352600582528083209383529290522054811115610ac557600080fd5b600160a060020a0382166000908152600560209081526040808320338452909152902054610af9908263ffffffff6126be16565b600160a060020a03831660008181526005602090815260408083203384529091529020919091551515610b5257604051339082156108fc029083906000818181858888f193505050501515610b4d57600080fd5b610bf1565b604080517fa9059cbb000000000000000000000000000000000000000000000000000000008152336004820152602481018390529051600160a060020a0384169163a9059cbb9160448083019260209291908290030181600087803b158015610bba57600080fd5b505af1158015610bce573d6000803e3d6000fd5b505050506040513d6020811015610be457600080fd5b50511515610bf157600080fd5b600160a060020a03821660008181526005602090815260408083203380855290835292819020548151948552918401929092528282018490526060830152517ff341246adaac6f497bc2a656f546ab9e182111d630394f0c57c710a59a2cb5679181900360800190a15050565b60008054600160a060020a03163314610c7657600080fd5b600160a060020a0380881660008181526004602090815260409182902043905581516c0100000000000000000000000030810282840152948e1685026034820152604881018d9052939092026068840152607c8084018a905281518085039091018152609c90930190819052825190918291908401908083835b60208310610d0f5780518252601f199092019160209182019101610cf0565b51815160209384036101000a6000190180199092169116179052604080519290940182900390912060008181526007909252929020549194505060ff16159150610d5a905057600080fd5b6000818152600760205260409020805460ff19166001179055600160a060020a038716610d89828787876126d0565b600160a060020a031614610d9c57600080fd5b600160a060020a03808a166000908152600560209081526040808320938b1683529290522054881115610dce57600080fd5b600160a060020a03808a166000908152600560209081526040808320938b1683529290522054610e04908963ffffffff6126be16565b600160a060020a03808b166000908152600560209081526040808320938c168352929052205566b1a2bc2ec50000821115610e445766b1a2bc2ec5000091505b610e6c670de0b6b3a7640000610e60848b63ffffffff61283116565b9063ffffffff61285a16565b600160a060020a03808b16600090815260056020908152604080832060025490941683529290522054909250610ea8908363ffffffff6126ab16565b600160a060020a03808b16600090815260056020908152604080832060025490941683529290522055610ee1888363ffffffff6126be16565b9750600160a060020a0389161515610f2857604051600160a060020a0388169089156108fc02908a906000818181858888f193505050501515610f2357600080fd5b610fdb565b88600160a060020a031663a9059cbb888a6040518363ffffffff167c01000000000000000000000000000000000000000000000000000000000281526004018083600160a060020a0316600160a060020a0316815260200182815260200192505050602060405180830381600087803b158015610fa457600080fd5b505af1158015610fb8573d6000803e3d6000fd5b505050506040513d6020811015610fce57600080fd5b50511515610fdb57600080fd5b600160a060020a03808a166000818152600560209081526040808320948c1680845294825291829020548251938452908301939093528181018b9052606082019290925290517ff341246adaac6f497bc2a656f546ab9e182111d630394f0c57c710a59a2cb5679181900360800190a1505050505050505050565b600154600160a060020a0316331461106d57600080fd5b600b805473ffffffffffffffffffffffffffffffffffffffff1916600160a060020a0392909216919091179055565b600a5481565b600054600160a060020a031633146110b957600080fd5b6000908152601060205260409020805460ff19166001179055565b600154600160a060020a031633146110eb57600080fd5b600a55565b600154600160a060020a031681565b600054600160a060020a0316331461111657600080fd5b600160a060020a0382166000908152600f6020526040902054811161113a57600080fd5b600160a060020a039091166000908152600f6020526040902055565b600154600160a060020a0316331461116d57600080fd5b6002805473ffffffffffffffffffffffffffffffffffffffff1916600160a060020a0392909216919091179055565b600954610100900460ff1681565b6000805481908190819081908190600160a060020a031633146111cc57600080fd5b8860038151811015156111db57fe5b90602001906020020151600f60008c60008151811015156111f857fe5b6020908102909101810151600160a060020a03168252810191909152604001600020541061122557600080fd5b43600460008c600081518110151561123957fe5b90602001906020020151600160a060020a0316600160a060020a031681526020019081526020016000208190555043600460008c600181518110151561127b57fe5b90602001906020020151600160a060020a0316600160a060020a0316815260200190815260200160002081905550308a60008151811015156112b957fe5b906020019060200201518b60028151811015156112d257fe5b906020019060200201518b60008151811015156112eb57fe5b906020019060200201518d600381518110151561130457fe5b906020019060200201518d600181518110151561131d57fe5b906020019060200201518e600381518110151561133657fe5b906020019060200201518f600781518110151561134f57fe5b6020908102909101810151604080516c01000000000000000000000000600160a060020a039b8c16810282860152998b168a026034820152978a1689026048890152605c88019690965293909716909502607c850152609084015260b083019390935260d0808301939093528051808303909301835260f09091019081905281519192909182918401908083835b602083106113fc5780518252601f1990920191602091820191016113dd565b51815160209384036101000a6000190180199092169116179052604080519290940182900390912060008181526010909252929020549199505060ff16159150611447905057600080fd5b89600081518110151561145657fe5b90602001906020020151600160a060020a03166114bd878a600081518110151561147c57fe5b906020019060200201518a600081518110151561149557fe5b906020019060200201518b60018151811015156114ae57fe5b906020019060200201516126d0565b600160a060020a0316146114d057600080fd5b30868b60018151811015156114e157fe5b906020019060200201518b60028151811015156114fa57fe5b906020019060200201518c600481518110151561151357fe5b906020019060200201516040516020018086600160a060020a0316600160a060020a03166c01000000000000000000000000028152601401856000191660001916815260200184600160a060020a0316600160a060020a03166c01000000000000000000000000028152601401838152602001828152602001955050505050506040516020818303038152906040526040518082805190602001908083835b602083106115d15780518252601f1990920191602091820191016115b2565b6001836020036101000a0380198251168184511680821785525050505050509050019150506040518091039020945089600181518110151561160f57fe5b90602001906020020151600160a060020a0316611667868a600181518110151561163557fe5b906020019060200201518a600281518110151561164e57fe5b906020019060200201518b60038151811015156114ae57fe5b600160a060020a03161461167a57600080fd5b60008581526008602052604090205460ff161561169657600080fd5b6000858152600860205260409020805460ff1916600117905588516611c37937e08000908a9060059081106116c757fe5b9060200190602002015111156116f9576611c37937e080008960058151811015156116ee57fe5b602090810290910101525b6611c37937e0800089600681518110151561171057fe5b906020019060200201511115611742576611c37937e0800089600681518110151561173757fe5b602090810290910101525b88600281518110151561175157fe5b90602001906020020151600560008c600281518110151561176e57fe5b90602001906020020151600160a060020a0316600160a060020a0316815260200190815260200160002060008c60008151811015156117a957fe5b6020908102909101810151600160a060020a031682528101919091526040016000205410156117d757600080fd5b6118408960028151811015156117e957fe5b906020019060200201516118348b600081518110151561180557fe5b906020019060200201518c600181518110151561181e57fe5b602090810290910101519063ffffffff61285a16565b9063ffffffff61283116565b600560008c600381518110151561185357fe5b90602001906020020151600160a060020a0316600160a060020a0316815260200190815260200160002060008c600181518110151561188e57fe5b6020908102909101810151600160a060020a031682528101919091526040016000205410156118bc57600080fd5b8860008151811015156118cb57fe5b9060200190602002015161190e8a60028151811015156118e757fe5b602090810290910181015160008a815260069092526040909120549063ffffffff6126ab16565b111561191957600080fd5b88600081518110151561192857fe5b90602001906020020151935089600381518110151561194357fe5b90602001906020020151600160a060020a03166000141561197a5788600181518110151561196d57fe5b9060200190602002015193505b6119c7670de0b6b3a7640000610e608b600281518110151561199857fe5b906020019060200201518c60068151811015156119b157fe5b602090810290910101519063ffffffff61283116565b9250600c60008b60018151811015156119dc57fe5b6020908102909101810151600160a060020a031682528101919091526040016000205460ff1615611b4557600d54611a1b90859063ffffffff61283116565b600e546101009004600160a060020a031660009081526005602052604081208c519091908d906001908110611a4c57fe5b6020908102909101810151600160a060020a031682528101919091526040016000205410611b455760009250611af0611a90600d548661283190919063ffffffff16565b600e546101009004600160a060020a031660009081526005602052604081208d519091908e906001908110611ac157fe5b6020908102909101810151600160a060020a03168252810191909152604001600020549063ffffffff6126be16565b600e546101009004600160a060020a031660009081526005602052604081208c519091908d906001908110611b2157fe5b6020908102909101810151600160a060020a03168252810191909152604001600020555b611baf896002815181101515611b5757fe5b90602001906020020151600560008d6002815181101515611b7457fe5b90602001906020020151600160a060020a0316600160a060020a0316815260200190815260200160002060008d6000815181101515611ac157fe5b600560008c6002815181101515611bc257fe5b90602001906020020151600160a060020a0316600160a060020a0316815260200190815260200160002060008c6000815181101515611bfd57fe5b90602001906020020151600160a060020a0316600160a060020a0316815260200190815260200160002081905550611cd4611c57848b6002815181101515611c4157fe5b602090810290910101519063ffffffff6126be16565b600560008d6002815181101515611c6a57fe5b90602001906020020151600160a060020a0316600160a060020a0316815260200190815260200160002060008d6001815181101515611ca557fe5b6020908102909101810151600160a060020a03168252810191909152604001600020549063ffffffff6126ab16565b600560008c6002815181101515611ce757fe5b90602001906020020151600160a060020a0316600160a060020a0316815260200190815260200160002060008c6001815181101515611d2257fe5b90602001906020020151600160a060020a0316600160a060020a0316815260200190815260200160002081905550611daa83600560008d6002815181101515611d6757fe5b6020908102909101810151600160a060020a039081168352828201939093526040918201600090812060025490941681529290529020549063ffffffff6126ab16565b600560008c6002815181101515611dbd57fe5b6020908102909101810151600160a060020a039081168352828201939093526040918201600090812060025490941681529290528120919091558951611e5e91670de0b6b3a764000091610e6091611e4f918e91908110611e1a57fe5b90602001906020020151610e608e6002815181101515611e3657fe5b906020019060200201518f60018151811015156119b157fe5b8c60058151811015156119b157fe5b9150600c60008b6000815181101515611e7357fe5b6020908102909101810151600160a060020a031682528101919091526040016000205460ff1615611faa57600d54611eb290859063ffffffff61283116565b600e546101009004600160a060020a031660009081526005602052604081208c519091908d9082908110611ee257fe5b6020908102909101810151600160a060020a031682528101919091526040016000205410611faa5760009150611f56611f26600d548661283190919063ffffffff16565b600e546101009004600160a060020a031660009081526005602052604081208d519091908e9082908110611ac157fe5b600e546101009004600160a060020a031660009081526005602052604081208c519091908d9082908110611f8657fe5b6020908102909101810151600160a060020a03168252810191909152604001600020555b61201d611fcf83611fc38c6000815181101515611e1a57fe5b9063ffffffff6126be16565b600560008d6003815181101515611fe257fe5b90602001906020020151600160a060020a0316600160a060020a0316815260200190815260200160002060008d6000815181101515611ca557fe5b600560008c600381518110151561203057fe5b90602001906020020151600160a060020a0316600160a060020a0316815260200190815260200160002060008c600081518110151561206b57fe5b90602001906020020151600160a060020a0316600160a060020a03168152602001908152602001600020819055506121316120e38a60008151811015156120ae57fe5b90602001906020020151610e608c60028151811015156120ca57fe5b906020019060200201518d60018151811015156119b157fe5b600560008d60038151811015156120f657fe5b90602001906020020151600160a060020a0316600160a060020a0316815260200190815260200160002060008d6001815181101515611ac157fe5b600560008c600381518110151561214457fe5b90602001906020020151600160a060020a0316600160a060020a0316815260200190815260200160002060008c600181518110151561217f57fe5b90602001906020020151600160a060020a0316600160a060020a03168152602001908152602001600020819055506121c482600560008d6003815181101515611d6757fe5b600560008c60038151811015156121d757fe5b6020908102909101810151600160a060020a039081168352828201939093526040918201600090812060028054909516825290915220919091558951612248918b91811061222157fe5b6020908102909101810151600089815260069092526040909120549063ffffffff6126ab16565b60008781526006602052604090205560095460ff16156124a557600a5461227690859063ffffffff61283116565b600954600160a060020a036201000090910481166000908152600560209081526040808320600b549094168352929052205490915081116124a55781156123aa57600954600160a060020a036201000090910481166000908152600560209081526040808320600b54909416835292905220546122f9908263ffffffff6126be16565b60098054600160a060020a03620100009182900481166000908152600560208181526040808420600b5486168552825280842097909755945493909304909116815291529081208b51612355928492918e9082908110611ca557fe5b600954620100009004600160a060020a031660009081526005602052604081208c519091908d908290811061238657fe5b6020908102909101810151600160a060020a03168252810191909152604001600020555b82156124a557600954600160a060020a036201000090910481166000908152600560209081526040808320600b54909416835292905220546123f2908263ffffffff6126be16565b60098054600160a060020a03620100009182900481166000908152600560208181526040808420600b5486168552825280842097909755945493909304909116815291529081208b5161244f928492918e906001908110611ca557fe5b600954620100009004600160a060020a031660009081526005602052604081208c519091908d90600190811061248157fe5b6020908102909101810151600160a060020a03168252810191909152604001600020555b50505050505050505050565b600154600160a060020a031633146124c857600080fd5b6001805473ffffffffffffffffffffffffffffffffffffffff1916600160a060020a0392909216919091179055565b600954620100009004600160a060020a031681565b600154600160a060020a0316331461252357600080fd5b60098054600160a060020a03909216620100000275ffffffffffffffffffffffffffffffffffffffff000019909216919091179055565b600e546101009004600160a060020a031681565b600154600160a060020a0316331461258557600080fd5b600980549115156101000261ff0019909216919091179055565b600560209081526000928352604080842090915290825290205481565b600254600160a060020a031681565b600154600160a060020a031633146125e257600080fd5b600e805460ff1916911515919091179055565b600154600160a060020a0316331461260c57600080fd5b600e8054600160a060020a039092166101000274ffffffffffffffffffffffffffffffffffffffff0019909216919091179055565b60035481565b600154600160a060020a0316331461265e57600080fd5b600d55565b60086020526000908152604090205460ff1681565b60046020526000908152604090205481565b60066020526000908152604090205481565b600054600160a060020a031681565b818101828110156126b857fe5b92915050565b6000828211156126ca57fe5b50900390565b604080518082018252601c8082527f19457468657265756d205369676e6564204d6573736167653a0a33320000000060208084019182529351600094859385938b939092019182918083835b6020831061273b5780518252601f19909201916020918201910161271c565b51815160209384036101000a600019018019909216911617905292019384525060408051808503815293820190819052835193945092839250908401908083835b6020831061279b5780518252601f19909201916020918201910161277c565b51815160209384036101000a600019018019909216911617905260408051929094018290038220600080845283830180875282905260ff8e1684870152606084018d9052608084018c905294519097506001965060a080840196509194601f19820194509281900390910191865af115801561281b573d6000803e3d6000fd5b5050604051601f19015198975050505050505050565b6000821515612842575060006126b8565b5081810281838281151561285257fe5b04146126b857fe5b6000818381151561286757fe5b0493925050505600a165627a7a7230582070e27af4110b5bd44e0de2af4de17cf836f4f3fbcb2a2cc1f2a58d3cdcf6aa6f0029",
  "source": "pragma solidity ^0.4.22;\n\nimport \"openzeppelin-solidity/contracts/math/SafeMath.sol\";\nimport \"openzeppelin-solidity/contracts/token/ERC20/StandardToken.sol\";\n\ncontract Exchange {\n    using SafeMath for uint;\n\n    address public server;\n    address public owner;\n    address public feeCollector;\n    uint public timelock;\n    mapping (address => uint) public lastActivity;\n    mapping (address => mapping (address => uint)) public balances;\n    mapping (bytes32 => uint) public orderFills;\n    mapping (bytes32 => bool) public withdrawn;\n    mapping (bytes32 => bool) public traded;\n    bool public airdropStatus;\n    bool public manualWithdraws;\n    address public airdropTokenAddress;\n    uint public airdropRatePerEth;\n    address public airdropAccountAddress;\n\n    event Deposit(address token, address account, uint amount, uint balance);\n    event Withdraw(address token, address account, uint amount, uint balance);\n    event Trade(address tokenBuy, uint amountBuy, address tokenSell, uint amountSell, address get, address give);\n    event Order(address exchange, address maker, address giveToken, uint giveAmount, address takeToken, uint takeAmount, uint nonce, uint expiry, bytes payload, bytes32 orderHash);\n\n    modifier serverOnly {\n        require(msg.sender == server);\n        _;\n    }\n\n    modifier ownerOnly {\n        require(msg.sender == owner);\n        _;\n    }\n\n    constructor() public {\n        server = msg.sender;\n        feeCollector = msg.sender;\n        owner = msg.sender;\n        timelock = 100000;\n        airdropAccountAddress = msg.sender;\n        airdropStatus = false;\n        manualWithdraws = false;\n    }\n\n    function setAirdropStatus(bool _status) public ownerOnly {\n        airdropStatus = _status;\n    }\n\n    function setManualWithdraws(bool _status) public ownerOnly {\n        manualWithdraws = _status;\n    }\n\n    function setAirdropTokenAddress(address _address) public ownerOnly {\n        airdropTokenAddress = _address;\n    }\n\n    function setAirdropRatePerEth(uint _ratePerEth) public ownerOnly {\n        airdropRatePerEth = _ratePerEth;\n    } \n\n    function changeAirdropAccountAddress(address _address) public ownerOnly {\n        airdropAccountAddress = _address;\n    }\n\n    function changeFeeCollector(address _feeCollector) public ownerOnly {\n        feeCollector = _feeCollector;\n    }\n\n    function changeServer(address _server) public ownerOnly {\n        server = _server;\n    }\n\n    function changeOwner(address _owner) public ownerOnly {\n        owner = _owner;\n    }\n\n    function setTimelock(uint _duration) public ownerOnly {\n        require(_duration <= 1000000);\n        timelock = _duration;\n    }\n\n    mapping (address => bool) public useFeeToken;\n    uint public feeTokenRatePerEth;\n    bool public feeTokenStatus;\n    address public feeTokenAddress;\n\n    function setFeeTokenRatePerEth(uint _rate) public ownerOnly {\n        feeTokenRatePerEth = _rate;\n    }\n\n    function setFeeTokenStatus(bool _status) public ownerOnly {\n        feeTokenStatus = _status;\n    }\n\n    function setFeeTokenAddress(address _address) public ownerOnly {\n        feeTokenAddress = _address;\n    }\n\n    function deposit(address _token, uint _amount) public payable {\n        lastActivity[msg.sender] = block.number;\n        if (_token == 0) {\n            require(msg.value == _amount);\n            balances[0][msg.sender] = balances[0][msg.sender].add(msg.value);\n        } else {\n            require(msg.value == 0);\n            balances[_token][msg.sender] = balances[_token][msg.sender].add(_amount);\n            require(StandardToken(_token).transferFrom(msg.sender, this, _amount));\n        }\n        emit Deposit(_token, msg.sender, _amount, balances[_token][msg.sender]);\n    }\n\n    function withdraw(address _token, uint _amount, address _account, uint _nonce, uint8 v, bytes32 r, bytes32 s, uint _fee) public serverOnly {\n        lastActivity[_account] = block.number;\n        bytes32 hash = keccak256(abi.encodePacked(this, _token, _amount, _account, _nonce));\n        require(!withdrawn[hash]);\n        withdrawn[hash] = true;\n        require(recover(hash, v, r, s) == _account);\n        require(balances[_token][_account] >= _amount);\n        balances[_token][_account] = balances[_token][_account].sub(_amount);\n        if (_fee > 50 finney) _fee = 50 finney;\n        _fee = (_fee.mul(_amount)).div(1 ether);\n        balances[_token][feeCollector] = balances[_token][feeCollector].add(_fee);\n        _amount = _amount.sub(_fee);\n        if (_token == 0) {\n            require(_account.send(_amount));\n        } else {\n            require(StandardToken(_token).transfer(_account, _amount));\n        }\n        emit Withdraw(_token, _account, _amount, balances[_token][_account]);\n    }\n\n    function withdrawEmergency(address _token, uint _amount) public {\n        require(manualWithdraws);\n        require(block.number.sub(lastActivity[msg.sender]) > timelock);\n        lastActivity[msg.sender] = block.number;\n        require(balances[_token][msg.sender] >= _amount);\n        balances[_token][msg.sender] = balances[_token][msg.sender].sub(_amount);\n        if (_token == 0) {\n            require(msg.sender.send(_amount));\n        } else {\n            require(StandardToken(_token).transfer(msg.sender, _amount));\n        }\n        emit Withdraw(_token, msg.sender, _amount, balances[_token][msg.sender]);\n    }\n\n    function trade(address[] _addresses, uint[] _uints, uint8[] v, bytes32[] rs) public serverOnly {\n        /*\n            _addresses[0] == maker\n            _addresses[1] == taker\n            _addresses[2] == giveToken\n            _addresses[3] == takeToken\n            _uints[0] == giveAmount\n            _uints[1] == takeAmount\n            _uints[2] == fillAmount\n            _uints[3] == makerNonce\n            _uints[4] == takerNonce\n            _uints[5] == makerFee\n            _uints[6] == takerFee\n            _uints[7] == expiry\n            v[0] == makerV\n            v[1] == takerV\n            rs[0]..[1] == makerR, makerS\n            rs[2]..[3] == takerR, takerS\n        */\n        require(cancelledOrders[_addresses[0]] < _uints[3]);\n        lastActivity[_addresses[0]] = block.number;\n        lastActivity[_addresses[1]] = block.number;\n        bytes32 orderHash = keccak256(abi.encodePacked(this, _addresses[0], _addresses[2], _uints[0], _addresses[3], _uints[1], _uints[3], _uints[7]));\n        require(!cancelled[orderHash]);\n        require(recover(orderHash, v[0], rs[0], rs[1]) == _addresses[0]);\n        bytes32 tradeHash = keccak256(abi.encodePacked(this, orderHash, _addresses[1], _uints[2], _uints[4]));\n        require(recover(tradeHash, v[1], rs[2], rs[3]) == _addresses[1]);\n        require(!traded[tradeHash]);\n        traded[tradeHash] = true;\n        if (_uints[5] > 5 finney) _uints[5] = 5 finney;\n        if (_uints[6] > 5 finney) _uints[6] = 5 finney;\n        require(balances[_addresses[2]][_addresses[0]] >= _uints[2]);\n        require(balances[_addresses[3]][_addresses[1]] >= (_uints[1].div(_uints[0])).mul(_uints[2]));\n        require(orderFills[orderHash].add(_uints[2]) <= _uints[0]);\n        uint totalTradedAmount = _uints[0];\n        if (_addresses[3] == 0) totalTradedAmount = _uints[1];\n        uint takerFee = (_uints[6].mul(_uints[2])).div(1 ether);\n        if (useFeeToken[_addresses[1]]) {\n            if (balances[feeTokenAddress][_addresses[1]] >= totalTradedAmount.mul(feeTokenRatePerEth)) {\n                takerFee = 0;\n                balances[feeTokenAddress][_addresses[1]] = balances[feeTokenAddress][_addresses[1]].sub(totalTradedAmount.mul(feeTokenRatePerEth));\n            }\n        }\n        balances[_addresses[2]][_addresses[0]] = balances[_addresses[2]][_addresses[0]].sub(_uints[2]);\n        balances[_addresses[2]][_addresses[1]] = balances[_addresses[2]][_addresses[1]].add((_uints[2]).sub(takerFee));\n        balances[_addresses[2]][feeCollector] = balances[_addresses[2]][feeCollector].add(takerFee);\n        uint makerFee = (_uints[5].mul((_uints[1].mul(_uints[2])).div(_uints[0]))).div(1 ether);\n        if (useFeeToken[_addresses[0]]) {\n            if (balances[feeTokenAddress][_addresses[0]] >= totalTradedAmount.mul(feeTokenRatePerEth)) {\n                makerFee = 0;\n                balances[feeTokenAddress][_addresses[0]] = balances[feeTokenAddress][_addresses[0]].sub(totalTradedAmount.mul(feeTokenRatePerEth));\n            }\n        }\n        balances[_addresses[3]][_addresses[0]] = balances[_addresses[3]][_addresses[0]].add(((_uints[1].mul(_uints[2])).div(_uints[0])).sub(makerFee));\n        balances[_addresses[3]][_addresses[1]] = balances[_addresses[3]][_addresses[1]].sub((_uints[1].mul(_uints[2])).div(_uints[0]));\n        balances[_addresses[3]][feeCollector] = balances[_addresses[3]][feeCollector].add(makerFee);\n        orderFills[orderHash] = orderFills[orderHash].add(_uints[2]);\n        if (airdropStatus) {\n            uint airdropAmount = totalTradedAmount.mul(airdropRatePerEth);\n            if (balances[airdropTokenAddress][airdropAccountAddress] >= airdropAmount) {\n                if (makerFee != 0) {\n                    balances[airdropTokenAddress][airdropAccountAddress] = balances[airdropTokenAddress][airdropAccountAddress].sub(airdropAmount);\n                    balances[airdropTokenAddress][_addresses[0]] = balances[airdropTokenAddress][_addresses[0]].add(airdropAmount);\n                }\n                if (takerFee != 0) {\n                    balances[airdropTokenAddress][airdropAccountAddress] = balances[airdropTokenAddress][airdropAccountAddress].sub(airdropAmount);\n                    balances[airdropTokenAddress][_addresses[1]] = balances[airdropTokenAddress][_addresses[1]].add(airdropAmount);\n                }\n            }\n        }\n    }\n\n    function recover(bytes32 _hash, uint8 v, bytes32 r, bytes32 s) private pure returns (address) {\n        bytes memory prefix = \"\\x19Ethereum Signed Message:\\n32\";\n        bytes32 hash = keccak256(abi.encodePacked(prefix, _hash));\n        return ecrecover(hash, v, r, s);\n    }\n  \n    mapping (address => uint256) public cancelledOrders;\n    mapping (bytes32 => bool) public cancelled;\n    \n    function bulkCancelOrders(address _account, uint256 _nonce) public serverOnly {\n        require(_nonce > cancelledOrders[_account]);\n        cancelledOrders[_account] = _nonce;\n    }\n\n    function cancelOrder (bytes32 _hash) public serverOnly {\n        cancelled[_hash] = true;\n    }\n\n    function() external {\n        throw;\n    }\n}\n\n",
  "sourcePath": "/Users/hieu/dev/ninjatrade-contracts/contracts/Exchange.sol",
  "compiler": {
    "name": "solc",
    "version": "0.4.24+commit.e67f0147.Emscripten.clang"
  },
  "schemaVersion": "2.0.1",
  "updatedAt": "2019-04-16T11:51:19.771Z"
}