{
  "contractName": "Exchange",
  "abi": [
    {
      "constant": true,
      "inputs": [
        {
          "name": "",
          "type": "address"
        }
      ],
      "name": "useFeeToken",
      "outputs": [
        {
          "name": "",
          "type": "bool"
        }
      ],
      "payable": false,
      "stateMutability": "view",
      "type": "function"
    },
    {
      "constant": true,
      "inputs": [],
      "name": "airdropAccountAddress",
      "outputs": [
        {
          "name": "",
          "type": "address"
        }
      ],
      "payable": false,
      "stateMutability": "view",
      "type": "function"
    },
    {
      "constant": true,
      "inputs": [],
      "name": "feeTokenStatus",
      "outputs": [
        {
          "name": "",
          "type": "bool"
        }
      ],
      "payable": false,
      "stateMutability": "view",
      "type": "function"
    },
    {
      "constant": true,
      "inputs": [],
      "name": "feeTokenRatePerEth",
      "outputs": [
        {
          "name": "",
          "type": "uint256"
        }
      ],
      "payable": false,
      "stateMutability": "view",
      "type": "function"
    },
    {
      "constant": true,
      "inputs": [
        {
          "name": "",
          "type": "bytes32"
        }
      ],
      "name": "cancelled",
      "outputs": [
        {
          "name": "",
          "type": "bool"
        }
      ],
      "payable": false,
      "stateMutability": "view",
      "type": "function"
    },
    {
      "constant": true,
      "inputs": [],
      "name": "airdropStatus",
      "outputs": [
        {
          "name": "",
          "type": "bool"
        }
      ],
      "payable": false,
      "stateMutability": "view",
      "type": "function"
    },
    {
      "constant": true,
      "inputs": [
        {
          "name": "",
          "type": "address"
        }
      ],
      "name": "cancelledOrders",
      "outputs": [
        {
          "name": "",
          "type": "uint256"
        }
      ],
      "payable": false,
      "stateMutability": "view",
      "type": "function"
    },
    {
      "constant": true,
      "inputs": [],
      "name": "airdropRatePerEth",
      "outputs": [
        {
          "name": "",
          "type": "uint256"
        }
      ],
      "payable": false,
      "stateMutability": "view",
      "type": "function"
    },
    {
      "constant": true,
      "inputs": [],
      "name": "owner",
      "outputs": [
        {
          "name": "",
          "type": "address"
        }
      ],
      "payable": false,
      "stateMutability": "view",
      "type": "function"
    },
    {
      "constant": true,
      "inputs": [],
      "name": "manualWithdraws",
      "outputs": [
        {
          "name": "",
          "type": "bool"
        }
      ],
      "payable": false,
      "stateMutability": "view",
      "type": "function"
    },
    {
      "constant": true,
      "inputs": [],
      "name": "airdropTokenAddress",
      "outputs": [
        {
          "name": "",
          "type": "address"
        }
      ],
      "payable": false,
      "stateMutability": "view",
      "type": "function"
    },
    {
      "constant": true,
      "inputs": [],
      "name": "feeTokenAddress",
      "outputs": [
        {
          "name": "",
          "type": "address"
        }
      ],
      "payable": false,
      "stateMutability": "view",
      "type": "function"
    },
    {
      "constant": true,
      "inputs": [
        {
          "name": "",
          "type": "address"
        },
        {
          "name": "",
          "type": "address"
        }
      ],
      "name": "balances",
      "outputs": [
        {
          "name": "",
          "type": "uint256"
        }
      ],
      "payable": false,
      "stateMutability": "view",
      "type": "function"
    },
    {
      "constant": true,
      "inputs": [],
      "name": "feeCollector",
      "outputs": [
        {
          "name": "",
          "type": "address"
        }
      ],
      "payable": false,
      "stateMutability": "view",
      "type": "function"
    },
    {
      "constant": true,
      "inputs": [],
      "name": "timelock",
      "outputs": [
        {
          "name": "",
          "type": "uint256"
        }
      ],
      "payable": false,
      "stateMutability": "view",
      "type": "function"
    },
    {
      "constant": true,
      "inputs": [
        {
          "name": "",
          "type": "bytes32"
        }
      ],
      "name": "traded",
      "outputs": [
        {
          "name": "",
          "type": "bool"
        }
      ],
      "payable": false,
      "stateMutability": "view",
      "type": "function"
    },
    {
      "constant": true,
      "inputs": [
        {
          "name": "",
          "type": "address"
        }
      ],
      "name": "lastActivity",
      "outputs": [
        {
          "name": "",
          "type": "uint256"
        }
      ],
      "payable": false,
      "stateMutability": "view",
      "type": "function"
    },
    {
      "constant": true,
      "inputs": [
        {
          "name": "",
          "type": "bytes32"
        }
      ],
      "name": "orderFills",
      "outputs": [
        {
          "name": "",
          "type": "uint256"
        }
      ],
      "payable": false,
      "stateMutability": "view",
      "type": "function"
    },
    {
      "constant": true,
      "inputs": [],
      "name": "server",
      "outputs": [
        {
          "name": "",
          "type": "address"
        }
      ],
      "payable": false,
      "stateMutability": "view",
      "type": "function"
    },
    {
      "inputs": [],
      "payable": false,
      "stateMutability": "nonpayable",
      "type": "constructor"
    },
    {
      "payable": false,
      "stateMutability": "nonpayable",
      "type": "fallback"
    },
    {
      "anonymous": false,
      "inputs": [
        {
          "indexed": false,
          "name": "token",
          "type": "address"
        },
        {
          "indexed": false,
          "name": "account",
          "type": "address"
        },
        {
          "indexed": false,
          "name": "amount",
          "type": "uint256"
        },
        {
          "indexed": false,
          "name": "balance",
          "type": "uint256"
        }
      ],
      "name": "Deposit",
      "type": "event"
    },
    {
      "anonymous": false,
      "inputs": [
        {
          "indexed": false,
          "name": "token",
          "type": "address"
        },
        {
          "indexed": false,
          "name": "account",
          "type": "address"
        },
        {
          "indexed": false,
          "name": "amount",
          "type": "uint256"
        },
        {
          "indexed": false,
          "name": "balance",
          "type": "uint256"
        }
      ],
      "name": "Withdraw",
      "type": "event"
    },
    {
      "anonymous": false,
      "inputs": [
        {
          "indexed": false,
          "name": "tokenBuy",
          "type": "address"
        },
        {
          "indexed": false,
          "name": "amountBuy",
          "type": "uint256"
        },
        {
          "indexed": false,
          "name": "tokenSell",
          "type": "address"
        },
        {
          "indexed": false,
          "name": "amountSell",
          "type": "uint256"
        },
        {
          "indexed": false,
          "name": "get",
          "type": "address"
        },
        {
          "indexed": false,
          "name": "give",
          "type": "address"
        }
      ],
      "name": "Trade",
      "type": "event"
    },
    {
      "anonymous": false,
      "inputs": [
        {
          "indexed": false,
          "name": "exchange",
          "type": "address"
        },
        {
          "indexed": false,
          "name": "maker",
          "type": "address"
        },
        {
          "indexed": false,
          "name": "giveToken",
          "type": "address"
        },
        {
          "indexed": false,
          "name": "giveAmount",
          "type": "uint256"
        },
        {
          "indexed": false,
          "name": "takeToken",
          "type": "address"
        },
        {
          "indexed": false,
          "name": "takeAmount",
          "type": "uint256"
        },
        {
          "indexed": false,
          "name": "nonce",
          "type": "uint256"
        },
        {
          "indexed": false,
          "name": "expiry",
          "type": "uint256"
        },
        {
          "indexed": false,
          "name": "payload",
          "type": "bytes"
        },
        {
          "indexed": false,
          "name": "orderHash",
          "type": "bytes32"
        }
      ],
      "name": "Order",
      "type": "event"
    },
    {
      "constant": false,
      "inputs": [
        {
          "name": "_status",
          "type": "bool"
        }
      ],
      "name": "setAirdropStatus",
      "outputs": [],
      "payable": false,
      "stateMutability": "nonpayable",
      "type": "function"
    },
    {
      "constant": false,
      "inputs": [
        {
          "name": "_status",
          "type": "bool"
        }
      ],
      "name": "setManualWithdraws",
      "outputs": [],
      "payable": false,
      "stateMutability": "nonpayable",
      "type": "function"
    },
    {
      "constant": false,
      "inputs": [
        {
          "name": "_address",
          "type": "address"
        }
      ],
      "name": "setAirdropTokenAddress",
      "outputs": [],
      "payable": false,
      "stateMutability": "nonpayable",
      "type": "function"
    },
    {
      "constant": false,
      "inputs": [
        {
          "name": "_ratePerEth",
          "type": "uint256"
        }
      ],
      "name": "setAirdropRatePerEth",
      "outputs": [],
      "payable": false,
      "stateMutability": "nonpayable",
      "type": "function"
    },
    {
      "constant": false,
      "inputs": [
        {
          "name": "_address",
          "type": "address"
        }
      ],
      "name": "changeAirdropAccountAddress",
      "outputs": [],
      "payable": false,
      "stateMutability": "nonpayable",
      "type": "function"
    },
    {
      "constant": false,
      "inputs": [
        {
          "name": "_feeCollector",
          "type": "address"
        }
      ],
      "name": "changeFeeCollector",
      "outputs": [],
      "payable": false,
      "stateMutability": "nonpayable",
      "type": "function"
    },
    {
      "constant": false,
      "inputs": [
        {
          "name": "_server",
          "type": "address"
        }
      ],
      "name": "changeServer",
      "outputs": [],
      "payable": false,
      "stateMutability": "nonpayable",
      "type": "function"
    },
    {
      "constant": false,
      "inputs": [
        {
          "name": "_owner",
          "type": "address"
        }
      ],
      "name": "changeOwner",
      "outputs": [],
      "payable": false,
      "stateMutability": "nonpayable",
      "type": "function"
    },
    {
      "constant": false,
      "inputs": [
        {
          "name": "_duration",
          "type": "uint256"
        }
      ],
      "name": "setTimelock",
      "outputs": [],
      "payable": false,
      "stateMutability": "nonpayable",
      "type": "function"
    },
    {
      "constant": false,
      "inputs": [
        {
          "name": "_rate",
          "type": "uint256"
        }
      ],
      "name": "setFeeTokenRatePerEth",
      "outputs": [],
      "payable": false,
      "stateMutability": "nonpayable",
      "type": "function"
    },
    {
      "constant": false,
      "inputs": [
        {
          "name": "_status",
          "type": "bool"
        }
      ],
      "name": "setFeeTokenStatus",
      "outputs": [],
      "payable": false,
      "stateMutability": "nonpayable",
      "type": "function"
    },
    {
      "constant": false,
      "inputs": [
        {
          "name": "_address",
          "type": "address"
        }
      ],
      "name": "setFeeTokenAddress",
      "outputs": [],
      "payable": false,
      "stateMutability": "nonpayable",
      "type": "function"
    },
    {
      "constant": false,
      "inputs": [
        {
          "name": "_token",
          "type": "address"
        },
        {
          "name": "_amount",
          "type": "uint256"
        }
      ],
      "name": "deposit",
      "outputs": [],
      "payable": true,
      "stateMutability": "payable",
      "type": "function"
    },
    {
      "constant": false,
      "inputs": [
        {
          "name": "_token",
          "type": "address"
        },
        {
          "name": "_amount",
          "type": "uint256"
        },
        {
          "name": "_account",
          "type": "address"
        },
        {
          "name": "_fee",
          "type": "uint256"
        }
      ],
      "name": "withdraw",
      "outputs": [],
      "payable": false,
      "stateMutability": "nonpayable",
      "type": "function"
    },
    {
      "constant": false,
      "inputs": [
        {
          "name": "_token",
          "type": "address"
        },
        {
          "name": "_amount",
          "type": "uint256"
        }
      ],
      "name": "withdrawEmergency",
      "outputs": [],
      "payable": false,
      "stateMutability": "nonpayable",
      "type": "function"
    },
    {
      "constant": false,
      "inputs": [
        {
          "name": "_addresses",
          "type": "address[]"
        },
        {
          "name": "_uints",
          "type": "uint256[]"
        },
        {
          "name": "v",
          "type": "uint8[]"
        },
        {
          "name": "rs",
          "type": "bytes32[]"
        }
      ],
      "name": "trade",
      "outputs": [],
      "payable": false,
      "stateMutability": "nonpayable",
      "type": "function"
    },
    {
      "constant": false,
      "inputs": [
        {
          "name": "_account",
          "type": "address"
        },
        {
          "name": "_nonce",
          "type": "uint256"
        }
      ],
      "name": "bulkCancelOrders",
      "outputs": [],
      "payable": false,
      "stateMutability": "nonpayable",
      "type": "function"
    },
    {
      "constant": false,
      "inputs": [
        {
          "name": "_hash",
          "type": "bytes32"
        }
      ],
      "name": "cancelOrder",
      "outputs": [],
      "payable": false,
      "stateMutability": "nonpayable",
      "type": "function"
    }
  ],
  "bytecode": "0x608060405234801561001057600080fd5b506000805433600160a060020a0319918216811783556002805483168217905560018054831682179055620186a0600355600a80549092161790556008805461ffff1916905561273590819061006690396000f3006080604052600436106101cc5763ffffffff7c010000000000000000000000000000000000000000000000000000000060003504166308ed023681146101de57806308fb8a88146101fa5780630aa57f051461021b5780630dee31981461025057806317f4b8ee146102815780631e891c0a14610296578063242f7e1a146102ae5780632ac12622146102d55780632cf1a5fb146102ed57806347e7ef24146103025780634b2084e3146103195780635aec06c1146103475780636c3d7e1d146103685780636cb2456e1461038c5780636ef0222c146103ad5780637489ec23146103c25780638cef41b6146103da5780638da5cb5b146103f25780638f98f704146104075780639245290d1461042b578063927e5d381461044c57806397128d6e14610461578063a6f9dae114610561578063b73e0e8b14610582578063b864ba7d14610597578063b8df0dea146105b8578063b9f3484d146105cd578063c23f001f146105e7578063c415b95c1461060e578063c91b10a414610623578063cf351c1d1461063d578063d33219b41461065e578063d5238df514610673578063d58133231461068b578063f07e96b3146106a3578063f7213db6146106c4578063fd922a42146106dc575b3480156101d857600080fd5b50600080fd5b3480156101ea57600080fd5b506101f860043515156106f1565b005b34801561020657600080fd5b506101f8600160a060020a036004351661071b565b34801561022757600080fd5b5061023c600160a060020a0360043516610761565b604080519115158252519081900360200190f35b34801561025c57600080fd5b50610265610776565b60408051600160a060020a039092168252519081900360200190f35b34801561028d57600080fd5b5061023c610785565b3480156102a257600080fd5b506101f860043561078e565b3480156102ba57600080fd5b506102c36107ba565b60408051918252519081900360200190f35b3480156102e157600080fd5b5061023c6004356107c0565b3480156102f957600080fd5b5061023c6107d5565b6101f8600160a060020a03600435166024356107de565b34801561032557600080fd5b506101f8600160a060020a0360043581169060243590604435166064356109ec565b34801561035357600080fd5b506102c3600160a060020a0360043516610cc5565b34801561037457600080fd5b506101f8600160a060020a0360043516602435610cd7565b34801561039857600080fd5b506101f8600160a060020a0360043516610ef0565b3480156103b957600080fd5b506102c3610f36565b3480156103ce57600080fd5b506101f8600435610f3c565b3480156103e657600080fd5b506101f8600435610f6e565b3480156103fe57600080fd5b50610265610f8a565b34801561041357600080fd5b506101f8600160a060020a0360043516602435610f99565b34801561043757600080fd5b506101f8600160a060020a0360043516610ff0565b34801561045857600080fd5b5061023c611036565b34801561046d57600080fd5b50604080516020600480358082013583810280860185019096528085526101f895369593946024949385019291829185019084908082843750506040805187358901803560208181028481018201909552818452989b9a998901989297509082019550935083925085019084908082843750506040805187358901803560208181028481018201909552818452989b9a998901989297509082019550935083925085019084908082843750506040805187358901803560208181028481018201909552818452989b9a9989019892975090820195509350839250850190849080828437509497506110449650505050505050565b34801561056d57600080fd5b506101f8600160a060020a036004351661234b565b34801561058e57600080fd5b50610265612391565b3480156105a357600080fd5b506101f8600160a060020a03600435166123a6565b3480156105c457600080fd5b506102656123f4565b3480156105d957600080fd5b506101f86004351515612408565b3480156105f357600080fd5b506102c3600160a060020a0360043581169060243516612439565b34801561061a57600080fd5b50610265612456565b34801561062f57600080fd5b506101f86004351515612465565b34801561064957600080fd5b506101f8600160a060020a036004351661248f565b34801561066a57600080fd5b506102c36124db565b34801561067f57600080fd5b506101f86004356124e1565b34801561069757600080fd5b5061023c6004356124fd565b3480156106af57600080fd5b506102c3600160a060020a0360043516612512565b3480156106d057600080fd5b506102c3600435612524565b3480156106e857600080fd5b50610265612536565b600154600160a060020a0316331461070857600080fd5b6008805460ff1916911515919091179055565b600154600160a060020a0316331461073257600080fd5b6000805473ffffffffffffffffffffffffffffffffffffffff1916600160a060020a0392909216919091179055565b600b6020526000908152604090205460ff1681565b600a54600160a060020a031681565b600d5460ff1681565b600154600160a060020a031633146107a557600080fd5b620f42408111156107b557600080fd5b600355565b600c5481565b600f6020526000908152604090205460ff1681565b60085460ff1681565b336000908152600460205260409020439055600160a060020a038216151561087f5734811461080c57600080fd5b3360009081527f05b8ccbb9d4d8fb16ea74ce3c29a41f1b461fbdaff4714a0d9a8eb05499746bc602052604090205461084b903463ffffffff61254516565b3360009081527f05b8ccbb9d4d8fb16ea74ce3c29a41f1b461fbdaff4714a0d9a8eb05499746bc602052604090205561097f565b341561088a57600080fd5b600160a060020a03821660009081526005602090815260408083203384529091529020546108be908263ffffffff61254516565b600160a060020a0383166000818152600560209081526040808320338085529083528184209590955580517f23b872dd0000000000000000000000000000000000000000000000000000000081526004810195909552306024860152604485018690525192936323b872dd9360648083019491928390030190829087803b15801561094857600080fd5b505af115801561095c573d6000803e3d6000fd5b505050506040513d602081101561097257600080fd5b5051151561097f57600080fd5b600160a060020a03821660008181526005602090815260408083203380855290835292819020548151948552918401929092528282018490526060830152517fdcbc1c05240f31ff3ad067ef1ee35ce4997762752e3a095284754544f4c709d79181900360800190a15050565b600054600160a060020a03163314610a0357600080fd5b600160a060020a038083166000818152600460209081526040808320439055938816825260058152838220928252919091522054831115610a4357600080fd5b600160a060020a03808516600090815260056020908152604080832093861683529290522054610a79908463ffffffff61255816565b600160a060020a0380861660009081526005602090815260408083209387168352929052205566b1a2bc2ec50000811115610ab8575066b1a2bc2ec500005b610ae0670de0b6b3a7640000610ad4838663ffffffff61256a16565b9063ffffffff61259316565b600160a060020a03808616600090815260056020908152604080832060025490941683529290522054909150610b1c908263ffffffff61254516565b600160a060020a03808616600090815260056020908152604080832060025490941683529290522055610b55838263ffffffff61255816565b9250600160a060020a0384161515610b9c57604051600160a060020a0383169084156108fc029085906000818181858888f193505050501515610b9757600080fd5b610c4f565b83600160a060020a031663a9059cbb83856040518363ffffffff167c01000000000000000000000000000000000000000000000000000000000281526004018083600160a060020a0316600160a060020a0316815260200182815260200192505050602060405180830381600087803b158015610c1857600080fd5b505af1158015610c2c573d6000803e3d6000fd5b505050506040513d6020811015610c4257600080fd5b50511515610c4f57600080fd5b600160a060020a0380851660008181526005602090815260408083209487168084529482529182902054825193845290830193909352818101869052606082019290925290517ff341246adaac6f497bc2a656f546ab9e182111d630394f0c57c710a59a2cb5679181900360800190a150505050565b600e6020526000908152604090205481565b600854610100900460ff161515610ced57600080fd5b60035433600090815260046020526040902054610d1190439063ffffffff61255816565b11610d1b57600080fd5b336000818152600460209081526040808320439055600160a060020a0386168352600582528083209383529290522054811115610d5757600080fd5b600160a060020a0382166000908152600560209081526040808320338452909152902054610d8b908263ffffffff61255816565b600160a060020a03831660008181526005602090815260408083203384529091529020919091551515610de457604051339082156108fc029083906000818181858888f193505050501515610ddf57600080fd5b610e83565b604080517fa9059cbb000000000000000000000000000000000000000000000000000000008152336004820152602481018390529051600160a060020a0384169163a9059cbb9160448083019260209291908290030181600087803b158015610e4c57600080fd5b505af1158015610e60573d6000803e3d6000fd5b505050506040513d6020811015610e7657600080fd5b50511515610e8357600080fd5b600160a060020a03821660008181526005602090815260408083203380855290835292819020548151948552918401929092528282018490526060830152517ff341246adaac6f497bc2a656f546ab9e182111d630394f0c57c710a59a2cb5679181900360800190a15050565b600154600160a060020a03163314610f0757600080fd5b600a805473ffffffffffffffffffffffffffffffffffffffff1916600160a060020a0392909216919091179055565b60095481565b600054600160a060020a03163314610f5357600080fd5b6000908152600f60205260409020805460ff19166001179055565b600154600160a060020a03163314610f8557600080fd5b600955565b600154600160a060020a031681565b600054600160a060020a03163314610fb057600080fd5b600160a060020a0382166000908152600e60205260409020548111610fd457600080fd5b600160a060020a039091166000908152600e6020526040902055565b600154600160a060020a0316331461100757600080fd5b6002805473ffffffffffffffffffffffffffffffffffffffff1916600160a060020a0392909216919091179055565b600854610100900460ff1681565b6000805481908190819081908190600160a060020a0316331461106657600080fd5b88600381518110151561107557fe5b90602001906020020151600e60008c600081518110151561109257fe5b6020908102909101810151600160a060020a0316825281019190915260400160002054106110bf57600080fd5b43600460008c60008151811015156110d357fe5b90602001906020020151600160a060020a0316600160a060020a031681526020019081526020016000208190555043600460008c600181518110151561111557fe5b90602001906020020151600160a060020a0316600160a060020a0316815260200190815260200160002081905550308a600081518110151561115357fe5b906020019060200201518b600281518110151561116c57fe5b906020019060200201518b600081518110151561118557fe5b906020019060200201518d600381518110151561119e57fe5b906020019060200201518d60018151811015156111b757fe5b906020019060200201518e60038151811015156111d057fe5b906020019060200201518f60078151811015156111e957fe5b6020908102909101810151604080516c01000000000000000000000000600160a060020a039b8c16810282860152998b168a026034820152978a1689026048890152605c88019690965293909716909502607c850152609084015260b083019390935260d0808301939093528051808303909301835260f09091019081905281519192909182918401908083835b602083106112965780518252601f199092019160209182019101611277565b51815160209384036101000a600019018019909216911617905260408051929094018290039091206000818152600f909252929020549199505060ff161591506112e1905057600080fd5b8960008151811015156112f057fe5b90602001906020020151600160a060020a0316611357878a600081518110151561131657fe5b906020019060200201518a600081518110151561132f57fe5b906020019060200201518b600181518110151561134857fe5b906020019060200201516125a8565b600160a060020a03161461136a57600080fd5b30868b600181518110151561137b57fe5b906020019060200201518b600281518110151561139457fe5b906020019060200201518c60048151811015156113ad57fe5b906020019060200201516040516020018086600160a060020a0316600160a060020a03166c01000000000000000000000000028152601401856000191660001916815260200184600160a060020a0316600160a060020a03166c01000000000000000000000000028152601401838152602001828152602001955050505050506040516020818303038152906040526040518082805190602001908083835b6020831061146b5780518252601f19909201916020918201910161144c565b6001836020036101000a038019825116818451168082178552505050505050905001915050604051809103902094508960018151811015156114a957fe5b90602001906020020151600160a060020a0316611501868a60018151811015156114cf57fe5b906020019060200201518a60028151811015156114e857fe5b906020019060200201518b600381518110151561134857fe5b600160a060020a03161461151457600080fd5b60008581526007602052604090205460ff161561153057600080fd5b6000858152600760205260409020805460ff1916600117905588516611c37937e08000908a90600590811061156157fe5b906020019060200201511115611593576611c37937e0800089600581518110151561158857fe5b602090810290910101525b6611c37937e080008960068151811015156115aa57fe5b9060200190602002015111156115dc576611c37937e080008960068151811015156115d157fe5b602090810290910101525b8860028151811015156115eb57fe5b90602001906020020151600560008c600281518110151561160857fe5b90602001906020020151600160a060020a0316600160a060020a0316815260200190815260200160002060008c600081518110151561164357fe5b6020908102909101810151600160a060020a0316825281019190915260400160002054101561167157600080fd5b6116da89600281518110151561168357fe5b906020019060200201516116ce8b600081518110151561169f57fe5b906020019060200201518c60018151811015156116b857fe5b602090810290910101519063ffffffff61259316565b9063ffffffff61256a16565b600560008c60038151811015156116ed57fe5b90602001906020020151600160a060020a0316600160a060020a0316815260200190815260200160002060008c600181518110151561172857fe5b6020908102909101810151600160a060020a0316825281019190915260400160002054101561175657600080fd5b88600081518110151561176557fe5b906020019060200201516117a88a600281518110151561178157fe5b602090810290910181015160008a815260069092526040909120549063ffffffff61254516565b11156117b357600080fd5b8860008151811015156117c257fe5b9060200190602002015193508960038151811015156117dd57fe5b90602001906020020151600160a060020a0316600014156118145788600181518110151561180757fe5b9060200190602002015193505b611861670de0b6b3a7640000610ad48b600281518110151561183257fe5b906020019060200201518c600681518110151561184b57fe5b602090810290910101519063ffffffff61256a16565b9250600b60008b600181518110151561187657fe5b6020908102909101810151600160a060020a031682528101919091526040016000205460ff16156119df57600c546118b590859063ffffffff61256a16565b600d546101009004600160a060020a031660009081526005602052604081208c519091908d9060019081106118e657fe5b6020908102909101810151600160a060020a0316825281019190915260400160002054106119df576000925061198a61192a600c548661256a90919063ffffffff16565b600d546101009004600160a060020a031660009081526005602052604081208d519091908e90600190811061195b57fe5b6020908102909101810151600160a060020a03168252810191909152604001600020549063ffffffff61255816565b600d546101009004600160a060020a031660009081526005602052604081208c519091908d9060019081106119bb57fe5b6020908102909101810151600160a060020a03168252810191909152604001600020555b611a498960028151811015156119f157fe5b90602001906020020151600560008d6002815181101515611a0e57fe5b90602001906020020151600160a060020a0316600160a060020a0316815260200190815260200160002060008d600081518110151561195b57fe5b600560008c6002815181101515611a5c57fe5b90602001906020020151600160a060020a0316600160a060020a0316815260200190815260200160002060008c6000815181101515611a9757fe5b90602001906020020151600160a060020a0316600160a060020a0316815260200190815260200160002081905550611b6e611af1848b6002815181101515611adb57fe5b602090810290910101519063ffffffff61255816565b600560008d6002815181101515611b0457fe5b90602001906020020151600160a060020a0316600160a060020a0316815260200190815260200160002060008d6001815181101515611b3f57fe5b6020908102909101810151600160a060020a03168252810191909152604001600020549063ffffffff61254516565b600560008c6002815181101515611b8157fe5b90602001906020020151600160a060020a0316600160a060020a0316815260200190815260200160002060008c6001815181101515611bbc57fe5b90602001906020020151600160a060020a0316600160a060020a0316815260200190815260200160002081905550611c4483600560008d6002815181101515611c0157fe5b6020908102909101810151600160a060020a039081168352828201939093526040918201600090812060025490941681529290529020549063ffffffff61254516565b600560008c6002815181101515611c5757fe5b6020908102909101810151600160a060020a039081168352828201939093526040918201600090812060025490941681529290528120919091558951611cf891670de0b6b3a764000091610ad491611ce9918e91908110611cb457fe5b90602001906020020151610ad48e6002815181101515611cd057fe5b906020019060200201518f600181518110151561184b57fe5b8c600581518110151561184b57fe5b9150600b60008b6000815181101515611d0d57fe5b6020908102909101810151600160a060020a031682528101919091526040016000205460ff1615611e4457600c54611d4c90859063ffffffff61256a16565b600d546101009004600160a060020a031660009081526005602052604081208c519091908d9082908110611d7c57fe5b6020908102909101810151600160a060020a031682528101919091526040016000205410611e445760009150611df0611dc0600c548661256a90919063ffffffff16565b600d546101009004600160a060020a031660009081526005602052604081208d519091908e908290811061195b57fe5b600d546101009004600160a060020a031660009081526005602052604081208c519091908d9082908110611e2057fe5b6020908102909101810151600160a060020a03168252810191909152604001600020555b611eb7611e6983611e5d8c6000815181101515611cb457fe5b9063ffffffff61255816565b600560008d6003815181101515611e7c57fe5b90602001906020020151600160a060020a0316600160a060020a0316815260200190815260200160002060008d6000815181101515611b3f57fe5b600560008c6003815181101515611eca57fe5b90602001906020020151600160a060020a0316600160a060020a0316815260200190815260200160002060008c6000815181101515611f0557fe5b90602001906020020151600160a060020a0316600160a060020a0316815260200190815260200160002081905550611fcb611f7d8a6000815181101515611f4857fe5b90602001906020020151610ad48c6002815181101515611f6457fe5b906020019060200201518d600181518110151561184b57fe5b600560008d6003815181101515611f9057fe5b90602001906020020151600160a060020a0316600160a060020a0316815260200190815260200160002060008d600181518110151561195b57fe5b600560008c6003815181101515611fde57fe5b90602001906020020151600160a060020a0316600160a060020a0316815260200190815260200160002060008c600181518110151561201957fe5b90602001906020020151600160a060020a0316600160a060020a031681526020019081526020016000208190555061205e82600560008d6003815181101515611c0157fe5b600560008c600381518110151561207157fe5b6020908102909101810151600160a060020a0390811683528282019390935260409182016000908120600280549095168252909152209190915589516120e2918b9181106120bb57fe5b6020908102909101810151600089815260069092526040909120549063ffffffff61254516565b60008781526006602052604090205560085460ff161561233f5760095461211090859063ffffffff61256a16565b600854600160a060020a036201000090910481166000908152600560209081526040808320600a5490941683529290522054909150811161233f57811561224457600854600160a060020a036201000090910481166000908152600560209081526040808320600a5490941683529290522054612193908263ffffffff61255816565b60088054600160a060020a03620100009182900481166000908152600560208181526040808420600a5486168552825280842097909755945493909304909116815291529081208b516121ef928492918e9082908110611b3f57fe5b600854620100009004600160a060020a031660009081526005602052604081208c519091908d908290811061222057fe5b6020908102909101810151600160a060020a03168252810191909152604001600020555b821561233f57600854600160a060020a036201000090910481166000908152600560209081526040808320600a549094168352929052205461228c908263ffffffff61255816565b60088054600160a060020a03620100009182900481166000908152600560208181526040808420600a5486168552825280842097909755945493909304909116815291529081208b516122e9928492918e906001908110611b3f57fe5b600854620100009004600160a060020a031660009081526005602052604081208c519091908d90600190811061231b57fe5b6020908102909101810151600160a060020a03168252810191909152604001600020555b50505050505050505050565b600154600160a060020a0316331461236257600080fd5b6001805473ffffffffffffffffffffffffffffffffffffffff1916600160a060020a0392909216919091179055565b600854620100009004600160a060020a031681565b600154600160a060020a031633146123bd57600080fd5b60088054600160a060020a03909216620100000275ffffffffffffffffffffffffffffffffffffffff000019909216919091179055565b600d546101009004600160a060020a031681565b600154600160a060020a0316331461241f57600080fd5b600880549115156101000261ff0019909216919091179055565b600560209081526000928352604080842090915290825290205481565b600254600160a060020a031681565b600154600160a060020a0316331461247c57600080fd5b600d805460ff1916911515919091179055565b600154600160a060020a031633146124a657600080fd5b600d8054600160a060020a039092166101000274ffffffffffffffffffffffffffffffffffffffff0019909216919091179055565b60035481565b600154600160a060020a031633146124f857600080fd5b600c55565b60076020526000908152604090205460ff1681565b60046020526000908152604090205481565b60066020526000908152604090205481565b600054600160a060020a031681565b8181018281101561255257fe5b92915050565b60008282111561256457fe5b50900390565b600082151561257b57506000612552565b5081810281838281151561258b57fe5b041461255257fe5b600081838115156125a057fe5b049392505050565b604080518082018252601c8082527f19457468657265756d205369676e6564204d6573736167653a0a33320000000060208084019182529351600094859385938b939092019182918083835b602083106126135780518252601f1990920191602091820191016125f4565b51815160209384036101000a600019018019909216911617905292019384525060408051808503815293820190819052835193945092839250908401908083835b602083106126735780518252601f199092019160209182019101612654565b51815160209384036101000a600019018019909216911617905260408051929094018290038220600080845283830180875282905260ff8e1684870152606084018d9052608084018c905294519097506001965060a080840196509194601f19820194509281900390910191865af11580156126f3573d6000803e3d6000fd5b5050604051601f190151989750505050505050505600a165627a7a7230582033dfe7b4b5b5362c3f860da7e8d28b1f5e0b92606665320ac02c8bb73ecce4300029",
  "source": "pragma solidity ^0.4.22;\n\nimport \"openzeppelin-solidity/contracts/math/SafeMath.sol\";\nimport \"openzeppelin-solidity/contracts/token/ERC20/StandardToken.sol\";\n\ncontract Exchange {\n    using SafeMath for uint;\n\n    address public server;\n    address public owner;\n    address public feeCollector;\n    uint public timelock;\n    mapping (address => uint) public lastActivity;\n    mapping (address => mapping (address => uint)) public balances;\n    mapping (bytes32 => uint) public orderFills;\n    mapping (bytes32 => bool) public traded;\n    bool public airdropStatus;\n    bool public manualWithdraws;\n    address public airdropTokenAddress;\n    uint public airdropRatePerEth;\n    address public airdropAccountAddress;\n\n    event Deposit(address token, address account, uint amount, uint balance);\n    event Withdraw(address token, address account, uint amount, uint balance);\n    event Trade(address tokenBuy, uint amountBuy, address tokenSell, uint amountSell, address get, address give);\n    event Order(address exchange, address maker, address giveToken, uint giveAmount, address takeToken, uint takeAmount, uint nonce, uint expiry, bytes payload, bytes32 orderHash);\n\n    modifier serverOnly {\n        require(msg.sender == server);\n        _;\n    }\n\n    modifier ownerOnly {\n        require(msg.sender == owner);\n        _;\n    }\n\n    constructor() public {\n        server = msg.sender;\n        feeCollector = msg.sender;\n        owner = msg.sender;\n        timelock = 100000;\n        airdropAccountAddress = msg.sender;\n        airdropStatus = false;\n        manualWithdraws = false;\n    }\n\n    function setAirdropStatus(bool _status) public ownerOnly {\n        airdropStatus = _status;\n    }\n\n    function setManualWithdraws(bool _status) public ownerOnly {\n        manualWithdraws = _status;\n    }\n\n    function setAirdropTokenAddress(address _address) public ownerOnly {\n        airdropTokenAddress = _address;\n    }\n\n    function setAirdropRatePerEth(uint _ratePerEth) public ownerOnly {\n        airdropRatePerEth = _ratePerEth;\n    } \n\n    function changeAirdropAccountAddress(address _address) public ownerOnly {\n        airdropAccountAddress = _address;\n    }\n\n    function changeFeeCollector(address _feeCollector) public ownerOnly {\n        feeCollector = _feeCollector;\n    }\n\n    function changeServer(address _server) public ownerOnly {\n        server = _server;\n    }\n\n    function changeOwner(address _owner) public ownerOnly {\n        owner = _owner;\n    }\n\n    function setTimelock(uint _duration) public ownerOnly {\n        require(_duration <= 1000000);\n        timelock = _duration;\n    }\n\n    mapping (address => bool) public useFeeToken;\n    uint public feeTokenRatePerEth;\n    bool public feeTokenStatus;\n    address public feeTokenAddress;\n\n    function setFeeTokenRatePerEth(uint _rate) public ownerOnly {\n        feeTokenRatePerEth = _rate;\n    }\n\n    function setFeeTokenStatus(bool _status) public ownerOnly {\n        feeTokenStatus = _status;\n    }\n\n    function setFeeTokenAddress(address _address) public ownerOnly {\n        feeTokenAddress = _address;\n    }\n\n    function deposit(address _token, uint _amount) public payable {\n        lastActivity[msg.sender] = block.number;\n        if (_token == 0) {\n            require(msg.value == _amount);\n            balances[0][msg.sender] = balances[0][msg.sender].add(msg.value);\n        } else {\n            require(msg.value == 0);\n            balances[_token][msg.sender] = balances[_token][msg.sender].add(_amount);\n            require(StandardToken(_token).transferFrom(msg.sender, this, _amount));\n        }\n        emit Deposit(_token, msg.sender, _amount, balances[_token][msg.sender]);\n    }\n\n    function withdraw(address _token, uint _amount, address _account, uint _fee) public serverOnly {\n        lastActivity[_account] = block.number;\n        require(balances[_token][_account] >= _amount);\n        balances[_token][_account] = balances[_token][_account].sub(_amount);\n        if (_fee > 50 finney) _fee = 50 finney;\n        _fee = (_fee.mul(_amount)).div(1 ether);\n        balances[_token][feeCollector] = balances[_token][feeCollector].add(_fee);\n        _amount = _amount.sub(_fee);\n        if (_token == 0) {\n            require(_account.send(_amount));\n        } else {\n            require(StandardToken(_token).transfer(_account, _amount));\n        }\n        emit Withdraw(_token, _account, _amount, balances[_token][_account]);\n    }\n\n    function withdrawEmergency(address _token, uint _amount) public {\n        require(manualWithdraws);\n        require(block.number.sub(lastActivity[msg.sender]) > timelock);\n        lastActivity[msg.sender] = block.number;\n        require(balances[_token][msg.sender] >= _amount);\n        balances[_token][msg.sender] = balances[_token][msg.sender].sub(_amount);\n        if (_token == 0) {\n            require(msg.sender.send(_amount));\n        } else {\n            require(StandardToken(_token).transfer(msg.sender, _amount));\n        }\n        emit Withdraw(_token, msg.sender, _amount, balances[_token][msg.sender]);\n    }\n\n    function trade(address[] _addresses, uint[] _uints, uint8[] v, bytes32[] rs) public serverOnly {\n        /*\n            _addresses[0] == maker\n            _addresses[1] == taker\n            _addresses[2] == giveToken\n            _addresses[3] == takeToken\n            _uints[0] == giveAmount\n            _uints[1] == takeAmount\n            _uints[2] == fillAmount\n            _uints[3] == makerNonce\n            _uints[4] == takerNonce\n            _uints[5] == makerFee\n            _uints[6] == takerFee\n            _uints[7] == expiry\n            v[0] == makerV\n            v[1] == takerV\n            rs[0]..[1] == makerR, makerS\n            rs[2]..[3] == takerR, takerS\n        */\n        require(cancelledOrders[_addresses[0]] < _uints[3]);\n        lastActivity[_addresses[0]] = block.number;\n        lastActivity[_addresses[1]] = block.number;\n        bytes32 orderHash = keccak256(abi.encodePacked(this, _addresses[0], _addresses[2], _uints[0], _addresses[3], _uints[1], _uints[3], _uints[7]));\n        require(!cancelled[orderHash]);\n        require(recover(orderHash, v[0], rs[0], rs[1]) == _addresses[0]);\n        bytes32 tradeHash = keccak256(abi.encodePacked(this, orderHash, _addresses[1], _uints[2], _uints[4]));\n        require(recover(tradeHash, v[1], rs[2], rs[3]) == _addresses[1]);\n        require(!traded[tradeHash]);\n        traded[tradeHash] = true;\n        if (_uints[5] > 5 finney) _uints[5] = 5 finney;\n        if (_uints[6] > 5 finney) _uints[6] = 5 finney;\n        require(balances[_addresses[2]][_addresses[0]] >= _uints[2]);\n        require(balances[_addresses[3]][_addresses[1]] >= (_uints[1].div(_uints[0])).mul(_uints[2]));\n        require(orderFills[orderHash].add(_uints[2]) <= _uints[0]);\n        uint totalTradedAmount = _uints[0];\n        if (_addresses[3] == 0) totalTradedAmount = _uints[1];\n        uint takerFee = (_uints[6].mul(_uints[2])).div(1 ether);\n        if (useFeeToken[_addresses[1]]) {\n            if (balances[feeTokenAddress][_addresses[1]] >= totalTradedAmount.mul(feeTokenRatePerEth)) {\n                takerFee = 0;\n                balances[feeTokenAddress][_addresses[1]] = balances[feeTokenAddress][_addresses[1]].sub(totalTradedAmount.mul(feeTokenRatePerEth));\n            }\n        }\n        balances[_addresses[2]][_addresses[0]] = balances[_addresses[2]][_addresses[0]].sub(_uints[2]);\n        balances[_addresses[2]][_addresses[1]] = balances[_addresses[2]][_addresses[1]].add((_uints[2]).sub(takerFee));\n        balances[_addresses[2]][feeCollector] = balances[_addresses[2]][feeCollector].add(takerFee);\n        uint makerFee = (_uints[5].mul((_uints[1].mul(_uints[2])).div(_uints[0]))).div(1 ether);\n        if (useFeeToken[_addresses[0]]) {\n            if (balances[feeTokenAddress][_addresses[0]] >= totalTradedAmount.mul(feeTokenRatePerEth)) {\n                makerFee = 0;\n                balances[feeTokenAddress][_addresses[0]] = balances[feeTokenAddress][_addresses[0]].sub(totalTradedAmount.mul(feeTokenRatePerEth));\n            }\n        }\n        balances[_addresses[3]][_addresses[0]] = balances[_addresses[3]][_addresses[0]].add(((_uints[1].mul(_uints[2])).div(_uints[0])).sub(makerFee));\n        balances[_addresses[3]][_addresses[1]] = balances[_addresses[3]][_addresses[1]].sub((_uints[1].mul(_uints[2])).div(_uints[0]));\n        balances[_addresses[3]][feeCollector] = balances[_addresses[3]][feeCollector].add(makerFee);\n        orderFills[orderHash] = orderFills[orderHash].add(_uints[2]);\n        if (airdropStatus) {\n            uint airdropAmount = totalTradedAmount.mul(airdropRatePerEth);\n            if (balances[airdropTokenAddress][airdropAccountAddress] >= airdropAmount) {\n                if (makerFee != 0) {\n                    balances[airdropTokenAddress][airdropAccountAddress] = balances[airdropTokenAddress][airdropAccountAddress].sub(airdropAmount);\n                    balances[airdropTokenAddress][_addresses[0]] = balances[airdropTokenAddress][_addresses[0]].add(airdropAmount);\n                }\n                if (takerFee != 0) {\n                    balances[airdropTokenAddress][airdropAccountAddress] = balances[airdropTokenAddress][airdropAccountAddress].sub(airdropAmount);\n                    balances[airdropTokenAddress][_addresses[1]] = balances[airdropTokenAddress][_addresses[1]].add(airdropAmount);\n                }\n            }\n        }\n    }\n\n    function recover(bytes32 _hash, uint8 v, bytes32 r, bytes32 s) private pure returns (address) {\n        bytes memory prefix = \"\\x19Ethereum Signed Message:\\n32\";\n        bytes32 hash = keccak256(abi.encodePacked(prefix, _hash));\n        return ecrecover(hash, v, r, s);\n    }\n  \n    mapping (address => uint256) public cancelledOrders;\n    mapping (bytes32 => bool) public cancelled;\n    \n    function bulkCancelOrders(address _account, uint256 _nonce) public serverOnly {\n        require(_nonce > cancelledOrders[_account]);\n        cancelledOrders[_account] = _nonce;\n    }\n\n    function cancelOrder (bytes32 _hash) public serverOnly {\n        cancelled[_hash] = true;\n    }\n\n    function() external {\n        revert();\n    }\n}\n\n",
  "sourcePath": "/Users/hieu/dev/ninjatrade-contracts/contracts/Exchange.sol",
  "compiler": {
    "name": "solc",
    "version": "0.4.24+commit.e67f0147.Emscripten.clang"
  },
  "schemaVersion": "2.0.1",
  "updatedAt": "2019-04-18T06:40:34.925Z"
}