{
  "contractName": "RedBlackTree",
  "abi": [
    {
      "constant": true,
      "inputs": [
        {
          "name": "tree",
          "type": "RedBlackTree.Tree storage"
        },
        {
          "name": "id",
          "type": "uint64"
        }
      ],
      "name": "getItem",
      "outputs": [
        {
          "name": "parent",
          "type": "uint64"
        },
        {
          "name": "left",
          "type": "uint64"
        },
        {
          "name": "right",
          "type": "uint64"
        },
        {
          "name": "value",
          "type": "uint256"
        },
        {
          "name": "red",
          "type": "bool"
        }
      ],
      "payable": false,
      "stateMutability": "view",
      "type": "function"
    },
    {
      "constant": true,
      "inputs": [
        {
          "name": "tree",
          "type": "RedBlackTree.Tree storage"
        },
        {
          "name": "value",
          "type": "uint256"
        }
      ],
      "name": "find",
      "outputs": [
        {
          "name": "parentId",
          "type": "uint64"
        }
      ],
      "payable": false,
      "stateMutability": "view",
      "type": "function"
    }
  ],
  "bytecode": "0x610273610030600b82828239805160001a6073146000811461002057610022565bfe5b5030600052607381538281f30073000000000000000000000000000000000000000030146080604052600436106100625763ffffffff7c01000000000000000000000000000000000000000000000000000000006000350416632eb1bb0f8114610067578063eb9d50e4146100ba575b600080fd5b61007f60043567ffffffffffffffff602435166100e5565b6040805167ffffffffffffffff9687168152948616602086015292909416838301526060830152911515608082015290519081900360a00190f35b6100c8600435602435610163565b6040805167ffffffffffffffff9092168252519081900360200190f35b60008080808067ffffffffffffffff8616151561010157600080fd5b50505067ffffffffffffffff928316600090815260019485016020526040902080549401546101008504841695690100000000000000000086048516957101000000000000000000000000000000000081049095169491935060ff9091169150565b815467ffffffffffffffff16805b67ffffffffffffffff8116156102405767ffffffffffffffff811660009081526001808601602052604090912001548314156101ac57610240565b67ffffffffffffffff8116600090815260018086016020526040909120015490915081908310156102075767ffffffffffffffff9081166000908152600185016020526040902054690100000000000000000090041661023b565b67ffffffffffffffff9081166000908152600185016020526040902054710100000000000000000000000000000000009004165b610171565b50929150505600a165627a7a7230582028540afdc812ec43c7e7a3eb46bf332cf6bfb5247274aac1a8af79d807ac7e570029",
  "source": "// https://github.com/AtlantPlatform/rbt-solidity\n\npragma solidity ^0.4.11;\n\nlibrary RedBlackTree {\n\n    struct Item {\n        bool red;\n        uint64 parent;\n        uint64 left;\n        uint64 right;\n        uint value;\n    }\n\n    struct Tree {\n        uint64 root;\n        mapping(uint64 => Item) items;\n    }\n\n    function getItem(Tree storage tree, uint64 id) public constant returns (uint64 parent, uint64 left, uint64 right, uint value, bool red) {\n        require(id != 0);\n        parent = tree.items[id].parent;\n        left = tree.items[id].left;\n        right = tree.items[id].right;\n        value = tree.items[id].value;\n        red = tree.items[id].red;\n    }\n\n    function find(Tree storage tree, uint value) public constant returns (uint64 parentId) {\n        uint64 id = tree.root;\n        parentId = id;\n        while (id != 0) {\n            if (value == tree.items[id].value) {\n                return;\n            }\n            \n            parentId = id;\n            if (value < tree.items[id].value) {\n                id = tree.items[id].left;\n            } else {\n                id = tree.items[id].right;\n            }\n        }\n    }\n\n    function insert(Tree storage tree, uint64 id, uint value) internal {\n        uint64 parent = find(tree, value);\n        placeAfter(tree, parent, id, value);\n    }\n\n    function placeAfter(Tree storage tree, uint64 parent, uint64 id, uint value) internal {\n        Item memory item;        \n        item.value = value;\n        item.parent = parent;\n        item.red = true;\n        if (parent != 0) {\n            if (value < tree.items[parent].value) {\n                tree.items[parent].left = id;\n            } else {\n                tree.items[parent].right = id;\n            }\n        } else {\n            tree.root = id;\n        }        \n        tree.items[id] = item;\n        insert1(tree, id);\n    }\n\n    function insert1(Tree storage tree, uint64 n) private {\n        uint64 p = tree.items[n].parent;\n        if (p == 0) {\n            tree.items[n].red = false;\n        } else {\n            if (tree.items[p].red) {\n                uint64 g = grandparent(tree, n);\n                uint64 u = uncle(tree, n);\n                if (u != 0 && tree.items[u].red) {\n                    tree.items[p].red = false;\n                    tree.items[u].red = false;\n                    tree.items[g].red = true;\n                    insert1(tree, g);\n                } else {\n                    if ((n == tree.items[p].right) && (p == tree.items[g].left)) {\n                        rotateLeft(tree, p);\n                        n = tree.items[n].left;\n                    } else if ((n == tree.items[p].left) && (p == tree.items[g].right)) {\n                        rotateRight(tree, p);\n                        n = tree.items[n].right; \n                    }\n\n                    insert2(tree, n);\n                }\n            }\n        }\n    }\n\n    function insert2(Tree storage tree, uint64 n) internal {\n        uint64 p = tree.items[n].parent;\n        uint64 g = grandparent(tree, n);\n\n        tree.items[p].red = false;\n        tree.items[g].red = true;\n\n        if ((n == tree.items[p].left) && (p == tree.items[g].left)) {\n            rotateRight(tree, g);\n        } else {\n            rotateLeft(tree, g);\n        }\n    }\n\n    function remove(Tree storage tree, uint64 n) internal {\n        uint64 successor;\n        uint64 nRight = tree.items[n].right;\n        uint64 nLeft = tree.items[n].left;\n        if (nRight != 0 && nLeft != 0) {\n            successor = nRight;\n            while (tree.items[successor].left != 0) {\n                successor = tree.items[successor].left;\n            }\n            uint64 sParent = tree.items[successor].parent;\n            if (sParent != n) {\n                tree.items[sParent].left = tree.items[successor].right;\n                tree.items[successor].right = nRight;\n                tree.items[sParent].parent = successor;\n            }\n            tree.items[successor].left = nLeft;\n            if (nLeft != 0) {\n                tree.items[nLeft].parent = successor;\n            }\n        } else if (nRight != 0) {\n            successor = nRight;\n        } else {\n            successor = nLeft;\n        }\n        \n        uint64 p = tree.items[n].parent;\n        tree.items[successor].parent = p;\n\n        if (p != 0) {\n            if (n == tree.items[p].left) {\n                tree.items[p].left = successor; \n            } else {\n                tree.items[p].right = successor;\n            }\n        } else {\n            tree.root = successor;\n        }\n\n        if (!tree.items[n].red) {\n            if (tree.items[successor].red) {\n                tree.items[successor].red = false;\n            } else {\n                delete1(tree, successor);\n            }\n        }\n        delete tree.items[n];\n        delete tree.items[0];\n    }\n\n    function delete1(Tree storage tree, uint64 n) private {\n        uint64 p = tree.items[n].parent;\n        if (p != 0) {\n            uint64 s = sibling(tree, n);\n            if (tree.items[s].red) {\n                tree.items[p].red = true;\n                tree.items[s].red = false;\n                if (n == tree.items[p].left) {\n                    rotateLeft(tree, p);\n                } else {\n                    rotateRight(tree, p);\n                }\n            }\n            delete2(tree, n);\n        }\n    }\n\n    function delete2(Tree storage tree, uint64 n) private {\n        uint64 s = sibling(tree, n);\n        uint64 p = tree.items[n].parent;\n        uint64 sLeft = tree.items[s].left;\n        uint64 sRight = tree.items[s].right;\n        if (!tree.items[p].red && \n            !tree.items[s].red && \n            !tree.items[sLeft].red && \n            !tree.items[sRight].red) \n        {\n            tree.items[s].red = true;\n            delete1(tree, p);\n        } else {\n             if (tree.items[p].red && \n                !tree.items[s].red && \n                !tree.items[sLeft].red && \n                !tree.items[sRight].red) \n            {\n                tree.items[s].red = true;\n                tree.items[p].red = false;\n            } else {\n                if (!tree.items[s].red) {\n                    if (n == tree.items[p].left && \n                        !tree.items[sRight].red &&\n                        tree.items[sLeft].red) \n                    {\n                        tree.items[s].red = true;\n                        tree.items[sLeft].red = false;\n                        rotateRight(tree, s);\n                    } else if (n == tree.items[p].right && \n                        !tree.items[sLeft].red &&\n                        tree.items[sRight].red) \n                    {\n                        tree.items[s].red = true;\n                        tree.items[sRight].red = false;\n                        rotateLeft(tree, s);\n                    }\n                }\n\n                tree.items[s].red = tree.items[p].red;\n                tree.items[p].red = false;\n\n                if (n == tree.items[p].left) {\n                    tree.items[sRight].red = false;\n                    rotateLeft(tree, p);\n                } else {\n                    tree.items[sLeft].red = false;\n                    rotateRight(tree, p);\n                }\n            }\n        }\n    }\n\n    function grandparent(Tree storage tree, uint64 n) private returns (uint64) {\n        return tree.items[tree.items[n].parent].parent;\n    }\n\n    function uncle(Tree storage tree, uint64 n) private returns (uint64) {\n        uint64 g = grandparent(tree, n);\n        if (g == 0)\n            return 0;\n        \n        if (tree.items[n].parent == tree.items[g].left)\n            return tree.items[g].right;\n        return tree.items[g].left;\n    }\n\n    function sibling(Tree storage tree, uint64 n) private returns (uint64) {\n        uint64 p = tree.items[n].parent;\n        if (n == tree.items[p].left) {\n            return tree.items[p].right;\n        } else {\n            return tree.items[p].left;\n        }\n    }\n\n    function rotateRight(Tree storage tree, uint64 n) private {\n        uint64 pivot = tree.items[n].left;\n        uint64 p = tree.items[n].parent;\n        tree.items[pivot].parent = p;\n        if (p != 0) {\n            if (tree.items[p].left == n) {\n                tree.items[p].left = pivot;\n            } else {\n                tree.items[p].right = pivot;\n            }\n        } else {\n            tree.root = pivot;\n        }\n\n        tree.items[n].left = tree.items[pivot].right;\n        if (tree.items[pivot].right != 0) {\n            tree.items[tree.items[pivot].right].parent = n;\n        }\n\n        tree.items[n].parent = pivot;\n        tree.items[pivot].right = n;\n    }\n\n    function rotateLeft(Tree storage tree, uint64 n) private {\n        uint64 pivot = tree.items[n].right;\n        uint64 p = tree.items[n].parent;\n        tree.items[pivot].parent = p;\n        if (p != 0) {\n            if (tree.items[p].left == n) {\n                tree.items[p].left = pivot;\n            } else {\n                tree.items[p].right = pivot;\n            }\n        } else {\n            tree.root = pivot;\n        }\n\n        tree.items[n].right = tree.items[pivot].left;\n        if (tree.items[pivot].left != 0) {\n            tree.items[tree.items[pivot].left].parent = n;\n        }\n\n        tree.items[n].parent = pivot;\n        tree.items[pivot].left = n;\n    }\n}",
  "sourcePath": "/Users/hieu/dev/odin-contracts/contracts/lib/RedBlackTree.sol",
  "compiler": {
    "name": "solc",
    "version": "0.4.24+commit.e67f0147.Emscripten.clang"
  },
  "schemaVersion": "2.0.1",
  "updatedAt": "2018-09-17T16:03:59.978Z"
}